:100000000C945E000C9486000C9486000C94860080
:100010000C9486000C9486000C9486000C94860048
:100020000C9486000C9486000C9486000C94860038
:100030000C9486000C9486000C9486000C94860028
:100040000C94E0050C9486000C94FC070C94380882
:100050000C9486000C9486000C9486000C94860008
:100060000C9486000C94860000000007000201003A
:100070000003040600000000000000000102040864
:100080001020408001020408102001020408102002
:10009000040404040404040402020202020203032E
:1000A0000303030300000000250028002B000000CC
:1000B0000000240027002A009405F30811241FBE25
:1000C000CFEFD8E0DEBFCDBF11E0A0E0B1E0E4EDBE
:1000D000FAE102C005900D92AE3BB107D9F712E0EC
:1000E000AEEBB1E001C01D92AB3CB107E1F710E00F
:1000F000CCEBD0E004C02297FE010E94640DC83B07
:10010000D107C9F70E9443090C94220B0C940000FC
:100110000F931F93FC017183608355834483338362
:1001200022831286138614861586118610861686FB
:10013000178306831F910F910895FC01808191819F
:100140000895FC01808591850895CB01BA0123E3D0
:1001500033EF4BE454E40E94250B26E636E64EEFDF
:1001600050E40E948E0B0E94F60B6A30710524F059
:100170006B35710524F405C06AE070E002C06AE5E1
:1001800070E0CB010895EF92FF920F931F93CF93EE
:10019000DF93EC018E810E94BF05BC01882777FDAB
:1001A0008095982F0E94290C2AE038E240EA5BE310
:1001B0000E94DD0C9B01AC0160E070E080EA90E4FD
:1001C0000E948E0B20E030E040E85FE30E94250BA8
:1001D00020E030E44CE156E40E94DD0C7B018C0110
:1001E00020E030E048E454E47F2D912F0E948A0BF8
:1001F00087FD0CC020E030E844ED54E46E2D7F2DE7
:10020000802F912F0E94D90C18161CF481E08E8744
:1002100001C01E866E2D7F2D802F912FDF91CF91F3
:100220001F910F91FF90EF900895CF93DF93EC0112
:100230000E94C300AB01BC014A875B876C877D8746
:10024000CE010E94A50099878887DF91CF910895FC
:10025000FC0186850895AF92CF92EF92FF920F93A3
:100260001F93CF93DF93CDB7DEB72B970FB6F894DC
:10027000DEBF0FBECDBF9AE0E1E0F1E0DE011196F6
:1002800001900D929A95E1F781E090E08C0F9D1F0F
:10029000680F791FFB01F080F4FA662760F9822F5E
:1002A0004B870E942907F2FA662760F98E2D0E947B
:1002B00029076F2D61708A2D0E942907F5FA66279C
:1002C00060F94B85842F0E942907F3FA662760F9AD
:1002D000802F0E942907F1FA662760F98C2D2B9652
:1002E0000FB6F894DEBF0FBECDBFDF91CF911F9147
:1002F0000F91FF90EF90CF90AF900C942907CF9380
:10030000DF93EC01688179814AE050E084E292E079
:100310000E946F0A6BE071E084E292E00E9488091B
:100320004A855B856C857D8522E030E084E292E041
:100330000E94200B6BE071E084E292E00E94880949
:10034000688579854AE050E084E292E00E946F0A75
:100350006BE071E084E292E0DF91CF910C94880928
:10036000CF92DF92EF92FF920F931F93CF93DF9381
:10037000EC01488359836A837B830C831D832E831E
:100380003F83C886D986EA86FB860E942A066CA32C
:100390007DA38EA39FA3DF91CF911F910F91FF901B
:1003A000EF90DF90CF900895CF93DF93EC01CB01D6
:1003B000BA010E94F60B7FA76EA7DF91CF91089537
:1003C000CF93DF93EC01CB01BA010E94F60B7DA71E
:1003D0006CA7DF91CF910895FC0166A577A58827CA
:1003E00077FD8095982F0E94290C0895FC0164A543
:1003F00075A5882777FD8095982F0E94290C089570
:100400002F923F924F925F926F927F928F929F9224
:10041000AF92BF92CF92DF92EF92FF920F931F9312
:10042000CF93DF93CDB7DEB764970FB6F894DEBFF6
:100430000FBECDBF9C8B8B8B6A017B0128013901DC
:100440000E942A064B015C01EB89FC8984A195A1DD
:10045000A6A1B7A1A5019401281B390B4A0B5B0B80
:10046000DA01C90180369A4EA105B10548F440A1D0
:10047000498351A15A8382A18B8393A19C833BC161
:10048000A7019601C301B2010E94250B6D837E83F3
:100490008F839887AB89BC8998962D913D914D911A
:1004A0005C919B970E94260B1B018C01862F932D3C
:1004B000A02FB12FEB89FC8980A791A7A2A7B3A792
:1004C00066A577A5882777FD8095982F0E94290C2F
:1004D00069877A878B879C8769837A838B839C83E0
:1004E000762F6A85982F8C85272F362F492F582FE6
:1004F000622D732D802F912F0E94D90C18167CF439
:1005000059854A853B852C85852F942FA32FB22FA3
:10051000EB89FC8980A791A7A2A7B3A71EC0AB89CE
:10052000BC899C966D917C919D97882777FD8095DD
:10053000982F0E94290C2B013C019B01AC01622DDC
:10054000732D802F912F0E948A0B87FF06C0EB89A5
:10055000FC8940A651A662A673A6AB89BC89989671
:100560002D913D914D915C919B972D873E874F87B3
:10057000588B5C962D913D914D915C915F97C70191
:10058000B6010E94250B362E272E898B9A8BEB897C
:10059000FC892081318142815381BD81AE811F81DF
:1005A00008856B2F7A2F812F902F0E94DD0C2B0155
:1005B0003C01AB89BC8914962D913D914D915C9184
:1005C00017976D857E858F8598890E94DD0C9B012C
:1005D000AC01C301B2010E94260B2B013C01EB8947
:1005E000FC892085318542855385D10119890A8985
:1005F0006B2F7A2F812F902F0E94DD0C9B01AC0175
:10060000C301B2010E94250B3B018C0179856A85EB
:100610009B858C85272F362F492F582F662D772DB8
:10062000802F912F0E94D90C181624F1AB89BC8918
:100630009C966D917C919D97882777FD8095982F4A
:100640000E94290C69837A838B839C83762F6A812D
:10065000982F8C81272F362F492F582F662D772DD5
:10066000802F912F0E948A0B87FD04C069827A82B5
:100670000B831C83EB89FC89C48ED58EE68EF78EA6
:100680005D814E813F812885852F942FA32FB22F26
:10069000808F918FA28FB38F59814A813B812C81AA
:1006A000852F942FA32FB22F80A391A3A2A3B3A32E
:1006B0005D814E813F812885852F942FA32FB22FF6
:1006C00080AB91ABA2ABB3AB2D853E854F855889EE
:1006D00024AB35AB46AB57ABA10139892A89852FAD
:1006E000922DA32FB22F80AF91AFA2AFB3AF84A250
:1006F00095A2A6A2B7A259814A813B812C81652F80
:10070000742F832F922F64960FB6F894DEBF0FBE1E
:10071000CDBFDF91CF911F910F91FF90EF90DF90B0
:10072000CF90BF90AF909F908F907F906F905F9091
:100730004F903F902F900895FC0164A175A186A170
:1007400097A10895CF93DF93EC014C8D5D8D6E8D55
:100750007F8D22E030E084E292E00E94200B6BE08B
:1007600071E084E292E00E948809488D598D6A8D7B
:100770007B8D22E030E084E292E00E94200B6BE06F
:1007800071E084E292E00E94880948A159A16AA11F
:100790007BA122E030E084E292E00E94200B6BE03B
:1007A00071E084E292E00E94880948A959A96AA9E7
:1007B0007BA922E030E084E292E00E94200B6BE013
:1007C00071E084E292E00E9488094CA95DA96EA9BB
:1007D0007FA922E030E084E292E00E94200B6BE0EF
:1007E00071E084E292E00E94880948AD59AD6AAD9B
:1007F0007BAD22E030E084E292E00E94200B6BE0CF
:1008000071E084E292E0DF91CF910C948809AF927D
:10081000BF92CF92DF92EF92FF920F931F93CF93ED
:10082000DF9361E082E00E94F10661E083E00E94D4
:10083000F10661E084E00E94F10661E085E00E943B
:10084000F10661E086E00E94F10661E087E00E9427
:10085000F10661E08DE00E94F10661E08CE00E940B
:10086000F10640E050E0BA018EEB91E00E94E00119
:1008700040E050E068E473E48EEB91E00E94D40124
:1008800040E855E260E070E084E292E00E94730884
:100890006EE071E084E292E00E948809C1E0D0E05D
:1008A00083E0A82EB12C92E0C92ED12C25E0E22EB7
:1008B000F12C04E010E027E030E046E050E0BE011B
:1008C0008AEF91E00E942B016EEE72E080E090E0F2
:1008D0000E9466062196CB30D10511F766E471E0DF
:1008E00084E292E00E94A70969E471E084E292E068
:1008F0000E94880922E030E040E050E060E470E4CB
:1009000084E292E00E94200B22E030E04DEC5CECAF
:100910006CE47FE384E292E00E94200B22E030E06E
:1009200040E050E060E87FE384E292E00E94200B28
:1009300084E292E00E94910966E571E084E292E02F
:100940000E94880984E292E0DF91CF911F910F917C
:10095000FF90EF90DF90CF90BF90AF900C949109F3
:100960004F925F926F927F928F929F92AF92BF92BF
:10097000CF92DF92EF92FF920F931F93CF93DF936B
:1009800000D000D0CDB7DEB78AEF91E00E9415010C
:100990008AEF91E00E94A1005C018AEF91E00E9441
:1009A0009D00BC01882777FD8095982F0E94290C17
:1009B0006B017C01B501882777FD8095982F0E94F7
:1009C000290CAB01BC01970186018EEB91E00E94DE
:1009D00000022B013C018EEB91E00E94EC014B01E7
:1009E0005C018EEB91E00E94F60169837A838B8330
:1009F0009C8320E030E040E251E4C301B2010E9458
:100A0000260B6B017C0129813A814B815C81C501F8
:100A1000B4010E94250B9B01AC0160E070E080E115
:100A200091E40E948E0B9B01AC01C701B6010E94AC
:100A3000DD0C0E94F60B33E0A32EB12C42E0C42E55
:100A4000D12C55E0E52EF12C04E010E027E030E059
:100A500046E050E08AEF91E00E942B0161EA71E0EC
:100A600084E292E00E9488098EEB91E00E949C0350
:100A7000AB01BC012AE030E084E292E00E94170A58
:100A80006BE071E084E292E00E94880922E030E0AD
:100A9000B301A20184E292E00E94200B6BE071E0BE
:100AA00084E292E00E9488098AEF91E00E947F012F
:100AB0008EEB91E00E94A20367EA71E084E292E08B
:100AC0000E94880984E292E00E9491098AEF91E0F5
:100AD0000E942801882331F061E08DE00E942907FF
:100AE00060E005C060E08DE00E94290761E08CE0D5
:100AF0000E94290760E177E280E090E00F900F907C
:100B00000F900F90DF91CF911F910F91FF90EF9079
:100B1000DF90CF90BF90AF909F908F907F906F901D
:100B20005F904F900C946606CF92DF92EF92FF9207
:100B30000F931F930EE010E02DE030E04CE050E00A
:100B40006CE370E08AEF91E00E948800C12CD12C08
:100B500060E8E62E6FE3F62E0DEC1CEC2CE43FE390
:100B600040E050E060E470E48EEB91E00E94B00160
:100B70001F910F91FF90EF90DF90CF9008958E30EE
:100B800008F08E5087702091000140E4249F90016E
:100B90001124822B80937C0080917A008064809362
:100BA0007A0080917A0086FDFCCF20917800309108
:100BB0007900932F80E0AC01422B9A01C90108957E
:100BC0001F920F920FB60F9211242F933F938F9382
:100BD0009F93AF93BF9380911B0290911C02A091B1
:100BE0001D02B0911E0230912302232F2D5F2D375D
:100BF00020F40196A11DB11D05C0232F2A5702968E
:100C0000A11DB11D2093230280931B0290931C020F
:100C1000A0931D02B0931E0280911F0290912002AA
:100C2000A0912102B09122020196A11DB11D8093D5
:100C30001F0290932002A0932102B0932202BF9141
:100C4000AF919F918F913F912F910F900FBE0F9079
:100C50001F9018950F931F938FB7F89400911B0264
:100C600010911C0220911D0230911E028FBFB8010D
:100C7000C9011F910F9108950F931F939FB7F89487
:100C800000911F0210912002209121023091220236
:100C900086B5A89B06C08F3F21F00F5F1F4F2F4FD7
:100CA0003F4F9FBF322F212F102F0027080F111DFC
:100CB000211D311D42E0000F111F221F331F4A95D5
:100CC000D1F7B801C9011F910F910895CF92DF921A
:100CD000EF92FF92CF93DF936B017C010E943C0661
:100CE000EB010EC00E943C066C1B7D0B683E7340FE
:100CF00038F081E0C81AD108E108F108C851DC4F8A
:100D0000C114D104E104F10469F7DF91CF91FF90A0
:100D1000EF90DF90CF900895789484B5826084BD81
:100D200084B5816084BD85B5826085BD85B58160EF
:100D300085BDEEE6F0E0808181608083E1E8F0E04F
:100D40001082808182608083808181608083E0E87E
:100D5000F0E0808181608083E1EBF0E0808184605D
:100D60008083E0EBF0E0808181608083EAE7F0E05F
:100D700080818460808380818260808380818160C3
:100D800080838081806880831092C10008958330C1
:100D900069F028F48130A1F0823011F514C086305A
:100DA000B1F08730C1F08430D9F404C08091800064
:100DB0008F7703C0809180008F7D8093800008959D
:100DC00084B58F7702C084B58F7D84BD08958091EE
:100DD000B0008F7703C08091B0008F7D8093B0000A
:100DE0000895CF93DF9390E0FC01E458FF4F4491C6
:100DF000FC01E057FF4F8491882341F190E0880F78
:100E0000991FFC01E255FF4F25913491D9018C5572
:100E10009F4FFC0185919491C82FD92F9FB7F894CB
:100E20008C91611106C0409584238C938881842322
:100E300008C0623041F4242F209582238C9388814E
:100E4000842B888302C0842B8C939FBFDF91CF912A
:100E500008950F931F93CF93DF931F92CDB7DEB703
:100E6000282F30E0F901E859FF4F8491F901E45847
:100E7000FF4F1491F901E057FF4F04910023D1F087
:100E8000882321F069830E94C7066981E02FF0E082
:100E9000EE0FFF1FEC55FF4F85919491DC019FB73A
:100EA000F8948C91611103C01095812301C0812BAE
:100EB0008C939FBF0F90DF91CF911F910F91089559
:100EC000FC0184859585FC01E05CFF4F2081318128
:100ED000FC01EE5BFF4F80819181281B390B2F7342
:100EE0003327C9010895FC0184859585FC01E05CE8
:100EF000FF4F40815181FC01EE5BFF4F208131812A
:100F00004217530741F00190F081E02DE80FF91FDF
:100F1000208130E002C02FEF3FEFC9010895FC01AE
:100F200084859585FC01E05CFF4F40815181FC0187
:100F3000EE5BFF4F208131814217530781F0A08182
:100F4000B181A80FB91F8C91208131812F5F3F4F54
:100F50002F73332731832083282F30E002C02FEFF7
:100F60003FEFC9010895FC0186859785FC01E05C8F
:100F7000FF4FDC01AE5BBF4F408151812D913C9111
:100F8000119742175307C1F70895CF93DF93FC01E0
:100F900086859785DC01A05CBF4F2D913C91119710
:100FA0002F5F3F4F2F733327EC01CE5BDF4F48811C
:100FB000598124173507D9F30D90BC91A02DA80FA6
:100FC000B91F6C93A685B785A05CBF4F11963C9363
:100FD0002E93A689B7892C9181E090E0058C02C000
:100FE000880F991F0A94E2F7282B2C9381E090E058
:100FF000DF91CF91089508951F920F920FB60F922F
:1010000011242F933F934F938F939F93EF93FF93CD
:101010004091C6008091C7029091C80201968F73DB
:1010200099272091C9023091CA028217930759F07B
:10103000E091C702F091C802E957FD4F40839093B9
:10104000C8028093C702FF91EF919F918F914F91BA
:101050003F912F910F900FBE0F901F90189584E233
:1010600092E00E946007892B11F00C94FB07089511
:101070001F920F920FB60F9211242F933F938F93CD
:101080009F93EF93FF93209183023091840280918C
:101090008502909186022817390731F48091C100AA
:1010A0008F7D8093C10014C0E0918502F09186028B
:1010B000ED5BFD4F20818091850290918602019623
:1010C0008F73992790938602809385022093C600A0
:1010D000FF91EF919F918F913F912F910F900FBEB4
:1010E0000F901F901895CF92DF92EF92FF92CF93BF
:1010F000DF93EC016A017B01411581EE5807610520
:101100007105F9F0EC89FD8981E090E00E8C02C058
:10111000880F991F0A94E2F7808360E079E08DE3FD
:1011200090E0A70196010E94400D2150310941092C
:1011300051095695479537952795211580E1380730
:1011400098F0EC89FD89108260E874E88EE190E007
:10115000A70196010E94400D215031094109510912
:101160005695479537952795E889F9893083EA8917
:10117000FB892083EE89FF89408181E090E09C011A
:101180000A8C02C0220F331F0A94E2F7422B4083DD
:10119000EE89FF8940819C010B8C02C0220F331F16
:1011A0000A94E2F7422B4083EE89FF8940819C013B
:1011B0000C8C02C0220F331F0A94E2F7422B4083AB
:1011C000EE89FF8920810D8C02C0880F991F0A9437
:1011D000E2F7809582238083DF91CF91FF90EF909B
:1011E000DF90CF900895109227021092260288EE89
:1011F00093E0A0E0B0E08093280290932902A093AE
:101200002A02B0932B0282EB91E090932502809307
:10121000240287E892E0909331028093300283E4C5
:1012200092E0909333028093320285EC90E09093A9
:1012300035028093340284EC90E0909337028093DF
:10124000360280EC90E0909339028093380281EC72
:1012500090E090933B0280933A0286EC90E090936A
:101260003D0280933C0284E080933E0283E08093C1
:101270003F0287E08093400285E08093410281E055
:101280008093420208950E948C060E940704CFE2D8
:10129000D8E00E94B0042097E1F30E942F08F9CF14
:1012A000CF92DF92EF92FF920F931F93CF93DF9332
:1012B0006C01EB017A01E60EF71E00E010E00BC0B6
:1012C0006991D601ED91FC910190F081E02DC6016C
:1012D0000995080F191FCE15DF0591F7C801DF9199
:1012E000CF911F910F91FF90EF90DF90CF900895D5
:1012F000DB010D900020E9F7AD0141505109461B7B
:10130000570BDC01ED91FC910280F381E02D0994F3
:101310000C947809DC01ED91FC910190F081E02DB5
:1013200009940F931F93CF93DF93EC016DE00E941C
:101330008A098C016AE0CE010E948A099C01200F73
:10134000311FC901DF91CF911F910F9108950F9324
:101350001F93CF93DF93EC010E9478098C01CE019B
:101360000E9491099801280F391FC901DF91CF917F
:101370001F910F9108954F925F926F927F929F926B
:10138000AF92BF92CF92DF92EF92FF920F931F9393
:10139000CF93DF93CDB7DEB7A1970FB6F894DEBF3A
:1013A0000FBECDBF5C016A017B01922E19A281E0C4
:1013B000821710F08AE0982E8E010F5D1F4F492C86
:1013C000512C612C712CC701B601A30192010E941E
:1013D000400D8C2D929E80191124015011098A30E4
:1013E00014F4805D01C0895CF801808369017A0191
:1013F000C114D104E104F10431F7B801C5010E9420
:101400007809A1960FB6F894DEBF0FBECDBFDF916D
:10141000CF911F910F91FF90EF90DF90CF90BF90F1
:10142000AF909F907F906F905F904F90089521159F
:10143000310541F4DC01ED91FC910190F081E02D4A
:10144000642F09940C94BB09CF92DF92EF92FF9224
:101450000F931F93CF93DF93EC016A017B0121155A
:10146000310579F4E881F9810190F081E02D642F54
:10147000DF91CF911F910F91FF90EF90DF90CF9070
:1014800009942A30310519F477FD0EC02AE0B7011E
:10149000A601CE01DF91CF911F910F91FF90EF90A8
:1014A000DF90CF900C94BB096DE20E948A098C01F9
:1014B00044275527BA014C195D096E097F092AE0B6
:1014C000CE010E94BB09080F191FC801DF91CF91FF
:1014D0001F910F91FF90EF90DF90CF9008959A01A8
:1014E000AB01662757FD6095762F0C94240A7F92F6
:1014F0008F929F92AF92BF92CF92DF92EF92FF9224
:101500000F931F93CF93DF938C014A015B01F22E5F
:1015100020E030E0A901C501B4010E948A0B87FFD9
:101520000AC06DE2C8010E948A09EC01B7FAB094C2
:10153000B7F8B09402C0C0E0D0E0E12C60E070E009
:1015400080E09FE307C020E030E040E251E40E94E9
:101550008E0BE394EF10F7CF262F372F482F592FFC
:10156000C501B4010E94260B762E872E982EA92E37
:101570000E94FB0BB62EC72ED82EE92E0E94270CF8
:101580009B01AC01672D782D892D9A2D0E94250B8A
:10159000A62E972E882E792E2AE04B2D5C2D6D2DB0
:1015A0007E2DC8010E94BB09C80FD91FFF20B9F1C9
:1015B00064E471E0C8010E947809C80FD91F2FC0E8
:1015C00020E030E040E251E46A2D792D882D972DFE
:1015D0000E94DD0C762EC72ED82EE92E0E94F60B27
:1015E0004B01AA2497FCA094BA2C2AE030E0B50164
:1015F000A401C8010E94240AC80FD91FC501B40163
:101600000E94290C9B01AC01672D7C2D8D2D9E2DF8
:101610000E94250BA62E972E882E792EFA94F11073
:10162000CFCFCE01DF91CF911F910F91FF90EF901F
:10163000DF90CF90BF90AF909F908F907F90089554
:101640000C94770AF8940C94680D5058BB27AA277D
:101650000ED075C166D130F06BD120F031F49F3FD0
:1016600011F41EF45BC10EF4E095E7FB51C1E92FC4
:1016700077D180F3BA17620773078407950718F0CC
:1016800071F49EF58FC10EF4E0950B2EBA2FA02DAC
:101690000B01B90190010C01CA01A0011124FF271F
:1016A000591B99F0593F50F4503E68F11A16F0401A
:1016B000A22F232F342F4427585FF3CF4695379519
:1016C0002795A795F0405395C9F77EF41F16BA0BDE
:1016D000620B730B840BBAF09150A1F0FF0FBB1F8C
:1016E000661F771F881FC2F70EC0BA0F621F731FD5
:1016F000841F48F4879577956795B795F7959E3F32
:1017000008F0B3CF9395880F08F09927EE0F9795BF
:1017100087950895D9D008F481E008950CD00FC1C1
:1017200007D140F0FED030F021F45F3F19F0F0C057
:10173000511139C1F3C014D198F39923C9F355233A
:10174000B1F3951B550BBB27AA27621773078407B4
:1017500038F09F5F5F4F220F331F441FAA1FA9F36A
:1017600033D00E2E3AF0E0E830D091505040E6955C
:10177000001CCAF729D0FE2F27D0660F771F881FBD
:10178000BB1F261737074807AB07B0E809F0BB0BAC
:10179000802DBF01FF2793585F4F2AF09E3F5105D0
:1017A00068F0B6C000C15F3FECF3983EDCF386956D
:1017B00077956795B795F7959F5FC9F7880F911D46
:1017C0009695879597F90895E1E0660F771F881F32
:1017D000BB1F621773078407BA0720F0621B730BE5
:1017E000840BBA0BEE1F88F7E095089504D0689437
:1017F000B111D9C00895BCD088F09F5790F0B92F8F
:101800009927B751A0F0D1F0660F771F881F991F55
:101810001AF0BA95C9F712C0B13081F0C3D0B1E067
:101820000895C0C0672F782F8827B85F39F0B93F77
:10183000CCF3869577956795B395D9F73EF4909557
:101840008095709561957F4F8F4F9F4F0895E894D5
:1018500009C097FB3EF490958095709561957F4FF8
:101860008F4F9F4F9923A9F0F92F96E9BB279395A6
:10187000F695879577956795B795F111F8CFFAF4B6
:10188000BB0F11F460FF1BC06F5F7F4F8F4F9F4FE7
:1018900016C0882311F096E911C0772321F09EE845
:1018A000872F762F05C0662371F096E8862F70E0AB
:1018B00060E02AF09A95660F771F881FDAF7880F85
:1018C0009695879597F90895990F0008550FAA0BDB
:1018D000E0E8FEEF16161706E807F907C0F0121643
:1018E0001306E407F50798F0621B730B840B950B46
:1018F00039F40A2661F0232B242B252B21F408959B
:101900000A2609F4A140A6958FEF811D811D089537
:1019100097F99F6780E870E060E008959FEF80ECA2
:10192000089500240A941616170618060906089545
:1019300000240A9412161306140605060895092EAB
:101940000394000C11F4882352F0BB0F40F4BF2B1A
:1019500011F460FF04C06F5F7F4F8F4F9F4F08955A
:1019600057FD9058440F551F59F05F3F71F0479550
:10197000880F97FB991F61F09F3F79F08795089535
:10198000121613061406551FF2CF4695F1DF08C054
:10199000161617061806991FF1CF86957105610571
:1019A00008940895E894BB2766277727CB0197F919
:1019B00008958ADF08F48FEF08950BD0C0CFB1DF10
:1019C00028F0B6DF18F0952309F0A2CFA7CF112495
:1019D000EACFC6DFA0F3959FD1F3950F50E0551FD6
:1019E000629FF001729FBB27F00DB11D639FAA2774
:1019F000F00DB11DAA1F649F6627B00DA11D661FC3
:101A0000829F2227B00DA11D621F739FB00DA11DE3
:101A1000621F839FA00D611D221F749F3327A00D9D
:101A2000611D231F849F600D211D822F762F6A2F39
:101A300011249F5750408AF0E1F088234AF0EE0FBE
:101A4000FF1FBB1F661F771F881F91505040A9F7CB
:101A50009E3F510570F05CCFA6CF5F3FECF3983E00
:101A6000DCF3869577956795B795F795E7959F5F32
:101A7000C1F7FE2B880F911D9695879597F90895CC
:101A8000A1E21A2EAA1BBB1BFD010DC0AA1FBB1F82
:101A9000EE1FFF1FA217B307E407F50720F0A21BF4
:101AA000B30BE40BF50B661F771F881F991F1A9461
:101AB00069F760957095809590959B01AC01BD018B
:101AC000CF010895EE0FFF1F0590F491E02D0994CA
:041AD000F894FFCFB8
:101AD400010020282A1A1615353D3F3B2000537477
:101AE4006172746172207374797270726F6772615B
:101AF4006D206F6368207465737461722065666617
:101B0400656B746C6167656E2070612072656C61D1
:101B140065722E2E2E004F4B004B702C204B692CDF
:101B2400204B643A20005469643B204F75747075EF
:101B3400742028302D323030293B205265663B20FA
:101B4400523B20543B206C617374496E7075743B36
:101B5400206C6173744572726F723B206C61737494
:101B64004F75747075743B20703B20693B20643B57
:101B7400003C6C6F673E003C2F6C6F673E000000BA
:0E1B84000000C507500960078F077307B307FD
:00000001FF
