:100000000C9465000C948D000C948D000C948D0064
:100010000C948D000C948D000C948D000C948D002C
:100020000C948D000C948D000C948D000C948D001C
:100030000C948D000C948D000C948D000C948D000C
:100040000C949C090C948D000C94B80B0C94F40B3C
:100050000C948D000C948D000C948D000C948D00EC
:100060000C948D000C948D0000000007000201002C
:100070000003040600000000000000000102040864
:100080001020408001020408102001020408102002
:10009000040404040404040402020202020203032E
:1000A0000303030300000000250028002B000000CC
:1000B0000000240027002A004804F608AF0C6B0D4E
:1000C00075135E154C17DC20E42311241FBECFEFFF
:1000D000D8E0DEBFCDBF13E0A0E0B1E0EEE2F3E593
:1000E00002C005900D92AC33B107D9F714E0ACE330
:1000F000B3E001C01D92AF3CB107E1F710E0CAECDC
:10010000D0E004C02297FE010E949129C83BD1078C
:10011000C9F70E947A0D0C9496260C9400000F9358
:100120001F93FC017183608355834483338322834F
:1001300012861386148615861186108616861783F6
:1001400006831F910F910895FC01718360830895C8
:10015000FC01808191810895FC018085918508953D
:10016000CB01BA0123E333EF4BE454E40E94D926D8
:1001700026E636E64EEF50E40E9442270E94AA2768
:100180006A30710524F06B35710524F405C06AE00E
:1001900070E002C06AE570E0CB010895EF92FF9233
:1001A0000F931F93CF93DF93EC018E810E947B0905
:1001B000BC01882777FD8095982F0E94DD272AE0D3
:1001C00038E240EA5BE30E9491289B01AC0160E0C9
:1001D00070E080EA90E40E94422720E030E040E8AE
:1001E0005FE30E94D92620E030E44CE156E40E940F
:1001F00091287B018C0120E030E048E454E47F2D1D
:10020000912F0E943E2787FD0CC020E030E844ED8E
:1002100054E46E2D7F2D802F912F0E948D2818166B
:100220001CF481E08E8701C01E866E2D7F2D802FED
:10023000912FDF91CF911F910F91FF90EF90089533
:10024000CF93DF93EC010E94CE00AB01BC014A8743
:100250005B876C877D87CE010E94B0009987888775
:10026000DF91CF910895FC0186850895AF92CF92DA
:10027000EF92FF920F931F93CF93DF93CDB7DEB72B
:100280002B970FB6F894DEBF0FBECDBF9AE0EEE11C
:10029000F1E0DE01119601900D929A95E1F781E06F
:1002A00090E08C0F9D1F680F791FFB01F080F4FA1E
:1002B000662760F9822F4B870E94E50AF2FA6627CB
:1002C00060F98E2D0E94E50A6F2D61708A2D0E94C3
:1002D000E50AF5FA662760F94B85842F0E94E50A46
:1002E000F3FA662760F9802F0E94E50AF1FA662783
:1002F00060F98C2D2B960FB6F894DEBF0FBECDBFE4
:10030000DF91CF911F910F91FF90EF90CF90AF9021
:100310000C94E50ACF93DF93EC01688179814AE080
:1003200050E08EED93E00E94170F68E271E08EEDD1
:1003300093E00E94F70D4A855B856C857D8522E000
:1003400030E08EED93E00E94C80F68E271E08EED20
:1003500093E00E94F70D688579854AE050E08EEDC4
:1003600093E00E94170F68E271E08EED93E0DF9159
:10037000CF910C94F70DAF92BF92CF92DF92EF9294
:10038000FF920F931F93CF93DF93CDB7DEB72D97D7
:100390000FB6F894DEBF0FBECDBF6C015B0163EFFB
:1003A00072E0FC0174836383FA0182819381A481EA
:1003B000B581F60185839683A783B08772876187AD
:1003C000F9014281538164817581F6014387548725
:1003D00065877687C60143960E948212F601B28233
:1003E000A182108B0787F28AE18A1082CE010196E2
:1003F0000E9482122D960FB6F894DEBF0FBECDBFBD
:10040000DF91CF911F910F91FF90EF90DF90CF90F0
:10041000BF90AF9008950F931F93CF93DF93CDB705
:10042000DEB762970FB6F894DEBF0FBECDBF8C016A
:10043000FC016181728181E994E00E94951301972A
:10044000A1F46BE271E08EED93E00E94340E61E95D
:1004500074E0CE010D960E943C15BE01635F7F4F94
:100460008EED93E00E94480E27C08EED93E00E942F
:100470000A0E23EF32E03A832983F80183859485BD
:10048000A585B6858B839C83AD83BE8338872F83F8
:10049000458156816781708549875A876B877C873C
:1004A000618172819E012F5F3F4FAE01495F5F4FB7
:1004B00081E994E00E94E51468EE73E080E090E04A
:1004C0000E94220A62960FB6F894DEBF0FBECDBF1F
:1004D000DF91CF911F910F9108950F931F93CF93A9
:1004E000DF93EC018C010D5E1F4FC8010E94A11229
:1004F00081110AC08881882339F0C801DF91CF912A
:100500001F910F910C94C512DF91CF911F910F9104
:1005100008954F925F926F927F92AF92BF92CF9267
:10052000DF92EF92FF920F931F93CF93DF937C01A3
:100530005B016A0128013901EC016396FC014189E4
:10054000528967857089CE010E942112892B09F496
:100550004DC069E371E08EED93E00E94340E64EFCC
:1005600071E080E090E00E94220A6EE471E0CE012A
:100570000E94F70D4AE050E0B501CE010E94170F2E
:1005800061E671E0CE010E94F70DB601CE010E9436
:10059000C10D68E671E0CE010E94F70D22E030E067
:1005A000B301A201CE010E94C80F6FEC71E0CE0131
:1005B0000E94340E61E771E0CE010E94F70DF70151
:1005C00067857089CE010E94F70DCE010E940A0E48
:1005D00068E771E0CE010E94340E64E971E0CE015B
:1005E0000E94340ECE010E940A0E03C0C7010E9471
:1005F0000B0268EC70E080E090E00E94220ACE01DD
:100600000E94C512CE010E94A112F7018083DF91E2
:10061000CF911F910F91FF90EF90DF90CF90BF90FF
:10062000AF907F906F905F904F9008959F92AF92A0
:10063000BF92CF92DF92EF92FF920F931F93CF93CF
:10064000DF93CDB7DEB72F970FB6F894DEBF0FBE9E
:10065000CDBF6C017B015E0188E0A80EB11C66E491
:1006600072E0C5010E944F1066E472E0CE0101966F
:100670000E944F1087010D5E1F4FC8010E94961106
:10068000F7014189528967857089C8010E9421124A
:10069000892BA1F166EA71E08EED93E00E94340EA1
:1006A00064EF71E080E090E00E94220A6FEB71E05D
:1006B000C8010E94340E61E771E0C8010E94F70D85
:1006C000F70167857089C8010E94F70DC8010E9473
:1006D0000A0E68E771E0C8010E94340E64E971E017
:1006E000C8010E94340EC8010E940A0E68EE73E031
:1006F00080E090E00E94220A912C12C0C8010E9462
:10070000C51269ED71E08EED93E00E94340EC701D1
:100710000E940B0260E070E0C6010E944F1031C0E1
:10072000C8010E94F811892BA1F0C8010E94DD11B7
:10073000282F8B3719F0992049F002C099249394FF
:10074000622FC5012F870E94D3102F852D3709F402
:10075000912CC8010E94F811892B11F7C8010E9441
:10076000A1128111DDCFC8010E94C512C8010E94EB
:10077000A112F7018083BE01685F7F4FC6010E940E
:100780008310CE0101960E94DE0FCE0108960E94D2
:10079000DE0FC6012F960FB6F894DEBF0FBECDBF99
:1007A000DF91CF911F910F91FF90EF90DF90CF904D
:1007B000BF90AF909F900895AF92BF92CF92DF927B
:1007C000EF92FF920F931F93CF93DF93CDB7DEB7D6
:1007D00027970FB6F894DEBF0FBECDBF6C018B011B
:1007E000BA01C8010E9437117C016BEF71E0CE01A4
:1007F00001960E944F10A7014C5F5F4FBE016F5FD3
:100800007F4FC8010E9419117C01CE0101960E9400
:10081000DE0F6DEF71E0CE0101960E944F10A7012F
:10082000BE016F5F7F4FC8010E9419117C01CE018C
:1008300001960E94DE0F8FEFE81AF80A6DEF71E063
:10084000CE0101960E944F10A701BE016F5F7F4F3E
:10085000C8010E9419115C01CE0101960E94DE0FB1
:100860009501A701B801C6010E943B11C601279658
:100870000FB6F894DEBF0FBECDBFDF91CF911F91B1
:100880000F91FF90EF90DF90CF90BF90AF900895C1
:100890000F9300E020E040E060E08CE393E00E94F2
:1008A000440D0F910895CF92DF92EF92FF920F9334
:1008B0001F93CF93DF93EC01488359836A837B8333
:1008C0000C831D832E833F83C886D986EA86FB86E8
:1008D0000E94E6096CA37DA38EA39FA3DF91CF9115
:1008E0001F910F91FF90EF90DF90CF900895CF93DD
:1008F000DF93EC01CB01BA010E94AA277FA76EA764
:10090000DF91CF910895CF93DF93EC01CB01BA0132
:100910000E94AA277DA76CA7DF91CF910895FC01C3
:1009200066A577A5882777FD8095982F0E94DD27FB
:100930000895FC0164A575A5882777FD8095982FFB
:100940000E94DD2708952F923F924F925F926F92FF
:100950007F928F929F92AF92BF92CF92DF92EF924F
:10096000FF920F931F93CF93DF93CDB7DEB76497BA
:100970000FB6F894DEBF0FBECDBF9C8B8B8B6A0188
:100980007B01280139010E94E6094B015C01EB89DA
:10099000FC8984A195A1A6A1B7A1A5019401281B5A
:1009A000390B4A0B5B0BDA01C90180369A4EA1055F
:1009B000B10548F440A1498351A15A8382A18B8398
:1009C00093A19C833BC1A7019601C301B2010E9480
:1009D000D9266D837E838F839887AB89BC8998964F
:1009E0002D913D914D915C919B970E94DA261B01C0
:1009F0008C01862F932DA02FB12FEB89FC8980A726
:100A000091A7A2A7B3A766A577A5882777FD8095AC
:100A1000982F0E94DD2769877A878B879C87698357
:100A20007A838B839C83762F6A85982F8C85272FDA
:100A3000362F492F582F622D732D802F912F0E9412
:100A40008D2818167CF459854A853B852C85852F81
:100A5000942FA32FB22FEB89FC8980A791A7A2A77F
:100A6000B3A71EC0AB89BC899C966D917C919D9764
:100A7000882777FD8095982F0E94DD272B013C0168
:100A80009B01AC01622D732D802F912F0E943E2778
:100A900087FF06C0EB89FC8940A651A662A673A613
:100AA000AB89BC8998962D913D914D915C919B9716
:100AB0002D873E874F87588B5C962D913D914D91A8
:100AC0005C915F97C701B6010E94D926362E272E6A
:100AD000898B9A8BEB89FC892081318142815381FA
:100AE000BD81AE811F8108856B2F7A2F812F902FBA
:100AF0000E9491282B013C01AB89BC8914962D9151
:100B00003D914D915C9117976D857E858F85988974
:100B10000E9491289B01AC01C301B2010E94DA2618
:100B20002B013C01EB89FC89208531854285538569
:100B3000D10119890A896B2F7A2F812F902F0E945A
:100B400091289B01AC01C301B2010E94D9263B014F
:100B50008C0179856A859B858C85272F362F492FB7
:100B6000582F662D772D802F912F0E948D281816D3
:100B700024F1AB89BC899C966D917C919D978827C7
:100B800077FD8095982F0E94DD2769837A838B8378
:100B90009C83762F6A81982F8C81272F362F492F9F
:100BA000582F662D772D802F912F0E943E2787FD8D
:100BB00004C069827A820B831C83EB89FC89C48E12
:100BC000D58EE68EF78E5D814E813F812885852FFB
:100BD000942FA32FB22F808F918FA28FB38F598123
:100BE0004A813B812C81852F942FA32FB22F80A384
:100BF00091A3A2A3B3A35D814E813F812885852F58
:100C0000942FA32FB22F80AB91ABA2ABB3AB2D85AA
:100C10003E854F85588924AB35AB46AB57ABA10118
:100C200039892A89852F922DA32FB22F80AF91AFBA
:100C3000A2AFB3AF84A295A2A6A2B7A259814A815E
:100C40003B812C81652F742F832F922F64960FB6D2
:100C5000F894DEBF0FBECDBFDF91CF911F910F91F2
:100C6000FF90EF90DF90CF90BF90AF909F908F90CC
:100C70007F906F905F904F903F902F900895FC0170
:100C800064A175A186A197A10895CF93DF93EC018C
:100C90004C8D5D8D6E8D7F8D22E030E08EED93E08A
:100CA0000E94C80F68E271E08EED93E00E94F70D9C
:100CB000488D598D6A8D7B8D22E030E08EED93E07A
:100CC0000E94C80F68E271E08EED93E00E94F70D7C
:100CD00048A159A16AA17BA122E030E08EED93E00A
:100CE0000E94C80F68E271E08EED93E00E94F70D5C
:100CF00048A959A96AA97BA922E030E08EED93E0CA
:100D00000E94C80F68E271E08EED93E00E94F70D3B
:100D10004CA95DA96EA97FA922E030E08EED93E099
:100D20000E94C80F68E271E08EED93E00E94F70D1B
:100D300048AD59AD6AAD7BAD22E030E08EED93E079
:100D40000E94C80F68E271E08EED93E0DF91CF91D1
:100D50000C94F70DAF92BF92CF92DF92EF92FF9279
:100D60000F931F93CF93DF9361E082E00E94AD0A5F
:100D700061E083E00E94AD0A61E084E00E94AD0A78
:100D800061E085E00E94AD0A61E086E00E94AD0A64
:100D900061E087E00E94AD0A61E089E00E94AD0A4F
:100DA00061E088E00E94AD0A40E050E0BA018EE6C2
:100DB00093E00E94830440E050E068E473E48EE630
:100DC00093E00E94770440E855E260E070E08EED29
:100DD00093E00E942F0C6FEF71E08EED93E00E9484
:100DE000F70DC1E0D0E083E0A82EB12C92E0C92E2F
:100DF000D12C25E0E22EF12C04E010E027E030E0D9
:100E000046E050E0BE018AEA93E00E9436016EEEB1
:100E100072E080E090E00E94220A2196CB30D1055A
:100E200011F767E372E08EED93E00E94340E6AE3FF
:100E300072E08EED93E00E94F70D22E030E040E09A
:100E400050E060E470E48EED93E00E94C80F22E071
:100E500030E04DEC5CEC6CE47FE38EED93E00E94BF
:100E6000C80F22E030E040E050E060E87FE38EED24
:100E700093E00E94C80F8EED93E00E940A0E67E493
:100E800072E08EED93E00E94F70D8EED93E00E94EC
:100E90000A0E82E493E0DF91CF911F910F91FF90B2
:100EA000EF90DF90CF90BF90AF900C940B024F92D9
:100EB0005F926F927F928F929F92AF92BF92CF92EA
:100EC000DF92EF92FF920F931F93CF93DF93CDB7F3
:100ED000DEB7A0970FB6F894DEBF0FBECDBF8AEA8B
:100EE00093E00E9420018AEA93E00E94AC008C010A
:100EF0008AEA93E00E94A800BC01882777FD8095CC
:100F0000982F0E94DD276B017C0122E030E0982FB2
:100F10004C2D5D2D692F7F2D8EED93E00E94CA0F21
:100F2000B801882777FD8095982F0E94DD27AB01B7
:100F3000BC010C2D1D2D2E2D3F2D8EE693E00E9421
:100F4000A3042B013C018EE693E00E948F044B0129
:100F50005C018EE693E00E9499046D8F7E8F8F8FE7
:100F600098A320E030E040E251E4C301B2010E94C6
:100F7000DA266B017C012D8D3E8D4F8D58A1C50168
:100F8000B4010E94D9269B01AC0160E070E080E1D1
:100F900091E40E9442279B01AC01C701B6010E9467
:100FA00091280E94AA2733E0A32EB12C42E0C42E40
:100FB000D12C55E0E52EF12C04E010E027E030E0E4
:100FC00046E050E08AEA93E00E94360162E972E06E
:100FD0008EED93E00E94F70D8EE693E00E943F06AF
:100FE000AB01BC012AE030E08EED93E00E94B80E28
:100FF00068E271E08EED93E00E94F70D22E030E0B0
:10100000B301A2018EED93E00E94C80F68E271E087
:101010008EED93E00E94F70D8AEA93E00E948A0128
:101020008EE693E00E94450668E972E08EED93E05B
:101030000E94F70D8EED93E00E940A0E8AEA93E07B
:101040000E943301882331F061E089E00E94E50AC3
:1010500060E005C060E089E00E94E50A61E088E0A8
:101060000E94E50A82E493E00E946D020E94E60974
:101070000091CB031091CC032091CD033091CE038E
:10108000601B710B820B930B6133754781059105D2
:1010900008F48FC062E473E0CE0146960E94160306
:1010A0006FE972E0CE0101960E944F10BE016A5EA8
:1010B0007F4FCE0108960E948310AE014F5F5F4FB5
:1010C000BE01685F7F4FCE010F960E94DC03CE0108
:1010D00008960E94DE0FCE0101960E94DE0F64EAA0
:1010E00072E08EED93E00E94340EBE016A5E7F4F87
:1010F0008EED93E00E94200E6FEA72E0CE010F9613
:101100000E94E610882349F06CE370E08AEA93E0DD
:101110000E94A40064EB72E010C067EC72E0CE01A4
:101120000F960E94E610882369F06EE170E08AEA6B
:1011300093E00E94A4006CEC72E08EED93E00E94BC
:10114000340E06C06FEA72E0CE010F960E948D1039
:1011500068EC70E080E090E00E94220ABE01615FCE
:101160007F4FCE0101960E9483108AEA93E00E948D
:10117000AC0093018201AE014F5F5F4FBC0182E47E
:1011800093E00E948902CE0101960E94DE0F0E9428
:10119000E6096093CB037093CC038093CD039093C7
:1011A000CE03CE010F960E94DE0FCE0146960E941E
:1011B000DE0F60E177E280E090E00E94220AA096D4
:1011C0000FB6F894DEBF0FBECDBFDF91CF911F9158
:1011D0000F91FF90EF90DF90CF90BF90AF909F90D6
:1011E0008F907F906F905F904F900895CF92DF9295
:1011F000EF92FF920F931F93CF93DF93CDB7DEB79C
:101200002C970FB6F894DEBF0FBECDBF00E020E0F4
:1012100040E060E08FEC93E00E94440D0EE010E0AF
:101220002DE030E04CE050E06CE370E08AEA93E0BF
:101230000E948F00C12CD12C60E8E62E6FE3F62EC1
:101240000DEC1CEC2CE43FE340E050E060E470E483
:101250008EE693E00E94530402E321E048EA60EC4A
:1012600088E693E00E94440D0BE127EC43E463EC35
:1012700082E693E00E94440DE0900A01F0900B0199
:1012800023EF32E038872F838091640390916503C8
:10129000A0916603B091670389879A87AB87BC8763
:1012A0003A83298380916A0390916B03A0916C0328
:1012B000B0916D038B839C83AD83BE830CE011E002
:1012C0009E01295F3F4FAE014F5F5F4F65E171E0C7
:1012D00082E493E00E94BB012C960FB6F894DEBF27
:1012E0000FBECDBFDF91CF911F910F91FF90EF9077
:1012F000DF90CF9008958E3008F08E508770209147
:101300001B0140E4249F90011124822B80937C00D8
:1013100080917A00806480937A0080917A0086FDC3
:10132000FCCF2091780030917900932F80E0AC01C0
:10133000422B9A01C90108951F920F920FB60F9286
:1013400011242F933F938F939F93AF93BF938091DB
:10135000D5039091D603A091D703B091D8033091D3
:10136000DD03232F2D5F2D3720F40196A11DB11D24
:1013700005C0232F2A570296A11DB11D2093DD031E
:101380008093D5039093D603A093D703B093D8034B
:101390008091D9039091DA03A091DB03B091DC0333
:1013A0000196A11DB11D8093D9039093DA03A093F8
:1013B000DB03B093DC03BF91AF919F918F913F917D
:1013C0002F910F900FBE0F901F9018950F931F93A2
:1013D0008FB7F8940091D5031091D6032091D703CD
:1013E0003091D8038FBFB801C9011F910F910895A3
:1013F0000F931F939FB7F8940091D9031091DA03CC
:101400002091DB033091DC0386B5A89B06C08F3F9B
:1014100021F00F5F1F4F2F4F3F4F9FBF322F212FC4
:10142000102F0027080F111D211D311D42E0000F54
:10143000111F221F331F4A95D1F7B801C9011F910F
:101440000F910895CF92DF92EF92FF92CF93DF93A7
:101450006B017C010E94F809EB010EC00E94F809A3
:101460006C1B7D0B683E734038F081E0C81AD108D0
:10147000E108F108C851DC4FC114D104E104F104C2
:1014800069F7DF91CF91FF90EF90DF90CF900895B3
:10149000789484B5826084BD84B5816084BD85B54F
:1014A000826085BD85B5816085BDEEE6F0E0808116
:1014B00081608083E1E8F0E0108280818260808337
:1014C000808181608083E0E8F0E0808181608083BA
:1014D000E1EBF0E0808184608083E0EBF0E08081EC
:1014E00081608083EAE7F0E080818460808380818E
:1014F0008260808380818160808380818068808336
:101500001092C1000895833069F028F48130A1F071
:10151000823011F514C08630B1F08730C1F08430CC
:10152000D9F404C0809180008F7703C0809180003F
:101530008F7D80938000089584B58F7702C084B535
:101540008F7D84BD08958091B0008F7703C0809116
:10155000B0008F7D8093B0000895CF93DF9390E02B
:10156000FC01E458FF4F4491FC01E057FF4F849188
:10157000882341F190E0880F991FFC01E255FF4F4D
:1015800025913491D9018C559F4FFC0185919491FF
:10159000C82FD92F9FB7F8948C91611106C0409540
:1015A00084238C938881842308C0623041F4242FE3
:1015B000209582238C938881842B888302C0842B7E
:1015C0008C939FBFDF91CF9108950F931F93CF937B
:1015D000DF931F92CDB7DEB7282F30E0F901E8592D
:1015E000FF4F8491F901E458FF4F1491F901E0573E
:1015F000FF4F04910023D1F0882321F069830E94DA
:10160000830A6981E02FF0E0EE0FFF1FEC55FF4FDA
:1016100085919491DC019FB7F8948C91611103C07E
:101620001095812301C0812B8C939FBF0F90DF9178
:10163000CF911F910F910895FC0184859585FC0140
:10164000E05CFF4F20813181FC01EE5BFF4F808128
:101650009181281B390B2F733327C9010895FC0191
:1016600084859585FC01E05CFF4F40815181FC0140
:10167000EE5BFF4F208131814217530741F001900B
:10168000F081E02DE80FF91F208130E002C02FEF3C
:101690003FEFC9010895FC0184859585FC01E05C5C
:1016A000FF4F40815181FC01EE5BFF4F2081318172
:1016B0004217530781F0A081B181A80FB91F8C9107
:1016C000208131812F5F3F4F2F7333273183208358
:1016D000282F30E002C02FEF3FEFC9010895FC0131
:1016E00086859785FC01E05CFF4FDC01AE5BBF4F58
:1016F000408151812D913C91119742175307C1F7B9
:101700000895CF93DF93FC0186859785DC01A05C6B
:10171000BF4F2D913C9111972F5F3F4F2F73332770
:10172000EC01CE5BDF4F4881598124173507D9F38F
:101730000D90BC91A02DA80FB91F6C93A685B785FD
:10174000A05CBF4F11963C932E93A689B7892C912C
:1017500081E090E0058C02C0880F991F0A94E2F79F
:10176000282B2C9381E090E0DF91CF91089508958C
:101770001F920F920FB60F9211242F933F934F9306
:101780008F939F93EF93FF934091C60080918104C4
:101790009091820401968F73992720918304309150
:1017A00084048217930759F0E0918104F091820438
:1017B000EF5BFB4F40839093820480938104FF9101
:1017C000EF919F918F914F913F912F910F900FBE6D
:1017D0000F901F9018958EED93E00E941C0B892BA3
:1017E00011F00C94B70B08951F920F920FB60F9241
:1017F00011242F933F938F939F93EF93FF93209107
:101800003D0430913E0480913F049091400428179C
:10181000390731F48091C1008F7D8093C10014C0DD
:10182000E0913F04F0914004E350FC4F208180910F
:101830003F049091400401968F7399279093400440
:1018400080933F042093C600FF91EF919F918F9169
:101850003F912F910F900FBE0F901F901895CF9230
:10186000DF92EF92FF92CF93DF93EC016A017B014D
:10187000411581EE580761057105F9F0EC89FD8984
:1018800081E090E00E8C02C0880F991F0A94E2F765
:10189000808360E079E08DE390E0A70196010E94EB
:1018A0000729215031094109510956954795379526
:1018B0002795211580E1380798F0EC89FD89108281
:1018C00060E874E88EE190E0A70196010E94072984
:1018D000215031094109510956954795379527956A
:1018E000E889F9893083EA89FB892083EE89FF89B9
:1018F000408181E090E09C010A8C02C0220F331FDE
:101900000A94E2F7422B4083EE89FF8940819C01D3
:101910000B8C02C0220F331F0A94E2F7422B408344
:10192000EE89FF8940819C010C8C02C0220F331F7D
:101930000A94E2F7422B4083EE89FF8920810D8CC7
:1019400002C0880F991F0A94E2F780958223808352
:10195000DF91CF91FF90EF90DF90CF90089510929C
:10196000E1031092E00388EE93E0A0E0B0E0809302
:10197000E2039093E303A093E403B093E50383EEC3
:1019800092E09093DF038093DE0381E494E09093F0
:10199000EB038093EA038DEF93E09093ED03809344
:1019A000EC0385EC90E09093EF038093EE0384ECDE
:1019B00090E09093F1038093F00380EC90E090939B
:1019C000F3038093F20381EC90E09093F50380930E
:1019D000F40386EC90E09093F7038093F60384E0A1
:1019E0008093F80383E08093F90387E08093FA0300
:1019F00085E08093FB0381E08093FC030895AF9220
:101A0000BF92CF92DF92EF92FF920F931F93CF93EB
:101A1000DF936C017B01C0E0D0E000E010E0F60154
:101A2000EC0FFD1F4AE050E06281C7010E94C50E25
:101A30005C016EE2C7010E94F90D8A0D9B1D080F23
:101A4000191F2196C330D10551F74AE050E0F60145
:101A50006581C7010E94C50E080F191FC801DF91DB
:101A6000CF911F910F91FF90EF90DF90CF90BF909B
:101A7000AF90089523EF32E0FC013183208312827E
:101A800013821482158208950F93FC0183EF92E074
:101A90009183808362834383248305830F91089518
:101AA00023EF32E0FC0131832083FB01408151812F
:101AB00062817381FC01428353836483758308953B
:101AC000FC01DB014D915D916D917C9142835383CB
:101AD00064837583089583EF92E0909386048093E6
:101AE0008504109287041092880410928904109241
:101AF0008A0408950E94480A0E94AA06CBEEDBE001
:101B00000E9457072097E1F30E94EB0BF9CF0C944A
:101B10003924CF92DF92EF92FF920F931F93CF93CE
:101B2000DF936C01EB017A01E60EF71E00E010E096
:101B30000BC06991D601ED91FC910190F081E02DEF
:101B4000C6010995080F191FCE15DF0591F7C801C9
:101B5000DF91CF911F910F91FF90EF90DF90CF9089
:101B60000895DB010D900020E9F7AD0141505109C6
:101B7000461B570BDC01ED91FC910280F381E02DB7
:101B80000994AF92BF92CF92DF92EF92FF920F93A0
:101B90001F93CF93DF937C016B0100E010E0C0E066
:101BA000D0E011C0D701ED91FC91A080B180B801C7
:101BB000C6010E940811682FC701F5010995C80FD9
:101BC000D91F0F5F1F4FD60114968D919C911597C9
:101BD0000817190738F3CE01DF91CF911F910F91AC
:101BE000FF90EF90DF90CF90BF90AF9008950C944E
:101BF000B10DDC01ED91FC910190F081E02D099493
:101C0000DB01ED91FC9111970190F081E02DBC0179
:101C1000CD0109940F931F93CF93DF93EC016DE0F7
:101C20000E94F90D8C016AE0CE010E94F90D9C0121
:101C3000200F311FC901DF91CF911F910F9108959E
:101C40000F931F93CF93DF93EC010E94C10D8C0182
:101C5000CE010E940A0E9C01200F311FC901DF91A5
:101C6000CF911F910F9108950F931F93CF93DF93FF
:101C7000EC010E94B10D8C01CE010E940A0E980168
:101C8000280F391FC901DF91CF911F910F9108953E
:101C90000F931F93CF93DF93EC010E94000E8C01F2
:101CA000CE010E940A0E9C01200F311FC901DF9155
:101CB000CF911F910F9108954F925F926F927F92F3
:101CC0009F92AF92BF92CF92DF92EF92FF920F93CB
:101CD0001F93CF93DF93CDB7DEB7A1970FB6F894DC
:101CE000DEBF0FBECDBF5C016A017B01922E19A23F
:101CF00081E0821710F08AE0982E8E010F5D1F4F51
:101D0000492C512C612C712CC701B601A301920101
:101D10000E9407298C2D929E8019112401501109CF
:101D20008A3014F4805D01C0895CF8018083690108
:101D30007A01C114D104E104F10431F7B801C501FD
:101D40000E94B10DA1960FB6F894DEBF0FBECDBFB5
:101D5000DF91CF911F910F91FF90EF90DF90CF9087
:101D6000BF90AF909F907F906F905F904F9008953D
:101D70002115310541F4DC01ED91FC910190F081D8
:101D8000E02D642F09940C945C0E9A01462F50E0CC
:101D900060E070E00C94B80ECF92DF92EF92FF9269
:101DA0000F931F93CF93DF93EC016A017B01211501
:101DB000310579F4E881F9810190F081E02D642FFB
:101DC000DF91CF911F910F91FF90EF90DF90CF9017
:101DD00009942A30310519F477FD0EC02AE0B701C5
:101DE000A601CE01DF91CF911F910F91FF90EF904F
:101DF000DF90CF900C945C0E6DE20E94F90D8C0187
:101E000044275527BA014C195D096E097F092AE05C
:101E1000CE010E945C0E080F191FC801DF91CF91FF
:101E20001F910F91FF90EF90DF90CF9008959A014E
:101E3000AB01662757FD6095762F0C94CC0E7F92F0
:101E40008F929F92AF92BF92CF92DF92EF92FF92CA
:101E50000F931F93CF93DF938C014A015B01F22E06
:101E600020E030E0A901C501B4010E943E2787FFB0
:101E70000AC06DE2C8010E94F90DEC01B7FAB094F6
:101E8000B7F8B09402C0C0E0D0E0E12C60E070E0B0
:101E900080E09FE307C020E030E040E251E40E9490
:101EA0004227E394EF10F7CF262F372F482F592FD3
:101EB000C501B4010E94DA26762E872E982EA92E0F
:101EC0000E94AF27B62EC72ED82EE92E0E94DB2700
:101ED0009B01AC01672D782D892D9A2D0E94D92662
:101EE000A62E972E882E792E2AE04B2D5C2D6D2D57
:101EF0007E2DC8010E945C0EC80FD91FFF20B9F1CA
:101F000065E372E0C8010E94B10DC80FD91F2FC050
:101F100020E030E040E251E46A2D792D882D972DA4
:101F20000E949128762EC72ED82EE92E0E94AA272D
:101F30004B01AA2497FCA094BA2C2AE030E0B5010A
:101F4000A401C8010E94CC0EC80FD91FC501B4015D
:101F50000E94DD279B01AC01672D7C2D8D2D9E2DD0
:101F60000E94D926A62E972E882E792EFA94F1104B
:101F7000CFCFCE01DF91CF911F910F91FF90EF90C6
:101F8000DF90CF90BF90AF909F908F907F900895FB
:101F90000C941F0F0F931F93CF93DF93EC010E94BC
:101FA0001F0F8C01CE010E940A0E9801280F391FC5
:101FB000C901DF91CF911F910F910895FC0180819C
:101FC00091810C94D424CF93DF93EC018881998183
:101FD000009711F00E94D424198218821D821C825D
:101FE0001B821A82DF91CF9108950F931F93CF9395
:101FF000DF93EC018B016F5F7F4F888199810E9495
:10200000CE25009731F0998388831B830A8381E072
:1020100001C080E0DF91CF911F910F910895CF9380
:10202000DF93EC0188819981892B31F08A819B8132
:102030008617970708F00CC0CE010E94F50F882381
:1020400049F08C819D81892B19F4E881F9811082F6
:1020500081E001C080E0DF91CF910895EF92FF927F
:102060000F931F93CF93DF93EC017B018A01BA0199
:102070000E940F10811104C0CE010E94E30F07C01F
:102080001D830C83B701888199810E94B826CE01F7
:10209000DF91CF911F910F91FF90EF900895DC0198
:1020A00011961C921E9213961C921E9212971596D0
:1020B0001C921E92149716961C926115710559F088
:1020C000DB010D900020E9F7AD0141505109461B9D
:1020D000570B0C942E100895CF93DF93EC01FB0166
:1020E0008617970761F0608171816115710529F08C
:1020F000448155810E942E1002C00E94E30FCE0140
:10210000DF91CF910895FC01118210821382128217
:102110001582148216820C946C10CF93DF93D82F03
:10212000C92F6115710561F0DB010D900020E9F701
:10213000AD0141505109461B570B0E942E1002C0A1
:102140000E94E30F8D2F9C2FDF91CF910895EF9286
:10215000FF920F931F93CF93DF93EC017B010C81D0
:102160001D816115710511F480E016C041155105FE
:1021700091F0040F151FB8010E940F108823A1F3DE
:10218000288139818C819D81B701820F931F0E9424
:10219000B8261D830C8381E0DF91CF911F910F91B1
:1021A000FF90EF900895CF93DF9300D0CDB7DEB7C7
:1021B00069831A8241E050E0BE016F5F7F4F0E9449
:1021C000A7100F900F90DF91CF910895DC01149626
:1021D0002D913C911597232B39F481E06115710500
:1021E00011F0FB0108C00895DC01ED91FC9161152F
:1021F000710529F481E09081992349F007C0CF014E
:102200000E94AF269C0181E0232B09F080E0089515
:10221000FC01248135816217730748F48081918124
:10222000009729F0FC01E60FF71F8081089580E0F8
:102230000895CF93DF93FC01848195814817590756
:1022400080F4C081D181FB0160817181CE01840F56
:10225000951F0E94BF26009721F09C012C1B3D0B6F
:1022600002C02FEF3FEFC901DF91CF91089540E009
:1022700050E00C941911BF92CF92DF92EF92FF922F
:102280000F931F93CF93DF936C017B01EA018901C8
:102290002417350720F48D2FE901042F182F66E449
:1022A00072E0C6010E944F10D70114968D919C9147
:1022B00015978C179D07C8F08017910708F48C01BB
:1022C000D701ED91FC911197E00FF11FB0801082C2
:1022D0006D917C916C0F7D1FC6010E948D10D701FE
:1022E000ED91FC91E00FF11FB082C601DF91CF911B
:1022F0001F910F91FF90EF90DF90CF90BF900895C6
:10230000CF93DF931F92CDB7DEB76983DC01ED91E8
:10231000FC910280F381E02D41E050E0BE016F5F4F
:102320007F4F09950F90DF91CF910895CF93DF9361
:10233000EC0107C0E881F9810680F781E02DCE012C
:102340000995E881F9810480F581E02DCE01099598
:10235000892B81F7DF91CF91089521E0FC018485DD
:10236000843009F420E0822F08950F931F93CF93B8
:10237000DF931F92CDB7DEB78C01DC01ED91FC91AC
:102380000480F581E02D0995892B51F0BE016F5F26
:102390007F4FF80184850E94BE18298130E002C079
:1023A0002FEF3FEFC9010F90DF91CF911F910F9158
:1023B0000895FC0184850C947F18CF93DF931F92BE
:1023C000CDB7DEB741E050E0BE016F5F7F4FFC014B
:1023D00084850E947F18181619061CF4298130E0A4
:1023E00002C02FEF3FEFC9010F90DF91CF91089509
:1023F000FC016485643021F08FEA94E00C94921A19
:1024000080E090E008950F931F93CF93DF938C01AA
:10241000EA01FC018485843019F481E090E007C072
:102420000E942C18892B39F481E090E0F801938305
:102430008283C0E0D0E0CE01DF91CF911F910F9158
:102440000895CF92DF92EF92FF920F931F93CF9355
:10245000DF93CDB7DEB7E5970FB6F894DEBF0FBEBA
:10246000CDBF7C018B016A01CE0101960E943A0D1D
:10247000CE0109960E94D616CE01C0960E943A0D52
:1024800061E974E0CE018A960E944E15BE01665D38
:102490007F4FCE0101960E94E720AE01405D5F4F65
:1024A000B801CE0101960E944B239C018130910519
:1024B000C9F4D701ED91FC910484F585E02D83EFFB
:1024C00092E09DA38CA30AA91BA92CA93DA90EA348
:1024D0001FA328A739A7A601BE016C5D7F4FC701C6
:1024E00009959C01C901E5960FB6F894DEBF0FBEB1
:1024F000CDBFDF91CF911F910F91FF90EF90DF90B3
:10250000CF900895FC011382128248EE53E060E000
:1025100070E0448355836683778389EF92E09183EB
:10252000808384E084870895FC018485843039F0B9
:10253000382F20E0C9018D5F9B4F0C94E51980E096
:102540000895CF93DF93EC018C858430D1F0CE01D8
:102550000E949412843181F0882371F0883161F0F7
:102560008C3161F4E881F9810480F581E02DCE01A0
:10257000099521E0892B19F420E001C021E0822F88
:1025800001C080E0DF91CF910895CF92DF92EF926A
:10259000FF92CF93DF93EC018C85843091F10E9400
:1025A00025180E94E6096B017C01CE010E9494125D
:1025B0008823D1F00E94E6096C197D098E099F09D4
:1025C000683E734081059105A8F00EC08C850E947D
:1025D000A117EC85F0E0EE0FFF1FE756FB4F1182CD
:1025E000108284E08C870DC0CE010E949412882353
:1025F00081F3ECCF61E070E080E090E00E94220A7D
:10260000D4CFDF91CF91FF90EF90DF90CF900895DE
:10261000AF92BF92CF92DF92EF92FF920F931F93F0
:10262000CF93DF93EC015B016A018C85843009F064
:102630004EC093E0E92E94E0F92E00E010E0C701CF
:102640000E94E519811102C00C870AC08831E1F3AC
:102650008C31D1F30F5F1F4FF3940430110579F7DC
:102660008C858430A1F120911C0130911D012F5FD8
:102670003F4F09F002C020E034E030931D01209369
:102680001C0140911C0150911D0120E061E00E945D
:10269000AF17B5016E5F7F4FA6018C850E94EF17C3
:1026A00009C061E070E080E090E00E94220ACE0163
:1026B0000E949412811103C084E08C8708C0CE016F
:1026C0000E949412873169F721E030E002C020E0D7
:1026D00030E0C901DF91CF911F910F91FF90EF90F2
:1026E000DF90CF90BF90AF9008950F9300E020E06F
:1026F00040E060E08BE894E00E94440D0F91089563
:1027000044E050E0BC0181E090E00C94B61944E054
:1027100050E0BC0185E090E00C94B61944E050E034
:10272000BC018FE090E00C94B619AF92BF92CF92AB
:10273000DF92EF92FF920F931F93CF93DF93CDB76A
:10274000DEB76E970FB6F894DEBF0FBECDBF6C013B
:102750005B0182E690E00E94870D8C0182E6F80121
:1027600011928A95E9F7C801895B9F4F0E94D6169E
:10277000F601178306838FEA94E00E94781946E0F9
:1027800050E0B50189E090E00E94B61900E020E039
:1027900040E060E0CE0149960E94440DCE014B9688
:1027A0000E948E1310EAE12E1FE0F12E00E010E0EF
:1027B00020E63AEE40E050E0B501F60186819781CF
:1027C0000E9497208C018130910589F5F601668180
:1027D0007781CE0143960E94AD1DCE0145960E94A1
:1027E0008E13F60166817781CE010D960E94C31D7E
:1027F000CE010F960E948013F60166817781CE018B
:1028000007960E94B81DCE0109960E948713F60113
:1028100066817781CE0101960E94CE1D4B815C813D
:102820006D817E81F6014283538364837583C80181
:102830006E960FB6F894DEBF0FBECDBFDF91CF917D
:102840001F910F91FF90EF90DF90CF90BF90AF90CE
:1028500008958F929F92AF92BF92CF92DF92EF92A4
:10286000FF920F931F93CF93DF9300D0CDB7DEB7C6
:102870004C016A0159018FEA94E069837A830E94CE
:10288000781946E050E069817A8189E090E00E9401
:10289000B619C60102960E948E13C80102960E94C4
:1028A0008013C70102960E948713F501428153816C
:1028B00064817581F40142835383648375830F902F
:1028C0000F90DF91CF911F910F91FF90EF90DF90CC
:1028D000CF90BF90AF909F908F9008956F927F920E
:1028E0008F929F92AF92BF92CF92DF92EF92FF9220
:1028F0000F931F93CF93DF93CDB7DEB76E970FB6CD
:10290000F894DEBF0FBECDBF6C015B017A014901B7
:10291000380100E02FEF4FEF6FEFCE0149960E9494
:10292000440D43EF52E05A8349838B8D9C8DAD8DCE
:10293000BE8D8B839C83AD83BE8358874F83F30109
:1029400082819381A481B58189879A87AB87BC876F
:102950005E874D87F40182819381A481B5818F8741
:10296000988BA98BBA8B5C8B4B8BF701428153817F
:10297000648175814D8B5E8B6F8B788FEE24E39431
:10298000F12CEC0EFD1E8E01095F1F4F9E01235F8F
:102990003F4FAE014D5E5F4FB501C6010E94291445
:1029A0006E960FB6F894DEBF0FBECDBFDF91CF910C
:1029B0001F910F91FF90EF90DF90CF90BF90AF905D
:1029C0009F908F907F906F900895CF92DF92EF92BB
:1029D000FF920F931F93CF93DF93CDB7DEB7689726
:1029E0000FB6F894DEBF0FBECDBF6B017901DA01DF
:1029F00012964D915D916D917C9115974D8B5E8BEB
:102A00006F8B788FA3EFB2E0BA83A98321E0288F80
:102A10000D891E892F89388D0B831C832D833E835E
:102A2000B887AF83F701028113812481358109873B
:102A30001A872B873C87BE87AD874F87588B698B5A
:102A40007A8B8E010F5F1F4F9E01295F3F4FAE01B2
:102A5000435F5F4FB6010E946E1468960FB6F894FC
:102A6000DEBF0FBECDBFDF91CF911F910F91FF90C1
:102A7000EF90DF90CF900895CF93DF93EC010E9409
:102A80003A0DBE016E5F7F4F44E050E08FE090E072
:102A90000E94DE1ACE01DF91CF91089523EF32E03C
:102AA000FC0131832083FB01428153816481758164
:102AB000FC01428353836483758308950F9300E080
:102AC00020E040E060E081EA94E00E94440D81E96A
:102AD00094E00F910C943A0DDC01ED91FC91008C87
:102AE000F18DE02D099423EF32E0FC013183208346
:102AF000FB014189528963897489FC0142835383B4
:102B0000648375830895FC01858996890895FC0185
:102B1000818D928D0895CF93DF931F92CDB7DEB74D
:102B20006983DC01ED91FC910280F381E02D41E0AD
:102B300050E0BE016F5F7F4F09950F90DF91CF91FD
:102B40000895CF93DF93EC0107C0E881F9810680F7
:102B5000F781E02DCE010995898D9A8D892BA9F7F2
:102B6000DF91CF910895CF93DF931F92CDB7DEB75A
:102B7000FC01218D328D232B49F0BE016F5F7F4F09
:102B800084850E94BE18298130E002C02FEF3FEFFC
:102B9000C9010F90DF91CF910895CF93DF93EC019E
:102BA000898D9A8D009719F42FEF3FEF11C04817C8
:102BB000590708F0AC018C850E947F189C011816FB
:102BC000190694F7898D9A8D821B930B9A8F898FA2
:102BD000C901DF91CF9108950F931F93CF93DF9396
:102BE0001F92CDB7DEB78C01FC01818D928D892BB0
:102BF00059F041E050E0BE016F5F7F4F84850E9435
:102C00007F18181619061CF02FEF3FEF08C0F801C7
:102C1000818D928D0197928F818F298130E0C9013A
:102C20000F90DF91CF911F910F910895CF93DF9374
:102C3000EC019A018F89988DAB01BC018C850E94B3
:102C4000CC189C018F89988D820F931F988F8F8B42
:102C5000C901DF91CF910895FC0184850C94281956
:102C6000FC01108E178A6E5F7F4F84850C940219C9
:102C7000CF93DF93EC018C85843061F00E94A11723
:102C8000EC85F0E0EE0FFF1FE756FB4F118210823C
:102C900084E08C87DF91CF9108950F931F93CF939A
:102CA000DF93CDB7DEB728970FB6F894DEBF0FBE1F
:102CB000CDBF8C01DC01ED91FC910284F385E02D08
:102CC0000995F80164858FEA94E00E94921A892B95
:102CD00029F148E050E0BE016F5F7F4FD8011C969C
:102CE0008C910E947F189C0118161906CCF4BE0125
:102CF0006F5F7F4FC8010F960E94600D9D8180E03D
:102D00002E81820F911DF801968B858B3F8120E0EB
:102D10008885280F311D328F218F02C020E030E0DE
:102D2000C90128960FB6F894DEBF0FBECDBFDF9164
:102D3000CF911F910F910895CF92DF92EF92FF9262
:102D40000F931F93CF93DF93EC016B018C8584303D
:102D500019F593E0E92E94E0F92E00E010E0C701A8
:102D60000E94E519811102C00C8708C08831E1F387
:102D70000F5F1F4FF3940430110589F78C85843061
:102D800059F0DE86CD861A8E198E20E0A60162E00B
:102D90000E94AF1781E001C080E0DF91CF911F91C9
:102DA0000F91FF90EF90DF90CF900895FC01138278
:102DB000128248EE53E060E070E0448355836683FE
:102DC000778385E193E09183808384E08487CF01DA
:102DD0000F960C943A0DCF92DF92EF92FF920F93E1
:102DE0001F93CF93DF93CDB7DEB7E5970FB6F89477
:102DF000DEBF0FBECDBF7C018B016A01CE01019603
:102E00000E943A0DCE0109960E94D616CE01C096B8
:102E10000E943A0D61E974E0CE018A960E944E1537
:102E2000BE01665D7F4FCE0101960E94E720AE0194
:102E3000405D5F4FB801CE0101960E944B239C017B
:102E400081309105C9F4D701ED91FC910088F18999
:102E5000E02D83EF92E09DA38CA30AA91BA92CA9C6
:102E60003DA90EA31FA328A739A7A601BE016C5D2B
:102E70007F4FC70109959C01C901E5960FB6F894EB
:102E8000DEBF0FBECDBFDF91CF911F910F91FF909D
:102E9000EF90DF90CF9008950F9300E020E040E0A6
:102EA00060E087EA94E00E94440D0F910895382F66
:102EB00020E044E050E0C901845F9B4F0C94B619B8
:102EC000282F30E02C5F3F4F922F8827860F971FC7
:102ED0000C94E51962E070E00C946017FB01282F58
:102EE00030E02C5F3F4F922F8827642F8E0F9F1F5B
:102EF0000C945619462F62E070E00C946E17CF9335
:102F0000DF93C82FD62F472F60E170E00E946E1725
:102F10004D2F61E170E08C2FDF91CF910C946E17F3
:102F2000CF93DF93C82FD62F472F64E070E00E9425
:102F30006E174D2F65E070E08C2FDF91CF910C94D0
:102F40006E17CF93C82F40E150E0682F8FEA94E0CE
:102F50000E94961B6FEF8C2FCF910C947A17EF92F3
:102F6000FF921F93CF93DF9300D0CDB7DEB7182F1A
:102F70007A01862F8150853048F5812F2A83698315
:102F80000E94A1172A816981422F462B60E070E0E0
:102F9000812F0E946E17E114F10411F0B7010AC0ED
:102FA0006091AD047091AE046F5F7F4F7093AE047B
:102FB0006093AD04812F0E94901741E050E0612F93
:102FC0008FEA94E00E94961B81E001C080E00F90A0
:102FD0000F90DF91CF911F91FF90EF9008951F9375
:102FE000CF93DF93182FFB01EA0180818F3F51F4CB
:102FF00081818F3F91F482818F3F79F483818F3F6C
:1030000061F41EC0811109C08181811106C08281D5
:10301000811103C08381882399F0209789F0BF0133
:10302000812F0E945717BE01812F0E947F1744E015
:1030300050E0612F8FEA94E00E94961B81E001C06E
:1030400080E0DF91CF911F91089548E050E0682F14
:103050008FEA94E00C94961BDF92EF92FF920F930D
:103060001F93CF93DF93D82E8B01EA01413088E084
:10307000580710F0C0E0D8E06D2D8FEA94E00E9470
:10308000C21A7C0163E070E08D2D0E9460178731C9
:1030900011F08C3121F4EC16FD0670F302C0C0E093
:1030A000D0E09E01A8016D2D8FEA94E00E94731A72
:1030B00040E250E06D2D8FEA94E00E94961B0DC017
:1030C00063E070E08D2D0E946017811106C08D2D88
:1030D0000E94A117C0E0D0E009C08D2D0E946A17A0
:1030E00084FFEECF60E18D2D0E947A17CE01DF9133
:1030F000CF911F910F91FF90EF90DF900895DF9295
:10310000EF92FF920F931F93CF93DF93D82E7B0103
:103110008A01682F8FEA94E00E94921AEC010097CE
:1031200071F463E070E08D2D0E9460178431E9F046
:103130008823D9F08C31C9F0CFEFDFEF16C0081724
:1031400019070CF4E8011C161D067CF400E09E0132
:10315000A7016D2D8FEA94E00E94461B40E450E0E9
:103160006D2D8FEA94E00E94961BCE01DF91CF91E6
:103170001F910F91FF90EF90DF9008950F93AB0197
:1031800001E021E030E0682F8FEA94E00E94461BC6
:1031900081E090E00F910895AF92BF92CF92DF92BD
:1031A000EF92FF920F931F93CF93DF93B82E7B0183
:1031B0006A01E901682F8FEA94E00E94C21A8C1715
:1031C0009D0740F46B2D8FEA94E00E94C21AA82E4E
:1031D000C92F02C0AC2ECD2F0A2D1C2F9601A7019E
:1031E0006B2D8FEA94E00E94051A8A2D9C2FDF91A7
:1031F000CF911F910F91FF90EF90DF90CF90BF90F4
:10320000AF9008951F93CF93DF93182FFB01EA012E
:103210008081811109C08181811106C08281811163
:1032200003C08381882369F0209759F0BF01812F63
:103230000E945717BE01812F0E947F1721E030E0C6
:1032400002C020E030E0C901DF91CF911F910895C5
:10325000CF93C82F40E250E0682F8FEA94E00E949D
:10326000961B0CC08C2F0E946A1783FF07C068E171
:103270008C2F0E947A1720E030E00BC08C2F0E9428
:103280006A1784FFEFCF60E18C2F0E947A1721E04C
:1032900030E0C901CF9108958EBD0DB407FEFDCF7A
:1032A0008EB508952A9808952A9A08951F93CF936A
:1032B000DF9300D0CDB7DEB7182F6A8399830E94C1
:1032C000521980EF0E944C199981892F0E944C1944
:1032D000812F0E944C196A81862F0E944C190E94EE
:1032E000541981E00F900F90DF91CF911F910895B5
:1032F000CF93DF93EC016CE271E080E090E00E94FC
:10330000220A0E94A61B229A60E880E090E00E94B8
:10331000561965E58BE190E00E94561965E58AE152
:1033200090E00E94561980E090E49983888380E0C1
:1033300090E69987888780E098E49B838A8380E081
:1033400098E69B878A8780E090E59D838C8380E068
:1033500090E79D878C8780E098E59F838E8380E04F
:1033600098E79F878E87DF91CF910895CF92DF9264
:10337000EF92FF920F931F93CF93DF93EC017A01AB
:103380008B016A01C80ED91E13C00E94521980EF2A
:103390000E944C198D2F0E944C198C2F0E944C19A1
:1033A0002196F80181918F010E944C190E945419B5
:1033B000CC15DD0551F7C701DF91CF911F910F911A
:1033C000FF90EF90DF90CF9008951F93CF93DF93FE
:1033D0001F92CDB7DEB7182F99830E9452198FE044
:1033E0000E944C199981892F0E944C19812F0E94AB
:1033F0004C1980E00E944C1989830E9454198981DC
:103400000F90DF91CF911F9108956F927F929F92BD
:10341000AF92BF92CF92DF92EF92FF920F931F93E2
:10342000CF93DF931F92CDB7DEB7F82E962E3A01D9
:10343000590164E270E0892D99830E946017E82E9B
:1034400065E270E0892D0E946017DE2CC12CC82A2D
:10345000C60CD71C960137706F2C9981792E690C98
:10346000711C690C711CD301ED91FC91E20FF31FEB
:10347000C901800F911F81309840A0F0E12C48E0F5
:10348000F42EE21AF30AA701B501CF010E94B61982
:10349000A8014E195F09B5016E0D7F1DF3018081F2
:1034A000918103C0A801B501CF010E94B6190C0D8E
:1034B0001D1D412F64E270E0892D0E946E17402F80
:1034C00065E270E0892D0F90DF91CF911F910F91F0
:1034D000FF90EF90DF90CF90BF90AF909F907F9044
:1034E0006F900C946E170F931F9389019A0140E01F
:1034F00050E00E94051A1F910F910895CF93DF931A
:10350000C82F66E270E00E946017D82F67E270E073
:103510008C2F0E9460173D2F20E0282BC901DF91DE
:10352000CF910895FF920F931F93CF93DF93F62EC1
:10353000C0E0D0E08F2D0E947E1A8C01009721F010
:103540008F2D0E947E1AEC01C017D10799F7CE018A
:10355000DF91CF911F910F91FF900895CF93DF934B
:10356000C82F60E270E00E946017D82F61E270E01F
:103570008C2F0E9460173D2F20E0282BC901DF917E
:10358000CF910895FF920F931F93CF93DF93F62E61
:10359000C0E0D0E08F2D0E94AE1A8C01009721F080
:1035A0008F2D0E94AE1AEC01C017D10799F7CE01FA
:1035B000DF91CF911F910F91FF900895CF92DF92ED
:1035C000EF92FF920F931F93CF93DF93EC017A0159
:1035D0008B016A01C80ED91E14C00E9452198FE0D7
:1035E0000E944C198D2F0E944C198C2F0E944C194F
:1035F000219680E00E944C19F80181938F010E946E
:103600005419CC15DD0549F7C701DF91CF911F9102
:103610000F91FF90EF90DF90CF900895CF92DF92BF
:10362000EF92FF920F931F93CF93DF93690157702F
:10363000EC01C60FD11DC60FD11D28968881998136
:10364000840F951F9801240F351F2130384090F0CA
:10365000E12C68E0F62EE41AF50AA701B6010E94F3
:10366000DE1AA8014E195F09B6016E0D7F1D888113
:10367000998102C0A801B601DF91CF911F910F91EE
:10368000FF90EF90DF90CF900C94DE1A8F929F9274
:10369000AF92BF92CF92DF92EF92FF920F931F9360
:1036A000CF93DF936C01962E5A01E901802E68E2D8
:1036B00070E0892D0E946017F82E69E270E0892D74
:1036C0000E946017FF2DE0E07F01E82A8E0195013E
:1036D000A701692DC6010E940E1B81101AC0CE0DD4
:1036E000DF1D4D2F68E270E0892D0E946E174C2F70
:1036F00069E270E0892DDF91CF911F910F91FF90CA
:10370000EF90DF90CF90BF90AF909F908F900C94F0
:103710006E17DF91CF911F910F91FF90EF90DF9087
:10372000CF90BF90AF909F908F900895CF93C62F6A
:1037300061E070E08C2F0E946E1761E070E08C2FCA
:103740000E9460178111F9CFCF91089561E08DE05B
:103750000E94AD0A61E08BE00E94AD0A61E08AE060
:103760000E94AD0A60E08DE00E94E50A60E08BE017
:103770000E94E50A61E08AE00E94E50A8CB580615A
:103780008CBD8CB580648CBD08950E96FC0184E1DF
:10379000DF011D928A95E9F708952F923F924F928B
:1037A0005F926F927F928F929F92AF92BF92CF92D1
:1037B000DF92EF92FF920F931F93CF93DF93CDB7DA
:1037C000DEB7E4970FB6F894DEBF0FBECDBF7C0125
:1037D0002A013B0169010E94E6094B015C01870156
:1037E000095B1F4F12C00E94E609681979098A090E
:1037F0009B09461657066806790608F477C162E306
:1038000070E080E090E00E94220AC8010E944D16FC
:103810001816190644F742E250E0BE016F5F7F4F71
:10382000C8010E94CD158981823009F05AC1F80182
:10383000858996898334910509F45BC152C1F701EA
:1038400080819181A281B38188169906AA06BB0660
:1038500048F084819581A681B78188159905AA05CC
:10386000BB0528F4C8010E94A115512C5CC18989AF
:103870009A89AB89BC89F70186879787A08BB18B22
:103880008EECC82ED12CC8010E94EC15F1E0CF1AA5
:10389000D108C9F7512CC70182969AA789A7F701C9
:1038A000B696FCA7EBA7C7018A969EA78DA7F7013E
:1038B000E85AFF4FF8ABEFA76701FAE1CF0ED11C32
:1038C000C70142969AAB89AB570196E1A90EB11C8C
:1038D000F7017E96FCABEBABFCC0C8010E94EC1577
:1038E0008333910509F4CCC07CF48130910549F112
:1038F00024F4892B09F4EDC0DDC08330910549F132
:10390000069709F0D7C040C08A33910509F48CC0EE
:103910003CF48533910569F0C69709F0CBC050C0DF
:103920008B33910509F496C08F3F910509F0C2C011
:10393000D0C0C8010E94EC15C8010E94EC15582E99
:10394000C8C0C8010E94EC1544E050E069A97AA9FA
:1039500047C0C8010E94EC153C0144E050E0B501AD
:10396000C8010E94CD15212C312C7724F4E06F1A68
:10397000710806C0C8010E94EC158FEF281A380A9A
:1039800026143704BCF3A5C0C8010E94EC153C0105
:1039900044E050E06BA97CA9C8010E94CD15212C00
:1039A000312C772494E0691A710806C0C8010E947E
:1039B000EC15EFEF2E1A3E0A26143704BCF389C02B
:1039C000C8010E94EC15482EF701828D938DA48DBD
:1039D000B58D892B8A2B8B2B39F444E050E0B6014E
:1039E000C8010E94CD1575C0EFA5F8A9608071804F
:1039F00082809380B601CE0183960E94500D8DA1E6
:103A00009EA1AFA1B8A586159705A805B90529F30C
:103A1000212C312C06C0C8010E94EC15FFEF2F1A93
:103A20003F0A4210F8CF55C0C8010E94EC1544E08F
:103A300050E06BA57CA5C8010E94CD15F70166A1D9
:103A400077A180A591A50E947C2966A377A380A772
:103A500091A73FC0C8010E94EC1544E050E06DA55D
:103A60007EA5C8010E94CD15F70162A573A584A5A6
:103A700095A50E947C2962A773A784A795A729C052
:103A8000C8010E94EC1544E050E069A57AA5C80180
:103A90000E94CD15F70162A173A184A195A10E9496
:103AA0007C2962A373A384A395A366A777A780ABA1
:103AB00091AB0FC0C8010E94EC15382E612C712CFF
:103AC00006C0C8010E94EC15FFEF6F1A7F0A36107E
:103AD000F8CFC8010E948715181619060CF4FDCE00
:103AE00001C0512CC8010E94A1151DC055245A9433
:103AF0001AC06D817E818F8198850E947C294B013F
:103B00005C01F6016083718382839383B701685FF0
:103B10007F4F46E050E0CE014D960E9499260097D7
:103B200009F48DCE9FCE852DE4960FB6F894DEBFB6
:103B30000FBECDBFDF91CF911F910F91FF90EF90FE
:103B4000DF90CF90BF90AF909F908F907F906F90BD
:103B50005F904F903F902F900895CF93DF93EC01AB
:103B6000625F7F4F0E94500DCE01DF91CF9108958B
:103B7000CF93DF93EC016E5E7F4F0E94500DCE011C
:103B8000DF91CF910895CF93DF93EC016A5E7F4F71
:103B90000E94500DCE01DF91CF910895CF93DF9316
:103BA000EC01625E7F4F0E94500DCE01DF91CF91FC
:103BB000089580E3FB0180833296842F82958F7075
:103BC00090E1899F401911244A3014F4405D01C0EE
:103BD000495C4293482F8111F0CF08956F927F92F4
:103BE0008F929F92AF92BF92CF92DF92EF92FF920D
:103BF0000F931F93CF93DF93CDB7DEB7AC970FB67C
:103C0000F894DEBF0FBECDBF7C01862EB42EA52E4C
:103C100030E2932ECC24C394D12CCC0EDD1EF601C1
:103C2000292D11922A95E9F70FEF2FEF4FEF6FEF44
:103C3000CE0187960E94440D83EF92E09AA389A358
:103C400089A59AA5ABA5BCA58BA39CA3ADA3BEA338
:103C50008701095B1F4F43E450E0BE016F5D7F4F5A
:103C6000C8010E943016019609F4C1C081E0898321
:103C70008A8396E0792E7B821C82F70164817581AC
:103C8000868197810E947C296D837E838F839887AC
:103C9000A986BA8680E890E09C878B874CE150E04B
:103CA000B601C8010E941616F601292D11922A9517
:103CB000E9F7570188E0A80EB11CF501D601019083
:103CC0000D927A94E1F740E150E0B601C8010E94FC
:103CD0001616F60111929A94E9F726E0622E712CDD
:103CE00040E250E0B601C8010E941616F1E06F1ADA
:103CF0007108B1F783E6898392E89A8393E59B8301
:103D00008C8385E38D8381E08E838F829DE398870A
:103D100097E099878A8786E0F501DE011B9601907E
:103D20000D928A95E1F78CE0898B8A8B65E373E0CD
:103D3000CE0143960E94B826F7014385BE01675E17
:103D40007F4FC7010E94D91DF7014485BE01655E02
:103D50007F4FC7010E94D91DF7014585BE01635EF3
:103D60007F4FC7010E94D91D4EE150E0B601C80146
:103D70000E941616F3E08F121EC082E3898384E04E
:103D80008A83F70196859B8397859C8390899D8381
:103D900091899E8396E39F838887828D8987838D0F
:103DA0008A87848D8B87858D8C874CE050E0B601A7
:103DB000C8010E94161687E3898386E08A8391E012
:103DC0009B8393E09C838D838FE08E838AE38F8334
:103DD0008BE388878FEF898749E050E0BE016F5FF2
:103DE0007F4FC8010E941616C8010E942C16AC967F
:103DF0000FB6F894DEBF0FBECDBFDF91CF911F91FC
:103E00000F91FF90EF90DF90CF90BF90AF909F9079
:103E10008F907F906F9008952F923F924F925F9274
:103E20006F927F928F929F92AF92BF92CF92DF92CA
:103E3000EF92FF920F931F93CF93DF93CDB7DEB72F
:103E400028970FB6F894DEBF0FBECDBF8C0120EDD2
:103E500037E040E050E061E070E080E090E00E94F8
:103E60001B24D80114966C93149715967C93159780
:103E700016968C93169717969C9317976C9311969A
:103E80007C93119712968C93129713969C93F8013A
:103E9000E95BFF4FFE83ED8364E470E0CF010E9495
:103EA0009C16882309F427C10E94E6096B017C0156
:103EB000812C912C312C5801F6E4AF0EB11CC801B5
:103EC000CE9698878F8338EE432E33E0532E612CA5
:103ED000712C42E0242EF9C081111FC0F8018481A9
:103EE0009581A681B7810196A11DB11D848395831B
:103EF000A683B7830E94E6096C197D098E099F0984
:103F0000A30192010E940729A90161E0C8010E9452
:103F1000EE1D81E0D5018C93BCC08430F1F4F80132
:103F200084819581A681B7810196A11DB11D8483ED
:103F30009583A683B7830E94E6096C197D098E09D3
:103F40009F09A30192010E940729A90163E0C8010A
:103F50000E94EE1DD5012C929CC0813059F5EF8155
:103F6000F88540815181628173819E012F5F3F4FAF
:103F7000C8010E94CD1B382EF2E08F138AC08981C0
:103F80009A81AB81BC81F80184839583A683B78332
:103F90000E94E6096C197D098E099F09A30192010F
:103FA0000E940729A90163E0C8010E94EE1DD50106
:103FB0003C9275C0823009F06CC0EF81F885408179
:103FC0005181628173819E012F5F3F4FC8010E9422
:103FD000CD1B382EF5E08F1356C0E3E0D501EC93EE
:103FE000F80182A193A1A4A1B5A1892B8A2B8B2BC7
:103FF00041F484E893E0A0E0B0E082A393A3A4A3FB
:10400000B5A3F80186A197A1A0A5B1A5892B8A2BFC
:104010008B2B61F482A193A1A4A1B5A1B695A7951C
:104020009795879586A397A3A0A7B1A7D8019A963D
:104030004D915D916D917C919D9796968D919D91FD
:104040000D90BC91A02D452B462B472B59F4AC016C
:10405000BD01440F551F661F771FF80142A753A7E4
:1040600064A775A7F80186A797A7A0ABB1AB82A5F7
:1040700093A5A4A5B5A582AB93ABA4ABB5AB88249F
:104080008394912C0CC0F6E08F1303C0D5011C92D1
:1040900006C0BFEF3B1203C0F5011082312CF1E0E6
:1040A0008F16910491F00E94E6096C197D098E0922
:1040B0009F09D801DA962D913D914D915C91DD9744
:1040C000261737074807590728F0F5018081833004
:1040D00009F002CF8D819E810E943816F8018481FB
:1040E0009581A681B7810196A11DB11D8483958319
:1040F000A683B78302C0812C912CC40128960FB6E9
:10410000F894DEBF0FBECDBFDF91CF911F910F910D
:10411000FF90EF90DF90CF90BF90AF909F908F90E7
:104120007F906F905F904F903F902F900895CF9227
:10413000DF92EF92FF920F931F93CF93DF93EC01E7
:104140006B011AA21BA21CA21DA21EA21FA218A6CE
:1041500019A61AA61BA61CA61DA61EAA1FAA18AE43
:1041600019AE2AAF3BAF4CAF5DAFFC01FE96E082CB
:10417000F182028313838C01085F1F4F86E0F801F0
:1041800011928A95E9F7CE010E94C51B86E0F601DF
:10419000D80101900D928A95E1F7FE01EA5BFF4F8D
:1041A0001082CE01DF91CF911F910F91FF90EF9080
:1041B000DF90CF900C940C1F0F9300E020E040E0C4
:1041C00060E08FEB94E00E94440D0F910895FB0195
:1041D0004281538164817581FC01428353836483EE
:1041E0007583178216820895CF93FB01DB018D91B1
:1041F0008111FDCF80E090E020E030E0CAE01BC0FC
:104200008F3F910509F064F5DA01A20FB31F1296F2
:104210008C932F5F3F4F80E090E00DC0DC01CA9F80
:10422000C001CB9F900D1124772767FD70956053D7
:104230007109860F971F6191662321F024303105A3
:1042400094F00EC08F3F910509F054F424303105ED
:104250003CF4FA01E20FF31F828321E030E006C054
:1042600020E030E003C06E32C9F6CACFC901CF9159
:104270000895AF92BF92CF92DF92EF92FF920F9389
:104280001F93CF93DF9300D01F92CDB7DEB77C0191
:104290005B010E94E609F701778366838701085F67
:1042A0001F4FB7016A5F7F4F42E050E0C8010E9494
:1042B000161681E090E09A83898342E050E0BE01C7
:1042C0006F5F7F4FC8010E94161680E091E09A83CD
:1042D000898342E050E0BE016F5F7F4FC8010E94BA
:1042E00016161A82198242E050E0BE016F5F7F4FBE
:1042F000C8010E94161642E050E0BE016F5F7F4F7A
:10430000C8010E94161642E050E0BE016F5F7F4F69
:10431000C8010E9416167501650121C0F6017F01D2
:104320008191811107C05701AC18BD081A141B04F4
:1043300024F011C08E3299F7F6CFAB8241E050E005
:10434000BE016D5F7F4FC8010E941616A501B60120
:10435000C8010E9416166701FFEFCF1ADF0AF701A6
:1043600080818111DBCF1B8241E050E0BE016D5F97
:104370007F4FC8010E941616E12CFF24F394FA82A5
:10438000E98242E050E0BE016F5F7F4FC8010E94AA
:104390001616FA82E98242E050E0BE016F5F7F4F5D
:1043A000C8010E94161681E090E00F900F900F90C8
:1043B000DF91CF911F910F91FF90EF90DF90CF9001
:1043C000BF90AF9008954F925F926F927F928F92BD
:1043D0009F92AF92BF92CF92DF92EF92FF920F9394
:1043E0001F93CF93DF93CDB7DEB763970FB6F894E3
:1043F000DEBF0FBECDBF7C015B016A010E94E609F2
:104400002B013C018701085F1F4F4501A12CB12CF6
:1044100012C00E94E6096419750986099709861673
:104420009706A806B90608F40FC162E370E080E0C1
:1044300090E00E94220AC8010E944D161816190623
:1044400044F7F7014281538164817581818D928D9A
:10445000A38DB48D481759076A077B0709F0F7C089
:10446000858D968DC59709F0F2C0F7C04CE050E0FD
:10447000BE016F5F7F4FC8010E94CD158B819C816B
:104480009827892798279A8B898BF701468157812E
:1044900029813A814217530711F497FD06C0C801DC
:1044A0000E94A1152CEF3FEFDEC08F709270892B18
:1044B00031F0C8010E94A1152BEF3FEFD4C08F80CF
:1044C00098849824892498248114910479F5C8014A
:1044D0000E94A1152AEF3FEFC6C041E050E0BE01A7
:1044E000635F7F4FC8010E94CD158D85811107C084
:1044F0008D858111F2CF0AC0C8010E94EC158D850F
:10450000982F91509D878111F7CFF2CFC8010E945B
:10451000EC15C8010E94EC15C8010E94EC15C801F9
:104520000E94EC15FFEFEF1AFF0A02C0E12CF12CFC
:104530008D819E81982789279827E816F90668F2C9
:10454000A12CB12C41E050E0BE016D5E7F4FC8014F
:104550000E94CD158B89982F907C69F4811104C03D
:104560000EC0C8010E94EC158B89982F91509B8B2F
:104570008111F7CF04C0C8010E94EC151B8A8B89FA
:104580008111E0CF42E050E0BE01615F7F4FC80182
:104590000E94CD1542E050E0BE01635F7F4FC8012D
:1045A0000E94CD15C8010E94EC15C8010E94EC15AF
:1045B000C8010E94EC15C8010E94EC1542E050E0D1
:1045C000BE016F5E7F4FC8010E94CD158F8598890F
:1045D0008115914011F58D859E8581159140E9F4F5
:1045E00089899A898115944031F0C8010E94A115EA
:1045F00027EF3FEF38C0B6016E5F7F4F44E050E0D9
:10460000C8010E94CD1521E030E02DC0C8010E94F4
:10461000EC152FEFE21AF20A02C0E12CF12C898985
:104620009A89982789279827E816F90678F38FEF53
:10463000A81AB80AA814B90409F084CFC8010E94C6
:10464000A11526EF3FEF0FC02FEF3FEF0CC02EEF6D
:104650003FEF09C02DEF3FEF06C0C8010E9487154C
:104660000C97C4F303CFC90163960FB6F894DEBF6D
:104670000FBECDBFDF91CF911F910F91FF90EF90B3
:10468000DF90CF90BF90AF909F908F907F906F9072
:104690005F904F9008958F929F92AF92BF92CF926A
:1046A000DF92EF92FF920F931F93CF93DF9300D08F
:1046B00000D000D0CDB7DEB78C015B016A010E944B
:1046C000F420892B09F051C0F801428153816481A3
:1046D00075818091C7049091C804A091C904B091DC
:1046E000CA04481759076A077B0709F442C00E94A9
:1046F000E6097801F8E0EF0EF11C6F707727882744
:1047000099277C5FC7010E949C168130B9F583EF21
:1047100092E09A838983F80182819381A481B58193
:104720008B839C83AD83BE8345E350E0BE016F5F06
:104730007F4FC7010E943016892B19F4A12CB12C90
:1047400010C0B501C8010E943921892BB9F3C701F6
:104750000E942C16892BA9F4F1CFFFEFAF16BF06EC
:1047600099F0C7010E9438161BC0AA24A394B12C4B
:1047700017C02EEFA22EBB24BA9412C0A12CB12CCC
:104780000FC093E0892E912CA60168E873E1C8015F
:104790000E94E3215C0121E0821A910811F3DDCF30
:1047A000C50126960FB6F894DEBF0FBECDBFDF91D0
:1047B000CF911F910F91FF90EF90DF90CF90BF901E
:1047C000AF909F908F9008950F9300E020E040E01D
:1047D00060E085EC94E00E94440D0F9108950F93E2
:1047E0001F93CF93DF9300D000D0CDB7DEB79B01EE
:1047F000AC01611571058105910579F069833A83F2
:104800004B835C830E94C02529813A814B815C8166
:104810000E9429298B019C0103C000E010E098014F
:10482000B801C9010F900F900F900F90DF91CF91B9
:104830001F910F910895CF92DF92EF92FF926B013B
:104840007C01621773078407950764F4CA01B901F4
:104850006C197D098E099F090E94EF23C60ED71E91
:10486000E81EF91EB601C701FF90EF90DF90CF90D0
:1048700008950F931F93CF93DF938230910510F427
:1048800082E090E0E091CD04F091CE0420E030E0B1
:10489000C0E0D0E023C04081518148175907A8F0FB
:1048A0004817590761F482819381209719F09B83FF
:1048B0008A832EC09093CE048093CD0429C0211505
:1048C000310529F04217530710F0A90102C0BE01BB
:1048D000DF0102811381EF019A01F8013097D9F6C7
:1048E0002115310509F1281B390B2430310590F4CD
:1048F00012968D919C9113976115710521F0FB0122
:104900009383828304C09093CE048093CD04FD01F1
:10491000329644C0FD01E20FF31F81939193225020
:1049200031092D933C933AC02091CB043091CC04B3
:10493000232B41F420910201309103013093CC04E8
:104940002093CB0420910001309101012115310504
:1049500041F42DB73EB74091040150910501241B4D
:10496000350BE091CB04F091CC04E217F307A0F4EF
:104970002E1B3F0B2817390778F0AC014E5F5F4FB5
:104980002417350748F04E0F5F1F5093CC04409317
:10499000CB048193919302C0E0E0F0E0CF01DF917E
:1049A000CF911F910F910895EF92FF920F931F9354
:1049B000CF93DF93009709F48EC0DC011297139612
:1049C0001C921E921297E090CD04F090CE04E11458
:1049D000F10489F42D913C911197280F391F809192
:1049E000CB049091CC048217930789F5B093CC0443
:1049F000A093CB0470C0E70120E030E001C0EA01E1
:104A0000CA17DB0738F44A815B819E0141155105C5
:104A1000B1F722C0AC0142505109FA01D383C283DD
:104A200000811181BC01600F711F6C177D0761F45B
:104A300068817981600F711F6E5F7F4F7183608322
:104A40006A817B81738362832115310529F4B093D8
:104A5000CE04A093CD043FC0F901B383A283E90142
:104A600049915991C40FD51FAC17BD0771F4DC01F2
:104A70009E918E91840F951F02969183808312964A
:104A80008D919C91139793838283A0E0B0E002C044
:104A9000D7017C01F701828193810097C9F7C70193
:104AA000029620813181820F931F2091CB04309197
:104AB000CC042817390779F4109729F41092CE0402
:104AC0001092CD0404C013961C921E921297F0927D
:104AD000CC04E092CB04CDB7DEB7E6E00C946D29B0
:104AE0008F929F92AF92BF92CF92DF92EF92FF92FE
:104AF000CF93DF93EC01688179818A819B81611575
:104B000071058105910521F464E279ED8BE597E06B
:104B10002DE133EF41E050E00E94292949015A017B
:104B20009B01AC01A7EAB1E40E94F4286B017C016F
:104B3000ACEEB4EFA50194010E940229C60ED71E67
:104B4000E81EF91EF7FE06C081E0C81AD108E10888
:104B500080E8F80AC882D982EA82FB82E894F7F8F2
:104B6000B601C701DF91CF91FF90EF90DF90CF901A
:104B7000BF90AF909F908F9008950E9470250895E8
:104B800086E091E00E94702508956093060170937D
:104B9000070180930801909309010895A0E0B0E017
:104BA000E4EDF5E20C944B29EC01009729F4CB01DC
:104BB0000E943924EC01B4C0DC01A60FB71FFC0130
:104BC0003297AE17BF0718F4C0E0D0E0A9C000814B
:104BD000118106171707B0F00530110508F4A0C0C1
:104BE000C80104978617970708F49AC00250110964
:104BF000061B170B0D931D9371836083CD010E94DB
:104C0000D4248EC06B01C01AD10A7C01E00EF11EC3
:104C1000E091CD04F091CE0420E030E080E090E01F
:104C200048C0EE15FF05D1F580809180540142E027
:104C3000A40EB11CAC14BD0488F17401EC18FD087D
:104C4000670122E0C20ED11C9E012250310945E0CD
:104C5000C416D10478F04281538113965C934E932D
:104C600012971196FC92EE92F901718360833A2FAC
:104C70002B2F09C00E5F1F4F080D191DD9010D9371
:104C80001C9332812381009721F0FC01328323831E
:104C900047C03093CD042093CE0442C080819181DF
:104CA0002817390708F49C0152814381CF01E52F71
:104CB000F42F309709F0B5CF8091CB049091CC04BC
:104CC0008E159F05F1F426173707D8F4809100015F
:104CD00090910101009741F48DB79EB72091040196
:104CE00030910501821B930BA817B90708F06CCF10
:104CF000B093CC04A093CB04FE0132977183608300
:104D00000FC0CB010E9439247C01009709F45CCFCD
:104D1000A801BE010E94A626CE010E94D424E7016C
:104D2000CE01CDB7DEB7ECE00C946729F8940C9473
:104D30009529FB01DC0104C08D910190801921F4BB
:104D400041505040C8F7881B990B0895FB01DC01C6
:104D500002C001900D9241505040D8F70895FB01D8
:104D6000DC018D91019080190110D9F3990B089500
:104D7000FB01DC0101900D920020E1F70895FB0199
:104D800051915523A9F0BF01DC014D914517411107
:104D9000E1F759F4CD010190002049F04D91401503
:104DA0004111C9F3FB014111EFCF81E090E0019780
:104DB00008955058BB27AA270ED075C166D130F090
:104DC0006BD120F031F49F3F11F41EF45BC10EF45F
:104DD000E095E7FB51C1E92F77D180F3BA1762075D
:104DE00073078407950718F071F49EF58FC10EF4D0
:104DF000E0950B2EBA2FA02D0B01B90190010C01EB
:104E0000CA01A0011124FF27591B99F0593F50F402
:104E1000503E68F11A16F040A22F232F342F44275A
:104E2000585FF3CF469537952795A795F040539552
:104E3000C9F77EF41F16BA0B620B730B840BBAF022
:104E40009150A1F0FF0FBB1F661F771F881FC2F78D
:104E50000EC0BA0F621F731F841F48F487957795A1
:104E60006795B795F7959E3F08F0B3CF9395880F58
:104E700008F09927EE0F979587950895D9D008F4F3
:104E800081E008950CD00FC107D140F0FED030F082
:104E900021F45F3F19F0F0C0511139C1F3C014D1B2
:104EA00098F39923C9F35523B1F3951B550BBB27F1
:104EB000AA2762177307840738F09F5F5F4F220F9E
:104EC000331F441FAA1FA9F333D00E2E3AF0E0E897
:104ED00030D091505040E695001CCAF729D0FE2FE3
:104EE00027D0660F771F881FBB1F26173707480775
:104EF000AB07B0E809F0BB0B802DBF01FF2793582B
:104F00005F4F2AF09E3F510568F0B6C000C15F3F79
:104F1000ECF3983EDCF3869577956795B795F79512
:104F20009F5FC9F7880F911D9695879597F908950A
:104F3000E1E0660F771F881FBB1F621773078407A6
:104F4000BA0720F0621B730B840BBA0BEE1F88F7B5
:104F5000E095089504D06894B111D9C00895BCD0EB
:104F600088F09F5790F0B92F9927B751A0F0D1F052
:104F7000660F771F881F991F1AF0BA95C9F712C0DC
:104F8000B13081F0C3D0B1E00895C0C0672F782F51
:104F90008827B85F39F0B93FCCF386957795679548
:104FA000B395D9F73EF490958095709561957F4FB4
:104FB0008F4F9F4F0895E89409C097FB3EF490955A
:104FC0008095709561957F4F8F4F9F4F9923A9F0E2
:104FD000F92F96E9BB279395F69587957795679571
:104FE000B795F111F8CFFAF4BB0F11F460FF1BC0B5
:104FF0006F5F7F4F8F4F9F4F16C0882311F096E948
:1050000011C0772321F09EE8872F762F05C06623F5
:1050100071F096E8862F70E060E02AF09A95660FAE
:10502000771F881FDAF7880F9695879597F9089567
:10503000990F0008550FAA0BE0E8FEEF16161706A9
:10504000E807F907C0F012161306E407F50798F011
:10505000621B730B840B950B39F40A2661F0232B2A
:10506000242B252B21F408950A2609F4A140A695A6
:105070008FEF811D811D089597F99F6780E870E08B
:1050800060E008959FEF80EC089500240A941616BE
:10509000170618060906089500240A941216130626
:1050A000140605060895092E0394000C11F48823B4
:1050B00052F0BB0F40F4BF2B11F460FF04C06F5FD0
:1050C0007F4F8F4F9F4F089557FD9058440F551FA6
:1050D00059F05F3F71F04795880F97FB991F61F07A
:1050E0009F3F79F087950895121613061406551FF1
:1050F000F2CF4695F1DF08C0161617061806991F5D
:10510000F1CF86957105610508940895E894BB2751
:1051100066277727CB0197F908958ADF08F48FEF88
:1051200008950BD0C0CFB1DF28F0B6DF18F095237B
:1051300009F0A2CFA7CF1124EACFC6DFA0F3959F35
:10514000D1F3950F50E0551F629FF001729FBB276E
:10515000F00DB11D639FAA27F00DB11DAA1F649F1A
:105160006627B00DA11D661F829F2227B00DA11DCD
:10517000621F739FB00DA11D621F839FA00D611D53
:10518000221F749F3327A00D611D231F849F600D74
:10519000211D822F762F6A2F11249F5750408AF0AD
:1051A000E1F088234AF0EE0FFF1FBB1F661F771F39
:1051B000881F91505040A9F79E3F510570F05CCF79
:1051C000A6CF5F3FECF3983EDCF386957795679525
:1051D000B795F795E7959F5FC1F7FE2B880F911D57
:1051E0009695879597F908950E948329A59F900D1C
:1051F000B49F900DA49F800D911D11240895B7FFB9
:105200000C94F4280E94F428821B930B0895A1E2C9
:105210001A2EAA1BBB1BFD010DC0AA1FBB1FEE1F30
:10522000FF1FA217B307E407F50720F0A21BB30B7B
:10523000E40BF50B661F771F881F991F1A9469F7F7
:1052400060957095809590959B01AC01BD01CF0153
:105250000895052E97FB16F4009407D057FD0DD046
:105260000E94072907FC09D07EF4909580957095DF
:1052700061957F4F8F4F9F4F089550954095309582
:1052800021953F4F4F4F5F4F08952F923F924F927E
:105290005F926F927F928F929F92AF92BF92CF92C6
:1052A000DF92EF92FF920F931F93CF93DF93CDB7CF
:1052B000DEB7CA1BDB0B0FB6F894DEBF0FBECDBF47
:1052C00009942A88398848885F846E847D848C8418
:1052D0009B84AA84B984C884DF80EE80FD800C8121
:1052E0001B81AA81B981CE0FD11D0FB6F894DEBF04
:1052F0000FBECDBFED01089569279627692778274E
:10530000872778270895A29FB001B39FC001A39F6C
:1053100001D0B29F700D811D1124911D0895EE0FD3
:0E532000FF1F0590F491E02D0994F894FFCF43
:10532E000000CF042000010000005000722E706EAD
:10533E00642E736500DEADBEEFFEED0100040020AD
:10534E00282A1A1615353D3F3B20006970206672DB
:10535E00616E20646863702E00736574737461747B
:10536E0028293A20416E736C7574656E2E00474580
:10537E0054202F736574737461742F74656D702F60
:10538E00002F6D6F64652F002F6F75747075742FFD
:10539E0000486F73743A2000557365722D4167652E
:1053AE006E743A2041726475696E6F4574686572E9
:1053BE006E657400436F6E6E656374696F6E3A202E
:1053CE00636C6F73650067657473657474696E677B
:1053DE007328293A20416E736C7574656E2E0047E2
:1053EE004554202F67657473657474696E677320F6
:1053FE00485454502F312E310067657473657474A0
:10540E0074696E677328293A204B616E20696E7439
:10541E006520616E736C7574612E003A0022005324
:10542E00746172746172207374797270726F6772C4
:10543E00616D206F63682074657374617220656698
:10544E0066656B746C6167656E2070612072656C49
:10545E006165722E2E2E004F4B004B702C204B6927
:10546E002C204B643A20005469643B204F757470B5
:10547E0075742028302D323030293B205265663B22
:10548E0020523B20543B206C617374496E707574CE
:10549E003B206C6173744572726F723B206C61734A
:1054AE00744F75747075743B20703B20693B20649B
:1054BE003B003C6C6F673E003C2F6C6F673E006D8F
:1054CE006F64650073657474696E67733A20006863
:1054DE006F6D650053657474696E672074656D70C9
:1054EE0020746F20363000617761790053657474D3
:1054FE00696E672074656D7020746F203330000004
:10550E00000000810B890D1C0B4B0B2F0B6F0B003A
:10551E00000000FF0C0000000080110312F811DDE6
:10552E0011B511961108132112D911C512A112AD80
:10553E0011000000008B1516168715EC15B315A17A
:10554E00159C1638163016EB162C164D16CD156CFE
:0C555E00157315831557495A6E657400CB
:00000001FF
