:100000000C9465000C948D000C948D000C948D0064
:100010000C948D000C948D000C948D000C948D002C
:100020000C948D000C948D000C948D000C948D001C
:100030000C948D000C948D000C948D000C948D000C
:100040000C9482070C948D000C949E090C94DA0990
:100050000C948D000C948D000C948D000C948D00EC
:100060000C948D000C948D0000000007000201002C
:100070000003040600000000000000000102040864
:100080001020408001020408102001020408102002
:10009000040404040404040402020202020203032E
:1000A0000303030300000000250028002B000000CC
:1000B0000000240027002A009D02E006950A410B5B
:1000C000350F8A107812F116F91911241FBECFEFDF
:1000D000D8E0DEBFCDBF12E0A0E0B1E0E8E9F8E390
:1000E00002C005900D92AE36B107D9F713E0AEE627
:1000F000B2E001C01D92AB3FB107E1F710E0CAECDE
:10010000D0E004C02297FE010E94461CC83BD107E4
:10011000C9F70E94500B0C94041A0C9400000F9322
:100120001F93FC017183608355834483338322834F
:1001300012861386148615861186108616861783F6
:1001400006831F910F910895FC018081918108958C
:10015000FC01808591850895CB01BA0123E333EF3B
:100160004BE454E40E94071A26E636E64EEF50E4CC
:100170000E94701A0E94D81A6A30710524F06B35FB
:10018000710524F405C06AE070E002C06AE570E021
:10019000CB010895EF92FF920F931F93CF93DF93BC
:1001A000EC018E810E946107BC01882777FD809554
:1001B000982F0E940B1B2AE038E240EA5BE30E9482
:1001C000BF1B9B01AC0160E070E080EA90E40E94FC
:1001D000701A20E030E040E85FE30E94071A20E058
:1001E00030E44CE156E40E94BF1B7B018C0120E00F
:1001F00030E048E454E47F2D912F0E946C1A87FD73
:100200000CC020E030E844ED54E46E2D7F2D802FAB
:10021000912F0E94BB1B18161CF481E08E8701C031
:100220001E866E2D7F2D802F912FDF91CF911F91F4
:100230000F91FF90EF900895CF93DF93EC010E9410
:10024000CA00AB01BC014A875B876C877D87CE0102
:100250000E94AC0099878887DF91CF910895FC01B7
:1002600086850895AF92CF92EF92FF920F931F93DE
:10027000CF93DF93CDB7DEB72B970FB6F894DEBFE1
:100280000FBECDBF9AE0E2E1F1E0DE0111960190F0
:100290000D929A95E1F781E090E08C0F9D1F680F19
:1002A000791FFB01F080F4FA662760F9822F4B87F3
:1002B0000E94CB08F2FA662760F98E2D0E94CB08C7
:1002C0006F2D61708A2D0E94CB08F5FA662760F9C0
:1002D0004B85842F0E94CB08F3FA662760F9802FA4
:1002E0000E94CB08F1FA662760F98C2D2B960FB689
:1002F000F894DEBF0FBECDBFDF91CF911F910F915C
:10030000FF90EF90CF90AF900C94CB08CF93DF93FA
:10031000EC01688179814AE050E08EE093E00E9430
:100320008D0C6CE171E08EE093E00E94950B4A85A4
:100330005B856C857D8522E030E08EE093E00E9455
:100340003E0D6CE171E08EE093E00E94950B6885B4
:1003500079854AE050E08EE093E00E948D0C6CE1DC
:1003600071E08EE093E0DF91CF910C94950BCF92EA
:10037000DF92EF92FF920F931F93CF93DF93CDB74E
:10038000DEB72D970FB6F894DEBF0FBECDBF7C0150
:100390006B016BE272E0FC0174836383FA0182817A
:1003A0009381A481B581F70185839683A783B08764
:1003B00072876187F9014281538164817581F701F8
:1003C0004387548765877687C70141960E94420E0E
:1003D000F701D282C182108B07871082CE0101966D
:1003E0000E94420E2D960FB6F894DEBF0FBECDBF11
:1003F000DF91CF911F910F91FF90EF90DF90CF9001
:100400000895CF93DF93CDB7DEB72C970FB6F8944E
:10041000DEBF0FBECDBFFC018BE292E09A838983E1
:1004200043855485658576854B835C836D837E83A8
:1004300098878F83458156816781708549875A8760
:100440006B877C87618172819E012F5F3F4FAE0178
:10045000495F5F4F81EC93E00E9411102C960FB61C
:10046000F894DEBF0FBECDBFDF91CF9108950F93FB
:100470001F93CF93DF93EC018C010F5E1F4FC801D8
:100480000E94610E81110AC08881882339F0C80159
:10049000DF91CF911F910F910C94850EDF91CF9139
:1004A0001F910F9108950F931F93CF93DF938C01AA
:1004B000EC016196FC016785708940E550E0CE0152
:1004C0000E94E10D892BA9F06FE171E0CE010E943D
:1004D000BE0B65E371E0CE010E94BE0B64E471E0E7
:1004E000CE010E94BE0B60E671E0CE010E94BE0B01
:1004F00008C0CE010E94850E04C08EE093E00E94E9
:1005000031098EE093E00E94020918161906ACF337
:10051000CE010E94610EF8018083DF91CF911F917F
:100520000F910895CF93DF93EC0161EC73E00E948B
:100530006810CE01DF91CF9108950F9300E020E085
:1005400040E060E08EE692E00E942A0B0F91089551
:10055000CF92DF92EF92FF920F931F93CF93DF938F
:10056000EC01488359836A837B830C831D832E832C
:100570003F83C886D986EA86FB860E94CC076CA397
:100580007DA38EA39FA3DF91CF911F910F91FF9029
:10059000EF90DF90CF900895CF93DF93EC01CB01E4
:1005A000BA010E94D81A7FA76EA7DF91CF91089554
:1005B000CF93DF93EC01CB01BA010E94D81A7DA73B
:1005C0006CA7DF91CF910895FC0166A577A58827D8
:1005D00077FD8095982F0E940B1B0895FC0164A560
:1005E00075A5882777FD8095982F0E940B1B08958D
:1005F0002F923F924F925F926F927F928F929F9233
:10060000AF92BF92CF92DF92EF92FF920F931F9320
:10061000CF93DF93CDB7DEB764970FB6F894DEBF04
:100620000FBECDBF9C8B8B8B6A017B0128013901EA
:100630000E94CC074B015C01EB89FC8984A195A148
:10064000A6A1B7A1A5019401281B390B4A0B5B0B8E
:10065000DA01C90180369A4EA105B10548F440A1DE
:10066000498351A15A8382A18B8393A19C833BC16F
:10067000A7019601C301B2010E94071A6D837E8310
:100680008F839887AB89BC8998962D913D914D9128
:100690005C919B970E94081A1B018C01862F932D59
:1006A000A02FB12FEB89FC8980A791A7A2A7B3A7A0
:1006B00066A577A5882777FD8095982F0E940B1B4C
:1006C00069877A878B879C8769837A838B839C83EE
:1006D000762F6A85982F8C85272F362F492F582FF4
:1006E000622D732D802F912F0E94BB1B18167CF456
:1006F00059854A853B852C85852F942FA32FB22FB2
:10070000EB89FC8980A791A7A2A7B3A71EC0AB89DC
:10071000BC899C966D917C919D97882777FD8095EB
:10072000982F0E940B1B2B013C019B01AC01622DF9
:10073000732D802F912F0E946C1A87FF06C0EB89C2
:10074000FC8940A651A662A673A6AB89BC8998967F
:100750002D913D914D915C919B972D873E874F87C1
:10076000588B5C962D913D914D915C915F97C7019F
:10077000B6010E94071A362E272E898B9A8BEB8999
:10078000FC892081318142815381BD81AE811F81ED
:1007900008856B2F7A2F812F902F0E94BF1B2B0172
:1007A0003C01AB89BC8914962D913D914D915C9192
:1007B00017976D857E858F8598890E94BF1B9B0149
:1007C000AC01C301B2010E94081A2B013C01EB8964
:1007D000FC892085318542855385D10119890A8993
:1007E0006B2F7A2F812F902F0E94BF1B9B01AC0192
:1007F000C301B2010E94071A3B018C0179856A8509
:100800009B858C85272F362F492F582F662D772DC6
:10081000802F912F0E94BB1B181624F1AB89BC8935
:100820009C966D917C919D97882777FD8095982F58
:100830000E940B1B69837A838B839C83762F6A814A
:10084000982F8C81272F362F492F582F662D772DE3
:10085000802F912F0E946C1A87FD04C069827A82D2
:100860000B831C83EB89FC89C48ED58EE68EF78EB4
:100870005D814E813F812885852F942FA32FB22F34
:10088000808F918FA28FB38F59814A813B812C81B8
:10089000852F942FA32FB22F80A391A3A2A3B3A33C
:1008A0005D814E813F812885852F942FA32FB22F04
:1008B00080AB91ABA2ABB3AB2D853E854F855889FC
:1008C00024AB35AB46AB57ABA10139892A89852FBB
:1008D000922DA32FB22F80AF91AFA2AFB3AF84A25E
:1008E00095A2A6A2B7A259814A813B812C81652F8E
:1008F000742F832F922F64960FB6F894DEBF0FBE2D
:10090000CDBFDF91CF911F910F91FF90EF90DF90BE
:10091000CF90BF90AF909F908F907F906F905F909F
:100920004F903F902F900895FC0164A175A186A17E
:1009300097A10895CF93DF93EC014C8D5D8D6E8D63
:100940007F8D22E030E08EE093E00E943E0D6CE16E
:1009500071E08EE093E00E94950B488D598D6A8D71
:100960007B8D22E030E08EE093E00E943E0D6CE152
:1009700071E08EE093E00E94950B48A159A16AA115
:100980007BA122E030E08EE093E00E943E0D6CE11E
:1009900071E08EE093E00E94950B48A959A96AA9DD
:1009A0007BA922E030E08EE093E00E943E0D6CE1F6
:1009B00071E08EE093E00E94950B4CA95DA96EA9B1
:1009C0007FA922E030E08EE093E00E943E0D6CE1D2
:1009D00071E08EE093E00E94950B48AD59AD6AAD91
:1009E0007BAD22E030E08EE093E00E943E0D6CE1B2
:1009F00071E08EE093E0DF91CF910C94950B8F9294
:100A00009F92AF92BF92CF92DF92EF92FF920F939D
:100A10001F93CF93DF9300D000D000D0CDB7DEB7C7
:100A200061E082E00E94930861E083E00E94930805
:100A300061E084E00E94930861E085E00E949308F1
:100A400061E086E00E94930861E087E00E949308DD
:100A500061E08DE00E94930861E08CE00E949308C1
:100A600040E050E0BA018EE992E00E94D80240E0F6
:100A700050E068E473E48EE992E00E94CC0240E822
:100A800055E260E070E08EE093E00E94150A62E7B4
:100A900071E08EE093E00E94950B88248394912C62
:100AA00083E0A82EB12C92E0C92ED12C25E0E22EB5
:100AB000F12C04E010E027E030E046E050E0B40123
:100AC0008AED92E00E9432016EEE72E080E090E0EA
:100AD0000E9408088FEF881A980A8BE08816910404
:100AE000F9F66AEA71E08EE093E00E94BE0B6DEACF
:100AF00071E08EE093E00E94950B22E030E040E050
:100B000050E060E470E48EE093E00E943E0D22E04D
:100B100030E04DEC5CEC6CE47FE38EE093E00E940F
:100B20003E0D22E030E040E050E060E87FE38EE000
:100B300093E00E943E0D8EE093E00E94A80B6AEBCA
:100B400071E08EE093E00E94950B8EE093E00E94AE
:100B5000A80B84E792E00E94010265E072E08EE05B
:100B600093E00E94950B64E772E0CE0101960E942B
:100B70009202BE016F5F7F4F8EE093E00E949E0B5A
:100B80008EE093E00E94A80B26960FB6F894DEBF85
:100B90000FBECDBFDF91CF911F910F91FF90EF90CE
:100BA000DF90CF90BF90AF909F908F9008954F921D
:100BB0005F926F927F928F929F92AF92BF92CF92ED
:100BC000DF92EF92FF920F931F93CF93DF9300D0AA
:100BD00000D0CDB7DEB78AED92E00E941C018AED0D
:100BE00092E00E94A8005C018AED92E00E94A400BD
:100BF000BC01882777FD8095982F0E940B1B6B0105
:100C00007C01B501882777FD8095982F0E940B1BEA
:100C1000AB01BC01970186018EE992E00E94F802C7
:100C20002B013C018EE992E00E94E4024B015C0141
:100C30008EE992E00E94EE0269837A838B839C8323
:100C400020E030E040E251E4C301B2010E94081A02
:100C50006B017C0129813A814B815C81C501B40122
:100C60000E94071A9B01AC0160E070E080E191E412
:100C70000E94701A9B01AC01C701B6010E94BF1B04
:100C80000E94D81A43E0A42EB12C52E0C52ED12CDC
:100C9000E5E0EE2EF12C04E010E027E030E046E045
:100CA00050E08AED92E00E9432016AE072E08EE04C
:100CB00093E00E94950B8EE992E00E949404AB01B0
:100CC000BC012AE030E08EE093E00E942E0C6CE143
:100CD00071E08EE093E00E94950B22E030E0B301DA
:100CE000A2018EE093E00E943E0D6CE171E08EE087
:100CF00093E00E94950B8AED92E00E9486018EE9B6
:100D000092E00E949A0460E172E08EE093E00E941B
:100D1000950B8EE093E00E94A80B8AED92E00E9472
:100D20002F01882331F061E08DE00E94CB0860E064
:100D300005C060E08DE00E94CB0861E08CE00E947D
:100D4000CB0884E792E00E9437020E94CC07C09053
:100D5000FB02D090FC02E090FD02F090FE026C19C4
:100D60007D098E099F09613375478105910570F0F2
:100D700084E792E00E9453020E94CC076093FB023A
:100D80007093FC028093FD029093FE0260E177E293
:100D900080E090E00F900F900F900F90DF91CF9137
:100DA0001F910F91FF90EF90DF90CF90BF90AF9089
:100DB0009F908F907F906F905F904F900C94080859
:100DC000CF92DF92EF92FF920F931F93CF93DF9317
:100DD000CDB7DEB72C970FB6F894DEBF0FBECDBFF0
:100DE00000E020E040E060E08FEF92E00E942A0BFC
:100DF0000EE010E02DE030E04CE050E06CE370E0FD
:100E00008AED92E00E948F00C12CD12CF0E8EF2EE9
:100E1000FFE3FF2E0DEC1CEC2CE43FE340E050E040
:100E200060E470E48EE992E00E94A80207EA20E004
:100E300048EA60EC88E992E00E942A0B01E022E097
:100E400048EA60EC82E992E00E942A0B2BE232E051
:100E500038872F838091940290919502A0919602F9
:100E6000B091970289879A87AB87BC873A83298399
:100E700080919A0290919B02A0919C02B0919D0258
:100E80008B839C83AD83BE8300E011E09E01295FCC
:100E90003F4FAE014F5F5F4F69E071E084E792E042
:100EA0000E94B7012C960FB6F894DEBF0FBECDBFDF
:100EB000DF91CF911F910F91FF90EF90DF90CF9036
:100EC00008958E3008F08E50877020910F0140E415
:100ED000249F90011124822B80937C0080917A00C2
:100EE000806480937A0080917A0086FDFCCF209107
:100EF000780030917900932F80E0AC01422B9A0169
:100F0000C90108951F920F920FB60F9211242F93CB
:100F10003F938F939F93AF93BF93809105039091DD
:100F20000603A0910703B091080330910D03232F0E
:100F30002D5F2D3720F40196A11DB11D05C0232F73
:100F40002A570296A11DB11D20930D03809305031E
:100F500090930603A0930703B093080380910903BD
:100F600090910A03A0910B03B0910C030196A11D6F
:100F7000B11D8093090390930A03A0930B03B093D0
:100F80000C03BF91AF919F918F913F912F910F9043
:100F90000FBE0F901F9018950F931F938FB7F89463
:100FA0000091050310910603209107033091080377
:100FB0008FBFB801C9011F910F9108950F931F931F
:100FC0009FB7F8940091090310910A0320910B0335
:100FD00030910C0386B5A89B06C08F3F21F00F5FB0
:100FE0001F4F2F4F3F4F9FBF322F212F102F002712
:100FF000080F111D211D311D42E0000F111F221F7E
:10100000331F4A95D1F7B801C9011F910F91089577
:10101000CF92DF92EF92FF92CF93DF936B017C012F
:101020000E94DE07EB010EC00E94DE076C1B7D0BE9
:10103000683E734038F081E0C81AD108E108F10831
:10104000C851DC4FC114D104E104F10469F7DF9108
:10105000CF91FF90EF90DF90CF900895789484B572
:10106000826084BD84B5816084BD85B5826085BDA4
:1010700085B5816085BDEEE6F0E08081816080838A
:10108000E1E8F0E01082808182608083808181606D
:101090008083E0E8F0E0808181608083E1EBF0E034
:1010A000808184608083E0EBF0E0808181608083D8
:1010B000EAE7F0E0808184608083808182608083C1
:1010C0008081816080838081806880831092C100EC
:1010D0000895833069F028F48130A1F0823011F551
:1010E00014C08630B1F08730C1F08430D9F404C028
:1010F000809180008F7703C0809180008F7D8093E6
:101100008000089584B58F7702C084B58F7D84BD3B
:1011100008958091B0008F7703C08091B0008F7DDB
:101120008093B0000895CF93DF9390E0FC01E458E2
:10113000FF4F4491FC01E057FF4F8491882341F118
:1011400090E0880F991FFC01E255FF4F25913491E3
:10115000D9018C559F4FFC0185919491C82FD92FAF
:101160009FB7F8948C91611106C0409584238C93AD
:101170008881842308C0623041F4242F2095822383
:101180008C938881842B888302C0842B8C939FBF8F
:10119000DF91CF9108950F931F93CF93DF931F9209
:1011A000CDB7DEB7282F30E0F901E859FF4F849121
:1011B000F901E458FF4F1491F901E057FF4F0491F2
:1011C0000023D1F0882321F069830E946908698196
:1011D000E02FF0E0EE0FFF1FEC55FF4F859194914B
:1011E000DC019FB7F8948C91611103C010958123A5
:1011F00001C0812B8C939FBF0F90DF91CF911F91E6
:101200000F910895FC0184859585FC01E05CFF4FFA
:1012100020813181FC01EE5BFF4F80819181281B91
:10122000390B2F733327C9010895FC0184859585F7
:10123000FC01E05CFF4F40815181FC01EE5BFF4F00
:10124000208131814217530741F00190F081E02D58
:10125000E80FF91F208130E002C02FEF3FEFC901F6
:101260000895FC0184859585FC01E05CFF4F408179
:101270005181FC01EE5BFF4F208131814217530702
:1012800081F0A081B181A80FB91F8C91208131819B
:101290002F5F3F4F2F73332731832083282F30E078
:1012A00002C02FEF3FEFC9010895FC0186859785A5
:1012B000FC01E05CFF4FDC01AE5BBF4F4081518120
:1012C0002D913C91119742175307C1F70895CF9381
:1012D000DF93FC0186859785DC01A05CBF4F2D91D3
:1012E0003C9111972F5F3F4F2F733327EC01CE5B5B
:1012F000DF4F4881598124173507D9F30D90BC91F0
:10130000A02DA80FB91F6C93A685B785A05CBF4F11
:1013100011963C932E93A689B7892C9181E090E099
:10132000058C02C0880F991F0A94E2F7282B2C9392
:1013300081E090E0DF91CF91089508951F920F9280
:101340000FB60F9211242F933F934F938F939F9338
:10135000EF93FF934091C6008091B1039091B20347
:1013600001968F7399272091B3033091B4038217AC
:10137000930759F0E091B103F091B203EF58FC4F9D
:1013800040839093B2038093B103FF91EF919F91BB
:101390008F914F913F912F910F900FBE0F901F9003
:1013A00018958EE093E00E940209892B11F00C94AD
:1013B0009D0908951F920F920FB60F9211242F933B
:1013C0003F938F939F93EF93FF9320916D03309101
:1013D0006E0380916F03909170032817390731F4E1
:1013E0008091C1008F7D8093C10014C0E0916F0394
:1013F000F0917003E35DFC4F208180916F03909129
:10140000700301968F7399279093700380936F03F5
:101410002093C600FF91EF919F918F913F912F9163
:101420000F900FBE0F901F901895CF92DF92EF9202
:10143000FF92CF93DF93EC016A017B01411581EEAE
:10144000580761057105F9F0EC89FD8981E090E0AC
:101450000E8C02C0880F991F0A94E2F7808360E027
:1014600079E08DE390E0A70196010E94221C2150B3
:101470003109410951095695479537952795211509
:1014800080E1380798F0EC89FD89108260E874E803
:101490008EE190E0A70196010E94221C21503109A3
:1014A000410951095695479537952795E889F98956
:1014B0003083EA89FB892083EE89FF89408181E0BE
:1014C00090E09C010A8C02C0220F331F0A94E2F7BD
:1014D000422B4083EE89FF8940819C010B8C02C026
:1014E000220F331F0A94E2F7422B4083EE89FF89D3
:1014F00040819C010C8C02C0220F331F0A94E2F73A
:10150000422B4083EE89FF8920810D8C02C0880F19
:10151000991F0A94E2F7809582238083DF91CF910F
:10152000FF90EF90DF90CF900895109211031092EA
:10153000100388EE93E0A0E0B0E080931203909354
:101540001303A0931403B09315038BE192E09093DF
:101550000F0380930E0381E793E090931B03809326
:101560001A038DE293E090931D0380931C0385EC96
:1015700090E090931F0380931E0384EC90E090937F
:1015800021038093200380EC90E0909323038093C9
:10159000220381EC90E0909325038093240386EC52
:1015A00090E0909327038093260384E080932803A0
:1015B00083E08093290387E080932A0385E080936A
:1015C0002B0381E080932C030895AF92BF92CF92BA
:1015D000DF92EF92FF920F931F93CF93DF936C01F3
:1015E0007B01C0E0D0E000E010E0F601EC0FFD1F51
:1015F0004AE050E06281C7010E943B0C5C016EE250
:10160000C7010E94970B8A0D9B1D080F191F219679
:10161000C330D10551F74AE050E0F6016581C701BA
:101620000E943B0C080F191FC801DF91CF911F9139
:101630000F91FF90EF90DF90CF90BF90AF90089503
:101640002BE232E0FC013183208312821382148268
:10165000158208950F93FC018BE292E091838083C1
:1016600062834383248305830F910895FC01DB018A
:101670004D915D916D917C91428353836483758319
:1016800008958BE292E09093B6038093B503109295
:10169000B7031092B8031092B9031092BA030895D9
:1016A0000E942E080E94FF04C1EDD9E00E94D705D8
:1016B0002097E1F30E94D109F9CFCF92DF92EF9208
:1016C000FF920F931F93CF93DF936C01EB017A018D
:1016D000E60EF71E00E010E00BC06991D601ED9117
:1016E000FC910190F081E02DC6010995080F191FAA
:1016F000CE15DF0591F7C801DF91CF911F910F91B2
:10170000FF90EF90DF90CF900895DB010D900020C7
:10171000E9F7AD0141505109461B570BDC01ED9132
:10172000FC910280F381E02D09940C94850BDC017F
:10173000ED91FC910190F081E02D0994DB01ED9198
:10174000FC9111970190F081E02DBC01CD0109942D
:101750000F931F93CF93DF93EC016DE00E94970BE3
:101760008C016AE0CE010E94970B9C01200F311F73
:10177000C901DF91CF911F910F9108950F931F938E
:10178000CF93DF93EC010E94850B8C01CE010E9468
:10179000A80B9801280F391FC901DF91CF911F9124
:1017A0000F9108954F925F926F927F929F92AF92A6
:1017B000BF92CF92DF92EF92FF920F931F93CF933E
:1017C000DF93CDB7DEB7A1970FB6F894DEBF0FBE9B
:1017D000CDBF5C016A017B01922E19A281E08217C4
:1017E00010F08AE0982E8E010F5D1F4F492C512C6E
:1017F000612C712CC701B601A30192010E94221C29
:101800008C2D929E80191124015011098A3014F4F4
:10181000805D01C0895CF801808369017A01C1148F
:10182000D104E104F10431F7B801C5010E94850B30
:10183000A1960FB6F894DEBF0FBECDBFDF91CF915A
:101840001F910F91FF90EF90DF90CF90BF90AF90DE
:101850009F907F906F905F904F9008952115310574
:1018600041F4DC01ED91FC910190F081E02D642FB9
:1018700009940C94D20B9A01462F50E060E070E07E
:101880000C942E0CCF92DF92EF92FF920F931F9346
:10189000CF93DF93EC016A017B012115310579F4C7
:1018A000E881F9810190F081E02D642FDF91CF91E3
:1018B0001F910F91FF90EF90DF90CF9009942A3005
:1018C000310519F477FD0EC02AE0B701A601CE015B
:1018D000DF91CF911F910F91FF90EF90DF90CF900C
:1018E0000C94D20B6DE20E94970B8C014427552774
:1018F000BA014C195D096E097F092AE0CE010E94E8
:10190000D20B080F191FC801DF91CF911F910F91C2
:10191000FF90EF90DF90CF9008959A01AB0166277A
:1019200057FD6095762F0C94420C7F928F929F9278
:10193000AF92BF92CF92DF92EF92FF920F931F93DD
:10194000CF93DF938C014A015B01F22E20E030E05F
:10195000A901C501B4010E946C1A87FF0AC06DE29B
:10196000C8010E94970BEC01B7FAB094B7F8B09495
:1019700002C0C0E0D0E0E12C60E070E080E09FE3D6
:1019800007C020E030E040E251E40E94701AE39486
:10199000EF10F7CF262F372F482F592FC501B4014D
:1019A0000E94081A762E872E982EA92E0E94DD1AE4
:1019B000B62EC72ED82EE92E0E94091B9B01AC0122
:1019C000672D782D892D9A2D0E94071AA62E972E05
:1019D000882E792E2AE04B2D5C2D6D2D7E2DC80191
:1019E0000E94D20BC80FD91FFF20B9F168EA71E03D
:1019F000C8010E94850BC80FD91F2FC020E030E01E
:101A000040E251E46A2D792D882D972D0E94BF1B4D
:101A1000762EC72ED82EE92E0E94D81A4B01AA2462
:101A200097FCA094BA2C2AE030E0B501A401C801CB
:101A30000E94420CC80FD91FC501B4010E940B1BA4
:101A40009B01AC01672D7C2D8D2D9E2D0E94071AC8
:101A5000A62E972E882E792EFA94F110CFCFCE0194
:101A6000DF91CF911F910F91FF90EF90DF90CF907A
:101A7000BF90AF909F908F907F9008950C94950C9D
:101A8000CF93DF931F92CDB7DEB76983DC01ED9171
:101A9000FC910280F381E02D41E050E0BE016F5FD8
:101AA0007F4F09950F90DF91CF910895CF93DF93EA
:101AB000EC0107C0E881F9810680F781E02DCE01B5
:101AC0000995E881F9810480F581E02DCE01099521
:101AD000892B81F7DF91CF91089521E0FC01848566
:101AE000843009F420E0822F08950F931F93CF9341
:101AF000DF931F92CDB7DEB78C01DC01ED91FC9135
:101B00000480F581E02D0995892B51F0BE016F5FAE
:101B10007F4FF80184850E94EA13298130E002C0DA
:101B20002FEF3FEFC9010F90DF91CF911F910F91E0
:101B30000895FC0184850C94AB13CF93DF931F921F
:101B4000CDB7DEB741E050E0BE016F5F7F4FFC01D3
:101B500084850E94AB13181619061CF4298130E005
:101B600002C02FEF3FEFC9010F90DF91CF91089591
:101B7000FC016485643021F08FED93E00C94BE1578
:101B800080E090E008950F931F93CF93DF938C0133
:101B9000EA01FC018485843019F481E090E007C0FB
:101BA0000E945813892B39F481E090E0F801938367
:101BB0008283C0E0D0E0CE01DF91CF911F910F91E1
:101BC0000895CF92DF92EF92FF920F931F93CF93DE
:101BD000DF93CDB7DEB7E5970FB6F894DEBF0FBE43
:101BE000CDBF7C018B016A01CE0101960E94200BC2
:101BF000CE0109960E940212CE01C0960E94200BCF
:101C000061EC73E0CE018A960E947A10BE01665D97
:101C10007F4FCE0101960E94FC16AE01405D5F4FE2
:101C2000B801CE0101960E9460199C018130910596
:101C3000C9F4D701ED91FC910484F585E02D8BE288
:101C400092E09DA38CA30AA91BA92CA93DA90EA3D0
:101C50001FA328A739A7A601BE016C5D7F4FC7014E
:101C600009959C01C901E5960FB6F894DEBF0FBE39
:101C7000CDBFDF91CF911F910F91FF90EF90DF903B
:101C8000CF900895FC011382128248EE53E060E089
:101C900070E0448355836683778381E392E0918388
:101CA000808384E084870895FC018485843039F042
:101CB000382F20E0C9018D5F9B4F0C94111580E0F7
:101CC0000895CF93DF93EC018C858430D1F0CE0161
:101CD0000E94540E843181F0882371F0883161F0C4
:101CE0008C3161F4E881F9810480F581E02DCE0129
:101CF000099521E0892B19F420E001C021E0822F11
:101D000001C080E0DF91CF910895CF92DF92EF92F2
:101D1000FF92CF93DF93EC018C85843091F10E9488
:101D200051130E94CC076B017C01CE010E94540E1E
:101D30008823D1F00E94CC076C197D098E099F0978
:101D4000683E734081059105A8F00EC08C850E9405
:101D5000CD12EC85F0E0EE0FFF1FE753FC4F118230
:101D6000108284E08C870DC0CE010E94540E88231F
:101D700081F3ECCF61E070E080E090E00E94080821
:101D8000D4CFDF91CF91FF90EF90DF90CF90089567
:101D9000AF92BF92CF92DF92EF92FF920F931F9379
:101DA000CF93DF93EC015B016A018C85843009F0ED
:101DB0004EC093E0E92E94E0F92E00E010E0C70158
:101DC0000E941115811102C00C870AC08831E1F30D
:101DD0008C31D1F30F5F1F4FF3940430110579F765
:101DE0008C858430A1F120911001309111012F5F79
:101DF0003F4F09F002C020E034E0309311012093FE
:101E00001001409110015091110120E061E00E9409
:101E1000DB12B5016E5F7F4FA6018C850E941B13FC
:101E200009C061E070E080E090E00E940808CE0107
:101E30000E94540E811103C084E08C8708C0CE013B
:101E40000E94540E873169F721E030E002C020E0A3
:101E500030E0C901DF91CF911F910F91FF90EF907A
:101E6000DF90CF90BF90AF9008950F9300E020E0F7
:101E700040E060E08BEB93E00E942A0B0F91089505
:101E800044E050E0BC0181E090E00C94E21444E0B6
:101E900050E0BC0185E090E00C94E21444E050E096
:101EA000BC018FE090E00C94E2148F929F92AF926D
:101EB000BF92CF92DF92EF92FF920F931F93CF9337
:101EC000DF9300D0CDB7DEB74C016A0159018FED29
:101ED00093E069837A830E94A41446E050E069810C
:101EE0007A8189E090E00E94E214C60102960E9485
:101EF0004E0FC80102960E94400FC70102960E9431
:101F0000470FF5014281538164817581F401428359
:101F10005383648375830F900F90DF91CF911F914E
:101F20000F91FF90EF90DF90CF90BF90AF909F9078
:101F30008F9008956F927F928F929F92AF92BF92EF
:101F4000CF92DF92EF92FF920F931F93CF93DF9385
:101F5000CDB7DEB76E970FB6F894DEBF0FBECDBF1C
:101F60006C015B017A014901380100E02FEF4FEF6E
:101F70006FEFCE0149960E942A0B4BE252E05A8342
:101F800049838B8D9C8DAD8DBE8D8B839C83AD8362
:101F9000BE8358874F83F30182819381A481B581E9
:101FA00089879A87AB87BC875E874D87F4018281DA
:101FB0009381A481B5818F87988BA98BBA8B5C8B19
:101FC0004B8BF70142815381648175814D8B5E8B10
:101FD0006F8B788FEE24E394F12CEC0EFD1E8E01B6
:101FE000095F1F4F9E01235F3F4FAE014D5E5F4F64
:101FF000B501C6010E94550F6E960FB6F894DEBF6C
:102000000FBECDBFDF91CF911F910F91FF90EF9049
:10201000DF90CF90BF90AF909F908F907F906F9008
:102020000895CF92DF92EF92FF920F931F93CF9379
:10203000DF93CDB7DEB768970FB6F894DEBF0FBE5B
:10204000CDBF6B017901DA0112964D915D916D91D1
:102050007C9115974D8B5E8B6F8B788FABE2B2E0E6
:10206000BA83A98321E0288F0D891E892F89388D95
:102070000B831C832D833E83B887AF83F7010281D6
:1020800013812481358109871A872B873C87BE8776
:10209000AD874F87588B698B7A8B8E010F5F1F4FEF
:1020A0009E01295F3F4FAE01435F5F4FB6010E9423
:1020B0009A0F68960FB6F894DEBF0FBECDBFDF91C2
:1020C000CF911F910F91FF90EF90DF90CF900895E7
:1020D000CF93DF93EC010E94200BBE016E5F7F4F18
:1020E00044E050E08FE090E00E940A16CE01DF91BC
:1020F000CF9108952BE232E0FC0131832083FB0174
:102100004281538164817581FC01428353836483DE
:10211000758308950F9300E020E040E060E081EDDA
:1021200093E00E942A0B81EC93E00F910C94200B1A
:10213000DC01ED91FC91008CF18DE02D09942BE2F6
:1021400032E0FC0131832083FB014189528963899C
:102150007489FC0142835383648375830895FC0171
:10216000858996890895FC01818D928D0895CF937C
:10217000DF931F92CDB7DEB76983DC01ED91FC914F
:102180000280F381E02D41E050E0BE016F5F7F4FA0
:1021900009950F90DF91CF910895CF93DF93EC01D4
:1021A00007C0E881F9810680F781E02DCE0109950D
:1021B000898D9A8D892BA9F7DF91CF910895CF93BF
:1021C000DF931F92CDB7DEB7FC01218D328D232B1B
:1021D00049F0BE016F5F7F4F84850E94EA13298119
:1021E00030E002C02FEF3FEFC9010F90DF91CF9198
:1021F0000895CF93DF93EC01898D9A8D009719F4A0
:102200002FEF3FEF11C04817590708F0AC018C853C
:102210000E94AB139C011816190694F7898D9A8DAC
:10222000821B930B9A8F898FC901DF91CF910895FB
:102230000F931F93CF93DF931F92CDB7DEB78C011F
:10224000FC01818D928D892B59F041E050E0BE0157
:102250006F5F7F4F84850E94AB13181619061CF020
:102260002FEF3FEF08C0F801818D928D0197928F7B
:10227000818F298130E0C9010F90DF91CF911F91AB
:102280000F910895CF93DF93EC019A018F89988D78
:10229000AB01BC018C850E94F8139C018F89988D3D
:1022A000820F931F988F8F8BC901DF91CF91089573
:1022B000FC0184850C945414FC01108E178A6E5F07
:1022C0007F4F84850C942E14CF93DF93EC018C8583
:1022D000843061F00E94CD12EC85F0E0EE0FFF1F1C
:1022E000E753FC4F1182108284E08C87DF91CF91FD
:1022F00008950F931F93CF93DF93CDB7DEB7289741
:102300000FB6F894DEBF0FBECDBF8C01DC01ED919E
:10231000FC910284F385E02D0995F80164858FED29
:1023200093E00E94BE15892B29F148E050E0BE01E0
:102330006F5F7F4FD8011C968C910E94AB139C015C
:1023400018161906CCF4BE016F5F7F4FC8010F96B7
:102350000E94360B9D8180E02E81820F911DF80135
:10236000968B858B3F8120E08885280F311D328F29
:10237000218F02C020E030E0C90128960FB6F89402
:10238000DEBF0FBECDBFDF91CF911F910F9108959A
:10239000CF92DF92EF92FF920F931F93CF93DF9331
:1023A000EC016B018C85843019F593E0E92E94E003
:1023B000F92E00E010E0C7010E941115811102C042
:1023C0000C8708C08831E1F30F5F1F4FF39404308E
:1023D000110589F78C85843059F0DE86CD861A8EFA
:1023E000198E20E0A60162E00E94DB1281E001C0AC
:1023F00080E0DF91CF911F910F91FF90EF90DF90E0
:10240000CF900895FC011382128248EE53E060E001
:1024100070E044835583668377838DE492E09183F3
:10242000808384E08487CF010F960C94200BCF9299
:10243000DF92EF92FF920F931F93CF93DF93CDB76D
:10244000DEB7E5970FB6F894DEBF0FBECDBF7C01B7
:102450008B016A01CE0101960E94200BCE010996E4
:102460000E940212CE01C0960E94200B61EC73E024
:10247000CE018A960E947A10BE01665D7F4FCE0122
:1024800001960E94FC16AE01405D5F4FB801CE017F
:1024900001960E9460199C0181309105C9F4D70111
:1024A000ED91FC910088F189E02D8BE292E09DA3F3
:1024B0008CA30AA91BA92CA93DA90EA31FA328A779
:1024C00039A7A601BE016C5D7F4FC70109959C012C
:1024D000C901E5960FB6F894DEBF0FBECDBFDF9100
:1024E000CF911F910F91FF90EF90DF90CF900895C3
:1024F0000F9300E020E040E060E087ED93E00E9471
:102500002A0B0F910895382F20E044E050E0C901D4
:10251000845F9B4F0C94E214282F30E02C5F3F4FD8
:10252000922F8827860F971F0C94111562E070E098
:102530000C948C12FB01282F30E02C5F3F4F922F20
:102540008827642F8E0F9F1F0C948214462F62E001
:1025500070E00C949A12CF93DF93C82FD62F472F99
:1025600060E170E00E949A124D2F61E170E08C2FC3
:10257000DF91CF910C949A12CF93DF93C82FD62F6F
:10258000472F64E070E00E949A124D2F65E070E0E2
:102590008C2FDF91CF910C949A12CF93C82F40E1EA
:1025A00050E0682F8FED93E00E94C2166FEF8C2FE2
:1025B000CF910C94A612EF92FF921F93CF93DF93CB
:1025C00000D0CDB7DEB7182F7A01862F8150853025
:1025D00048F5812F2A8369830E94CD122A8169815F
:1025E000422F462B60E070E0812F0E949A12E11486
:1025F000F10411F0B7010AC06091DD037091DE03B0
:102600006F5F7F4F7093DE036093DD03812F0E9425
:10261000BC1241E050E0612F8FED93E00E94C216A2
:1026200081E001C080E00F900F90DF91CF911F916A
:10263000FF90EF9008951F93CF93DF93182FFB0126
:10264000EA0180818F3F51F481818F3F91F4828133
:102650008F3F79F483818F3F61F41EC0811109C0DF
:102660008181811106C08281811103C08381882309
:1026700099F0209789F0BF01812F0E948312BE013B
:10268000812F0E94AB1244E050E0612F8FED93E068
:102690000E94C21681E001C080E0DF91CF911F91BE
:1026A000089548E050E0682F8FED93E00C94C21637
:1026B000DF92EF92FF920F931F93CF93DF93D82E69
:1026C0008B01EA01413088E0580710F0C0E0D8E003
:1026D0006D2D8FED93E00E94EE157C0163E070E0BC
:1026E0008D2D0E948C12873111F08C3121F4EC1663
:1026F000FD0670F302C0C0E0D0E09E01A8016D2D80
:102700008FED93E00E949F1540E250E06D2D8FED1C
:1027100093E00E94C2160DC063E070E08D2D0E9410
:102720008C12811106C08D2D0E94CD12C0E0D0E028
:1027300009C08D2D0E94961284FFEECF60E18D2D91
:102740000E94A612CE01DF91CF911F910F91FF90B1
:10275000EF90DF900895DF92EF92FF920F931F9317
:10276000CF93DF93D82E7B018A01682F8FED93E002
:102770000E94BE15EC01009771F463E070E08D2DAE
:102780000E948C128431E9F08823D9F08C31C9F091
:10279000CFEFDFEF16C0081719070CF4E8011C167D
:1027A0001D067CF400E09E01A7016D2D8FED93E0E6
:1027B0000E94721640E450E06D2D8FED93E00E9470
:1027C000C216CE01DF91CF911F910F91FF90EF9034
:1027D000DF9008950F93AB0101E021E030E0682F16
:1027E0008FED93E00E94721681E090E00F910895C2
:1027F000AF92BF92CF92DF92EF92FF920F931F930F
:10280000CF93DF93B82E7B016A01E901682F8FED2A
:1028100093E00E94EE158C179D0740F46B2D8FED11
:1028200093E00E94EE15A82EC92F02C0AC2ECD2F2A
:102830000A2D1C2F9601A7016B2D8FED93E00E94AE
:1028400031158A2D9C2FDF91CF911F910F91FF9011
:10285000EF90DF90CF90BF90AF9008951F93CF93EC
:10286000DF93182FFB01EA018081811109C081816A
:10287000811106C08281811103C08381882369F0A0
:10288000209759F0BF01812F0E948312BE01812F32
:102890000E94AB1221E030E002C020E030E0C9012C
:1028A000DF91CF911F910895CF93C82F40E250E060
:1028B000682F8FED93E00E94C2160CC08C2F0E94EF
:1028C000961283FF07C068E18C2F0E94A61220E0B9
:1028D00030E00BC08C2F0E94961284FFEFCF60E196
:1028E0008C2F0E94A61221E030E0C901CF910895FB
:1028F0008EBD0DB407FEFDCF8EB508952A980895BC
:102900002A9A08951F93CF93DF9300D0CDB7DEB7F7
:10291000182F6A8399830E947E1480EF0E94781496
:102920009981892F0E947814812F0E9478146A81DE
:10293000862F0E9478140E94801481E00F900F90DF
:10294000DF91CF911F910895CF93DF93EC016CE25B
:1029500071E080E090E00E9408080E94D216229A5E
:1029600060E880E090E00E94821465E58BE190E0F1
:102970000E94821465E58AE190E00E94821480E062
:1029800090E49983888380E090E69987888780E047
:1029900098E49B838A8380E098E69B878A8780E01F
:1029A00090E59D838C8380E090E79D878C8780E015
:1029B00098E59F838E8380E098E79F878E87DF91DD
:1029C000CF910895CF92DF92EF92FF920F931F93D2
:1029D000CF93DF93EC017A018B016A01C80ED91EF7
:1029E00013C00E947E1480EF0E9478148D2F0E94E5
:1029F00078148C2F0E9478142196F80181918F0110
:102A00000E9478140E948014CC15DD0551F7C7018F
:102A1000DF91CF911F910F91FF90EF90DF90CF90BA
:102A200008951F93CF93DF931F92CDB7DEB7182F72
:102A300099830E947E148FE00E9478149981892FD7
:102A40000E947814812F0E94781480E00E947814EC
:102A500089830E94801489810F90DF91CF911F910B
:102A600008956F927F929F92AF92BF92CF92DF9222
:102A7000EF92FF920F931F93CF93DF931F92CDB7E7
:102A8000DEB7F82E962E3A01590164E270E0892DE6
:102A900099830E948C12E82E65E270E0892D0E94D5
:102AA0008C12DE2CC12CC82AC60CD71C960137709C
:102AB0006F2C9981792E690C711C690C711CD301E2
:102AC000ED91FC91E20FF31FC901800F911F81303E
:102AD0009840A0F0E12C48E0F42EE21AF30AA70196
:102AE000B501CF010E94E214A8014E195F09B5019A
:102AF0006E0D7F1DF3018081918103C0A801B50196
:102B0000CF010E94E2140C0D1D1D412F64E270E004
:102B1000892D0E949A12402F65E270E0892D0F9056
:102B2000DF91CF911F910F91FF90EF90DF90CF90A9
:102B3000BF90AF909F907F906F900C949A120F93DC
:102B40001F9389019A0140E050E00E9431151F91C6
:102B50000F910895CF93DF93C82F66E270E00E9433
:102B60008C12D82F67E270E08C2F0E948C123D2FC0
:102B700020E0282BC901DF91CF910895FF920F9398
:102B80001F93CF93DF93F62EC0E0D0E08F2D0E94ED
:102B9000AA158C01009721F08F2D0E94AA15EC0137
:102BA000C017D10799F7CE01DF91CF911F910F91F7
:102BB000FF900895CF93DF93C82F60E270E00E94EA
:102BC0008C12D82F61E270E08C2F0E948C123D2F66
:102BD00020E0282BC901DF91CF910895FF920F9338
:102BE0001F93CF93DF93F62EC0E0D0E08F2D0E948D
:102BF000DA158C01009721F08F2D0E94DA15EC0177
:102C0000C017D10799F7CE01DF91CF911F910F9196
:102C1000FF900895CF92DF92EF92FF920F931F9350
:102C2000CF93DF93EC017A018B016A01C80ED91EA4
:102C300014C00E947E148FE00E9478148D2F0E9491
:102C400078148C2F0E947814219680E00E947814CA
:102C5000F80181938F010E948014CC15DD0549F79E
:102C6000C701DF91CF911F910F91FF90EF90DF90FF
:102C7000CF900895CF92DF92EF92FF920F931F9320
:102C8000CF93DF9369015770EC01C60FD11DC60FBA
:102C9000D11D289688819981840F951F9801240F52
:102CA000351F2130384090F0E12C68E0F62EE41A10
:102CB000F50AA701B6010E940A16A8014E195F097C
:102CC000B6016E0D7F1D8881998102C0A801B601F1
:102CD000DF91CF911F910F91FF90EF90DF90CF90F8
:102CE0000C940A168F929F92AF92BF92CF92DF926E
:102CF000EF92FF920F931F93CF93DF936C01962E69
:102D00005A01E901802E68E270E0892D0E948C1240
:102D1000F82E69E270E0892D0E948C12FF2DE0E010
:102D20007F01E82A8E019501A701692DC6010E9445
:102D30003A1681101AC0CE0DDF1D4D2F68E270E0EB
:102D4000892D0E949A124C2F69E270E0892DDF9143
:102D5000CF911F910F91FF90EF90DF90CF90BF9098
:102D6000AF909F908F900C949A12DF91CF911F910A
:102D70000F91FF90EF90DF90CF90BF90AF909F901A
:102D80008F900895CF93C62F61E070E08C2F0E9442
:102D90009A1261E070E08C2F0E948C128111F9CFA1
:102DA000CF91089561E08DE00E94930861E08BE08F
:102DB0000E94930861E08AE00E94930860E08DE041
:102DC0000E94CB0860E08BE00E94CB0861E08AE0C3
:102DD0000E94CB088CB580618CBD8CB580648CBDA5
:102DE00008950F9300E020E040E060E08FEE93E074
:102DF0000E942A0B0F910895FB0142815381648147
:102E00007581FC0142835383648375831782168224
:102E10000895CF93FB01DB018D918111FDCF80E0FF
:102E200090E020E030E0CAE01BC08F3F910509F040
:102E300064F5DA01A20FB31F12968C932F5F3F4FF8
:102E400080E090E00DC0DC01CA9FC001CB9F900DD7
:102E50001124772767FD709560537109860F971FBE
:102E60006191662321F02430310594F00EC08F3F2C
:102E7000910509F054F4243031053CF4FA01E20FD5
:102E8000F31F828321E030E006C020E030E003C081
:102E90006E32C9F6CACFC901CF910895AF92BF92E1
:102EA000CF92DF92EF92FF920F931F93CF93DF9316
:102EB00000D01F92CDB7DEB77C015B010E94CC072A
:102EC000F701778366838701085F1F4FB7016A5F49
:102ED0007F4F42E050E0C8010E94421181E090E043
:102EE0009A83898342E050E0BE016F5F7F4FC80143
:102EF0000E94421180E091E09A83898342E050E091
:102F0000BE016F5F7F4FC8010E9442111A82198271
:102F100042E050E0BE016F5F7F4FC8010E94421146
:102F200042E050E0BE016F5F7F4FC8010E94421136
:102F300042E050E0BE016F5F7F4FC8010E94421126
:102F40007501650121C0F6017F018191811107C0E2
:102F50005701AC18BD081A141B0424F011C08E329E
:102F600099F7F6CFAB8241E050E0BE016D5F7F4F35
:102F7000C8010E944211A501B601C8010E94421178
:102F80006701FFEFCF1ADF0AF70180818111DBCFE4
:102F90001B8241E050E0BE016D5F7F4FC8010E947F
:102FA0004211E12CFF24F394FA82E98242E050E0DE
:102FB000BE016F5F7F4FC8010E944211FA82E98211
:102FC00042E050E0BE016F5F7F4FC8010E94421196
:102FD00081E090E00F900F900F90DF91CF911F91C3
:102FE0000F91FF90EF90DF90CF90BF90AF9008953A
:102FF0004F925F926F927F928F929F92AF92BF9209
:10300000CF92DF92EF92FF920F931F93CF93DF93B4
:10301000CDB7DEB763970FB6F894DEBF0FBECDBF56
:103020007C015B016A010E94CC072B013C018701F6
:10303000085F1F4F4501A12CB12C12C00E94CC0784
:10304000641975098609970986169706A806B906B0
:1030500008F40FC162E370E080E090E00E9408088D
:10306000C8010E9479111816190644F7F701428128
:10307000538164817581818D928DA38DB48D4817A4
:1030800059076A077B0709F0F7C0858D968DC597AC
:1030900009F0F2C0F7C04CE050E0BE016F5F7F4F17
:1030A000C8010E94F9108B819C8198278927982755
:1030B0009A8B898BF7014681578129813A81421782
:1030C000530711F497FD06C0C8010E94CD102CEFE4
:1030D0003FEFDEC08F709270892B31F0C8010E94E3
:1030E000CD102BEF3FEFD4C08F8098849824892493
:1030F00098248114910479F5C8010E94CD102AEF1B
:103100003FEFC6C041E050E0BE01635F7F4FC801A2
:103110000E94F9108D85811107C08D858111F2CF34
:103120000AC0C8010E9418118D85982F91509D8763
:103130008111F7CFF2CFC8010E941811C8010E9477
:103140001811C8010E941811C8010E941811FFEF40
:10315000EF1AFF0A02C0E12CF12C8D819E81982785
:1031600089279827E816F90668F2A12CB12C41E0CE
:1031700050E0BE016D5E7F4FC8010E94F9108B893F
:10318000982F907C69F4811104C00EC0C8010E9480
:1031900018118B89982F91509B8B8111F7CF04C008
:1031A000C8010E9418111B8A8B898111E0CF42E06F
:1031B00050E0BE01615F7F4FC8010E94F91042E0FC
:1031C00050E0BE01635F7F4FC8010E94F910C80143
:1031D0000E941811C8010E941811C8010E941811FC
:1031E000C8010E94181142E050E0BE016F5E7F4F9F
:1031F000C8010E94F9108F8598898115914011F5B9
:103200008D859E8581159140E9F489899A8981157A
:10321000944031F0C8010E94CD1027EF3FEF38C035
:10322000B6016E5F7F4F44E050E0C8010E94F91084
:1032300021E030E02DC0C8010E9418112FEFE21AE2
:10324000F20A02C0E12CF12C89899A8998278927F2
:103250009827E816F90678F38FEFA81AB80AA81489
:10326000B90409F084CFC8010E94CD1026EF3FEFCA
:103270000FC02FEF3FEF0CC02EEF3FEF09C02DEF37
:103280003FEF06C0C8010E94B3100C97C4F303CFF0
:10329000C90163960FB6F894DEBF0FBECDBFDF91B4
:1032A000CF911F910F91FF90EF90DF90CF90BF9043
:1032B000AF909F908F907F906F905F904F90089508
:1032C0008F929F92AF92BF92CF92DF92EF92FF9236
:1032D0000F931F93CF93DF9300D000D000D0CDB7D2
:1032E000DEB78C015B016A010E940917892B09F086
:1032F00051C0F80142815381648175818091F70347
:103300009091F803A091F903B091FA034817590777
:103310006A077B0709F442C00E94CC077801F8E0F5
:10332000EF0EF11C6F707727882799277C5FC70104
:103330000E94C8118130B9F58BE292E09A838983AB
:10334000F80182819381A481B5818B839C83AD83B5
:10335000BE8345E350E0BE016F5F7F4FC7010E940F
:103360005C11892B19F4A12CB12C10C0B501C80136
:103370000E944E17892BB9F3C7010E945811892B5F
:10338000A9F4F1CFFFEFAF16BF0699F0C7010E9475
:1033900064111BC0AA24A394B12C17C02EEFA22E37
:1033A000BB24BA9412C0A12CB12C0FC093E0892E7B
:1033B000912CA60168E873E1C8010E94F8175C012E
:1033C00021E0821A910811F3DDCFC50126960FB6D0
:1033D000F894DEBF0FBECDBFDF91CF911F910F914B
:1033E000FF90EF90DF90CF90BF90AF909F908F9025
:1033F00008950F9300E020E040E060E085EF93E067
:103400000E942A0B0F910895F8940C944A1C50586E
:10341000BB27AA270ED075C166D130F06BD120F042
:1034200031F49F3F11F41EF45BC10EF4E095E7FB0D
:1034300051C1E92F77D180F3BA1762077307840768
:10344000950718F071F49EF58FC10EF4E0950B2EE0
:10345000BA2FA02D0B01B90190010C01CA01A001E6
:103460001124FF27591B99F0593F50F4503E68F141
:103470001A16F040A22F232F342F4427585FF3CF82
:10348000469537952795A795F0405395C9F77EF453
:103490001F16BA0B620B730B840BBAF09150A1F09C
:1034A000FF0FBB1F661F771F881FC2F70EC0BA0F22
:1034B000621F731F841F48F4879577956795B795AA
:1034C000F7959E3F08F0B3CF9395880F08F09927A2
:1034D000EE0F979587950895D9D008F481E0089567
:1034E0000CD00FC107D140F0FED030F021F45F3F87
:1034F00019F0F0C0511139C1F3C014D198F39923D8
:10350000C9F35523B1F3951B550BBB27AA276217A7
:103510007307840738F09F5F5F4F220F331F441FEC
:10352000AA1FA9F333D00E2E3AF0E0E830D0915024
:103530005040E695001CCAF729D0FE2F27D0660F11
:10354000771F881FBB1F261737074807AB07B0E850
:1035500009F0BB0B802DBF01FF2793585F4F2AF066
:103560009E3F510568F0B6C000C15F3FECF3983E46
:10357000DCF3869577956795B795F7959F5FC9F7C3
:10358000880F911D9695879597F90895E1E0660F4C
:10359000771F881FBB1F621773078407BA0720F0C5
:1035A000621B730B840BBA0BEE1F88F7E09508952E
:1035B00004D06894B111D9C00895BCD088F09F5749
:1035C00090F0B92F9927B751A0F0D1F0660F771F6F
:1035D000881F991F1AF0BA95C9F712C0B13081F04F
:1035E000C3D0B1E00895C0C0672F782F8827B85F97
:1035F00039F0B93FCCF3869577956795B395D9F7B0
:103600003EF490958095709561957F4F8F4F9F4FB9
:103610000895E89409C097FB3EF4909580957095C5
:1036200061957F4F8F4F9F4F9923A9F0F92F96E90E
:10363000BB279395F695879577956795B795F11183
:10364000F8CFFAF4BB0F11F460FF1BC06F5F7F4F20
:103650008F4F9F4F16C0882311F096E911C0772332
:1036600021F09EE8872F762F05C0662371F096E83B
:10367000862F70E060E02AF09A95660F771F881F0A
:10368000DAF7880F9695879597F90895990F0008AE
:10369000550FAA0BE0E8FEEF16161706E807F90724
:1036A000C0F012161306E407F50798F0621B730BBF
:1036B000840B950B39F40A2661F0232B242B252B40
:1036C00021F408950A2609F4A140A6958FEF811DE3
:1036D000811D089597F99F6780E870E060E0089584
:1036E0009FEF80EC089500240A941616170618061A
:1036F0000906089500240A941216130614060506F6
:103700000895092E0394000C11F4882352F0BB0F86
:1037100040F4BF2B11F460FF04C06F5F7F4F8F4FE9
:103720009F4F089557FD9058440F551F59F05F3F24
:1037300071F04795880F97FB991F61F09F3F79F0D3
:1037400087950895121613061406551FF2CF469555
:10375000F1DF08C0161617061806991FF1CF8695D7
:103760007105610508940895E894BB2766277727BB
:10377000CB0197F908958ADF08F48FEF08950BD0F5
:10378000C0CFB1DF28F0B6DF18F0952309F0A2CF43
:10379000A7CF1124EACFC6DFA0F3959FD1F3950FF1
:1037A00050E0551F629FF001729FBB27F00DB11DC5
:1037B000639FAA27F00DB11DAA1F649F6627B00D55
:1037C000A11D661F829F2227B00DA11D621F739F3E
:1037D000B00DA11D621F839FA00D611D221F749F4C
:1037E0003327A00D611D231F849F600D211D822F93
:1037F000762F6A2F11249F5750408AF0E1F08823DA
:103800004AF0EE0FFF1FBB1F661F771F881F9150E6
:103810005040A9F79E3F510570F05CCFA6CF5F3FA7
:10382000ECF3983EDCF3869577956795B795F79519
:10383000E7959F5FC1F7FE2B880F911D96958795A1
:1038400097F90895A1E21A2EAA1BBB1BFD010DC01A
:10385000AA1FBB1FEE1FFF1FA217B307E407F50740
:1038600020F0A21BB30BE40BF50B661F771F881F1C
:10387000991F1A9469F760957095809590959B01B2
:10388000AC01BD01CF010895EE0FFF1F0590F4912B
:08389000E02D0994F894FFCF2C
:10389800722E706E642E736500DEADBEEFFEED0114
:1038A80000040020282A1A1615353D3F3B20004702
:1038B8004554202F736574737461742048545450B0
:1038C8002F312E3100486F73743A20722E706E6457
:1038D8002E736500557365722D4167656E743A20C5
:1038E80041726475696E6F45746865726E657400BF
:1038F800436F6E6E656374696F6E3A20636C6F73A5
:103908006500537461727461722073747972707295
:103918006F6772616D206F6368207465737461727C
:1039280020656666656B746C6167656E20706120E2
:1039380072656C6165722E2E2E004F4B004B702CF9
:10394800204B692C204B643A20005469643B204F7B
:1039580075747075742028302D323030293B205210
:1039680065663B20523B20543B206C617374496E62
:103978007075743B206C6173744572726F723B2072
:103988006C6173744F75747075743B20703B20695B
:103998003B20643B0049503A20003C6C6F673E0076
:1039A8003C2F6C6F673E000000000067095D0B024A
:1039B8000931091509550900000000E50A00000051
:1039C80000400DC30DB80D9D0D750D560DC80EE1C7
:1039D8000D990D850E610E6D0D00000000B71042A7
:1039E80011B3101811DF10CD10C81164115C111734
:0E39F8001258117911F91098109F10AF10009D
:00000001FF
