:100000000C9465000C948D000C948D000C948D0064
:100010000C948D000C948D000C948D000C948D002C
:100020000C948D000C948D000C948D000C948D001C
:100030000C948D000C948D000C948D000C948D000C
:100040000C94C2060C948D000C94DE080C941A09D2
:100050000C948D000C948D000C948D000C948D00EC
:100060000C948D000C948D0000000007000201002C
:100070000003040600000000000000000102040864
:100080001020408001020408102001020408102002
:10009000040404040404040402020202020203032E
:1000A0000303030300000000250028002B000000CC
:1000B0000000240027002A00E7021C06D509910A47
:1000C000930D6A0F5811E81AF01D11241FBECFEFCF
:1000D000D8E0DEBFCDBF12E0A0E0B1E0E6E2F5E49B
:1000E00002C005900D92A434B107D9F713E0A4E43F
:1000F000B2E001C01D92A73DB107E1F710E0CAECE4
:10010000D0E004C02297FE010E948D22C83BD10797
:10011000C9F70E94A00A0C94DA1F0C9400000F93F8
:100120001F93FC017183608355834483338322834F
:1001300012861386148615861186108616861783F6
:1001400006831F910F910895FC018081918108958C
:10015000FC01808591850895CB01BA0123E333EF3B
:100160004BE454E40E94F11F26E636E64EEF50E4DD
:100170000E945A200E94C2206A30710524F06B351B
:10018000710524F405C06AE070E002C06AE570E021
:10019000CB010895EF92FF920F931F93CF93DF93BC
:1001A000EC018E810E94A106BC01882777FD809515
:1001B000982F0E94F5202AE038E240EA5BE30E9493
:1001C000A9219B01AC0160E070E080EA90E40E940C
:1001D0005A2020E030E040E85FE30E94F11F20E079
:1001E00030E44CE156E40E94A9217B018C0120E01F
:1001F00030E048E454E47F2D912F0E94562087FD83
:100200000CC020E030E844ED54E46E2D7F2D802FAB
:10021000912F0E94A52118161CF481E08E8701C041
:100220001E866E2D7F2D802F912FDF91CF911F91F4
:100230000F91FF90EF900895CF93DF93EC010E9410
:10024000CA00AB01BC014A875B876C877D87CE0102
:100250000E94AC0099878887DF91CF910895FC01B7
:1002600086850895AF92CF92EF92FF920F931F93DE
:10027000CF93DF93CDB7DEB72B970FB6F894DEBFE1
:100280000FBECDBF9AE0E1E2F1E0DE0111960190F0
:100290000D929A95E1F781E090E08C0F9D1F680F19
:1002A000791FFB01F080F4FA662760F9822F4B87F3
:1002B0000E940B08F2FA662760F98E2D0E940B0847
:1002C0006F2D61708A2D0E940B08F5FA662760F980
:1002D0004B85842F0E940B08F3FA662760F9802F64
:1002E0000E940B08F1FA662760F98C2D2B960FB649
:1002F000F894DEBF0FBECDBFDF91CF911F910F915C
:10030000FF90EF90CF90AF900C940B08AF92BF92FC
:10031000CF92DF92EF92FF920F931F93CF93DF93D1
:10032000CDB7DEB72D970FB6F894DEBF0FBECDBFA9
:100330006C015B016BEF71E0FC0174836383FA0174
:1003400082819381A481B581F60185839683A783F9
:10035000B08772876187F901428153816481758119
:10036000F6014387548765877687C60143960E94C6
:10037000A00CF601B282A182108B0787F28AE18A73
:100380001082CE0101960E94A00C2D960FB6F89413
:10039000DEBF0FBECDBFDF91CF911F910F91FF90B8
:1003A000EF90DF90CF90BF90AF9008950F931F9381
:1003B000CF93DF93CDB7DEB72C970FB6F894DEBF9F
:1003C0000FBECDBF8C01FC016181728189E993E090
:1003D0000E94B30D019759F46BE271E086EE92E052
:1003E0000E94E70A86EE92E00E94F00A2DC06AE3BE
:1003F00071E086EE92E00E94E70A86EE92E00E94AB
:10040000F00A2BEF31E03A832983F8018385948544
:10041000A585B6858B839C83AD83BE8338872F8368
:10042000458156816781708549875A876B877C87AC
:10043000618172819E012F5F3F4FAE01495F5F4F27
:1004400089E993E00E94030F68EE73E080E090E09A
:100450000E9448072C960FB6F894DEBF0FBECDBFA2
:10046000DF91CF911F910F9108950F931F93CF9319
:10047000DF93EC018C010D5E1F4FC8010E94BF0C81
:1004800081110AC08881882339F0C801DF91CF919A
:100490001F910F910C94E30CDF91CF911F910F915D
:1004A0000895BF92CF92DF92EF92FF920F931F9326
:1004B000CF93DF931F92CDB7DEB77C0119828C01F9
:1004C0000D5E1F4FC8010E94B40BF701418952898C
:1004D00067857089C8010E943F0C892B39F16DE551
:1004E00071E086EE92E00E94060B6DEB71E0C801B0
:1004F0000E94060B6AE771E0C8010E94E70AF70153
:1005000067857089C8010E94E70AC8010E94F00A45
:1005100061E871E0C8010E94060B6DE971E0C80155
:100520000E94060BC8010E94F00A09C0C8010E947F
:10053000E30C67ED71E086EE92E00E94060B68EE38
:1005400073E080E090E00E944807C12CD12CB12CD0
:10055000C8010E94160C892BB1F0C8010E94FB0B48
:100560008B3711F0BB2061F0E1E0F0E0EC0FFD1FF4
:10057000EC0DFD1D8083FFEFCF1ADF0ABB24B3947F
:100580008D3709F4B12CC8010E94160C892B01F794
:10059000C8010E94BF0C8111DBCFC8010E94E30C8F
:1005A000BE016F5F7F4F86EE92E00E94060BC8018E
:1005B0000E94BF0CF70180830F90DF91CF911F91B4
:1005C0000F91FF90EF90DF90CF90BF9008950F9321
:1005D00000E020E040E060E084E492E00E946A0AEB
:1005E0000F910895CF92DF92EF92FF920F931F9396
:1005F000CF93DF93EC01488359836A837B830C8319
:100600001D832E833F83C886D986EA86FB860E9497
:100610000C076CA37DA38EA39FA3DF91CF911F91A5
:100620000F91FF90EF90DF90CF900895CF93DF93DD
:10063000EC01CB01BA010E94C2207FA76EA7DF9117
:10064000CF910895CF93DF93EC01CB01BA010E94C3
:10065000C2207DA76CA7DF91CF910895FC0166A50C
:1006600077A5882777FD8095982F0E94F52008951B
:10067000FC0164A575A5882777FD8095982F0E94B9
:10068000F52008952F923F924F925F926F927F9242
:100690008F929F92AF92BF92CF92DF92EF92FF9292
:1006A0000F931F93CF93DF93CDB7DEB764970FB649
:1006B000F894DEBF0FBECDBF9C8B8B8B6A017B0194
:1006C000280139010E940C074B015C01EB89FC8970
:1006D00084A195A1A6A1B7A1A5019401281B390B5E
:1006E0004A0B5B0BDA01C90180369A4EA105B105B0
:1006F00048F440A1498351A15A8382A18B8393A1DD
:100700009C833BC1A7019601C301B2010E94F11F66
:100710006D837E838F839887AB89BC8998962D9152
:100720003D914D915C919B970E94F21F1B018C01A2
:10073000862F932DA02FB12FEB89FC8980A791A73D
:10074000A2A7B3A766A577A5882777FD8095982FE0
:100750000E94F52069877A878B879C8769837A83D3
:100760008B839C83762F6A85982F8C85272F362F35
:10077000492F582F622D732D802F912F0E94A52174
:1007800018167CF459854A853B852C85852F942F36
:10079000A32FB22FEB89FC8980A791A7A2A7B3A7AB
:1007A0001EC0AB89BC899C966D917C919D978827D2
:1007B00077FD8095982F0E94F5202B013C019B012D
:1007C000AC01622D732D802F912F0E94562087FF40
:1007D00006C0EB89FC8940A651A662A673A6AB8928
:1007E000BC8998962D913D914D915C919B972D8759
:1007F0003E874F87588B5C962D913D914D915C9132
:100800005F97C701B6010E94F11F362E272E898BF4
:100810009A8BEB89FC892081318142815381BD8192
:10082000AE811F8108856B2F7A2F812F902F0E9418
:10083000A9212B013C01AB89BC8914962D913D91D6
:100840004D915C9117976D857E858F8598890E9463
:10085000A9219B01AC01C301B2010E94F21F2B012F
:100860003C01EB89FC892085318542855385D10186
:1008700019890A896B2F7A2F812F902F0E94A92125
:100880009B01AC01C301B2010E94F11F3B018C012D
:1008900079856A859B858C85272F362F492F582F80
:1008A000662D772D802F912F0E94A521181624F1F7
:1008B000AB89BC899C966D917C919D97882777FD2B
:1008C0008095982F0E94F52069837A838B839C837F
:1008D000762F6A81982F8C81272F362F492F582FFA
:1008E000662D772D802F912F0E94562087FD04C002
:1008F00069827A820B831C83EB89FC89C48ED58E36
:10090000E68EF78E5D814E813F812885852F942F5D
:10091000A32FB22F808F918FA28FB38F59814A81DD
:100920003B812C81852F942FA32FB22F80A391A3DD
:10093000A2A3B3A35D814E813F812885852F942F8B
:10094000A32FB22F80AB91ABA2ABB3AB2D853E856D
:100950004F85588924AB35AB46AB57ABA1013989DC
:100960002A89852F922DA32FB22F80AF91AFA2AFEE
:10097000B3AF84A295A2A6A2B7A259814A813B81B6
:100980002C81652F742F832F922F64960FB6F894C5
:10099000DEBF0FBECDBFDF91CF911F910F91FF90B2
:1009A000EF90DF90CF90BF90AF909F908F907F900F
:1009B0006F905F904F903F902F900895AF92BF92AD
:1009C000CF92DF92EF92FF920F931F93CF93DF931B
:1009D00061E082E00E94D30761E083E00E94D307D8
:1009E00061E084E00E94D30761E085E00E94D307C4
:1009F00061E086E00E94D30761E087E00E94D307B0
:100A000061E08DE00E94D30761E08CE00E94D30793
:100A100040E050E0BA0186E792E00E94220340E005
:100A200050E068E473E486E792E00E94160340E831
:100A300055E260E070E086EE92E00E9455090E9467
:100A40000C07AB01BC012AE030E086EE92E00E9488
:100A5000830BC1E0D0E083E0A82EB12C92E0C92E38
:100A6000D12C25E0E22EF12C04E010E027E030E06C
:100A700046E050E0BE0182EB92E00E9432016EEE51
:100A800072E080E090E00E9448072196CB30D105CB
:100A900011F78AE492E0DF91CF911F910F91FF90BF
:100AA000EF90DF90CF90BF90AF900C94D6014F9213
:100AB0005F926F927F928F929F92AF92BF92CF92EE
:100AC000DF92EF92FF920F931F9382EB92E00E94CE
:100AD0001C0182EB92E00E94A8005C0182EB92E094
:100AE0000E94A400BC01882777FD8095982F0E9462
:100AF000F5206B017C01B501882777FD8095982F43
:100B00000E94F520AB01BC019701860186E792E0C7
:100B10000E9442036B017C0186E792E00E942E0353
:100B20004B015C0186E792E00E9438032B013C01F7
:100B300020E030E040E251E4C701B6010E94F21F1C
:100B40006B017C01A3019201C501B4010E94F11F58
:100B50009B01AC0160E070E080E191E40E945A20CA
:100B60009B01AC01C701B6010E94A9210E94C220CD
:100B700033E0A32EB12C42E0C42ED12C55E0E52E5B
:100B8000F12C04E010E027E030E046E050E082EB9A
:100B900092E00E94320182EB92E00E942F018823B2
:100BA00031F061E08DE00E940B0860E005C060E07C
:100BB0008DE00E940B0861E08CE00E940B088AE443
:100BC00092E00E9435020E940C07C090D302D090A0
:100BD000D402E090D502F090D6026C197D098E09FE
:100BE0009F0969397A438105910570F08AE492E0A2
:100BF0000E9451020E940C076093D3027093D402AA
:100C00008093D5029093D60286EE92E00E949508DA
:100C100060E177E280E090E01F910F91FF90EF900C
:100C2000DF90CF90BF90AF909F908F907F906F900C
:100C30005F904F900C944807CF92DF92EF92FF9213
:100C40000F931F93CF93DF93CDB7DEB72C970FB6DB
:100C5000F894DEBF0FBECDBF00E020E040E060E0D2
:100C600087ED92E00E946A0A0EE010E02DE030E08D
:100C70004CE050E06CE370E082EB92E00E948F0069
:100C8000C12CD12C60E8E62E6FE3F62E0DEC1CECA7
:100C90002CE43FE340E050E060E470E486E792E05B
:100CA0000E94F20209E022E048EA60EC80E792E06C
:100CB0000E946A0A0BE127EC43E463EC8AE692E0C7
:100CC0000E946A0AE0900A01F0900B012BEF31E0DC
:100CD00038872F8380916C0290916D02A0916E02F3
:100CE000B0916F0289879A87AB87BC873A83298343
:100CF0008091720290917302A0917402B09175027A
:100D00008B839C83AD83BE830CE011E09E01295F41
:100D10003F4FAE014F5F5F4F68E171E08AE492E0C0
:100D20000E9486012C960FB6F894DEBF0FBECDBF91
:100D3000DF91CF911F910F91FF90EF90DF90CF90B7
:100D400008958E3008F08E50877020911E0140E487
:100D5000249F90011124822B80937C0080917A0043
:100D6000806480937A0080917A0086FDFCCF209188
:100D7000780030917900932F80E0AC01422B9A01EA
:100D8000C90108951F920F920FB60F9211242F934D
:100D90003F938F939F93AF93BF938091DD02909188
:100DA000DE02A091DF02B091E0023091E502232F34
:100DB0002D5F2D3720F40196A11DB11D05C0232FF5
:100DC0002A570296A11DB11D2093E5028093DD02F2
:100DD0009093DE02A093DF02B093E0028091E102E3
:100DE0009091E202A091E302B091E4020196A11D6C
:100DF000B11D8093E1029093E202A093E302B093CD
:100E0000E402BF91AF919F918F913F912F910F90ED
:100E10000FBE0F901F9018950F931F938FB7F894E4
:100E20000091DD021091DE022091DF023091E0029C
:100E30008FBFB801C9011F910F9108950F931F93A0
:100E40009FB7F8940091E1021091E2022091E30231
:100E50003091E40286B5A89B06C08F3F21F00F5F5A
:100E60001F4F2F4F3F4F9FBF322F212F102F002793
:100E7000080F111D211D311D42E0000F111F221FFF
:100E8000331F4A95D1F7B801C9011F910F910895F9
:100E9000CF92DF92EF92FF92CF93DF936B017C01B1
:100EA0000E941E07EB010EC00E941E076C1B7D0BEB
:100EB000683E734038F081E0C81AD108E108F108B3
:100EC000C851DC4FC114D104E104F10469F7DF918A
:100ED000CF91FF90EF90DF90CF900895789484B5F4
:100EE000826084BD84B5816084BD85B5826085BD26
:100EF00085B5816085BDEEE6F0E08081816080830C
:100F0000E1E8F0E0108280818260808380818160EE
:100F10008083E0E8F0E0808181608083E1EBF0E0B5
:100F2000808184608083E0EBF0E080818160808359
:100F3000EAE7F0E080818460808380818260808342
:100F40008081816080838081806880831092C1006D
:100F50000895833069F028F48130A1F0823011F5D2
:100F600014C08630B1F08730C1F08430D9F404C0A9
:100F7000809180008F7703C0809180008F7D809367
:100F80008000089584B58F7702C084B58F7D84BDBD
:100F900008958091B0008F7703C08091B0008F7D5D
:100FA0008093B0000895CF93DF9390E0FC01E45864
:100FB000FF4F4491FC01E057FF4F8491882341F19A
:100FC00090E0880F991FFC01E255FF4F2591349165
:100FD000D9018C559F4FFC0185919491C82FD92F31
:100FE0009FB7F8948C91611106C0409584238C932F
:100FF0008881842308C0623041F4242F2095822305
:101000008C938881842B888302C0842B8C939FBF10
:10101000DF91CF9108950F931F93CF93DF931F928A
:10102000CDB7DEB7282F30E0F901E859FF4F8491A2
:10103000F901E458FF4F1491F901E057FF4F049173
:101040000023D1F0882321F069830E94A9076981D8
:10105000E02FF0E0EE0FFF1FEC55FF4F85919491CC
:10106000DC019FB7F8948C91611103C01095812326
:1010700001C0812B8C939FBF0F90DF91CF911F9167
:101080000F910895FC0184859585FC01E05CFF4F7C
:1010900020813181FC01EE5BFF4F80819181281B13
:1010A000390B2F733327C9010895FC018485958579
:1010B000FC01E05CFF4F40815181FC01EE5BFF4F82
:1010C000208131814217530741F00190F081E02DDA
:1010D000E80FF91F208130E002C02FEF3FEFC90178
:1010E0000895FC0184859585FC01E05CFF4F4081FB
:1010F0005181FC01EE5BFF4F208131814217530784
:1011000081F0A081B181A80FB91F8C91208131811C
:101110002F5F3F4F2F73332731832083282F30E0F9
:1011200002C02FEF3FEFC9010895FC018685978526
:10113000FC01E05CFF4FDC01AE5BBF4F40815181A1
:101140002D913C91119742175307C1F70895CF9302
:10115000DF93FC0186859785DC01A05CBF4F2D9154
:101160003C9111972F5F3F4F2F733327EC01CE5BDC
:10117000DF4F4881598124173507D9F30D90BC9171
:10118000A02DA80FB91F6C93A685B785A05CBF4F93
:1011900011963C932E93A689B7892C9181E090E01B
:1011A000058C02C0880F991F0A94E2F7282B2C9314
:1011B00081E090E0DF91CF91089508951F920F9202
:1011C0000FB60F9211242F933F934F938F939F93BA
:1011D000EF93FF934091C6008091890390918A0319
:1011E00001968F73992720918B0330918C0382177E
:1011F000930759F0E0918903F0918A03E75BFC4F74
:10120000408390938A0380938903FF91EF919F918C
:101210008F914F913F912F910F900FBE0F901F9084
:10122000189586EE92E00E944208892B11F00C94EA
:10123000DD0808951F920F920FB60F9211242F937D
:101240003F938F939F93EF93FF93209145033091AA
:10125000460380914703909148032817390731F4DA
:101260008091C1008F7D8093C10014C0E09147033D
:10127000F0914803EB5FFC4F2081809147039091F0
:10128000480301968F7399279093480380934703EF
:101290002093C600FF91EF919F918F913F912F91E5
:1012A0000F900FBE0F901F901895CF92DF92EF9284
:1012B000FF92CF93DF93EC016A017B01411581EE30
:1012C000580761057105F9F0EC89FD8981E090E02E
:1012D0000E8C02C0880F991F0A94E2F7808360E0A9
:1012E00079E08DE390E0A70196010E941F22215032
:1012F000310941095109569547953795279521158B
:1013000080E1380798F0EC89FD89108260E874E884
:101310008EE190E0A70196010E941F222150310921
:10132000410951095695479537952795E889F989D7
:101330003083EA89FB892083EE89FF89408181E03F
:1013400090E09C010A8C02C0220F331F0A94E2F73E
:10135000422B4083EE89FF8940819C010B8C02C0A7
:10136000220F331F0A94E2F7422B4083EE89FF8954
:1013700040819C010C8C02C0220F331F0A94E2F7BB
:10138000422B4083EE89FF8920810D8C02C0880F9B
:10139000991F0A94E2F7809582238083DF91CF9191
:1013A000FF90EF90DF90CF9008951092E902109295
:1013B000E80288EE93E0A0E0B0E08093EA02909328
:1013C000EB02A093EC02B093ED028BEE91E09093D0
:1013D000E7028093E60289E493E09093F30280931E
:1013E000F20285E093E09093F5028093F40285EC9D
:1013F00090E09093F7028093F60284EC90E0909353
:10140000F9028093F80280EC90E09093FB028093C5
:10141000FA0281EC90E09093FD028093FC0286EC4E
:1014200090E09093FF028093FE0284E0809300039B
:1014300083E08093010387E08093020385E080933B
:10144000030381E0809304030895AF92BF92CF928B
:10145000DF92EF92FF920F931F93CF93DF936C0174
:101460007B01C0E0D0E000E010E0F601EC0FFD1FD2
:101470004AE050E06281C7010E94970B5C016EE276
:10148000C7010E94E90A8A0D9B1D080F191F2196AA
:10149000C330D10551F74AE050E0F6016581C7013C
:1014A0000E94970B080F191FC801DF91CF911F9160
:1014B0000F91FF90EF90DF90CF90BF90AF90089585
:1014C0002BEF31E0FC0131832083128213821482DE
:1014D000158208950F93FC018BEF91E09183808337
:1014E00062834383248305830F9108952BEF31E0BA
:1014F000FC0131832083FB01408151816281738132
:10150000FC0142835383648375830895FC01DB01EE
:101510004D915D916D917C9142835383648375837A
:1015200008958BEF91E090938E0380938D0310923A
:101530008F031092900310929103109292030895DA
:101540000E946E070E94DE04C1E1D9E00E945705A7
:101550002097E1F30E941109F9CF0C94451ECF9218
:10156000DF92EF92FF920F931F93CF93DF936C0163
:10157000EB017A01E60EF71E00E010E00BC0699166
:10158000D601ED91FC910190F081E02DC601099505
:10159000080F191FCE15DF0591F7C801DF91CF9114
:1015A0001F910F91FF90EF90DF90CF900895DB0196
:1015B0000D900020E9F7AD0141505109461B570B32
:1015C000DC01ED91FC910280F381E02D09940C94F3
:1015D000D70ADC01ED91FC910190F081E02D099496
:1015E0000F931F93CF93DF93EC016DE00E94E90A04
:1015F0008C016AE0CE010E94E90A9C01200F311F94
:10160000C901DF91CF911F910F9108950F931F93FF
:10161000CF93DF93EC010E94D70A8C01CE010E9488
:10162000F00A9801280F391FC901DF91CF911F914E
:101630000F9108954F925F926F927F929F92AF9217
:10164000BF92CF92DF92EF92FF920F931F93CF93AF
:10165000DF93CDB7DEB7A1970FB6F894DEBF0FBE0C
:10166000CDBF5C016A017B01922E19A281E0821735
:1016700010F08AE0982E8E010F5D1F4F492C512CDF
:10168000612C712CC701B601A30192010E941F2297
:101690008C2D929E80191124015011098A3014F466
:1016A000805D01C0895CF801808369017A01C11401
:1016B000D104E104F10431F7B801C5010E94D70A51
:1016C000A1960FB6F894DEBF0FBECDBFDF91CF91CC
:1016D0001F910F91FF90EF90DF90CF90BF90AF9050
:1016E0009F907F906F905F904F90089521153105E6
:1016F00041F4DC01ED91FC910190F081E02D642F2B
:1017000009940C941A0B0F931F93CF93DF93EC0162
:101710000E94760B8C01CE010E94F00A9C01200FE2
:10172000311FC901DF91CF911F910F9108959A0147
:10173000462F50E060E070E00C94760BCF93DF937F
:101740001F92CDB7DEB76983DC01ED91FC91028079
:10175000F381E02D41E050E0BE016F5F7F4F0995BE
:101760000F90DF91CF910895CF93DF93EC0107C0E5
:10177000E881F9810680F781E02DCE010995E881A5
:10178000F9810480F581E02DCE010995892B81F73F
:10179000DF91CF91089521E0FC018485843009F424
:1017A00020E0822F08950F931F93CF93DF931F9212
:1017B000CDB7DEB78C01DC01ED91FC910480F581A1
:1017C000E02D0995892B51F0BE016F5F7F4FF80125
:1017D00084850E94CA12298130E002C02FEF3FEFBA
:1017E000C9010F90DF91CF911F910F910895FC01D6
:1017F00084850C948B12CF93DF931F92CDB7DEB705
:1018000041E050E0BE016F5F7F4FFC0184850E9484
:101810008B12181619061CF4298130E002C02FEF34
:101820003FEFC9010F90DF91CF910895FC016485CE
:10183000643021F087EB93E00C949E1480E090E0FC
:1018400008950F931F93CF93DF938C01EA01FC015E
:101850008485843019F481E090E007C00E9438123A
:10186000892B39F481E090E0F80193838283C0E012
:10187000D0E0CE01DF91CF911F910F910895CF92CB
:10188000DF92EF92FF920F931F93CF93DF93CDB729
:10189000DEB7E5970FB6F894DEBF0FBECDBF7C0173
:1018A0008B016A01CE0101960E94600ACE01099661
:1018B0000E94E210CE01C0960E94600A69E973E0BE
:1018C000CE018A960E945A0FBE01665D7F4FCE01FF
:1018D00001960E94F31AAE01405D5F4FB801CE0140
:1018E00001960E94571D9C0181309105C9F4D701D2
:1018F000ED91FC910484F585E02D8BEF91E09DA3A3
:101900008CA30AA91BA92CA93DA90EA31FA328A734
:1019100039A7A601BE016C5D7F4FC70109959C01E7
:10192000C901E5960FB6F894DEBF0FBECDBFDF91BB
:10193000CF911F910F91FF90EF90DF90CF9008957E
:10194000FC011382128248EE53E060E070E04483B1
:1019500055836683778381E092E09183808384E07E
:1019600084870895FC018485843039F0382F20E085
:10197000C9018D5F9B4F0C94F11380E00895CF93C4
:10198000DF93EC018C858430D1F0CE010E94B20C43
:10199000843181F0882371F0883161F08C3161F4F9
:1019A000E881F9810480F581E02DCE01099521E0DF
:1019B000892B19F420E001C021E0822F01C080E0D2
:1019C000DF91CF910895CF92DF92EF92FF92CF9364
:1019D000DF93EC018C85843091F10E9431120E94DA
:1019E0000C076B017C01CE010E94B20C8823D1F060
:1019F0000E940C076C197D098E099F09683E73408F
:101A000081059105A8F00EC08C850E94AD11EC8572
:101A1000F0E0EE0FFF1FEF55FC4F1182108284E0C3
:101A20008C870DC0CE010E94B20C882381F3ECCFCD
:101A300061E070E080E090E00E944807D4CFDF9141
:101A4000CF91FF90EF90DF90CF900895AF92BF922B
:101A5000CF92DF92EF92FF920F931F93CF93DF937A
:101A6000EC015B016A018C85843009F04EC093E083
:101A7000E92E94E0F92E00E010E0C7010E94F11376
:101A8000811102C00C870AC08831E1F38C31D1F397
:101A90000F5F1F4FF3940430110579F78C85843064
:101AA000A1F120911F01309120012F5F3F4F09F0DC
:101AB00002C020E034E03093200120931F014091C8
:101AC0001F015091200120E061E00E94BB11B5018F
:101AD0006E5F7F4FA6018C850E94FB1109C061E0FB
:101AE00070E080E090E00E944807CE010E94B20CB6
:101AF000811103C084E08C8708C0CE010E94B20C23
:101B0000873169F721E030E002C020E030E0C90110
:101B1000DF91CF911F910F91FF90EF90DF90CF90C9
:101B2000BF90AF9008950F9300E020E040E060E0A8
:101B300083E993E00E946A0A0F91089544E050E01F
:101B4000BC0181E090E00C94C21344E050E0BC0181
:101B500085E090E00C94C21344E050E0BC018FE0BB
:101B600090E00C94C213AF92BF92CF92DF92EF92AB
:101B7000FF920F931F93CF93DF93CDB7DEB76E978E
:101B80000FB6F894DEBF0FBECDBF6C015B0182E6DD
:101B900090E00E94AD0A8C0182E6F80111928A95CC
:101BA000E9F7C801895B9F4F0E94E210F601178395
:101BB000068387EB93E00E94841346E050E0B50172
:101BC00089E090E00E94C21300E020E040E060E085
:101BD000CE0149960E946A0ACE014B960E94AC0D36
:101BE00010EAE12E1FE0F12E00E010E020E63AEED0
:101BF00040E050E0B501F601868197810E94A31A6A
:101C00008C018130910589F5F60166817781CE01DD
:101C100043960E94B917CE0145960E94AC0DF6017D
:101C200066817781CE010D960E94CF17CE010F9667
:101C30000E949E0DF60166817781CE0107960E9473
:101C4000C417CE0109960E94A50DF6016681778121
:101C5000CE0101960E94DA174B815C816D817E81F5
:101C6000F6014283538364837583C8016E960FB671
:101C7000F894DEBF0FBECDBFDF91CF911F910F91C2
:101C8000FF90EF90DF90CF90BF90AF9008958F922C
:101C90009F92AF92BF92CF92DF92EF92FF920F93FB
:101CA0001F93CF93DF9300D0CDB7DEB74C016A010D
:101CB000590187EB93E069837A830E94841346E09D
:101CC00050E069817A8189E090E00E94C213C601E8
:101CD00002960E94AC0DC80102960E949E0DC7019B
:101CE00002960E94A50DF5014281538164817581A0
:101CF000F40142835383648375830F900F90DF91C7
:101D0000CF911F910F91FF90EF90DF90CF90BF90F8
:101D1000AF909F908F9008956F927F928F929F9235
:101D2000AF92BF92CF92DF92EF92FF920F931F93E9
:101D3000CF93DF93CDB7DEB76E970FB6F894DEBFC3
:101D40000FBECDBF6C015B017A014901380100E093
:101D50002FEF4FEF6FEFCE0149960E946A0A4BEFCB
:101D600051E05A8349838B8D9C8DAD8DBE8D8B83C5
:101D70009C83AD83BE8358874F83F3018281938117
:101D8000A481B58189879A87AB87BC875E874D8799
:101D9000F40182819381A481B5818F87988BA98B6F
:101DA000BA8B5C8B4B8BF7014281538164817581C7
:101DB0004D8B5E8B6F8B788FEE24E394F12CEC0EC1
:101DC000FD1E8E01095F1F4F9E01235F3F4FAE0135
:101DD0004D5E5F4FB501C6010E94470E6E960FB66D
:101DE000F894DEBF0FBECDBFDF91CF911F910F9151
:101DF000FF90EF90DF90CF90BF90AF909F908F902B
:101E00007F906F900895CF92DF92EF92FF920F93A1
:101E10001F93CF93DF93CDB7DEB768970FB6F894D3
:101E2000DEBF0FBECDBF6B017901DA0112964D9175
:101E30005D916D917C9115974D8B5E8B6F8B788F3B
:101E4000ABEFB1E0BA83A98321E0288F0D891E8909
:101E50002F89388D0B831C832D833E83B887AF83F6
:101E6000F701028113812481358109871A872B8725
:101E70003C87BE87AD874F87588B698B7A8B8E01E5
:101E80000F5F1F4F9E01295F3F4FAE01435F5F4FC2
:101E9000B6010E948C0E68960FB6F894DEBF0FBE96
:101EA000CDBFDF91CF911F910F91FF90EF90DF9009
:101EB000CF9008952BEF31E0FC0131832083FB01AB
:101EC0004281538164817581FC0142835383648321
:101ED000758308950F9300E020E040E060E089EA18
:101EE00093E00E946A0A89E993E00F910C94600ADA
:101EF000DC01ED91FC91008CF18DE02D09942BEF2C
:101F000031E0FC0131832083FB01418952896389DF
:101F10007489FC0142835383648375830895FC01B3
:101F2000858996890895FC01818D928D0895CF93BE
:101F3000DF931F92CDB7DEB76983DC01ED91FC9191
:101F40000280F381E02D41E050E0BE016F5F7F4FE2
:101F500009950F90DF91CF910895CF93DF93EC0116
:101F600007C0E881F9810680F781E02DCE0109954F
:101F7000898D9A8D892BA9F7DF91CF910895CF9301
:101F8000DF931F92CDB7DEB7FC01218D328D232B5D
:101F900049F0BE016F5F7F4F84850E94CA1229817C
:101FA00030E002C02FEF3FEFC9010F90DF91CF91DA
:101FB0000895CF93DF93EC01898D9A8D009719F4E2
:101FC0002FEF3FEF11C04817590708F0AC018C857F
:101FD0000E948B129C011816190694F7898D9A8D10
:101FE000821B930B9A8F898FC901DF91CF9108953E
:101FF0000F931F93CF93DF931F92CDB7DEB78C0162
:10200000FC01818D928D892B59F041E050E0BE0199
:102010006F5F7F4F84850E948B12181619061CF083
:102020002FEF3FEF08C0F801818D928D0197928FBD
:10203000818F298130E0C9010F90DF91CF911F91ED
:102040000F910895CF93DF93EC019A018F89988DBA
:10205000AB01BC018C850E94D8129C018F89988DA0
:10206000820F931F988F8F8BC901DF91CF910895B5
:10207000FC0184850C943413FC01108E178A6E5F6A
:102080007F4F84850C940E13CF93DF93EC018C85E6
:10209000843061F00E94AD11EC85F0E0EE0FFF1F7F
:1020A000EF55FC4F1182108284E08C87DF91CF9135
:1020B00008950F931F93CF93DF93CDB7DEB7289783
:1020C0000FB6F894DEBF0FBECDBF8C01DC01ED91E1
:1020D000FC910284F385E02D0995F801648587EB76
:1020E00093E00E949E14892B29F148E050E0BE0144
:1020F0006F5F7F4FD8011C968C910E948B129C01C0
:1021000018161906CCF4BE016F5F7F4FC8010F96F9
:102110000E94860A9D8180E02E81820F911DF80128
:10212000968B858B3F8120E08885280F311D328F6B
:10213000218F02C020E030E0C90128960FB6F89444
:10214000DEBF0FBECDBFDF91CF911F910F910895DC
:10215000CF92DF92EF92FF920F931F93CF93DF9373
:10216000EC016B018C85843019F593E0E92E94E045
:10217000F92E00E010E0C7010E94F113811102C0A6
:102180000C8708C08831E1F30F5F1F4FF3940430D0
:10219000110589F78C85843059F0DE86CD861A8E3C
:1021A000198E20E0A60162E00E94BB1181E001C00F
:1021B00080E0DF91CF911F910F91FF90EF90DF9022
:1021C000CF900895FC011382128248EE53E060E044
:1021D00070E044835583668377838DE192E0918339
:1021E000808384E08487CF010F960C94600ACF929D
:1021F000DF92EF92FF920F931F93CF93DF93CDB7B0
:10220000DEB7E5970FB6F894DEBF0FBECDBF7C01F9
:102210008B016A01CE0101960E94600ACE010996E7
:102220000E94E210CE01C0960E94600A69E973E044
:10223000CE018A960E945A0FBE01665D7F4FCE0185
:1022400001960E94F31AAE01405D5F4FB801CE01C6
:1022500001960E94571D9C0181309105C9F4D70158
:10226000ED91FC910088F189E02D8BEF91E09DA329
:102270008CA30AA91BA92CA93DA90EA31FA328A7BB
:1022800039A7A601BE016C5D7F4FC70109959C016E
:10229000C901E5960FB6F894DEBF0FBECDBFDF9142
:1022A000CF911F910F91FF90EF90DF90CF90089505
:1022B0000F9300E020E040E060E08FEA93E00E94AE
:1022C0006A0A0F910895382F20E044E050E0C901D8
:1022D000845F9B4F0C94C213282F30E02C5F3F4F3C
:1022E000922F8827860F971F0C94F11362E070E0FD
:1022F0000C946C11FB01282F30E02C5F3F4F922F84
:102300008827642F8E0F9F1F0C946213462F62E064
:1023100070E00C947A11CF93DF93C82FD62F472FFC
:1023200060E170E00E947A114D2F61E170E08C2F26
:10233000DF91CF910C947A11CF93DF93C82FD62FD2
:10234000472F64E070E00E947A114D2F65E070E045
:102350008C2FDF91CF910C947A11CF93C82F40E14D
:1023600050E0682F87EB93E00E94A2156FEF8C2F4F
:10237000CF910C948611EF92FF921F93CF93DF932E
:1023800000D0CDB7DEB7182F7A01862F8150853067
:1023900048F5812F2A8369830E94AD112A816981C2
:1023A000422F462B60E070E0812F0E947A11E114E9
:1023B000F10411F0B7010AC06091B5037091B60342
:1023C0006F5F7F4F7093B6036093B503812F0E94B8
:1023D0009C1141E050E0612F87EB93E00E94A21531
:1023E00081E001C080E00F900F90DF91CF911F91AD
:1023F000FF90EF9008951F93CF93DF93182FFB0169
:10240000EA0180818F3F51F481818F3F91F4828175
:102410008F3F79F483818F3F61F41EC0811109C021
:102420008181811106C08281811103C0838188234B
:1024300099F0209789F0BF01812F0E946311BE019E
:10244000812F0E948B1144E050E0612F87EB93E0D5
:102450000E94A21581E001C080E0DF91CF911F9121
:10246000089548E050E0682F87EB93E00C94A215A4
:10247000DF92EF92FF920F931F93CF93DF93D82EAB
:102480008B01EA01413088E0580710F0C0E0D8E045
:102490006D2D87EB93E00E94CE147C0163E070E029
:1024A0008D2D0E946C11873111F08C3121F4EC16C6
:1024B000FD0670F302C0C0E0D0E09E01A8016D2DC2
:1024C00087EB93E00E947F1440E250E06D2D87EB94
:1024D00093E00E94A2150DC063E070E08D2D0E9474
:1024E0006C11811106C08D2D0E94AD11C0E0D0E0AD
:1024F00009C08D2D0E94761184FFEECF60E18D2DF5
:102500000E948611CE01DF91CF911F910F91FF9014
:10251000EF90DF900895DF92EF92FF920F931F9359
:10252000CF93DF93D82E7B018A01682F87EB93E04E
:102530000E949E14EC01009771F463E070E08D2D11
:102540000E946C118431E9F08823D9F08C31C9F0F4
:10255000CFEFDFEF16C0081719070CF4E8011C16BF
:102560001D067CF400E09E01A7016D2D87EB93E032
:102570000E94521540E450E06D2D87EB93E00E94DD
:10258000A215CE01DF91CF911F910F91FF90EF9097
:10259000DF9008950F93AB0101E021E030E0682F58
:1025A00087EB93E00E94521581E090E00F9108952F
:1025B000AF92BF92CF92DF92EF92FF920F931F9351
:1025C000CF93DF93B82E7B016A01E901682F87EB77
:1025D00093E00E94CE148C179D0740F46B2D87EB7F
:1025E00093E00E94CE14A82EC92F02C0AC2ECD2F8E
:1025F0000A2D1C2F9601A7016B2D87EB93E00E94FB
:1026000011148A2D9C2FDF91CF911F910F91FF9074
:10261000EF90DF90CF90BF90AF9008951F93CF932E
:10262000DF93182FFB01EA018081811109C08181AC
:10263000811106C08281811103C08381882369F0E2
:10264000209759F0BF01812F0E946311BE01812F95
:102650000E948B1121E030E002C020E030E0C9018F
:10266000DF91CF911F910895CF93C82F40E250E0A2
:10267000682F87EB93E00E94A2150CC08C2F0E945C
:10268000761183FF07C068E18C2F0E94861120E03D
:1026900030E00BC08C2F0E94761184FFEFCF60E1F9
:1026A0008C2F0E94861121E030E0C901CF9108955E
:1026B0008EBD0DB407FEFDCF8EB508952A980895FE
:1026C0002A9A08951F93CF93DF9300D0CDB7DEB73A
:1026D000182F6A8399830E945E1380EF0E9458131B
:1026E0009981892F0E945813812F0E9458136A8163
:1026F000862F0E9458130E94601381E00F900F9064
:10270000DF91CF911F910895CF93DF93EC016CE29D
:1027100071E080E090E00E9448070E94B215229A82
:1027200060E880E090E00E94621365E58BE190E054
:102730000E94621365E58AE190E00E94621380E0E6
:1027400090E49983888380E090E69987888780E089
:1027500098E49B838A8380E098E69B878A8780E061
:1027600090E59D838C8380E090E79D878C8780E057
:1027700098E59F838E8380E098E79F878E87DF911F
:10278000CF910895CF92DF92EF92FF920F931F9314
:10279000CF93DF93EC017A018B016A01C80ED91E39
:1027A00013C00E945E1380EF0E9458138D2F0E9469
:1027B00058138C2F0E9458132196F80181918F0194
:1027C0000E9458130E946013CC15DD0551F7C70114
:1027D000DF91CF911F910F91FF90EF90DF90CF90FD
:1027E00008951F93CF93DF931F92CDB7DEB7182FB5
:1027F00099830E945E138FE00E9458139981892F5C
:102800000E945813812F0E94581380E00E94581391
:1028100089830E94601389810F90DF91CF911F916E
:1028200008956F927F929F92AF92BF92CF92DF9264
:10283000EF92FF920F931F93CF93DF931F92CDB729
:10284000DEB7F82E962E3A01590164E270E0892D28
:1028500099830E946C11E82E65E270E0892D0E9438
:102860006C11DE2CC12CC82AC60CD71C96013770FF
:102870006F2C9981792E690C711C690C711CD30124
:10288000ED91FC91E20FF31FC901800F911F813080
:102890009840A0F0E12C48E0F42EE21AF30AA701D8
:1028A000B501CF010E94C213A8014E195F09B501FD
:1028B0006E0D7F1DF3018081918103C0A801B501D8
:1028C000CF010E94C2130C0D1D1D412F64E270E068
:1028D000892D0E947A11402F65E270E0892D0F90BA
:1028E000DF91CF911F910F91FF90EF90DF90CF90EC
:1028F000BF90AF909F907F906F900C947A110F9340
:102900001F9389019A0140E050E00E9411141F9129
:102910000F910895CF93DF93C82F66E270E00E9475
:102920006C11D82F67E270E08C2F0E946C113D2F44
:1029300020E0282BC901DF91CF910895FF920F93DA
:102940001F93CF93DF93F62EC0E0D0E08F2D0E942F
:102950008A148C01009721F08F2D0E948A14EC01BB
:10296000C017D10799F7CE01DF91CF911F910F9139
:10297000FF900895CF93DF93C82F60E270E00E942C
:102980006C11D82F61E270E08C2F0E946C113D2FEA
:1029900020E0282BC901DF91CF910895FF920F937A
:1029A0001F93CF93DF93F62EC0E0D0E08F2D0E94CF
:1029B000BA148C01009721F08F2D0E94BA14EC01FB
:1029C000C017D10799F7CE01DF91CF911F910F91D9
:1029D000FF900895CF92DF92EF92FF920F931F9393
:1029E000CF93DF93EC017A018B016A01C80ED91EE7
:1029F00014C00E945E138FE00E9458138D2F0E9416
:102A000058138C2F0E945813219680E00E9458136F
:102A1000F80181938F010E946013CC15DD0549F701
:102A2000C701DF91CF911F910F91FF90EF90DF9041
:102A3000CF900895CF92DF92EF92FF920F931F9362
:102A4000CF93DF9369015770EC01C60FD11DC60FFC
:102A5000D11D289688819981840F951F9801240F94
:102A6000351F2130384090F0E12C68E0F62EE41A52
:102A7000F50AA701B6010E94EA14A8014E195F09E0
:102A8000B6016E0D7F1D8881998102C0A801B60133
:102A9000DF91CF911F910F91FF90EF90DF90CF903A
:102AA0000C94EA148F929F92AF92BF92CF92DF92D2
:102AB000EF92FF920F931F93CF93DF936C01962EAB
:102AC0005A01E901802E68E270E0892D0E946C11A4
:102AD000F82E69E270E0892D0E946C11FF2DE0E074
:102AE0007F01E82A8E019501A701692DC6010E9488
:102AF0001A1581101AC0CE0DDF1D4D2F68E270E04F
:102B0000892D0E947A114C2F69E270E0892DDF91A6
:102B1000CF911F910F91FF90EF90DF90CF90BF90DA
:102B2000AF909F908F900C947A11DF91CF911F916D
:102B30000F91FF90EF90DF90CF90BF90AF909F905C
:102B40008F900895CF93C62F61E070E08C2F0E9484
:102B50007A1161E070E08C2F0E946C118111F9CF25
:102B6000CF91089561E08DE00E94D30761E08BE092
:102B70000E94D30761E08AE00E94D30760E08DE005
:102B80000E940B0860E08BE00E940B0861E08AE085
:102B90000E940B088CB580618CBD8CB580648CBDA7
:102BA00008950E96FC0184E1DF011D928A95E9F7F4
:102BB00008952F923F924F925F926F927F928F92E1
:102BC0009F92AF92BF92CF92DF92EF92FF920F93BC
:102BD0001F93CF93DF93CDB7DEB7E4970FB6F8948A
:102BE000DEBF0FBECDBF7C012A013B0169010E94FF
:102BF0000C074B015C018701095B1F4F12C00E944B
:102C00000C07681979098A099B0946165706680650
:102C1000790608F477C162E370E080E090E00E94FA
:102C20004807C8010E9459101816190644F742E2D5
:102C300050E0BE016F5F7F4FC8010E94D90F8981AC
:102C4000823009F05AC1F80185899689833491054B
:102C500009F45BC152C1F70180819181A281B381E6
:102C600088169906AA06BB0648F084819581A6813C
:102C7000B78188159905AA05BB0528F4C8010E94EB
:102C8000AD0F512C5CC189899A89AB89BC89F70148
:102C900086879787A08BB18B8EECC82ED12CC8016C
:102CA0000E94F80FF1E0CF1AD108C9F7512CC701E3
:102CB00082969AA789A7F701B696FCA7EBA7C7014A
:102CC0008A969EA78DA7F701E85AFF4FF8ABEFA7AA
:102CD0006701FAE1CF0ED11CC70142969AAB89ABCE
:102CE000570196E1A90EB11CF7017E96FCABEBAB48
:102CF000FCC0C8010E94F80F8333910509F4CCC0D1
:102D00007CF48130910549F124F4892B09F4EDC05C
:102D1000DDC08330910549F1069709F0D7C040C066
:102D20008A33910509F48CC03CF48533910569F030
:102D3000C69709F0CBC050C08B33910509F496C0FB
:102D40008F3F910509F0C2C0D0C0C8010E94F80FA2
:102D5000C8010E94F80F582EC8C0C8010E94F80F81
:102D600044E050E069A97AA947C0C8010E94F80F61
:102D70003C0144E050E0B501C8010E94D90F212C6C
:102D8000312C7724F4E06F1A710806C0C8010E9444
:102D9000F80F8FEF281A380A26143704BCF3A5C0A1
:102DA000C8010E94F80F3C0144E050E06BA97CA9E7
:102DB000C8010E94D90F212C312C772494E0691A84
:102DC000710806C0C8010E94F80FEFEF2E1A3E0AE4
:102DD00026143704BCF389C0C8010E94F80F482E9E
:102DE000F701828D938DA48DB58D892B8A2B8B2B2A
:102DF00039F444E050E0B601C8010E94D90F75C013
:102E0000EFA5F8A96080718082809380B601CE0121
:102E100083960E94760A8DA19EA1AFA1B8A58615C2
:102E20009705A805B90529F3212C312C06C0C80146
:102E30000E94F80FFFEF2F1A3F0A4210F8CF55C03B
:102E4000C8010E94F80F44E050E06BA57CA5C801C2
:102E50000E94D90FF70166A177A180A591A50E94D4
:102E6000782266A377A380A791A73FC0C8010E94DC
:102E7000F80F44E050E06DA57EA5C8010E94D90F6F
:102E8000F70162A573A584A595A50E94782262A783
:102E900073A784A795A729C0C8010E94F80F44E032
:102EA00050E069A57AA5C8010E94D90FF70162A177
:102EB00073A184A195A10E94782262A373A384A325
:102EC00095A366A777A780AB91AB0FC0C8010E94FE
:102ED000F80F382E612C712C06C0C8010E94F80F23
:102EE000FFEF6F1A7F0A3610F8CFC8010E94930FC8
:102EF000181619060CF4FDCE01C0512CC8010E9411
:102F0000AD0F1DC055245A941AC06D817E818F81EA
:102F100098850E9478224B015C01F60160837183E1
:102F200082839383B701685F7F4F46E050E0CE0114
:102F30004D960E94DD1F009709F48DCE9FCE852D02
:102F4000E4960FB6F894DEBF0FBECDBFDF91CF91F0
:102F50001F910F91FF90EF90DF90CF90BF90AF90B7
:102F60009F908F907F906F905F904F903F902F90A9
:102F70000895CF93DF93EC01625F7F4F0E94760A42
:102F8000CE01DF91CF910895CF93DF93EC016E5E78
:102F90007F4F0E94760ACE01DF91CF910895CF93A3
:102FA000DF93EC016A5E7F4F0E94760ACE01DF91CB
:102FB000CF910895CF93DF93EC01625E7F4F0E9423
:102FC000760ACE01DF91CF91089580E3FB018083E3
:102FD0003296842F82958F7090E1899F4019112439
:102FE0004A3014F4405D01C0495C4293482F81117E
:102FF000F0CF08956F927F928F929F92AF92BF927F
:10300000CF92DF92EF92FF920F931F93CF93DF93B4
:10301000CDB7DEB7AC970FB6F894DEBF0FBECDBF0D
:103020007C01862EB42EA52E30E2932ECC24C394A0
:10303000D12CCC0EDD1EF601292D11922A95E9F72F
:103040000FEF2FEF4FEF6FEFCE0187960E946A0AC6
:103050008BEF91E09AA389A389A59AA5ABA5BCA5FE
:103060008BA39CA3ADA3BEA38701095B1F4F43E4C1
:1030700050E0BE016F5D7F4FC8010E943C10019679
:1030800009F4C1C081E089838A8396E0792E7B822E
:103090001C82F70164817581868197810E94782264
:1030A0006D837E838F839887A986BA8680E890E0B7
:1030B0009C878B874CE150E0B601C8010E9422102A
:1030C000F601292D11922A95E9F7570188E0A80EFB
:1030D000B11CF501D60101900D927A94E1F740E11F
:1030E00050E0B601C8010E942210F60111929A9494
:1030F000E9F726E0622E712C40E250E0B601C801EB
:103100000E942210F1E06F1A7108B1F783E68983FB
:1031100092E89A8393E59B838C8385E38D8381E09A
:103120008E838F829DE3988797E099878A8786E0D0
:10313000F501DE011B9601900D928A95E1F78CE076
:10314000898B8A8B6DE372E0CE0143960E94EA1F61
:10315000F7014385BE01675E7F4FC7010E94E517F7
:10316000F7014485BE01655E7F4FC7010E94E517E8
:10317000F7014585BE01635E7F4FC7010E94E517D9
:103180004EE150E0B601C8010E942210F3E08F1218
:103190001EC082E3898384E08A83F70196859B833E
:1031A00097859C8390899D8391899E8396E39F83D5
:1031B0008887828D8987838D8A87848D8B87858D8B
:1031C0008C874CE050E0B601C8010E94221087E3D2
:1031D000898386E08A8391E09B8393E09C838D833F
:1031E0008FE08E838AE38F838BE388878FEF8987D5
:1031F00049E050E0BE016F5F7F4FC8010E9422107E
:10320000C8010E943810AC960FB6F894DEBF0FBE0E
:10321000CDBFDF91CF911F910F91FF90EF90DF9085
:10322000CF90BF90AF909F908F907F906F900895B8
:103230002F923F924F925F926F927F928F929F92C6
:10324000AF92BF92CF92DF92EF92FF920F931F93B4
:10325000CF93DF93CDB7DEB728970FB6F894DEBFD4
:103260000FBECDBF8C0120ED37E040E050E061E0C3
:1032700070E080E090E00E94271ED80114966C93C5
:10328000149715967C93159716968C931697179608
:103290009C9317976C9311967C93119712968C932D
:1032A000129713969C93F801E95BFF4FFE83ED8321
:1032B00064E470E0CF010E94A810882309F427C1BC
:1032C0000E940C076B017C01812C912C312C580140
:1032D000F6E4AF0EB11CC801CE9698878F8338EE06
:1032E000432E33E0532E612C712C42E0242EF9C082
:1032F00081111FC0F80184819581A681B781019653
:10330000A11DB11D84839583A683B7830E940C07FA
:103310006C197D098E099F09A30192010E941F2249
:10332000A90161E0C8010E94FA1781E0D5018C93E0
:10333000BCC08430F1F4F80184819581A681B78105
:103340000196A11DB11D84839583A683B7830E9436
:103350000C076C197D098E099F09A30192010E9437
:103360001F22A90163E0C8010E94FA17D5012C921F
:103370009CC0813059F5EF81F8854081518162818F
:1033800073819E012F5F3F4FC8010E94D915382ECF
:10339000F2E08F138AC089819A81AB81BC81F801E8
:1033A00084839583A683B7830E940C076C197D09DB
:1033B0008E099F09A30192010E941F22A90163E0C7
:1033C000C8010E94FA17D5013C9275C0823009F0FD
:1033D0006CC0EF81F88540815181628173819E01CB
:1033E0002F5F3F4FC8010E94D915382EF5E08F138B
:1033F00056C0E3E0D501EC93F80182A193A1A4A10A
:10340000B5A1892B8A2B8B2B41F484E893E0A0E0B3
:10341000B0E082A393A3A4A3B5A3F80186A197A1CA
:10342000A0A5B1A5892B8A2B8B2B61F482A193A136
:10343000A4A1B5A1B695A7959795879586A397A3BF
:10344000A0A7B1A7D8019A964D915D916D917C91FD
:103450009D9796968D919D910D90BC91A02D452B99
:10346000462B472B59F4AC01BD01440F551F661F75
:10347000771FF80142A753A764A775A7F80186A78D
:1034800097A7A0ABB1AB82A593A5A4A5B5A582AB28
:1034900093ABA4ABB5AB88248394912C0CC0F6E01D
:1034A0008F1303C0D5011C9206C0BFEF3B1203C0AF
:1034B000F5011082312CF1E08F16910491F00E94F9
:1034C0000C076C197D098E099F09D801DA962D9198
:1034D0003D914D915C91DD972617370748075907B5
:1034E00028F0F5018081833009F002CF8D819E8123
:1034F0000E944410F80184819581A681B7810196CC
:10350000A11DB11D84839583A683B78302C0812C3E
:10351000912CC40128960FB6F894DEBF0FBECDBF24
:10352000DF91CF911F910F91FF90EF90DF90CF909F
:10353000BF90AF909F908F907F906F905F904F90D3
:103540003F902F900895CF92DF92EF92FF920F93CA
:103550001F93CF93DF93EC016B011AA21BA21CA255
:103560001DA21EA21FA218A619A61AA61BA61CA65B
:103570001DA61EAA1FAA18AE19AE2AAF3BAF4CAFAC
:103580005DAFFC01FE96E082F182028313838C0121
:10359000085F1F4F86E0F80111928A95E9F7CE0186
:1035A0000E94D11586E0F601D80101900D928A950E
:1035B000E1F7FE01EA5BFF4F1082CE01DF91CF9170
:1035C0001F910F91FF90EF90DF90CF900C941819FE
:1035D0000F9300E020E040E060E087EC93E00E9481
:1035E0006A0A0F910895FB014281538164817581BC
:1035F000FC01428353836483758317821682089586
:10360000CF93FB01DB018D918111FDCF80E090E034
:1036100020E030E0CAE01BC08F3F910509F064F55F
:10362000DA01A20FB31F12968C932F5F3F4F80E0F9
:1036300090E00DC0DC01CA9FC001CB9F900D11240A
:10364000772767FD709560537109860F971F619109
:10365000662321F02430310594F00EC08F3F910590
:1036600009F054F4243031053CF4FA01E20FF31F61
:10367000828321E030E006C020E030E003C06E32FB
:10368000C9F6CACFC901CF910895AF92BF92CF9228
:10369000DF92EF92FF920F931F93CF93DF9300D0AF
:1036A0001F92CDB7DEB77C015B010E940C07F701CA
:1036B000778366838701085F1F4FB7016A5F7F4F7B
:1036C00042E050E0C8010E94221081E090E09A831D
:1036D000898342E050E0BE016F5F7F4FC8010E94C6
:1036E000221080E091E09A83898342E050E0BE019D
:1036F0006F5F7F4FC8010E9422101A82198242E038
:1037000050E0BE016F5F7F4FC8010E94221042E06F
:1037100050E0BE016F5F7F4FC8010E94221042E05F
:1037200050E0BE016F5F7F4FC8010E9422107501FB
:10373000650121C0F6017F018191811107C0570108
:10374000AC18BD081A141B0424F011C08E3299F76E
:10375000F6CFAB8241E050E0BE016D5F7F4FC80104
:103760000E942210A501B601C8010E942210670123
:10377000FFEFCF1ADF0AF70180818111DBCF1B82B7
:1037800041E050E0BE016D5F7F4FC8010E942210F2
:10379000E12CFF24F394FA82E98242E050E0BE017A
:1037A0006F5F7F4FC8010E942210FA82E98242E0D7
:1037B00050E0BE016F5F7F4FC8010E94221081E080
:1037C00090E00F900F900F90DF91CF911F910F918C
:1037D000FF90EF90DF90CF90BF90AF9008954F9201
:1037E0005F926F927F928F929F92AF92BF92CF9291
:1037F000DF92EF92FF920F931F93CF93DF93CDB79A
:10380000DEB763970FB6F894DEBF0FBECDBF7C0165
:103810005B016A010E940C072B013C018701085FD4
:103820001F4F4501A12CB12C12C00E940C07641936
:1038300075098609970986169706A806B90608F439
:103840000FC162E370E080E090E00E944807C80189
:103850000E9459101816190644F7F7014281538146
:1038600064817581818D928DA38DB48D4817590720
:103870006A077B0709F0F7C0858D968DC59709F01B
:10388000F2C0F7C04CE050E0BE016F5F7F4FC8014F
:103890000E94D90F8B819C819827892798279A8B22
:1038A000898BF7014681578129813A814217530755
:1038B00011F497FD06C0C8010E94AD0F2CEF3FEF39
:1038C000DEC08F709270892B31F0C8010E94AD0F5D
:1038D0002BEF3FEFD4C08F809884982489249824BC
:1038E0008114910479F5C8010E94AD0F2AEF3FEFD2
:1038F000C6C041E050E0BE01635F7F4FC8010E9437
:10390000D90F8D85811107C08D858111F2CF0AC035
:10391000C8010E94F80F8D85982F91509D878111C5
:10392000F7CFF2CFC8010E94F80FC8010E94F80F2C
:10393000C8010E94F80FC8010E94F80FFFEFEF1AAC
:10394000FF0A02C0E12CF12C8D819E8198278927E6
:103950009827E816F90668F2A12CB12C41E050E056
:10396000BE016D5E7F4FC8010E94D90F8B89982FD1
:10397000907C69F4811104C00EC0C8010E94F80F48
:103980008B89982F91509B8B8111F7CF04C0C80170
:103990000E94F80F1B8A8B898111E0CF42E050E032
:1039A000BE01615F7F4FC8010E94D90F42E050E025
:1039B000BE01635F7F4FC8010E94D90FC8010E94FA
:1039C000F80FC8010E94F80FC8010E94F80FC80143
:1039D0000E94F80F42E050E0BE016F5E7F4FC801C9
:1039E0000E94D90F8F8598898115914011F58D8599
:1039F0009E8581159140E9F489899A8981159440C1
:103A000031F0C8010E94AD0F27EF3FEF38C0B6017B
:103A10006E5F7F4F44E050E0C8010E94D90F21E063
:103A200030E02DC0C8010E94F80F2FEFE21AF20A11
:103A300002C0E12CF12C89899A8998278927982737
:103A4000E816F90678F38FEFA81AB80AA814B90493
:103A500009F084CFC8010E94AD0F26EF3FEF0FC0E1
:103A60002FEF3FEF0CC02EEF3FEF09C02DEF3FEFE0
:103A700006C0C8010E94930F0C97C4F303CFC9017D
:103A800063960FB6F894DEBF0FBECDBFDF91CF9126
:103A90001F910F91FF90EF90DF90CF90BF90AF906C
:103AA0009F908F907F906F905F904F9008958F922E
:103AB0009F92AF92BF92CF92DF92EF92FF920F93BD
:103AC0001F93CF93DF9300D000D000D0CDB7DEB7E7
:103AD0008C015B016A010E94001B892B09F051C017
:103AE000F80142815381648175818091CF03909167
:103AF000D003A091D103B091D203481759076A07A8
:103B00007B0709F442C00E940C077801F8E0EF0E31
:103B1000F11C6F707727882799277C5FC7010E9467
:103B2000A8108130B9F58BEF91E09A838983F80171
:103B300082819381A481B5818B839C83AD83BE8375
:103B400045E350E0BE016F5F7F4FC7010E943C100C
:103B5000892B19F4A12CB12C10C0B501C8010E9409
:103B6000451B892BB9F3C7010E943810892BA9F492
:103B7000F1CFFFEFAF16BF0699F0C7010E944410C6
:103B80001BC0AA24A394B12C17C02EEFA22EBB24D5
:103B9000BA9412C0A12CB12C0FC093E0892E912CA5
:103BA000A60168E873E1C8010E94EF1B5C0121E0F7
:103BB000821A910811F3DDCFC50126960FB6F8944D
:103BC000DEBF0FBECDBFDF91CF911F910F91FF9050
:103BD000EF90DF90CF90BF90AF909F908F9008951F
:103BE0000F9300E020E040E060E08DEC93E00E9465
:103BF0006A0A0F9108950F931F93CF93DF9300D01C
:103C000000D0CDB7DEB79B01AC0161157105810510
:103C1000910579F069833A834B835C830E94CC1FC2
:103C200029813A814B815C810E9441228B019C0158
:103C300003C000E010E09801B801C9010F900F9097
:103C40000F900F90DF91CF911F910F910895CF9218
:103C5000DF92EF92FF926B017C016217730784077A
:103C6000950764F4CA01B9016C197D098E099F0991
:103C70000E94FB1DC60ED71EE81EF91EB601C70125
:103C8000FF90EF90DF90CF9008950F931F93CF9305
:103C9000DF938230910510F482E090E0E091D5034B
:103CA000F091D60320E030E0C0E0D0E023C04081B6
:103CB000518148175907A8F04817590761F48281C4
:103CC0009381209719F09B838A832EC09093D6030B
:103CD0008093D50329C02115310529F042175307D8
:103CE00010F0A90102C0BE01DF0102811381EF01C2
:103CF0009A01F8013097D9F62115310509F1281BF1
:103D0000390B2430310590F412968D919C911397C4
:103D10006115710521F0FB019383828304C09093A8
:103D2000D6038093D503FD01329644C0FD01E20F16
:103D3000F31F81939193225031092D933C933AC004
:103D40002091D3033091D403232B41F4209102011D
:103D5000309103013093D4032093D30320910001C9
:103D6000309101012115310541F42DB73EB7409145
:103D7000040150910501241B350BE091D303F09110
:103D8000D403E217F307A0F42E1B3F0B28173907C3
:103D900078F0AC014E5F5F4F2417350748F04E0FA7
:103DA0005F1F5093D4034093D3038193919302C038
:103DB000E0E0F0E0CF01DF91CF911F910F910895E6
:103DC000EF92FF920F931F93CF93DF93009709F425
:103DD0008EC0DC01129713961C921E921297E090EF
:103DE000D503F090D603E114F10489F42D913C91B0
:103DF0001197280F391F8091D3039091D403821714
:103E0000930789F5B093D403A093D30370C0E7015F
:103E100020E030E001C0EA01CA17DB0738F44A812C
:103E20005B819E0141155105B1F722C0AC014250A2
:103E30005109FA01D383C28300811181BC01600F53
:103E4000711F6C177D0761F468817981600F711FA4
:103E50006E5F7F4F718360836A817B81738362832E
:103E60002115310529F4B093D603A093D5033FC0A3
:103E7000F901B383A283E90149915991C40FD51F78
:103E8000AC17BD0771F4DC019E918E91840F951FD4
:103E900002969183808312968D919C9113979383C0
:103EA0008283A0E0B0E002C0D7017C01F7018281EB
:103EB00093810097C9F7C701029620813181820F53
:103EC000931F2091D3033091D4032817390779F435
:103ED000109729F41092D6031092D50304C01396BC
:103EE0001C921E921297F092D403E092D303CDB7A6
:103EF000DEB7E6E00C9469228F929F92AF92BF9258
:103F0000CF92DF92EF92FF92CF93DF93EC01688123
:103F100079818A819B81611571058105910521F463
:103F200064E279ED8BE597E02DE133EF41E050E07D
:103F30000E94412249015A019B01AC01A7EAB1E468
:103F40000E940C226B017C01ACEEB4EFA501940140
:103F50000E941A22C60ED71EE81EF91EF7FE06C0E2
:103F600081E0C81AD108E10880E8F80AC882D9823D
:103F7000EA82FB82E894F7F8B601C701DF91CF919E
:103F8000FF90EF90DF90CF90BF90AF909F908F9079
:103F900008950E947C1F089586E091E00E947C1F96
:103FA0000895609306017093070180930801909330
:103FB00009010895F8940C949122FB01DC0104C0DE
:103FC0008D910190801921F441505040C8F7881B11
:103FD000990B0895FB01DC0101900D920020E1F79F
:103FE00008955058BB27AA270ED075C166D130F06E
:103FF0006BD120F031F49F3F11F41EF45BC10EF43D
:10400000E095E7FB51C1E92F77D180F3BA1762073A
:1040100073078407950718F071F49EF58FC10EF4AD
:10402000E0950B2EBA2FA02D0B01B90190010C01C8
:10403000CA01A0011124FF27591B99F0593F50F4E0
:10404000503E68F11A16F040A22F232F342F442738
:10405000585FF3CF469537952795A795F040539530
:10406000C9F77EF41F16BA0B620B730B840BBAF000
:104070009150A1F0FF0FBB1F661F771F881FC2F76B
:104080000EC0BA0F621F731F841F48F4879577957F
:104090006795B795F7959E3F08F0B3CF9395880F36
:1040A00008F09927EE0F979587950895D9D008F4D1
:1040B00081E008950CD00FC107D140F0FED030F060
:1040C00021F45F3F19F0F0C0511139C1F3C014D190
:1040D00098F39923C9F35523B1F3951B550BBB27CF
:1040E000AA2762177307840738F09F5F5F4F220F7C
:1040F000331F441FAA1FA9F333D00E2E3AF0E0E875
:1041000030D091505040E695001CCAF729D0FE2FC0
:1041100027D0660F771F881FBB1F26173707480752
:10412000AB07B0E809F0BB0B802DBF01FF27935808
:104130005F4F2AF09E3F510568F0B6C000C15F3F57
:10414000ECF3983EDCF3869577956795B795F795F0
:104150009F5FC9F7880F911D9695879597F90895E8
:10416000E1E0660F771F881FBB1F62177307840784
:10417000BA0720F0621B730B840BBA0BEE1F88F793
:10418000E095089504D06894B111D9C00895BCD0C9
:1041900088F09F5790F0B92F9927B751A0F0D1F030
:1041A000660F771F881F991F1AF0BA95C9F712C0BA
:1041B000B13081F0C3D0B1E00895C0C0672F782F2F
:1041C0008827B85F39F0B93FCCF386957795679526
:1041D000B395D9F73EF490958095709561957F4F92
:1041E0008F4F9F4F0895E89409C097FB3EF4909538
:1041F0008095709561957F4F8F4F9F4F9923A9F0C0
:10420000F92F96E9BB279395F6958795779567954E
:10421000B795F111F8CFFAF4BB0F11F460FF1BC092
:104220006F5F7F4F8F4F9F4F16C0882311F096E925
:1042300011C0772321F09EE8872F762F05C06623D3
:1042400071F096E8862F70E060E02AF09A95660F8C
:10425000771F881FDAF7880F9695879597F9089545
:10426000990F0008550FAA0BE0E8FEEF1616170687
:10427000E807F907C0F012161306E407F50798F0EF
:10428000621B730B840B950B39F40A2661F0232B08
:10429000242B252B21F408950A2609F4A140A69584
:1042A0008FEF811D811D089597F99F6780E870E069
:1042B00060E008959FEF80EC089500240A9416169C
:1042C000170618060906089500240A941216130604
:1042D000140605060895092E0394000C11F4882392
:1042E00052F0BB0F40F4BF2B11F460FF04C06F5FAE
:1042F0007F4F8F4F9F4F089557FD9058440F551F84
:1043000059F05F3F71F04795880F97FB991F61F057
:104310009F3F79F087950895121613061406551FCE
:10432000F2CF4695F1DF08C0161617061806991F3A
:10433000F1CF86957105610508940895E894BB272F
:1043400066277727CB0197F908958ADF08F48FEF66
:1043500008950BD0C0CFB1DF28F0B6DF18F0952359
:1043600009F0A2CFA7CF1124EACFC6DFA0F3959F13
:10437000D1F3950F50E0551F629FF001729FBB274C
:10438000F00DB11D639FAA27F00DB11DAA1F649FF8
:104390006627B00DA11D661F829F2227B00DA11DAB
:1043A000621F739FB00DA11D621F839FA00D611D31
:1043B000221F749F3327A00D611D231F849F600D52
:1043C000211D822F762F6A2F11249F5750408AF08B
:1043D000E1F088234AF0EE0FFF1FBB1F661F771F17
:1043E000881F91505040A9F79E3F510570F05CCF57
:1043F000A6CF5F3FECF3983EDCF386957795679503
:10440000B795F795E7959F5FC1F7FE2B880F911D34
:104410009695879597F908950E947F22A59F900D04
:10442000B49F900DA49F800D911D11240895B7FF96
:104430000C940C220E940C22821B930B0895A1E283
:104440001A2EAA1BBB1BFD010DC0AA1FBB1FEE1F0E
:10445000FF1FA217B307E407F50720F0A21BB30B59
:10446000E40BF50B661F771F881F991F1A9469F7D5
:1044700060957095809590959B01AC01BD01CF0131
:104480000895052E97FB16F4009407D057FD0DD024
:104490000E941F2207FC09D07EF4909580957095AC
:1044A00061957F4F8F4F9F4F089550954095309560
:1044B00021953F4F4F4F5F4F08952A88398848888C
:1044C0005F846E847D848C849B84AA84B984C88430
:1044D000DF80EE80FD800C811B81AA81B981CE0F27
:1044E000D11D0FB6F894DEBF0FBECDBFED0108950C
:1044F0006927962769277827872778270895A29F15
:10450000B001B39FC001A39F01D0B29F700D811D68
:104510001124911D0895EE0FFF1F0590F491E02DD9
:064520000994F894FFCF9E
:104526000000D703200001000000B80B3139322EFD
:104536003136382E322E3100DEADBEEFFEED0100F3
:10454600040020282A1A1615353D3F697020667228
:10455600616E20646863703A290064686370207332
:10456600766172617220656A2E2053617474657279
:10457600207374617469736B2069702E00416E73C9
:104586006C7574656E2E00474554202F73657473E1
:104596007461742F74656D702F00486F73743A20C0
:1045A60000557365722D4167656E743A20417264D9
:1045B60075696E6F45746865726E657400436F6EDB
:1045C6006E656374696F6E3A20636C6F7365004B3A
:1045D6006F70706C6172206672616E2E0047455472
:1045E600202F67657473657474696E677320485409
:1045F60054502F312E310053746F70706172206BDE
:104606006C69656E742E0000000000A708AF0A42B0
:104616000871085508950800000000250A000000EA
:10462600009E0B210C160CFB0BD30BB40B260D3F77
:104636000CF70BE30CBF0CCB0B00000000970F220E
:1046460010930FF80FBF0FAD0FA81044103C10F7D2
:104656001038105910D90F780F7F0F8F0F57495AFE
:044666006E65740009
:00000001FF
