:100000000C945E000C9486000C9486000C94860080
:100010000C9486000C9486000C9486000C94860048
:100020000C9486000C9486000C9486000C94860038
:100030000C9486000C9486000C9486000C94860028
:100040000C94DA050C9486000C94F6070C94320894
:100050000C9486000C9486000C9486000C94860008
:100060000C9486000C94860000000007000201003A
:100070000003040600000000000000000102040864
:100080001020408001020408102001020408102002
:10009000040404040404040402020202020203032E
:1000A0000303030300000000250028002B000000CC
:1000B0000000240027002A008E05ED0811241FBE31
:1000C000CFEFD4E0DEBFCDBF11E0A0E0B1E0E8ECBF
:1000D000FAE102C005900D92A63BB107D9F712E0F4
:1000E000A6EBB1E001C01D92A33CB107E1F710E01F
:1000F000CCEBD0E004C02297FE010E945E0DC83B0D
:10010000D107C9F70E943D090C941C0B0C94000008
:100110000F931F93FC017183608355834483338362
:1001200022831286138614861586118610861686FB
:10013000178306831F910F910895FC01808191819F
:100140000895FC01808591850895CB01BA0123E3D0
:1001500033EF4BE454E40E941F0B26E636E64EEFE5
:1001600050E40E94880B0E94F00B6A30710524F065
:100170006B35710524F405C06AE070E002C06AE5E1
:1001800070E0CB010895EF92FF920F931F93CF93EE
:10019000DF93EC018E810E94B905BC01882777FDB1
:1001A0008095982F0E94230C2AE038E240EA5BE316
:1001B0000E94D70C9B01AC0160E070E080EA90E403
:1001C0000E94880B20E030E040E85FE30E941F0BB4
:1001D00020E030E44CE156E40E94D70C7B018C0116
:1001E00020E030E048E454E47F2D912F0E94840BFE
:1001F00087FD0CC020E030E844ED54E46E2D7F2DE7
:10020000802F912F0E94D30C18161CF481E08E874A
:1002100001C01E866E2D7F2D802F912FDF91CF91F3
:100220001F910F91FF90EF900895CF93DF93EC0112
:100230000E94C300AB01BC014A875B876C877D8746
:10024000CE010E94A50099878887DF91CF910895FC
:10025000FC0186850895AF92CF92EF92FF920F93A3
:100260001F93CF93DF93CDB7DEB72B970FB6F894DC
:10027000DEBF0FBECDBF9AE0E1E0F1E0DE011196F6
:1002800001900D929A95E1F781E090E08C0F9D1F0F
:10029000680F791FFB01F080F4FA662760F9822F5E
:1002A0004B870E942307F2FA662760F98E2D0E9481
:1002B00023076F2D61708A2D0E942307F5FA6627A8
:1002C00060F94B85842F0E942307F3FA662760F9B3
:1002D000802F0E942307F1FA662760F98C2D2B9658
:1002E0000FB6F894DEBF0FBECDBFDF91CF911F9147
:1002F0000F91FF90EF90CF90AF900C942307CF9386
:10030000DF93EC01688179814AE050E08CE192E072
:100310000E94690A6BE071E08CE192E00E94820920
:100320004A855B856C857D8522E030E08CE192E03A
:100330000E941A0B6BE071E08CE192E00E9482094E
:10034000688579854AE050E08CE192E00E94690A74
:100350006BE071E08CE192E0DF91CF910C94820927
:10036000CF92DF92EF92FF920F931F93CF93DF9381
:10037000EC01488359836A837B830C831D832E831E
:100380003F83C886D986EA86FB860E9424066CA332
:100390007DA38EA39FA3DF91CF911F910F91FF901B
:1003A000EF90DF90CF900895CF93DF93EC01CB01D6
:1003B000BA010E94F00B7FA76EA7DF91CF9108953D
:1003C000CF93DF93EC01CB01BA010E94F00B7DA724
:1003D0006CA7DF91CF910895FC0166A577A58827CA
:1003E00077FD8095982F0E94230C0895FC0164A549
:1003F00075A5882777FD8095982F0E94230C089576
:100400002F923F924F925F926F927F928F929F9224
:10041000AF92BF92CF92DF92EF92FF920F931F9312
:10042000CF93DF93CDB7DEB764970FB6F894DEBFF6
:100430000FBECDBF9C8B8B8B6A017B0128013901DC
:100440000E9424064B015C01EB89FC8984A195A1E3
:10045000A6A1B7A1A5019401281B390B4A0B5B0B80
:10046000DA01C90180369A4EA105B10548F440A1D0
:10047000498351A15A8382A18B8393A19C833BC161
:10048000A7019601C301B2010E941F0B6D837E83F9
:100490008F839887AB89BC8998962D913D914D911A
:1004A0005C919B970E94200B1B018C01862F932D42
:1004B000A02FB12FEB89FC8980A791A7A2A7B3A792
:1004C00066A577A5882777FD8095982F0E94230C35
:1004D00069877A878B879C8769837A838B839C83E0
:1004E000762F6A85982F8C85272F362F492F582FE6
:1004F000622D732D802F912F0E94D30C18167CF43F
:1005000059854A853B852C85852F942FA32FB22FA3
:10051000EB89FC8980A791A7A2A7B3A71EC0AB89CE
:10052000BC899C966D917C919D97882777FD8095DD
:10053000982F0E94230C2B013C019B01AC01622DE2
:10054000732D802F912F0E94840B87FF06C0EB89AB
:10055000FC8940A651A662A673A6AB89BC89989671
:100560002D913D914D915C919B972D873E874F87B3
:10057000588B5C962D913D914D915C915F97C70191
:10058000B6010E941F0B362E272E898B9A8BEB8982
:10059000FC892081318142815381BD81AE811F81DF
:1005A00008856B2F7A2F812F902F0E94D70C2B015B
:1005B0003C01AB89BC8914962D913D914D915C9184
:1005C00017976D857E858F8598890E94D70C9B0132
:1005D000AC01C301B2010E94200B2B013C01EB894D
:1005E000FC892085318542855385D10119890A8985
:1005F0006B2F7A2F812F902F0E94D70C9B01AC017B
:10060000C301B2010E941F0B3B018C0179856A85F1
:100610009B858C85272F362F492F582F662D772DB8
:10062000802F912F0E94D30C181624F1AB89BC891E
:100630009C966D917C919D97882777FD8095982F4A
:100640000E94230C69837A838B839C83762F6A8133
:10065000982F8C81272F362F492F582F662D772DD5
:10066000802F912F0E94840B87FD04C069827A82BB
:100670000B831C83EB89FC89C48ED58EE68EF78EA6
:100680005D814E813F812885852F942FA32FB22F26
:10069000808F918FA28FB38F59814A813B812C81AA
:1006A000852F942FA32FB22F80A391A3A2A3B3A32E
:1006B0005D814E813F812885852F942FA32FB22FF6
:1006C00080AB91ABA2ABB3AB2D853E854F855889EE
:1006D00024AB35AB46AB57ABA10139892A89852FAD
:1006E000922DA32FB22F80AF91AFA2AFB3AF84A250
:1006F00095A2A6A2B7A259814A813B812C81652F80
:10070000742F832F922F64960FB6F894DEBF0FBE1E
:10071000CDBFDF91CF911F910F91FF90EF90DF90B0
:10072000CF90BF90AF909F908F907F906F905F9091
:100730004F903F902F900895FC0164A175A186A170
:1007400097A10895CF93DF93EC014C8D5D8D6E8D55
:100750007F8D22E030E08CE192E00E941A0B6BE08A
:1007600071E08CE192E00E948209488D598D6A8D7A
:100770007B8D22E030E08CE192E00E941A0B6BE06E
:1007800071E08CE192E00E94820948A159A16AA11E
:100790007BA122E030E08CE192E00E941A0B6BE03A
:1007A00071E08CE192E00E94820948A959A96AA9E6
:1007B0007BA922E030E08CE192E00E941A0B6BE012
:1007C00071E08CE192E00E9482094CA95DA96EA9BA
:1007D0007FA922E030E08CE192E00E941A0B6BE0EE
:1007E00071E08CE192E00E94820948AD59AD6AAD9A
:1007F0007BAD22E030E08CE192E00E941A0B6BE0CE
:1008000071E08CE192E0DF91CF910C948209AF927C
:10081000BF92CF92DF92EF92FF920F931F93CF93ED
:10082000DF9361E082E00E94EB0661E083E00E94DA
:10083000EB0661E084E00E94EB0661E085E00E9447
:10084000EB0661E086E00E94EB0661E087E00E9433
:10085000EB0661E08DE00E94EB0661E08CE00E9417
:10086000EB0640E050E0BA0186EB91E00E94E00127
:1008700040E050E068E473E486EB91E00E94D4012C
:1008800040E855E260E070E08CE192E00E946D0883
:100890006EE071E08CE192E00E948209C1E0D0E05C
:1008A00083E0A82EB12C92E0C92ED12C25E0E22EB7
:1008B000F12C04E010E027E030E046E050E0BE011B
:1008C00082EF91E00E942B016EEE72E080E090E0FA
:1008D0000E9460062196CB30D10511F766E471E0E5
:1008E0008CE192E00E94A10969E471E08CE192E060
:1008F0000E94820922E030E040E050E060E470E4D1
:100900008CE192E00E941A0B22E030E04DEC5CECAE
:100910006CE47FE38CE192E00E941A0B22E030E06D
:1009200040E050E060E87FE38CE192E00E941A0B27
:100930008CE192E00E948B0966E571E08CE192E027
:100940000E9482098CE192E0DF91CF911F910F917B
:10095000FF90EF90DF90CF90BF90AF900C948B09F9
:100960004F925F926F927F928F929F92AF92BF92BF
:10097000CF92DF92EF92FF920F931F93CF93DF936B
:1009800000D000D0CDB7DEB782EF91E00E94150114
:1009900082EF91E00E94A1005C0182EF91E00E9451
:1009A0009D00BC01882777FD8095982F0E94230C1D
:1009B0006B017C01B501882777FD8095982F0E94F7
:1009C000230CAB01BC019701860186EB91E00E94EC
:1009D00000022B013C0186EB91E00E94EC014B01EF
:1009E0005C0186EB91E00E94F60169837A838B8338
:1009F0009C8320E030E040E251E4C301B2010E9458
:100A0000200B6B017C0129813A814B815C81C501FE
:100A1000B4010E941F0B9B01AC0160E070E080E11B
:100A200091E40E94880B9B01AC01C701B6010E94B2
:100A3000D70C0E94F00B33E0A32EB12C42E0C42E61
:100A4000D12C55E0E52EF12C04E010E027E030E059
:100A500046E050E082EF91E00E942B0161EA71E0F4
:100A60008CE192E00E94820986EB91E00E949C0357
:100A7000AB01BC012AE030E08CE192E00E94110A57
:100A80006BE071E08CE192E00E94820922E030E0AC
:100A9000B301A2018CE192E00E941A0B6BE071E0BD
:100AA0008CE192E00E94820982EF91E00E947F0136
:100AB00086EB91E00E94A2038CE192E00E948B09F8
:100AC00082EF91E00E942801882331F061E08DE0FF
:100AD0000E94230760E005C060E08DE00E942307CC
:100AE00061E08CE00E94230760E177E280E090E023
:100AF0000F900F900F900F90DF91CF911F910F915A
:100B0000FF90EF90DF90CF90BF90AF909F908F902D
:100B10007F906F905F904F900C946006CF92DF9221
:100B2000EF92FF920F931F930EE010E02DE030E064
:100B30004CE050E06CE370E082EF91E00E948800AE
:100B4000C12CD12C60E8E62E6FE3F62E0DEC1CECE8
:100B50002CE43FE340E050E060E470E486EB91E099
:100B60000E94B0011F910F91FF90EF90DF90CF9006
:100B700008958E3008F08E5087702091000140E477
:100B8000249F90011124822B80937C0080917A0015
:100B9000806480937A0080917A0086FDFCCF20915A
:100BA000780030917900932F80E0AC01422B9A01BC
:100BB000C90108951F920F920FB60F9211242F931F
:100BC0003F938F939F93AF93BF9380911302909124
:100BD0001402A0911502B091160230911B02232F2E
:100BE0002D5F2D3720F40196A11DB11D05C0232FC7
:100BF0002A570296A11DB11D20931B028093130258
:100C000090931402A0931502B093160280911702DC
:100C100090911802A0911902B0911A020196A11D9B
:100C2000B11D8093170290931802A0931902B093FC
:100C30001A02BF91AF919F918F913F912F910F9089
:100C40000FBE0F901F9018950F931F938FB7F894B6
:100C50000091130210911402209115023091160296
:100C60008FBFB801C9011F910F9108950F931F9372
:100C70009FB7F89400911702109118022091190261
:100C800030911A0286B5A89B06C08F3F21F00F5FF6
:100C90001F4F2F4F3F4F9FBF322F212F102F002765
:100CA000080F111D211D311D42E0000F111F221FD1
:100CB000331F4A95D1F7B801C9011F910F910895CB
:100CC000CF92DF92EF92FF92CF93DF936B017C0183
:100CD0000E943606EB010EC00E9436066C1B7D0B8F
:100CE000683E734038F081E0C81AD108E108F10885
:100CF000C851DC4FC114D104E104F10469F7DF915C
:100D0000CF91FF90EF90DF90CF900895789484B5C5
:100D1000826084BD84B5816084BD85B5826085BDF7
:100D200085B5816085BDEEE6F0E0808181608083DD
:100D3000E1E8F0E0108280818260808380818160C0
:100D40008083E0E8F0E0808181608083E1EBF0E087
:100D5000808184608083E0EBF0E08081816080832B
:100D6000EAE7F0E080818460808380818260808314
:100D70008081816080838081806880831092C1003F
:100D80000895833069F028F48130A1F0823011F5A4
:100D900014C08630B1F08730C1F08430D9F404C07B
:100DA000809180008F7703C0809180008F7D809339
:100DB0008000089584B58F7702C084B58F7D84BD8F
:100DC00008958091B0008F7703C08091B0008F7D2F
:100DD0008093B0000895CF93DF9390E0FC01E45836
:100DE000FF4F4491FC01E057FF4F8491882341F16C
:100DF00090E0880F991FFC01E255FF4F2591349137
:100E0000D9018C559F4FFC0185919491C82FD92F02
:100E10009FB7F8948C91611106C0409584238C9300
:100E20008881842308C0623041F4242F20958223D6
:100E30008C938881842B888302C0842B8C939FBFE2
:100E4000DF91CF9108950F931F93CF93DF931F925C
:100E5000CDB7DEB7282F30E0F901E859FF4F849174
:100E6000F901E458FF4F1491F901E057FF4F049145
:100E70000023D1F0882321F069830E94C106698193
:100E8000E02FF0E0EE0FFF1FEC55FF4F859194919E
:100E9000DC019FB7F8948C91611103C010958123F8
:100EA00001C0812B8C939FBF0F90DF91CF911F9139
:100EB0000F910895FC0184859585FC01E05CFF4F4E
:100EC00020813181FC01EE5BFF4F80819181281BE5
:100ED000390B2F733327C9010895FC01848595854B
:100EE000FC01E05CFF4F40815181FC01EE5BFF4F54
:100EF000208131814217530741F00190F081E02DAC
:100F0000E80FF91F208130E002C02FEF3FEFC90149
:100F10000895FC0184859585FC01E05CFF4F4081CC
:100F20005181FC01EE5BFF4F208131814217530755
:100F300081F0A081B181A80FB91F8C9120813181EE
:100F40002F5F3F4F2F73332731832083282F30E0CB
:100F500002C02FEF3FEFC9010895FC0186859785F8
:100F6000FC01E05CFF4FDC01AE5BBF4F4081518173
:100F70002D913C91119742175307C1F70895CF93D4
:100F8000DF93FC0186859785DC01A05CBF4F2D9126
:100F90003C9111972F5F3F4F2F733327EC01CE5BAE
:100FA000DF4F4881598124173507D9F30D90BC9143
:100FB000A02DA80FB91F6C93A685B785A05CBF4F65
:100FC00011963C932E93A689B7892C9181E090E0ED
:100FD000058C02C0880F991F0A94E2F7282B2C93E6
:100FE00081E090E0DF91CF91089508951F920F92D4
:100FF0000FB60F9211242F933F934F938F939F938C
:10100000EF93FF934091C6008091BF029091C00280
:1010100001968F7399272091C1023091C2028217E5
:10102000930759F0E091BF02F091C002E158FD4FE3
:1010300040839093C0028093BF02FF91EF919F91F4
:101040008F914F913F912F910F900FBE0F901F9056
:1010500018958CE192E00E945A07892B11F00C94AC
:10106000F50708951F920F920FB60F9211242F9338
:101070003F938F939F93EF93FF9320917B02309147
:101080007C0280917D0290917E022817390731F40D
:101090008091C1008F7D8093C10014C0E0917D02DA
:1010A000F0917E02E55CFD4F208180917D02909160
:1010B0007E0201968F73992790937E0280937D0222
:1010C0002093C600FF91EF919F918F913F912F91B7
:1010D0000F900FBE0F901F901895CF92DF92EF9256
:1010E000FF92CF93DF93EC016A017B01411581EE02
:1010F000580761057105F9F0EC89FD8981E090E000
:101100000E8C02C0880F991F0A94E2F7808360E07A
:1011100079E08DE390E0A70196010E943A0D2150FD
:10112000310941095109569547953795279521155C
:1011300080E1380798F0EC89FD89108260E874E856
:101140008EE190E0A70196010E943A0D21503109ED
:10115000410951095695479537952795E889F989A9
:101160003083EA89FB892083EE89FF89408181E011
:1011700090E09C010A8C02C0220F331F0A94E2F710
:10118000422B4083EE89FF8940819C010B8C02C079
:10119000220F331F0A94E2F7422B4083EE89FF8926
:1011A00040819C010C8C02C0220F331F0A94E2F78D
:1011B000422B4083EE89FF8920810D8C02C0880F6D
:1011C000991F0A94E2F7809582238083DF91CF9163
:1011D000FF90EF90DF90CF90089510921F02109231
:1011E0001E0288EE93E0A0E0B0E08093200290938E
:1011F0002102A0932202B09323028AEA91E0909305
:101200001D0280931C028FE792E090932902809345
:1012100028028BE392E090932B0280932A0285ECC4
:1012200090E090932D0280932C0284EC90E09093B8
:101230002F0280932E0280EC90E0909331028093F5
:10124000300281EC90E0909333028093320286EC7E
:1012500090E0909335028093340284E080933602CC
:1012600083E08093370287E08093380285E08093A3
:10127000390281E080933A0208950E9486060E9416
:101280000704C9E2D8E00E94B0042097E1F30E946D
:101290002908F9CFCF92DF92EF92FF920F931F931D
:1012A000CF93DF936C01EB017A01E60EF71E00E0AD
:1012B00010E00BC06991D601ED91FC910190F08195
:1012C000E02DC6010995080F191FCE15DF0591F70E
:1012D000C801DF91CF911F910F91FF90EF90DF90A8
:1012E000CF900895DB010D900020E9F7AD0141504A
:1012F0005109461B570BDC01ED91FC910280F381F3
:10130000E02D09940C947209DC01ED91FC9101909F
:10131000F081E02D09940F931F93CF93DF93EC019D
:101320006DE00E9484098C016AE0CE010E9484096C
:101330009C01200F311FC901DF91CF911F910F91A7
:1013400008950F931F93CF93DF93EC010E947209CE
:101350008C01CE010E948B099801280F391FC90109
:10136000DF91CF911F910F9108954F925F926F92ED
:101370007F929F92AF92BF92CF92DF92EF92FF92B5
:101380000F931F93CF93DF93CDB7DEB7A1970FB61F
:10139000F894DEBF0FBECDBF5C016A017B01922EC7
:1013A00019A281E0821710F08AE0982E8E010F5D5D
:1013B0001F4F492C512C612C712CC701B601A30180
:1013C00092010E943A0D8C2D929E80191124015099
:1013D00011098A3014F4805D01C0895CF8018083B2
:1013E00069017A01C114D104E104F10431F7B801B3
:1013F000C5010E947209A1960FB6F894DEBF0FBE18
:10140000CDBFDF91CF911F910F91FF90EF90DF90B3
:10141000CF90BF90AF909F907F906F905F904F90D4
:1014200008952115310541F4DC01ED91FC91019005
:10143000F081E02D642F09940C94B509CF92DF92CE
:10144000EF92FF920F931F93CF93DF93EC016A010A
:101450007B012115310579F4E881F9810190F08152
:10146000E02D642FDF91CF911F910F91FF90EF90AE
:10147000DF90CF9009942A30310519F477FD0EC022
:101480002AE0B701A601CE01DF91CF911F910F9104
:10149000FF90EF90DF90CF900C94B5096DE20E9421
:1014A00084098C0144275527BA014C195D096E093E
:1014B0007F092AE0CE010E94B509080F191FC80153
:1014C000DF91CF911F910F91FF90EF90DF90CF9020
:1014D00008959A01AB01662757FD6095762F0C940D
:1014E0001E0A7F928F929F92AF92BF92CF92DF920D
:1014F000EF92FF920F931F93CF93DF938C014A01DA
:101500005B01F22E20E030E0A901C501B4010E9488
:10151000840B87FF0AC06DE2C8010E948409EC01B8
:10152000B7FAB094B7F8B09402C0C0E0D0E0E12CB4
:1015300060E070E080E09FE307C020E030E040E240
:1015400051E40E94880BE394EF10F7CF262F372F3A
:10155000482F592FC501B4010E94200B762E872EEB
:10156000982EA92E0E94F50BB62EC72ED82EE92E46
:101570000E94210C9B01AC01672D782D892D9A2D9D
:101580000E941F0BA62E972E882E792E2AE04B2D17
:101590005C2D6D2D7E2DC8010E94B509C80FD91F85
:1015A000FF20B9F164E471E0C8010E947209C80F1C
:1015B000D91F2FC020E030E040E251E46A2D792DA0
:1015C000882D972D0E94D70C762EC72ED82EE92E67
:1015D0000E94F00B4B01AA2497FCA094BA2C2AE09D
:1015E00030E0B501A401C8010E941E0AC80FD91F2E
:1015F000C501B4010E94230C9B01AC01672D7C2D19
:101600008D2D9E2D0E941F0BA62E972E882E792E93
:10161000FA94F110CFCFCE01DF91CF911F910F91AE
:10162000FF90EF90DF90CF90BF90AF909F908F9002
:101630007F9008950C94710AF8940C94620D5058A0
:10164000BB27AA270ED075C166D130F06BD120F030
:1016500031F49F3F11F41EF45BC10EF4E095E7FBFB
:1016600051C1E92F77D180F3BA1762077307840756
:10167000950718F071F49EF58FC10EF4E0950B2ECE
:10168000BA2FA02D0B01B90190010C01CA01A001D4
:101690001124FF27591B99F0593F50F4503E68F12F
:1016A0001A16F040A22F232F342F4427585FF3CF70
:1016B000469537952795A795F0405395C9F77EF441
:1016C0001F16BA0B620B730B840BBAF09150A1F08A
:1016D000FF0FBB1F661F771F881FC2F70EC0BA0F10
:1016E000621F731F841F48F4879577956795B79598
:1016F000F7959E3F08F0B3CF9395880F08F0992790
:10170000EE0F979587950895D9D008F481E0089554
:101710000CD00FC107D140F0FED030F021F45F3F74
:1017200019F0F0C0511139C1F3C014D198F39923C5
:10173000C9F35523B1F3951B550BBB27AA27621795
:101740007307840738F09F5F5F4F220F331F441FDA
:10175000AA1FA9F333D00E2E3AF0E0E830D0915012
:101760005040E695001CCAF729D0FE2F27D0660FFF
:10177000771F881FBB1F261737074807AB07B0E83E
:1017800009F0BB0B802DBF01FF2793585F4F2AF054
:101790009E3F510568F0B6C000C15F3FECF3983E34
:1017A000DCF3869577956795B795F7959F5FC9F7B1
:1017B000880F911D9695879597F90895E1E0660F3A
:1017C000771F881FBB1F621773078407BA0720F0B3
:1017D000621B730B840BBA0BEE1F88F7E09508951C
:1017E00004D06894B111D9C00895BCD088F09F5737
:1017F00090F0B92F9927B751A0F0D1F0660F771F5D
:10180000881F991F1AF0BA95C9F712C0B13081F03C
:10181000C3D0B1E00895C0C0672F782F8827B85F84
:1018200039F0B93FCCF3869577956795B395D9F79D
:101830003EF490958095709561957F4F8F4F9F4FA7
:101840000895E89409C097FB3EF4909580957095B3
:1018500061957F4F8F4F9F4F9923A9F0F92F96E9FC
:10186000BB279395F695879577956795B795F11171
:10187000F8CFFAF4BB0F11F460FF1BC06F5F7F4F0E
:101880008F4F9F4F16C0882311F096E911C0772320
:1018900021F09EE8872F762F05C0662371F096E829
:1018A000862F70E060E02AF09A95660F771F881FF8
:1018B000DAF7880F9695879597F90895990F00089C
:1018C000550FAA0BE0E8FEEF16161706E807F90712
:1018D000C0F012161306E407F50798F0621B730BAD
:1018E000840B950B39F40A2661F0232B242B252B2E
:1018F00021F408950A2609F4A140A6958FEF811DD1
:10190000811D089597F99F6780E870E060E0089571
:101910009FEF80EC089500240A9416161706180607
:101920000906089500240A941216130614060506E3
:101930000895092E0394000C11F4882352F0BB0F74
:1019400040F4BF2B11F460FF04C06F5F7F4F8F4FD7
:101950009F4F089557FD9058440F551F59F05F3F12
:1019600071F04795880F97FB991F61F09F3F79F0C1
:1019700087950895121613061406551FF2CF469543
:10198000F1DF08C0161617061806991FF1CF8695C5
:101990007105610508940895E894BB2766277727A9
:1019A000CB0197F908958ADF08F48FEF08950BD0E3
:1019B000C0CFB1DF28F0B6DF18F0952309F0A2CF31
:1019C000A7CF1124EACFC6DFA0F3959FD1F3950FDF
:1019D00050E0551F629FF001729FBB27F00DB11DB3
:1019E000639FAA27F00DB11DAA1F649F6627B00D43
:1019F000A11D661F829F2227B00DA11D621F739F2C
:101A0000B00DA11D621F839FA00D611D221F749F39
:101A10003327A00D611D231F849F600D211D822F80
:101A2000762F6A2F11249F5750408AF0E1F08823C7
:101A30004AF0EE0FFF1FBB1F661F771F881F9150D4
:101A40005040A9F79E3F510570F05CCFA6CF5F3F95
:101A5000ECF3983EDCF3869577956795B795F79507
:101A6000E7959F5FC1F7FE2B880F911D969587958F
:101A700097F90895A1E21A2EAA1BBB1BFD010DC008
:101A8000AA1FBB1FEE1FFF1FA217B307E407F5072E
:101A900020F0A21BB30BE40BF50B661F771F881F0A
:101AA000991F1A9469F760957095809590959B01A0
:101AB000AC01BD01CF010895EE0FFF1F0590F49119
:081AC000E02D0994F894FFCF1A
:101AC800010020282A1A1615353D3F3B2000537483
:101AD8006172746172207374797270726F67726167
:101AE8006D206F6368207465737461722065666623
:101AF800656B746C6167656E2070612072656C61DE
:101B080065722E2E2E004F4B004B702C204B692CEB
:101B1800204B643A20005469643B204F75747075FB
:101B2800742028302D323030293B205265663B2006
:101B3800523B20543B206C617374496E7075743B42
:101B4800206C6173744572726F723B206C617374A0
:101B58004F75747075743B20703B20693B20643B63
:101B6800004C4F473B0000000000BF074A095A07D6
:061B780089076D07AD07AF
:00000001FF
