:100000000C9465000C948D000C948D000C948D0064
:100010000C948D000C948D000C948D000C948D002C
:100020000C948D000C948D000C948D000C948D001C
:100030000C948D000C948D000C948D000C948D000C
:100040000C942D080C948D000C94490A0C94850A8C
:100050000C948D000C948D000C948D000C948D00EC
:100060000C948D000C948D0000000007000201002C
:100070000003040600000000000000000102040864
:100080001020408001020408102001020408102002
:10009000040404040404040402020202020203032E
:1000A0000303030300000000250028002B000000CC
:1000B0000000240027002A0039038B07400BFC0BAB
:1000C0000610EF11DD136D1D752011241FBECFEF3B
:1000D000D8E0DEBFCDBF12E0A0E0B1E0E0E3FAE49B
:1000E00002C005900D92AC3EB107D9F714E0ACEE1A
:1000F000B2E001C01D92AD37B107E1F710E0CAECE4
:10010000D0E004C02297FE010E941225C83BD1070F
:10011000C9F70E940B0C0C945F220C9400000F9303
:100120001F93FC017183608355834483338322834F
:1001300012861386148615861186108616861783F6
:1001400006831F910F910895FC018081918108958C
:10015000FC01808591850895CB01BA0123E333EF3B
:100160004BE454E40E94762226E636E64EEF50E455
:100170000E94DF220E9447236A30710524F06B350C
:10018000710524F405C06AE070E002C06AE570E021
:10019000CB010895EF92FF920F931F93CF93DF93BC
:1001A000EC018E810E940C08BC01882777FD8095A8
:1001B000982F0E947A232AE038E240EA5BE30E940B
:1001C0002E249B01AC0160E070E080EA90E40E9484
:1001D000DF2220E030E040E85FE30E94762220E06A
:1001E00030E44CE156E40E942E247B018C0120E097
:1001F00030E048E454E47F2D912F0E94DB2287FDFC
:100200000CC020E030E844ED54E46E2D7F2D802FAB
:10021000912F0E942A2418161CF481E08E8701C0B9
:100220001E866E2D7F2D802F912FDF91CF911F91F4
:100230000F91FF90EF900895CF93DF93EC010E9410
:10024000CA00AB01BC014A875B876C877D87CE0102
:100250000E94AC0099878887DF91CF910895FC01B7
:1002600086850895AF92CF92EF92FF920F931F93DE
:10027000CF93DF93CDB7DEB72B970FB6F894DEBFE1
:100280000FBECDBF9AE0ECE1F1E0DE0111960190E6
:100290000D929A95E1F781E090E08C0F9D1F680F19
:1002A000791FFB01F080F4FA662760F9822F4B87F3
:1002B0000E947609F2FA662760F98E2D0E9476096F
:1002C0006F2D61708A2D0E947609F5FA662760F914
:1002D0004B85842F0E947609F3FA662760F9802FF8
:1002E0000E947609F1FA662760F98C2D2B960FB6DD
:1002F000F894DEBF0FBECDBFDF91CF911F910F915C
:10030000FF90EF90CF90AF900C947609CF93DF934E
:10031000EC01688179814AE050E08CE893E00E942A
:100320005E0D66E271E08CE893E00E94520C4A8513
:100330005B856C857D8522E030E08CE893E00E944F
:100340000F0E66E271E08CE893E00E94520C688523
:1003500079854AE050E08CE893E00E945E0D66E209
:1003600071E08CE893E0DF91CF910C94520CCF9226
:10037000DF92EF92FF920F931F93CF93DF93CDB74E
:10038000DEB72D970FB6F894DEBF0FBECDBF7C0150
:100390006B0163EA72E0FC0174836383FA0182817A
:1003A0009381A481B581F70185839683A783B08764
:1003B00072876187F9014281538164817581F701F8
:1003C0004387548765877687C70141960E94130F3C
:1003D000F701D282C182108B07871082CE0101966D
:1003E0000E94130F2D960FB6F894DEBF0FBECDBF3F
:1003F000DF91CF911F910F91FF90EF90DF90CF9001
:1004000008950F931F93CF93DF93CDB7DEB72C974B
:100410000FB6F894DEBF0FBECDBF8C01FC01618129
:1004200072818FE394E00E942610019759F469E2EB
:1004300071E08CE893E00E94520C8CE893E00E94FB
:10044000650C2DC068E371E08CE893E00E94520CCB
:100450008CE893E00E94650C23EA32E03A8329831A
:10046000F80183859485A585B6858B839C83AD83B0
:10047000BE8338872F834581568167817085498780
:100480005A876B877C87618172819E012F5F3F4F06
:10049000AE01495F5F4F8FE394E00E94761168EEF2
:1004A00073E080E090E00E94B3082C960FB6F894B9
:1004B000DEBF0FBECDBFDF91CF911F910F91089589
:1004C0000F931F93CF93DF93EC018C010F5E1F4FAF
:1004D000C8010E94320F81110AC08881882339F037
:1004E000C801DF91CF911F910F910C94560FDF91AE
:1004F000CF911F910F910895EF92FF920F931F9349
:10050000CF93DF938C017B01EC016196FC01678541
:10051000708940E550E0CE010E94B20E892B49F16E
:100520006BE571E08CE893E00E947B0C65E671E07E
:10053000CE010E94520C4AE050E0B701CE010E9469
:100540005E0D65ED71E0CE010E947B0C68E771E005
:10055000CE010E947B0C67E871E0CE010E947B0C0B
:1005600063EA71E0CE010E947B0CCE010E94650C13
:1005700012C0CE010E94560F65EB71E08CE893E04B
:100580000E947B0C08C0CE010E946E0E682F8CE882
:1005900093E00E948F0CCE010E94890E1816190656
:1005A00094F3CE010E94320FF8018083DF91CF9146
:1005B0001F910F91FF90EF9008950F931F93CF938A
:1005C000DF938C01EC016196FC016785708940E541
:1005D00050E0CE010E94B20E892BF1F06BE571E084
:1005E0008CE893E00E947B0C65EC71E0CE010E94E8
:1005F000520C68E771E0CE010E947B0C67E871E065
:10060000CE010E947B0C63EA71E0CE010E947B0C5C
:10061000CE010E94650C12C0CE010E94560F65EB00
:1006200071E08CE893E00E947B0C08C0CE010E9430
:100630006E0E682F8CE893E00E948F0CCE010E9412
:10064000890E1816190694F3CE010E94320FF80194
:100650008083DF91CF911F910F910895CF93DF9306
:10066000EC016FE374E00E94CD11CE01DF91CF91D8
:1006700008950F9300E020E040E060E08CEE92E00F
:100680000E94D50B0F910895CF92DF92EF92FF92C7
:100690000F931F93CF93DF93EC01488359836A83B1
:1006A0007B830C831D832E833F83C886D986EA868D
:1006B000FB860E9477086CA37DA38EA39FA3DF9186
:1006C000CF911F910F91FF90EF90DF90CF90089501
:1006D000CF93DF93EC01CB01BA010E9447237FA7A0
:1006E0006EA7DF91CF910895CF93DF93EC01CB01FB
:1006F000BA010E9447237DA76CA7DF91CF9108958F
:10070000FC0166A577A5882777FD8095982F0E9424
:100710007A230895FC0164A575A5882777FD809547
:10072000982F0E947A2308952F923F924F925F92C2
:100730006F927F928F929F92AF92BF92CF92DF92F1
:10074000EF92FF920F931F93CF93DF93CDB7DEB756
:1007500064970FB6F894DEBF0FBECDBF9C8B8B8B1A
:100760006A017B01280139010E9477084B015C0175
:10077000EB89FC8984A195A1A6A1B7A1A50194014B
:10078000281B390B4A0B5B0BDA01C90180369A4EE4
:10079000A105B10548F440A1498351A15A8382A122
:1007A0008B8393A19C833BC1A7019601C301B20136
:1007B0000E9476226D837E838F839887AB89BC8964
:1007C00098962D913D914D915C919B970E94772237
:1007D0001B018C01862F932DA02FB12FEB89FC8953
:1007E00080A791A7A2A7B3A766A577A5882777FDBD
:1007F0008095982F0E947A2369877A878B879C87B8
:1008000069837A838B839C83762F6A85982F8C8566
:10081000272F362F492F582F622D732D802F912F80
:100820000E942A2418167CF459854A853B852C851C
:10083000852F942FA32FB22FEB89FC8980A791A736
:10084000A2A7B3A71EC0AB89BC899C966D917C9171
:100850009D97882777FD8095982F0E947A232B01FA
:100860003C019B01AC01622D732D802F912F0E94C2
:10087000DB2287FF06C0EB89FC8940A651A662A651
:1008800073A6AB89BC8998962D913D914D915C9151
:100890009B972D873E874F87588B5C962D913D9176
:1008A0004D915C915F97C701B6010E947622362E6A
:1008B000272E898B9A8BEB89FC892081318142819B
:1008C0005381BD81AE811F8108856B2F7A2F812FC7
:1008D000902F0E942E242B013C01AB89BC891496D9
:1008E0002D913D914D915C9117976D857E858F85FA
:1008F00098890E942E249B01AC01C301B2010E9481
:1009000077222B013C01EB89FC89208531854285CA
:100910005385D10119890A896B2F7A2F812F902F46
:100920000E942E249B01AC01C301B2010E947622D9
:100930003B018C0179856A859B858C85272F362F15
:10094000492F582F662D772D802F912F0E942A2412
:10095000181624F1AB89BC899C966D917C919D976A
:10096000882777FD8095982F0E947A2369837A8360
:100970008B839C83762F6A81982F8C81272F362F2B
:10098000492F582F662D772D802F912F0E94DB2223
:1009900087FD04C069827A820B831C83EB89FC8902
:1009A000C48ED58EE68EF78E5D814E813F8128857F
:1009B000852F942FA32FB22F808F918FA28FB38F6B
:1009C00059814A813B812C81852F942FA32FB22FEF
:1009D00080A391A3A2A3B3A35D814E813F8128850B
:1009E000852F942FA32FB22F80AB91ABA2ABB3ABCB
:1009F0002D853E854F85588924AB35AB46AB57AB2B
:100A0000A10139892A89852F922DA32FB22F80AF7A
:100A100091AFA2AFB3AF84A295A2A6A2B7A259810B
:100A20004A813B812C81652F742F832F922F6496EE
:100A30000FB6F894DEBF0FBECDBFDF91CF911F91EF
:100A40000F91FF90EF90DF90CF90BF90AF909F906D
:100A50008F907F906F905F904F903F902F90089570
:100A6000FC0164A175A186A197A10895CF93DF939E
:100A7000EC014C8D5D8D6E8D7F8D22E030E08CE839
:100A800093E00E940F0E66E271E08CE893E00E9412
:100A9000520C488D598D6A8D7B8D22E030E08CE8B8
:100AA00093E00E940F0E66E271E08CE893E00E94F2
:100AB000520C48A159A16AA17BA122E030E08CE848
:100AC00093E00E940F0E66E271E08CE893E00E94D2
:100AD000520C48A959A96AA97BA922E030E08CE808
:100AE00093E00E940F0E66E271E08CE893E00E94B2
:100AF000520C4CA95DA96EA97FA922E030E08CE8D8
:100B000093E00E940F0E66E271E08CE893E00E9491
:100B1000520C48AD59AD6AAD7BAD22E030E08CE8B7
:100B200093E00E940F0E66E271E08CE893E0DF91A3
:100B3000CF910C94520C8F929F92AF92BF92CF9212
:100B4000DF92EF92FF920F931F93CF93DF9300D02A
:100B500000D000D0CDB7DEB761E082E00E943E0950
:100B600061E083E00E943E0961E084E00E943E096A
:100B700061E085E00E943E0961E086E00E943E0956
:100B800061E087E00E943E0961E08DE00E943E093D
:100B900061E08CE00E943E0940E050E0BA018CE147
:100BA00093E00E94740340E050E068E473E48CE159
:100BB00093E00E94680340E855E260E070E08CE852
:100BC00093E00E94C00A6FED71E08CE893E00E9410
:100BD000520C88248394912C83E0A82EB12C92E0AF
:100BE000C92ED12C25E0E22EF12C04E010E027E004
:100BF00030E046E050E0B40188E593E00E94320125
:100C00006EEE72E080E090E00E94B3088FEF881AE9
:100C1000980A8BE088169104F9F667E172E08CE897
:100C200093E00E947B0C6AE172E08CE893E00E9402
:100C3000520C22E030E040E050E060E470E48CE8E8
:100C400093E00E940F0E22E030E04DEC5CEC6CE48F
:100C50007FE38CE893E00E940F0E22E030E040E05A
:100C600050E060E87FE38CE893E00E940F0E8CE890
:100C700093E00E94650C67E272E08CE893E00E94CA
:100C8000520C8CE893E00E94650C82EF92E00E9487
:100C9000010262E772E08CE893E00E94520C62EF7E
:100CA00072E0CE0101960E942E03BE016F5F7F4F5E
:100CB0008CE893E00E945B0C8CE893E00E94650C4A
:100CC00026960FB6F894DEBF0FBECDBFDF91CF9151
:100CD0001F910F91FF90EF90DF90CF90BF90AF905A
:100CE0009F908F9008954F925F926F927F928F9214
:100CF0009F92AF92BF92CF92DF92EF92FF920F93AB
:100D00001F93CF93DF9300D000D0CDB7DEB788E537
:100D100093E00E941C0188E593E00E94A8005C011A
:100D200088E593E00E94A400BC01882777FD8095A8
:100D3000982F0E947A236B017C01B501882777FDEB
:100D40008095982F0E947A23AB01BC019701860100
:100D50008CE193E00E9494032B013C018CE193E031
:100D60000E9480034B015C018CE193E00E948A03A6
:100D700069837A838B839C8320E030E040E251E4F6
:100D8000C301B2010E9477226B017C0129813A8163
:100D90004B815C81C501B4010E9476229B01AC01AC
:100DA00060E070E080E191E40E94DF229B01AC01F1
:100DB000C701B6010E942E240E94472343E0A42EBF
:100DC000B12C52E0C52ED12CE5E0EE2EF12C04E042
:100DD00010E027E030E046E050E088E593E00E9434
:100DE000320167E772E08CE893E00E94520C8CE1DC
:100DF00093E00E943005AB01BC012AE030E08CE8B2
:100E000093E00E94FF0C66E271E08CE893E00E94A0
:100E1000520C22E030E0B301A2018CE893E00E9482
:100E20000F0E66E271E08CE893E00E94520C88E5B8
:100E300093E00E9486018CE193E00E9436056DE705
:100E400072E08CE893E00E94520C8CE893E00E94E0
:100E5000650C88E593E00E942F01882331F061E062
:100E60008DE00E94760960E005C060E08DE00E94A0
:100E7000760961E08CE00E94760982EF92E00E94A0
:100E800060020E947708C0907903D0907A03E090C6
:100E90007B03F0907C036C197D098E099F096133F7
:100EA000754781059105E8F064E872E08CE893E00D
:100EB0000E947B0C88E593E00E94A800BC0182EFB1
:100EC00092E00E947C0282EF92E00E94DD020E948A
:100ED00077086093790370937A0380937B039093F0
:100EE0007C0360E177E280E090E00F900F900F903C
:100EF0000F90DF91CF911F910F91FF90EF90DF90B6
:100F0000CF90BF90AF909F908F907F906F905F90A9
:100F10004F900C94B308CF92DF92EF92FF920F9311
:100F20001F93CF93DF93CDB7DEB72C970FB6F8940E
:100F3000DEBF0FBECDBF00E020E040E060E08DE707
:100F400093E00E94D50B0EE010E02DE030E04CE085
:100F500050E06CE370E088E593E00E948F00C12CC4
:100F6000D12CF0E8EF2EFFE3FF2E0DEC1CEC2CE46F
:100F70003FE340E050E060E470E48CE193E00E94E5
:100F8000440309E022E048EA60EC86E193E00E9435
:100F9000D50B0BE127EC43E463EC80E193E00E9486
:100FA000D50B23EA32E038872F838091120390918A
:100FB0001303A0911403B091150389879A87AB8717
:100FC000BC873A8329838091180390911903A091DB
:100FD0001A03B0911B038B839C83AD83BE830AE00D
:100FE00011E09E01295F3F4FAE014F5F5F4F63E10C
:100FF00071E082EF92E00E94B7012C960FB6F89450
:10100000DEBF0FBECDBFDF91CF911F910F91FF903B
:10101000EF90DF90CF9008958E3008F08E5087705B
:101020002091190140E4249F90011124822B809388
:101030007C0080917A00806480937A0080917A00AD
:1010400086FDFCCF2091780030917900932F80E0CD
:10105000AC01422B9A01C90108951F920F920FB65D
:101060000F9211242F933F938F939F93AF93BF932E
:101070008091830390918403A0918503B0918603AE
:1010800030918B03232F2D5F2D3720F40196A11D66
:10109000B11D05C0232F2A570296A11DB11D209313
:1010A0008B038093830390938403A0938503B09371
:1010B00086038091870390918803A0918903B09162
:1010C0008A030196A11DB11D809387039093880325
:1010D000A0938903B0938A03BF91AF919F918F91A1
:1010E0003F912F910F900FBE0F901F9018950F9367
:1010F0001F938FB7F894009183031091840320917C
:101100008503309186038FBFB801C9011F910F91EC
:1011100008950F931F939FB7F89400918703109140
:1011200088032091890330918A0386B5A89B06C065
:101130008F3F21F00F5F1F4F2F4F3F4F9FBF322F29
:10114000212F102F0027080F111D211D311D42E0F6
:10115000000F111F221F331F4A95D1F7B801C90193
:101160001F910F910895CF92DF92EF92FF92CF934C
:10117000DF936B017C010E948908EB010EC00E9485
:1011800089086C1B7D0B683E734038F081E0C81AFB
:10119000D108E108F108C851DC4FC114D104E104C1
:1011A000F10469F7DF91CF91FF90EF90DF90CF903E
:1011B0000895789484B5826084BD84B5816084BDCF
:1011C00085B5826085BD85B5816085BDEEE6F0E0C0
:1011D000808181608083E1E8F0E01082808182601C
:1011E0008083808181608083E0E8F0E0808181609D
:1011F0008083E1EBF0E0808184608083E0EBF0E0CD
:10120000808181608083EAE7F0E080818460808370
:10121000808182608083808181608083808180681A
:1012200080831092C1000895833069F028F48130E2
:10123000A1F0823011F514C08630B1F08730C1F0D2
:101240008430D9F404C0809180008F7703C08091EE
:1012500080008F7D80938000089584B58F7702C0D1
:1012600084B58F7D84BD08958091B0008F7703C0D1
:101270008091B0008F7D8093B0000895CF93DF936D
:1012800090E0FC01E458FF4F4491FC01E057FF4F10
:101290008491882341F190E0880F991FFC01E25569
:1012A000FF4F25913491D9018C559F4FFC018591B9
:1012B0009491C82FD92F9FB7F8948C91611106C0D3
:1012C000409584238C938881842308C0623041F444
:1012D000242F209582238C938881842B888302C0BD
:1012E000842B8C939FBFDF91CF9108950F931F9311
:1012F000CF93DF931F92CDB7DEB7282F30E0F901EF
:10130000E859FF4F8491F901E458FF4F1491F90116
:10131000E057FF4F04910023D1F0882321F0698327
:101320000E9414096981E02FF0E0EE0FFF1FEC55D9
:10133000FF4F85919491DC019FB7F8948C916111D6
:1013400003C01095812301C0812B8C939FBF0F9008
:10135000DF91CF911F910F910895FC0184859585B0
:10136000FC01E05CFF4F20813181FC01EE5BFF4F0F
:1013700080819181281B390B2F733327C901089570
:10138000FC0184859585FC01E05CFF4F4081518123
:10139000FC01EE5BFF4F208131814217530741F082
:1013A0000190F081E02DE80FF91F208130E002C0AC
:1013B0002FEF3FEFC9010895FC0184859585FC015D
:1013C000E05CFF4F40815181FC01EE5BFF4F2081CB
:1013D00031814217530781F0A081B181A80FB91F55
:1013E0008C91208131812F5F3F4F2F7333273183C1
:1013F0002083282F30E002C02FEF3FEFC90108956E
:10140000FC0186859785FC01E05CFF4FDC01AE5B4B
:10141000BF4F408151812D913C9111974217530745
:10142000C1F70895CF93DF93FC0186859785DC0192
:10143000A05CBF4F2D913C9111972F5F3F4F2F73B1
:101440003327EC01CE5BDF4F4881598124173507E4
:10145000D9F30D90BC91A02DA80FB91F6C93A68550
:10146000B785A05CBF4F11963C932E93A689B78990
:101470002C9181E090E0058C02C0880F991F0A949E
:10148000E2F7282B2C9381E090E0DF91CF91089533
:1014900008951F920F920FB60F9211242F933F932E
:1014A0004F938F939F93EF93FF934091C60080914A
:1014B0002F049091300401968F7399272091310465
:1014C000309132048217930759F0E0912F04F09184
:1014D0003004E151FC4F40839093300480932F04FB
:1014E000FF91EF919F918F914F913F912F910F908D
:1014F0000FBE0F901F9018958CE893E00E94AD09E5
:10150000892B11F00C94480A08951F920F920FB680
:101510000F9211242F933F938F939F93EF93FF93F9
:101520002091EB033091EC038091ED039091EE0359
:101530002817390731F48091C1008F7D8093C10055
:1015400014C0E091ED03F091EE03E555FC4F2081CE
:101550008091ED039091EE0301968F7399279093FC
:10156000EE038093ED032093C600FF91EF919F91CE
:101570008F913F912F910F900FBE0F901F90189554
:10158000CF92DF92EF92FF92CF93DF93EC016A014B
:101590007B01411581EE580761057105F9F0EC8971
:1015A000FD8981E090E00E8C02C0880F991F0A949B
:1015B000E2F7808360E079E08DE390E0A701960197
:1015C0000E94A4242150310941095109569547959B
:1015D00037952795211580E1380798F0EC89FD892A
:1015E000108260E874E88EE190E0A70196010E9405
:1015F000A424215031094109510956954795379541
:101600002795E889F9893083EA89FB892083EE8967
:10161000FF89408181E090E09C010A8C02C0220F8A
:10162000331F0A94E2F7422B4083EE89FF89408101
:101630009C010B8C02C0220F331F0A94E2F7422B4D
:101640004083EE89FF8940819C010C8C02C0220FEF
:10165000331F0A94E2F7422B4083EE89FF892081F1
:101660000D8C02C0880F991F0A94E2F7809582239F
:101670008083DF91CF91FF90EF90DF90CF9008951E
:1016800010928F0310928E0388EE93E0A0E0B0E0FA
:101690008093900390939103A0939203B09393034C
:1016A00083E992E090938D0380938C038FEE93E017
:1016B00090939903809398038BEA93E090939B0314
:1016C00080939A0385EC90E090939D0380939C0314
:1016D00084EC90E090939F0380939E0380EC90E0D5
:1016E0009093A1038093A00381EC90E09093A303D7
:1016F0008093A20386EC90E09093A5038093A403CB
:1017000084E08093A60383E08093A70387E080931F
:10171000A80385E08093A90381E08093AA0308953C
:10172000AF92BF92CF92DF92EF92FF920F931F93EF
:10173000CF93DF936C017B01C0E0D0E000E010E0CC
:10174000F601EC0FFD1F4AE050E06281C7010E94E4
:101750000C0D5C016EE2C7010E94540C8A0D9B1DAA
:10176000080F191F2196C330D10551F74AE050E008
:10177000F6016581C7010E940C0D080F191FC801F1
:10178000DF91CF911F910F91FF90EF90DF90CF905D
:10179000BF90AF90089523EA32E0FC0131832083AB
:1017A000128213821482158208950F93FC0183EA3A
:1017B00092E09183808362834383248305830F9126
:1017C000089523EA32E0FC0131832083FB0140814C
:1017D000518162817381FC014283538364837583E9
:1017E0000895FC01DB014D915D916D917C914283E7
:1017F000538364837583089583EA92E0909334045D
:1018000080933304109235041092360410923704FA
:101810001092380408950E94D9080E949B05CCE7D5
:10182000DAE00E9473062097E1F30E947C0AF9CF68
:101830000C94CA20CF92DF92EF92FF920F931F93E6
:10184000CF93DF936C01EB017A01E60EF71E00E007
:1018500010E00BC06991D601ED91FC910190F081EF
:10186000E02DC6010995080F191FCE15DF0591F768
:10187000C801DF91CF911F910F91FF90EF90DF9002
:10188000CF900895DB010D900020E9F7AD014150A4
:101890005109461B570BDC01ED91FC910280F3814D
:1018A000E02D09940C94420CDC01ED91FC91019027
:1018B000F081E02D0994DB01ED91FC9111970190ED
:1018C000F081E02DBC01CD0109940F931F93CF93BC
:1018D000DF93EC016DE00E94540C8C016AE0CE01B4
:1018E0000E94540C9C01200F311FC901DF91CF9140
:1018F0001F910F9108950F931F93CF93DF93EC01E6
:101900000E94420C8C01CE010E94650C9801280FA8
:10191000391FC901DF91CF911F910F9108950F9346
:101920001F93CF93DF93EC010E94540C8C01CE01E6
:101930000E94650C9C01200F311FC901DF91CF91DE
:101940001F910F9108954F925F926F927F929F9295
:10195000AF92BF92CF92DF92EF92FF920F931F93BD
:10196000CF93DF93CDB7DEB7A1970FB6F894DEBF64
:101970000FBECDBF5C016A017B01922E19A281E0EE
:10198000821710F08AE0982E8E010F5D1F4F492CB0
:10199000512C612C712CC701B601A30192010E9448
:1019A000A4248C2D929E80191124015011098A3093
:1019B00014F4805D01C0895CF801808369017A01BB
:1019C000C114D104E104F10431F7B801C5010E944A
:1019D000420CA1960FB6F894DEBF0FBECDBFDF91CB
:1019E000CF911F910F91FF90EF90DF90CF90BF901C
:1019F000AF909F907F906F905F904F9008952115CA
:101A0000310541F4DC01ED91FC910190F081E02D74
:101A1000642F09940C94A30C9A01462F50E060E0C7
:101A200070E00C94FF0CCF92DF92EF92FF920F9335
:101A30001F93CF93DF93EC016A017B0121153105E0
:101A400079F4E881F9810190F081E02D642FDF9134
:101A5000CF911F910F91FF90EF90DF90CF9009945D
:101A60002A30310519F477FD0EC02AE0B701A6012E
:101A7000CE01DF91CF911F910F91FF90EF90DF90FA
:101A8000CF900C94A30C6DE20E94540C8C0144275F
:101A90005527BA014C195D096E097F092AE0CE016C
:101AA0000E94A30C080F191FC801DF91CF911F914D
:101AB0000F91FF90EF90DF90CF9008959A01AB01C6
:101AC000662757FD6095762F0C94130D7F928F92A9
:101AD0009F92AF92BF92CF92DF92EF92FF920F93BD
:101AE0001F93CF93DF938C014A015B01F22E20E01C
:101AF00030E0A901C501B4010E94DB2287FF0AC0C2
:101B00006DE2C8010E94540CEC01B7FAB094B7F82A
:101B1000B09402C0C0E0D0E0E12C60E070E080E072
:101B20009FE307C020E030E040E251E40E94DF2262
:101B3000E394EF10F7CF262F372F482F592FC501E9
:101B4000B4010E947722762E872E982EA92E0E940D
:101B50004C23B62EC72ED82EE92E0E9478239B0147
:101B6000AC01672D782D892D9A2D0E947622A62E04
:101B7000972E882E792E2AE04B2D5C2D6D2D7E2DF3
:101B8000C8010E94A30CC80FD91FFF20B9F165E15D
:101B900072E0C8010E94420CC80FD91F2FC020E07C
:101BA00030E040E251E46A2D792D882D972D0E9476
:101BB0002E24762EC72ED82EE92E0E9447234B01C5
:101BC000AA2497FCA094BA2C2AE030E0B501A40125
:101BD000C8010E94130DC80FD91FC501B4010E948E
:101BE0007A239B01AC01672D7C2D8D2D9E2D0E94AB
:101BF0007622A62E972E882E792EFA94F110CFCF2A
:101C0000CE01DF91CF911F910F91FF90EF90DF9068
:101C1000CF90BF90AF909F908F907F9008950C943D
:101C2000660DCF93DF931F92CDB7DEB76983DC01DA
:101C3000ED91FC910280F381E02D41E050E0BE0186
:101C40006F5F7F4F09950F90DF91CF910895CF93EC
:101C5000DF93EC0107C0E881F9810680F781E02D70
:101C6000CE010995E881F9810480F581E02DCE014E
:101C70000995892B81F7DF91CF91089521E0FC012F
:101C80008485843009F420E0822F08950F931F93F8
:101C9000CF93DF931F92CDB7DEB78C01DC01ED91BE
:101CA000FC910480F581E02D0995892B51F0BE014E
:101CB0006F5F7F4FF80184850E944F15298130E0C6
:101CC00002C02FEF3FEFC9010F90DF91CF911F911D
:101CD0000F910895FC0184850C941015CF93DF9328
:101CE0001F92CDB7DEB741E050E0BE016F5F7F4F7E
:101CF000FC0184850E941015181619061CF4298110
:101D000030E002C02FEF3FEFC9010F90DF91CF917C
:101D10000895FC016485643021F08DE594E00C9415
:101D2000231780E090E008950F931F93CF93DF93E4
:101D30008C01EA01FC018485843019F481E090E093
:101D400007C00E94BD14892B39F481E090E0F801AE
:101D500093838283C0E0D0E0CE01DF91CF911F91C9
:101D60000F910895CF92DF92EF92FF920F931F93FE
:101D7000CF93DF93CDB7DEB7E5970FB6F894DEBF0C
:101D80000FBECDBF7C018B016A01CE0101960E947E
:101D9000CB0BCE0109960E946713CE01C0960E941C
:101DA000CB0B6FE374E0CE018A960E94DF11BE0177
:101DB000665D7F4FCE0101960E94781DAE01405DA9
:101DC0005F4FB801CE0101960E94DC1F9C0181305B
:101DD0009105C9F4D701ED91FC910484F585E02DBE
:101DE00083EA92E09DA38CA30AA91BA92CA93DA973
:101DF0000EA31FA328A739A7A601BE016C5D7F4FC4
:101E0000C70109959C01C901E5960FB6F894DEBF9C
:101E10000FBECDBFDF91CF911F910F91FF90EF903B
:101E2000DF90CF900895FC011382128248EE53E0B8
:101E300060E070E0448355836683778389EA92E0AB
:101E40009183808384E084870895FC0184858430B5
:101E500039F0382F20E0C9018D5F9B4F0C94761626
:101E600080E00895CF93DF93EC018C858430D1F02E
:101E7000CE010E94250F843181F0882371F08831D2
:101E800061F08C3161F4E881F9810480F581E02D05
:101E9000CE01099521E0892B19F420E001C021E051
:101EA000822F01C080E0DF91CF910895CF92DF9221
:101EB000EF92FF92CF93DF93EC018C85843091F108
:101EC0000E94B6140E9477086B017C01CE010E942B
:101ED000250F8823D1F00E9477086C197D098E099F
:101EE0009F09683E734081059105A8F00EC08C855E
:101EF0000E943214EC85F0E0EE0FFF1FE95BFB4F10
:101F00001182108284E08C870DC0CE010E94250FC3
:101F1000882381F3ECCF61E070E080E090E00E94E4
:101F2000B308D4CFDF91CF91FF90EF90DF90CF90A7
:101F30000895AF92BF92CF92DF92EF92FF920F93EC
:101F40001F93CF93DF93EC015B016A018C85843092
:101F500009F04EC093E0E92E94E0F92E00E010E085
:101F6000C7010E947616811102C00C870AC0883111
:101F7000E1F38C31D1F30F5F1F4FF394043011055F
:101F800079F78C858430A1F120911A0130911B01E1
:101F90002F5F3F4F09F002C020E034E030931B0177
:101FA00020931A0140911A0150911B0120E061E039
:101FB0000E944014B5016E5F7F4FA6018C850E9480
:101FC000801409C061E070E080E090E00E94B308F6
:101FD000CE010E94250F811103C084E08C8708C0C8
:101FE000CE010E94250F873169F721E030E002C061
:101FF00020E030E0C901DF91CF911F910F91FF9058
:10200000EF90DF90CF90BF90AF9008950F9300E0D6
:1020100020E040E060E089E394E00E94D50B0F915E
:10202000089544E050E0BC0181E090E00C94471634
:1020300044E050E0BC0185E090E00C94471644E099
:1020400050E0BC018FE090E00C944716AF92BF9235
:10205000CF92DF92EF92FF920F931F93CF93DF9374
:10206000CDB7DEB76E970FB6F894DEBF0FBECDBF0B
:102070006C015B0182E690E00E94180C8C0182E604
:10208000F80111928A95E9F7C801895B9F4F0E9478
:102090006713F601178306838DE594E00E94091605
:1020A00046E050E0B50189E090E00E94471600E06C
:1020B00020E040E060E0CE0149960E94D50BCE01C1
:1020C0004B960E941F1010EAE12E1FE0F12E00E057
:1020D00010E020E63AEE40E050E0B501F6018681DE
:1020E00097810E94281D8C018130910589F5F601A8
:1020F00066817781CE0143960E943E1ACE014596B5
:102100000E941F10F60166817781CE010D960E9414
:10211000541ACE010F960E941110F6016681778144
:10212000CE0107960E94491ACE0109960E94181006
:10213000F60166817781CE0101960E945F1A4B817C
:102140005C816D817E81F601428353836483758354
:10215000C8016E960FB6F894DEBF0FBECDBFDF91FB
:10216000CF911F910F91FF90EF90DF90CF90BF9094
:10217000AF9008958F929F92AF92BF92CF92DF92CD
:10218000EF92FF920F931F93CF93DF9300D0CDB7C1
:10219000DEB74C016A0159018DE594E069837A83C9
:1021A0000E94091646E050E069817A8189E090E05A
:1021B0000E944716C60102960E941F10C80102968F
:1021C0000E941110C70102960E941810F501428169
:1021D000538164817581F4014283538364837583E1
:1021E0000F900F90DF91CF911F910F91FF90EF9083
:1021F000DF90CF90BF90AF909F908F9008956F9297
:102200007F928F929F92AF92BF92CF92DF92EF9286
:10221000FF920F931F93CF93DF93CDB7DEB76E97E7
:102220000FB6F894DEBF0FBECDBF6C015B017A0123
:102230004901380100E02FEF4FEF6FEFCE014996D3
:102240000E94D50B43EA52E05A8349838B8D9C8DC3
:10225000AD8DBE8D8B839C83AD83BE8358874F83AA
:10226000F30182819381A481B58189879A87AB87A5
:10227000BC875E874D87F40182819381A481B581FB
:102280008F87988BA98BBA8B5C8B4B8BF701428124
:102290005381648175814D8B5E8B6F8B788FEE24BB
:1022A000E394F12CEC0EFD1E8E01095F1F4F9E0181
:1022B000235F3F4FAE014D5E5F4FB501C6010E94E7
:1022C000BA106E960FB6F894DEBF0FBECDBFDF9189
:1022D000CF911F910F91FF90EF90DF90CF90BF9023
:1022E000AF909F908F907F906F900895CF92DF92E4
:1022F000EF92FF920F931F93CF93DF93CDB7DEB78B
:1023000068970FB6F894DEBF0FBECDBF6B017901A1
:10231000DA0112964D915D916D917C9115974D8BDF
:102320005E8B6F8B788FA3EAB2E0BA83A98321E03A
:10233000288F0D891E892F89388D0B831C832D834F
:102340003E83B887AF83F7010281138124813581F1
:1023500009871A872B873C87BE87AD874F87588BA5
:10236000698B7A8B8E010F5F1F4F9E01295F3F4F54
:10237000AE01435F5F4FB6010E94FF1068960FB633
:10238000F894DEBF0FBECDBFDF91CF911F910F91AB
:10239000FF90EF90DF90CF900895CF93DF93EC0103
:1023A0000E94CB0BBE016E5F7F4F44E050E08FE098
:1023B00090E00E946F17CE01DF91CF91089523EA3C
:1023C00032E0FC0131832083FB014281538164812F
:1023D0007581FC01428353836483758308950F9351
:1023E00000E020E040E060E08FE494E00E94D50B44
:1023F0008FE394E00F910C94CB0BDC01ED91FC91F9
:10240000008CF18DE02D099423EA32E0FC01318348
:102410002083FB014189528963897489FC014283CD
:102420005383648375830895FC0185899689089593
:10243000FC01818D928D0895CF93DF931F92CDB7CC
:10244000DEB76983DC01ED91FC910280F381E02D20
:1024500041E050E0BE016F5F7F4F09950F90DF9123
:10246000CF910895CF93DF93EC0107C0E881F98104
:102470000680F781E02DCE010995898D9A8D892BF3
:10248000A9F7DF91CF910895CF93DF931F92CDB736
:10249000DEB7FC01218D328D232B49F0BE016F5F29
:1024A0007F4F84850E944F15298130E002C02FEFB5
:1024B0003FEFC9010F90DF91CF910895CF93DF9344
:1024C000EC01898D9A8D009719F42FEF3FEF11C021
:1024D0004817590708F0AC018C850E9410159C0123
:1024E0001816190694F7898D9A8D821B930B9A8F73
:1024F000898FC901DF91CF9108950F931F93CF93D7
:10250000DF931F92CDB7DEB78C01FC01818D928DD8
:10251000892B59F041E050E0BE016F5F7F4F848509
:102520000E941015181619061CF02FEF3FEF08C077
:10253000F801818D928D0197928F818F298130E0F2
:10254000C9010F90DF91CF911F910F910895CF9303
:10255000DF93EC019A018F89988DAB01BC018C85CA
:102560000E945D159C018F89988D820F931F988F13
:102570008F8BC901DF91CF910895FC0184850C9464
:10258000B915FC01108E178A6E5F7F4F84850C94FD
:102590009315CF93DF93EC018C85843061F00E941A
:1025A0003214EC85F0E0EE0FFF1FE95BFB4F118268
:1025B000108284E08C87DF91CF9108950F931F9351
:1025C000CF93DF93CDB7DEB728970FB6F894DEBF71
:1025D0000FBECDBF8C01DC01ED91FC910284F3852F
:1025E000E02D0995F80164858DE594E00E9423179C
:1025F000892B29F148E050E0BE016F5F7F4FD80181
:102600001C968C910E9410159C0118161906CCF48A
:10261000BE016F5F7F4FC8010F960E94F10B9D8135
:1026200080E02E81820F911DF801968B858B3F8172
:1026300020E08885280F311D328F218F02C020E0D5
:1026400030E0C90128960FB6F894DEBF0FBECDBFAB
:10265000DF91CF911F910F910895CF92DF92EF926A
:10266000FF920F931F93CF93DF93EC016B018C8547
:10267000843019F593E0E92E94E0F92E00E010E0A3
:10268000C7010E947616811102C00C8708C08831EC
:10269000E1F30F5F1F4FF3940430110589F78C8528
:1026A000843059F0DE86CD861A8E198E20E0A60180
:1026B00062E00E94401481E001C080E0DF91CF9190
:1026C0001F910F91FF90EF90DF90CF900895FC0144
:1026D0001382128248EE53E060E070E04483558339
:1026E0006683778385EC92E09183808384E084879E
:1026F000CF010F960C94CB0BCF92DF92EF92FF920B
:102700000F931F93CF93DF93CDB7DEB7E5970FB647
:10271000F894DEBF0FBECDBF7C018B016A01CE01F4
:1027200001960E94CB0BCE0109960E946713CE0141
:10273000C0960E94CB0B6FE374E0CE018A960E9494
:10274000DF11BE01665D7F4FCE0101960E94781DAC
:10275000AE01405D5F4FB801CE0101960E94DC1FC3
:102760009C0181309105C9F4D701ED91FC9100885D
:10277000F189E02D83EA92E09DA38CA30AA91BA90D
:102780002CA93DA90EA31FA328A739A7A601BE0106
:102790006C5D7F4FC70109959C01C901E5960FB695
:1027A000F894DEBF0FBECDBFDF91CF911F910F9187
:1027B000FF90EF90DF90CF9008950F9300E020E01E
:1027C00040E060E085E594E00E94D50B0F9108950C
:1027D000382F20E044E050E0C901845F9B4F0C9407
:1027E0004716282F30E02C5F3F4F922F8827860F07
:1027F000971F0C94761662E070E00C94F113FB01C5
:10280000282F30E02C5F3F4F922F8827642F8E0FA8
:102810009F1F0C94E715462F62E070E00C94FF13A5
:10282000CF93DF93C82FD62F472F60E170E00E942F
:10283000FF134D2F61E170E08C2FDF91CF910C944D
:10284000FF13CF93DF93C82FD62F472F64E070E09C
:102850000E94FF134D2F65E070E08C2FDF91CF9128
:102860000C94FF13CF93C82F40E150E0682F8DE503
:1028700094E00E9427186FEF8C2FCF910C940B14CB
:10288000EF92FF921F93CF93DF9300D0CDB7DEB7C7
:10289000182F7A01862F8150853048F5812F2A83A1
:1028A00069830E9432142A816981422F462B60E09D
:1028B00070E0812F0E94FF13E114F10411F0B701C1
:1028C0000AC060915B0470915C046F5F7F4F7093EE
:1028D0005C0460935B04812F0E94211441E050E06E
:1028E000612F8DE594E00E94271881E001C080E00F
:1028F0000F900F90DF91CF911F91FF90EF9008956F
:102900001F93CF93DF93182FFB01EA0180818F3F44
:1029100051F481818F3F91F482818F3F79F48381DB
:102920008F3F61F41EC0811109C08181811106C0F1
:102930008281811103C08381882399F0209789F0D7
:10294000BF01812F0E94E813BE01812F0E94101445
:1029500044E050E0612F8DE594E00E94271881E06B
:1029600001C080E0DF91CF911F91089548E050E0D1
:10297000682F8DE594E00C942718DF92EF92FF9278
:102980000F931F93CF93DF93D82E8B01EA01413031
:1029900088E0580710F0C0E0D8E06D2D8DE594E098
:1029A0000E9453177C0163E070E08D2D0E94F113AB
:1029B000873111F08C3121F4EC16FD0670F302C062
:1029C000C0E0D0E09E01A8016D2D8DE594E00E944D
:1029D000041740E250E06D2D8DE594E00E94271829
:1029E0000DC063E070E08D2D0E94F113811106C0CF
:1029F0008D2D0E943214C0E0D0E009C08D2D0E94C0
:102A0000FB1384FFEECF60E18D2D0E940B14CE01ED
:102A1000DF91CF911F910F91FF90EF90DF9008957C
:102A2000DF92EF92FF920F931F93CF93DF93D82EF5
:102A30007B018A01682F8DE594E00E942317EC0149
:102A4000009771F463E070E08D2D0E94F1138431E2
:102A5000E9F08823D9F08C31C9F0CFEFDFEF16C051
:102A6000081719070CF4E8011C161D067CF400E099
:102A70009E01A7016D2D8DE594E00E94D71740E4DB
:102A800050E06D2D8DE594E00E942718CE01DF9176
:102A9000CF911F910F91FF90EF90DF9008950F93CA
:102AA000AB0101E021E030E0682F8DE594E00E9469
:102AB000D71781E090E00F910895AF92BF92CF9227
:102AC000DF92EF92FF920F931F93CF93DF93B82E75
:102AD0007B016A01E901682F8DE594E00E9453179C
:102AE0008C179D0740F46B2D8DE594E00E945317E1
:102AF000A82EC92F02C0AC2ECD2F0A2D1C2F960157
:102B0000A7016B2D8DE594E00E9496168A2D9C2FCF
:102B1000DF91CF911F910F91FF90EF90DF90CF90B9
:102B2000BF90AF9008951F93CF93DF93182FFB01B1
:102B3000EA018081811109C08181811106C08281F1
:102B4000811103C08381882369F0209759F0BF0168
:102B5000812F0E94E813BE01812F0E94101421E0F2
:102B600030E002C020E030E0C901DF91CF911F9139
:102B70000895CF93C82F40E250E0682F8DE594E090
:102B80000E9427180CC08C2F0E94FB1383FF07C0E4
:102B900068E18C2F0E940B1420E030E00BC08C2FDA
:102BA0000E94FB1384FFEFCF60E18C2F0E940B1477
:102BB00021E030E0C901CF9108958EBD0DB407FE2C
:102BC000FDCF8EB508952A9808952A9A08951F93E7
:102BD000CF93DF9300D0CDB7DEB7182F6A839983E8
:102BE0000E94E31580EF0E94DD159981892F0E94D4
:102BF000DD15812F0E94DD156A81862F0E94DD156B
:102C00000E94E51581E00F900F90DF91CF911F9109
:102C10000895CF93DF93EC016CE271E080E090E0E7
:102C20000E94B3080E943718229A60E880E090E082
:102C30000E94E71565E58BE190E00E94E71565E5E8
:102C40008AE190E00E94E71580E090E49983888310
:102C500080E090E69987888780E098E49B838A8368
:102C600080E098E69B878A8780E090E59D838C834F
:102C700080E090E79D878C8780E098E59F838E8336
:102C800080E098E79F878E87DF91CF910895CF925C
:102C9000DF92EF92FF920F931F93CF93DF93EC019C
:102CA0007A018B016A01C80ED91E13C00E94E31578
:102CB00080EF0E94DD158D2F0E94DD158C2F0E9464
:102CC000DD152196F80181918F010E94DD150E948A
:102CD000E515CC15DD0551F7C701DF91CF911F91A7
:102CE0000F91FF90EF90DF90CF9008951F93CF93B7
:102CF000DF931F92CDB7DEB7182F99830E94E3159B
:102D00008FE00E94DD159981892F0E94DD15812FAA
:102D10000E94DD1580E00E94DD1589830E94E51583
:102D200089810F90DF91CF911F9108956F927F92CB
:102D30009F92AF92BF92CF92DF92EF92FF920F934A
:102D40001F93CF93DF931F92CDB7DEB7F82E962E49
:102D50003A01590164E270E0892D99830E94F113D0
:102D6000E82E65E270E0892D0E94F113DE2CC12C63
:102D7000C82AC60CD71C960137706F2C9981792E02
:102D8000690C711C690C711CD301ED91FC91E20F6F
:102D9000F31FC901800F911F81309840A0F0E12CF2
:102DA00048E0F42EE21AF30AA701B501CF010E9410
:102DB0004716A8014E195F09B5016E0D7F1DF3017D
:102DC0008081918103C0A801B501CF010E944716FF
:102DD0000C0D1D1D412F64E270E0892D0E94FF1330
:102DE000402F65E270E0892D0F90DF91CF911F9108
:102DF0000F91FF90EF90DF90CF90BF90AF909F909A
:102E00007F906F900C94FF130F931F9389019A0189
:102E100040E050E00E9496161F910F910895CF93C5
:102E2000DF93C82F66E270E00E94F113D82F67E2AB
:102E300070E08C2F0E94F1133D2F20E0282BC90158
:102E4000DF91CF910895FF920F931F93CF93DF935C
:102E5000F62EC0E0D0E08F2D0E940F178C01009756
:102E600021F08F2D0E940F17EC01C017D10799F7A1
:102E7000CE01DF91CF911F910F91FF900895CF93D5
:102E8000DF93C82F60E270E00E94F113D82F61E257
:102E900070E08C2F0E94F1133D2F20E0282BC901F8
:102EA000DF91CF910895FF920F931F93CF93DF93FC
:102EB000F62EC0E0D0E08F2D0E943F178C010097C6
:102EC00021F08F2D0E943F17EC01C017D10799F711
:102ED000CE01DF91CF911F910F91FF900895CF9276
:102EE000DF92EF92FF920F931F93CF93DF93EC014A
:102EF0007A018B016A01C80ED91E14C00E94E31525
:102F00008FE00E94DD158D2F0E94DD158C2F0E9411
:102F1000DD15219680E00E94DD15F80181938F0177
:102F20000E94E515CC15DD0549F7C701DF91CF916A
:102F30001F910F91FF90EF90DF90CF900895CF9267
:102F4000DF92EF92FF920F931F93CF93DF9369016C
:102F50005770EC01C60FD11DC60FD11D2896888170
:102F60009981840F951F9801240F351F2130384017
:102F700090F0E12C68E0F62EE41AF50AA701B601FC
:102F80000E946F17A8014E195F09B6016E0D7F1DD3
:102F90008881998102C0A801B601DF91CF911F916C
:102FA0000F91FF90EF90DF90CF900C946F178F925E
:102FB0009F92AF92BF92CF92DF92EF92FF920F93C8
:102FC0001F93CF93DF936C01962E5A01E901802E57
:102FD00068E270E0892D0E94F113F82E69E270E03A
:102FE000892D0E94F113FF2DE0E07F01E82A8E0178
:102FF0009501A701692DC6010E949F1781101AC073
:10300000CE0DDF1D4D2F68E270E0892D0E94FF1369
:103010004C2F69E270E0892DDF91CF911F910F91C4
:10302000FF90EF90DF90CF90BF90AF909F908F90E8
:103030000C94FF13DF91CF911F910F91FF90EF90B0
:10304000DF90CF90BF90AF909F908F900895CF93D7
:10305000C62F61E070E08C2F0E94FF1361E070E0EA
:103060008C2F0E94F1138111F9CFCF91089561E067
:103070008DE00E943E0961E08BE00E943E0961E024
:103080008AE00E943E0960E08DE00E94760960E0DF
:103090008BE00E94760961E08AE00E9476098CB597
:1030A00080618CBD8CB580648CBD08950E96FC014A
:1030B00084E1DF011D928A95E9F708952F923F92EE
:1030C0004F925F926F927F928F929F92AF92BF9238
:1030D000CF92DF92EF92FF920F931F93CF93DF93E4
:1030E000CDB7DEB7E4970FB6F894DEBF0FBECDBF05
:1030F0007C012A013B0169010E9477084B015C01B8
:103100008701095B1F4F12C00E947708681979096F
:103110008A099B09461657066806790608F477C19E
:1031200062E370E080E090E00E94B308C8010E9472
:10313000DE121816190644F742E250E0BE016F5F36
:103140007F4FC8010E945E128981823009F05AC106
:10315000F801858996898334910509F45BC152C1D0
:10316000F70180819181A281B38188169906AA0610
:10317000BB0648F084819581A681B78188159905A1
:10318000AA05BB0528F4C8010E943212512C5CC16B
:1031900089899A89AB89BC89F70186879787A08B33
:1031A000B18B8EECC82ED12CC8010E947D12F1E0AB
:1031B000CF1AD108C9F7512CC70182969AA789A7BF
:1031C000F701B696FCA7EBA7C7018A969EA78DA725
:1031D000F701E85AFF4FF8ABEFA76701FAE1CF0E0E
:1031E000D11CC70142969AAB89AB570196E1A90E53
:1031F000B11CF7017E96FCABEBABFCC0C8010E9492
:103200007D128333910509F4CCC07CF481309105A3
:1032100049F124F4892B09F4EDC0DDC08330910518
:1032200049F1069709F0D7C040C08A33910509F4E7
:103230008CC03CF48533910569F0C69709F0CBC08A
:1032400050C08B33910509F496C08F3F910509F06A
:10325000C2C0D0C0C8010E947D12C8010E947D1268
:10326000582EC8C0C8010E947D1244E050E069A9F0
:103270007AA947C0C8010E947D123C0144E050E099
:10328000B501C8010E945E12212C312C7724F4E094
:103290006F1A710806C0C8010E947D128FEF281AAC
:1032A000380A26143704BCF3A5C0C8010E947D1259
:1032B0003C0144E050E06BA97CA9C8010E945E1269
:1032C000212C312C772494E0691A710806C0C801BA
:1032D0000E947D12EFEF2E1A3E0A26143704BCF32B
:1032E00089C0C8010E947D12482EF701828D938DFE
:1032F000A48DB58D892B8A2B8B2B39F444E050E0BB
:10330000B601C8010E945E1275C0EFA5F8A96080E1
:10331000718082809380B601CE0183960E94E10B7A
:103320008DA19EA1AFA1B8A586159705A805B905E1
:1033300029F3212C312C06C0C8010E947D12FFEF19
:103340002F1A3F0A4210F8CF55C0C8010E947D12C3
:1033500044E050E06BA57CA5C8010E945E12F70115
:1033600066A177A180A591A50E94FD2466A377A3FD
:1033700080A791A73FC0C8010E947D1244E050E0A1
:103380006DA57EA5C8010E945E12F70162A573A516
:1033900084A595A50E94FD2462A773A784A795A77D
:1033A00029C0C8010E947D1244E050E069A57AA5B9
:1033B000C8010E945E12F70162A173A184A195A1C8
:1033C0000E94FD2462A373A384A395A366A777A795
:1033D00080AB91AB0FC0C8010E947D12382E612CCA
:1033E000712C06C0C8010E947D12FFEF6F1A7F0A80
:1033F0003610F8CFC8010E941812181619060CF4DE
:10340000FDCE01C0512CC8010E9432121DC05524AE
:103410005A941AC06D817E818F8198850E94FD2407
:103420004B015C01F6016083718382839383B70152
:10343000685F7F4F46E050E0CE014D960E946222C9
:10344000009709F48DCE9FCE852DE4960FB6F894A3
:10345000DEBF0FBECDBFDF91CF911F910F91FF90C7
:10346000EF90DF90CF90BF90AF909F908F907F9024
:103470006F905F904F903F902F900895CF93DF9380
:10348000EC01625F7F4F0E94E10BCE01DF91CF9193
:103490000895CF93DF93EC016E5E7F4F0E94E10BA6
:1034A000CE01DF91CF910895CF93DF93EC016A5E57
:1034B0007F4F0E94E10BCE01DF91CF910895CF9312
:1034C000DF93EC01625E7F4F0E94E10BCE01DF9142
:1034D000CF91089580E3FB0180833296842F8295FB
:1034E0008F7090E1899F401911244A3014F4405D97
:1034F00001C0495C4293482F8111F0CF08956F922B
:103500007F928F929F92AF92BF92CF92DF92EF9273
:10351000FF920F931F93CF93DF93CDB7DEB7AC9796
:103520000FB6F894DEBF0FBECDBF7C01862EB42E41
:10353000A52E30E2932ECC24C394D12CCC0EDD1ECC
:10354000F601292D11922A95E9F70FEF2FEF4FEF92
:103550006FEFCE0187960E94D50B83EA92E09AA383
:1035600089A389A59AA5ABA5BCA58BA39CA3ADA354
:10357000BEA38701095B1F4F43E450E0BE016F5DAE
:103580007F4FC8010E94C112019609F4C1C081E0B9
:1035900089838A8396E0792E7B821C82F70164817D
:1035A0007581868197810E94FD246D837E838F8340
:1035B0009887A986BA8680E890E09C878B874CE143
:1035C00050E0B601C8010E94A712F601292D119200
:1035D0002A95E9F7570188E0A80EB11CF501D6013C
:1035E00001900D927A94E1F740E150E0B601C801F4
:1035F0000E94A712F60111929A94E9F726E0622E32
:10360000712C40E250E0B601C8010E94A712F1E01F
:103610006F1A7108B1F783E6898392E89A8393E57C
:103620009B838C8385E38D8381E08E838F829DE3F2
:10363000988797E099878A8786E0F501DE011B96D7
:1036400001900D928A95E1F78CE0898B8A8B65EE6B
:1036500072E0CE0143960E946F22F7014385BE01BE
:10366000675E7F4FC7010E946A1AF7014485BE0159
:10367000655E7F4FC7010E946A1AF7014585BE014A
:10368000635E7F4FC7010E946A1A4EE150E0B601A7
:10369000C8010E94A712F3E08F121EC082E3898343
:1036A00084E08A83F70196859B8397859C83908924
:1036B0009D8391899E8396E39F838887828D8987E6
:1036C000838D8A87848D8B87858D8C874CE050E035
:1036D000B601C8010E94A71287E3898386E08A8326
:1036E00091E09B8393E09C838D838FE08E838AE3BC
:1036F0008F838BE388878FEF898749E050E0BE0195
:103700006F5F7F4FC8010E94A712C8010E94BD12BF
:10371000AC960FB6F894DEBF0FBECDBFDF91CF9150
:103720001F910F91FF90EF90DF90CF90BF90AF90DF
:103730009F908F907F906F9008952F923F924F921D
:103740005F926F927F928F929F92AF92BF92CF9231
:10375000DF92EF92FF920F931F93CF93DF93CDB73A
:10376000DEB728970FB6F894DEBF0FBECDBF8C0131
:1037700020ED37E040E050E061E070E080E090E074
:103780000E94AC20D80114966C93149715967C93E4
:10379000159716968C93169717969C9317976C937C
:1037A00011967C93119712968C93129713969C9373
:1037B000F801E95BFF4FFE83ED8364E470E0CF0125
:1037C0000E942D13882309F427C10E9477086B01FA
:1037D0007C01812C912C312C5801F6E4AF0EB11CE8
:1037E000C801CE9698878F8338EE432E33E0532E50
:1037F000612C712C42E0242EF9C081111FC0F80108
:1038000084819581A681B7810196A11DB11D848314
:103810009583A683B7830E9477086C197D098E096A
:103820009F09A30192010E94A424A90161E0C8019B
:103830000E947F1A81E0D5018C93BCC08430F1F4E2
:10384000F80184819581A681B7810196A11DB11DE2
:1038500084839583A683B7830E9477086C197D09BA
:103860008E099F09A30192010E94A424A90163E08B
:10387000C8010E947F1AD5012C929CC0813059F555
:10388000EF81F88540815181628173819E012F5FB4
:103890003F4FC8010E945E18382EF2E08F138AC095
:1038A00089819A81AB81BC81F80184839583A68349
:1038B000B7830E9477086C197D098E099F09A301BF
:1038C00092010E94A424A90163E0C8010E947F1A0A
:1038D000D5013C9275C0823009F06CC0EF81F8854B
:1038E00040815181628173819E012F5F3F4FC801EA
:1038F0000E945E18382EF5E08F1356C0E3E0D50124
:10390000EC93F80182A193A1A4A1B5A1892B8A2BE4
:103910008B2B41F484E893E0A0E0B0E082A393A372
:10392000A4A3B5A3F80186A197A1A0A5B1A5892B51
:103930008A2B8B2B61F482A193A1A4A1B5A1B6958A
:10394000A7959795879586A397A3A0A7B1A7D80118
:103950009A964D915D916D917C919D9796968D91E2
:103960009D910D90BC91A02D452B462B472B59F4D2
:10397000AC01BD01440F551F661F771FF80142A718
:1039800053A764A775A7F80186A797A7A0ABB1AB0B
:1039900082A593A5A4A5B5A582AB93ABA4ABB5AB0B
:1039A00088248394912C0CC0F6E08F1303C0D501BA
:1039B0001C9206C0BFEF3B1203C0F5011082312CF0
:1039C000F1E08F16910491F00E9477086C197D093F
:1039D0008E099F09D801DA962D913D914D915C9108
:1039E000DD97261737074807590728F0F50180812A
:1039F000833009F002CF8D819E810E94C912F801A7
:103A000084819581A681B7810196A11DB11D848312
:103A10009583A683B78302C0812C912CC40128967C
:103A20000FB6F894DEBF0FBECDBFDF91CF911F91CF
:103A30000F91FF90EF90DF90CF90BF90AF909F904D
:103A40008F907F906F905F904F903F902F90089550
:103A5000CF92DF92EF92FF920F931F93CF93DF935A
:103A6000EC016B011AA21BA21CA21DA21EA21FA286
:103A700018A619A61AA61BA61CA61DA61EAA1FAA32
:103A800018AE19AE2AAF3BAF4CAF5DAFFC01FE964E
:103A9000E082F182028313838C01085F1F4F86E06E
:103AA000F80111928A95E9F7CE010E94561886E036
:103AB000F601D80101900D928A95E1F7FE01EA5BCB
:103AC000FF4F1082CE01DF91CF911F910F91FF9098
:103AD000EF90DF90CF900C949D1B0F9300E020E0BF
:103AE00040E060E08DE694E00E94D50B0F910895D0
:103AF000FB014281538164817581FC0142835383C0
:103B000064837583178216820895CF93FB01DB01CE
:103B10008D918111FDCF80E090E020E030E0CAE09F
:103B20001BC08F3F910509F064F5DA01A20FB31FA6
:103B300012968C932F5F3F4F80E090E00DC0DC0128
:103B4000CA9FC001CB9F900D1124772767FD709508
:103B500060537109860F971F6191662321F024300D
:103B6000310594F00EC08F3F910509F054F42430D4
:103B700031053CF4FA01E20FF31F828321E030E0CB
:103B800006C020E030E003C06E32C9F6CACFC901DA
:103B9000CF910895AF92BF92CF92DF92EF92FF92B2
:103BA0000F931F93CF93DF9300D01F92CDB7DEB753
:103BB0007C015B010E947708F701778366838701A8
:103BC000085F1F4FB7016A5F7F4F42E050E0C801B6
:103BD0000E94A71281E090E09A83898342E050E03E
:103BE000BE016F5F7F4FC8010E94A71280E091E085
:103BF0009A83898342E050E0BE016F5F7F4FC80126
:103C00000E94A7121A82198242E050E0BE016F5F43
:103C10007F4FC8010E94A71242E050E0BE016F5FD3
:103C20007F4FC8010E94A71242E050E0BE016F5FC3
:103C30007F4FC8010E94A7127501650121C0F601DE
:103C40007F018191811107C05701AC18BD081A147A
:103C50001B0424F011C08E3299F7F6CFAB8241E0FD
:103C600050E0BE016D5F7F4FC8010E94A712A50101
:103C7000B601C8010E94A7126701FFEFCF1ADF0A41
:103C8000F70180818111DBCF1B8241E050E0BE0152
:103C90006D5F7F4FC8010E94A712E12CFF24F394AF
:103CA000FA82E98242E050E0BE016F5F7F4FC801B7
:103CB0000E94A712FA82E98242E050E0BE016F5FE3
:103CC0007F4FC8010E94A71281E090E00F900F90F3
:103CD0000F90DF91CF911F910F91FF90EF90DF90A8
:103CE000CF90BF90AF9008954F925F926F927F9266
:103CF0008F929F92AF92BF92CF92DF92EF92FF92FC
:103D00000F931F93CF93DF93CDB7DEB763970FB6B3
:103D1000F894DEBF0FBECDBF7C015B016A010E943B
:103D200077082B013C018701085F1F4F4501A12C3B
:103D3000B12C12C00E947708641975098609970989
:103D400086169706A806B90608F40FC162E370E06C
:103D500080E090E00E94B308C8010E94DE121816AD
:103D6000190644F7F7014281538164817581818D81
:103D7000928DA38DB48D481759076A077B0709F008
:103D8000F7C0858D968DC59709F0F2C0F7C04CE05D
:103D900050E0BE016F5F7F4FC8010E945E128B81B1
:103DA0009C819827892798279A8B898BF7014681D0
:103DB000578129813A814217530711F497FD06C0B4
:103DC000C8010E9432122CEF3FEFDEC08F7092705C
:103DD000892B31F0C8010E9432122BEF3FEFD4C083
:103DE0008F8098849824892498248114910479F5EB
:103DF000C8010E9432122AEF3FEFC6C041E050E0F6
:103E0000BE01635F7F4FC8010E945E128D858111E4
:103E100007C08D858111F2CF0AC0C8010E947D12B2
:103E20008D85982F91509D878111F7CFF2CFC801D2
:103E30000E947D12C8010E947D12C8010E947D125D
:103E4000C8010E947D12FFEFEF1AFF0A02C0E12CA9
:103E5000F12C8D819E81982789279827E816F906ED
:103E600068F2A12CB12C41E050E0BE016D5E7F4FA5
:103E7000C8010E945E128B89982F907C69F4811191
:103E800004C00EC0C8010E947D128B89982F9150EA
:103E90009B8B8111F7CF04C0C8010E947D121B8A41
:103EA0008B898111E0CF42E050E0BE01615F7F4F1E
:103EB000C8010E945E1242E050E0BE01635F7F4F86
:103EC000C8010E945E12C8010E947D12C8010E94B2
:103ED0007D12C8010E947D12C8010E947D1242E03D
:103EE00050E0BE016F5E7F4FC8010E945E128F8559
:103EF00098898115914011F58D859E858115914098
:103F0000E9F489899A898115944031F0C8010E94A9
:103F1000321227EF3FEF38C0B6016E5F7F4F44E0AB
:103F200050E0C8010E945E1221E030E02DC0C801BF
:103F30000E947D122FEFE21AF20A02C0E12CF12C4E
:103F400089899A89982789279827E816F90678F3A6
:103F50008FEFA81AB80AA814B90409F084CFC801D1
:103F60000E94321226EF3FEF0FC02FEF3FEF0CC041
:103F70002EEF3FEF09C02DEF3FEF06C0C8010E94B2
:103F800018120C97C4F303CFC90163960FB6F894C7
:103F9000DEBF0FBECDBFDF91CF911F910F91FF907C
:103FA000EF90DF90CF90BF90AF909F908F907F90D9
:103FB0006F905F904F9008958F929F92AF92BF92B3
:103FC000CF92DF92EF92FF920F931F93CF93DF93E5
:103FD00000D000D000D0CDB7DEB78C015B016A0104
:103FE0000E94851D892B09F051C0F801428153813F
:103FF000648175818091750490917604A091770415
:10400000B0917804481759076A077B0709F442C042
:104010000E9477087801F8E0EF0EF11C6F707727A7
:10402000882799277C5FC7010E942D138130B9F53D
:1040300083EA92E09A838983F80182819381A48143
:10404000B5818B839C83AD83BE8345E350E0BE0185
:104050006F5F7F4FC7010E94C112892B19F4A12CF9
:10406000B12C10C0B501C8010E94CA1D892BB9F33B
:10407000C7010E94BD12892BA9F4F1CFFFEFAF1643
:10408000BF0699F0C7010E94C9121BC0AA24A394BD
:10409000B12C17C02EEFA22EBB24BA9412C0A12CB3
:1040A000B12C0FC093E0892E912CA60168E873E132
:1040B000C8010E94741E5C0121E0821A910811F36C
:1040C000DDCFC50126960FB6F894DEBF0FBECDBF7B
:1040D000DF91CF911F910F91FF90EF90DF90CF90E4
:1040E000BF90AF909F908F9008950F9300E020E0D5
:1040F00040E060E083E794E00E94D50B0F910895C3
:104100000F931F93CF93DF9300D000D0CDB7DEB7CE
:104110009B01AC01611571058105910579F06983F9
:104120003A834B835C830E94512229813A814B81DF
:104130005C810E94C6248B019C0103C000E010E05A
:104140009801B801C9010F900F900F900F90DF9167
:10415000CF911F910F910895CF92DF92EF92FF922E
:104160006B017C01621773078407950764F4CA0129
:10417000B9016C197D098E099F090E948020C60E25
:10418000D71EE81EF91EB601C701FF90EF90DF9021
:10419000CF9008950F931F93CF93DF9382309105B3
:1041A00010F482E090E0E0917B04F0917C0420E048
:1041B00030E0C0E0D0E023C040815181481759076A
:1041C000A8F04817590761F482819381209719F06C
:1041D0009B838A832EC090937C0480937B0429C0A8
:1041E0002115310529F04217530710F0A90102C02B
:1041F000BE01DF0102811381EF019A01F8013097BE
:10420000D9F62115310509F1281B390B2430310568
:1042100090F412968D919C9113976115710521F080
:10422000FB019383828304C090937C0480937B047E
:10423000FD01329644C0FD01E20FF31F819391937B
:10424000225031092D933C933AC02091790430914A
:104250007A04232B41F42091020130910301309321
:104260007A042093790420910001309101012115F5
:10427000310541F42DB73EB740910401509105013D
:10428000241B350BE0917904F0917A04E217F307CF
:10429000A0F42E1B3F0B2817390778F0AC014E5FB6
:1042A0005F4F2417350748F04E0F5F1F50937A0475
:1042B000409379048193919302C0E0E0F0E0CF0154
:1042C000DF91CF911F910F910895EF92FF920F937D
:1042D0001F93CF93DF93009709F48EC0DC011297F0
:1042E00013961C921E921297E0907B04F0907C042F
:1042F000E114F10489F42D913C911197280F391F95
:104300008091790490917A048217930789F5B0938C
:104310007A04A093790470C0E70120E030E001C086
:10432000EA01CA17DB0738F44A815B819E01411517
:104330005105B1F722C0AC0142505109FA01D383B3
:10434000C28300811181BC01600F711F6C177D0752
:1043500061F468817981600F711F6E5F7F4F718397
:1043600060836A817B81738362832115310529F41F
:10437000B0937C04A0937B043FC0F901B383A28374
:10438000E90149915991C40FD51FAC17BD0771F4CC
:10439000DC019E918E91840F951F029691838083FC
:1043A00012968D919C91139793838283A0E0B0E045
:1043B00002C0D7017C01F701828193810097C9F780
:1043C000C701029620813181820F931F20917904C9
:1043D00030917A042817390779F4109729F410924C
:1043E0007C0410927B0404C013961C921E921297B8
:1043F000F0927A04E0927904CDB7DEB7E6E00C944F
:10440000EE248F929F92AF92BF92CF92DF92EF9263
:10441000FF92CF93DF93EC01688179818A819B8140
:10442000611571058105910521F464E279ED8BE553
:1044300097E02DE133EF41E050E00E94C6244901AE
:104440005A019B01AC01A7EAB1E40E9491246B01DF
:104450007C01ACEEB4EFA50194010E949F24C60E2E
:10446000D71EE81EF91EF7FE06C081E0C81AD10863
:10447000E10880E8F80AC882D982EA82FB82E894DF
:10448000F7F8B601C701DF91CF91FF90EF90DF9071
:10449000CF90BF90AF909F908F9008950E9401227F
:1044A000089586E091E00E9401220895609306013C
:1044B0007093070180930801909309010895F8947F
:1044C0000C941625FB01DC0104C08D91019080192C
:1044D00021F441505040C8F7881B990B0895FB0107
:1044E000DC0101900D920020E1F708955058BB27A0
:1044F000AA270ED075C166D130F06BD120F031F40F
:104500009F3F11F41EF45BC10EF4E095E7FB51C12F
:10451000E92F77D180F3BA176207730784079507ED
:1045200018F071F49EF58FC10EF4E0950B2EBA2FA2
:10453000A02D0B01B90190010C01CA01A0011124A9
:10454000FF27591B99F0593F50F4503E68F11A1655
:10455000F040A22F232F342F4427585FF3CF4695E6
:1045600037952795A795F0405395C9F77EF41F1608
:10457000BA0B620B730B840BBAF09150A1F0FF0FD2
:10458000BB1F661F771F881FC2F70EC0BA0F621FBE
:10459000731F841F48F4879577956795B795F795AE
:1045A0009E3F08F0B3CF9395880F08F09927EE0F40
:1045B000979587950895D9D008F481E008950CD097
:1045C0000FC107D140F0FED030F021F45F3F19F069
:1045D000F0C0511139C1F3C014D198F39923C9F334
:1045E0005523B1F3951B550BBB27AA2762177307F9
:1045F000840738F09F5F5F4F220F331F441FAA1FAD
:10460000A9F333D00E2E3AF0E0E830D0915050406C
:10461000E695001CCAF729D0FE2F27D0660F771F1A
:10462000881FBB1F261737074807AB07B0E809F0FC
:10463000BB0B802DBF01FF2793585F4F2AF09E3F91
:10464000510568F0B6C000C15F3FECF3983EDCF363
:10465000869577956795B795F7959F5FC9F7880F0A
:10466000911D9695879597F90895E1E0660F771F5C
:10467000881FBB1F621773078407BA0720F0621BED
:10468000730B840BBA0BEE1F88F7E095089504D0E6
:104690006894B111D9C00895BCD088F09F5790F0AC
:1046A000B92F9927B751A0F0D1F0660F771F881F57
:1046B000991F1AF0BA95C9F712C0B13081F0C3D072
:1046C000B1E00895C0C0672F782F8827B85F39F010
:1046D000B93FCCF3869577956795B395D9F73EF4B6
:1046E00090958095709561957F4F8F4F9F4F08955E
:1046F000E89409C097FB3EF490958095709561957C
:104700007F4F8F4F9F4F9923A9F0F92F96E9BB2731
:104710009395F695879577956795B795F111F8CFAD
:10472000FAF4BB0F11F460FF1BC06F5F7F4F8F4F18
:104730009F4F16C0882311F096E911C0772321F00E
:104740009EE8872F762F05C0662371F096E8862FA6
:1047500070E060E02AF09A95660F771F881FDAF7FD
:10476000880F9695879597F90895990F0008550F2A
:10477000AA0BE0E8FEEF16161706E807F907C0F0E7
:1047800012161306E407F50798F0621B730B840BEF
:10479000950B39F40A2661F0232B242B252B21F4C9
:1047A00008950A2609F4A140A6958FEF811D811D69
:1047B000089597F99F6780E870E060E008959FEFA3
:1047C00080EC089500240A941616170618060906A8
:1047D000089500240A941216130614060506089577
:1047E000092E0394000C11F4882352F0BB0F40F4FF
:1047F000BF2B11F460FF04C06F5F7F4F8F4F9F4F3F
:10480000089557FD9058440F551F59F05F3F71F0C0
:104810004795880F97FB991F61F09F3F79F0879527
:104820000895121613061406551FF2CF4695F1DFB0
:1048300008C0161617061806991FF1CF8695710540
:10484000610508940895E894BB2766277727CB0174
:1048500097F908958ADF08F48FEF08950BD0C0CF41
:10486000B1DF28F0B6DF18F0952309F0A2CFA7CF6B
:104870001124EACFC6DFA0F3959FD1F3950F50E046
:10488000551F629FF001729FBB27F00DB11D639F02
:10489000AA27F00DB11DAA1F649F6627B00DA11DA8
:1048A000661F829F2227B00DA11D621F739FB00D4E
:1048B000A11D621F839FA00D611D221F749F3327BE
:1048C000A00D611D231F849F600D211D822F762F57
:1048D0006A2F11249F5750408AF0E1F088234AF054
:1048E000EE0FFF1FBB1F661F771F881F91505040A0
:1048F000A9F79E3F510570F05CCFA6CF5F3FECF368
:10490000983EDCF3869577956795B795F795E7958B
:104910009F5FC1F7FE2B880F911D9695879597F99C
:1049200008950E940425A59F900DB49F900DA49F0B
:10493000800D911D11240895B7FF0C9491240E94BD
:104940009124821B930B0895A1E21A2EAA1BBB1B74
:10495000FD010DC0AA1FBB1FEE1FFF1FA217B3074B
:10496000E407F50720F0A21BB30BE40BF50B661F61
:10497000771F881F991F1A9469F760957095809525
:1049800090959B01AC01BD01CF010895052E97FBC9
:1049900016F4009407D057FD0DD00E94A42407FC04
:1049A00009D07EF490958095709561957F4F8F4FDB
:1049B0009F4F089550954095309521953F4F4F4F0B
:1049C0005F4F08952A88398848885F846E847D8483
:1049D0008C849B84AA84B984C884DF80EE80FD80A7
:1049E0000C811B81AA81B981CE0FD11D0FB6F8941D
:1049F000DEBF0FBECDBFED01089569279627692759
:104A00007827872778270895A29FB001B39FC00118
:104A1000A39F01D0B29F700D811D1124911D089597
:104A2000EE0FFF1F0590F491E02D0994F894FFCF4D
:104A300000007D04200001000000722E706E642EC4
:104A4000736500DEADBEEFFEED0100040020282AF4
:104A50001A1615353D3F3B20006970206672616E65
:104A600020646863703A290064686370207376611B
:104A700072617220656A2E205361747465722073AE
:104A800074617469736B2069702E00416E736C756C
:104A900074656E2E00474554202F736574737461DE
:104AA000742F74656D702F00486F73743A20722EE6
:104AB000706E642E736500557365722D4167656E67
:104AC000743A2041726475696E6F45746865726EE0
:104AD000657400436F6E6E656374696F6E3A206330
:104AE0006C6F73650053746F70706172206B6C69CA
:104AF000656E742E00474554202F67657473657486
:104B000074696E677320485454502F312E3100530E
:104B1000746172746172207374797270726F6772EB
:104B2000616D206F636820746573746172206566BF
:104B300066656B746C6167656E2070612072656C70
:104B40006165722E2E2E004F4B004B702C204B694E
:104B50002C204B643A20005469643B204F757470DC
:104B600075742028302D323030293B205265663B49
:104B700020523B20543B206C617374496E707574F5
:104B80003B206C6173744572726F723B206C617371
:104B9000744F75747075743B20703B20693B2064C2
:104BA0003B0049503A20003C6C6F673E003C2F6C44
:104BB0006F673E004E79747420616E726F700000F2
:104BC000000000120A1A0CAD09DC09C009000A0035
:104BD000000000900B00000000110E940E890E6E74
:104BE0000E460E270E990FB20E6A0E560F320F3E6A
:104BF0000E000000001C12A71218127D124412327F
:104C0000122D13C912C1127C13BD12DE125E12FDE9
:0C4C1000110412141257495A6E6574000A
:00000001FF
