:100000000C9465000C948D000C948D000C948D0064
:100010000C948D000C948D000C948D000C948D002C
:100020000C948D000C948D000C948D000C948D001C
:100030000C948D000C948D000C948D000C948D000C
:100040000C94E5060C948D000C9401090C943D0968
:100050000C948D000C948D000C948D000C948D00EC
:100060000C948D000C948D0000000007000201002C
:100070000003040600000000000000000102040864
:100080001020408001020408102001020408102002
:10009000040404040404040402020202020203032E
:1000A0000303030300000000250028002B000000CC
:1000B0000000240027002A003D028106F809A40A56
:1000C000980EED0FDB1154165C1911241FBECFEFF3
:1000D000D8E0DEBFCDBF12E0A0E0B1E0EEE5F7E38F
:1000E00002C005900D92A631B107D9F713E0A6E141
:1000F000B2E001C01D92A138B107E1F710E0CAECEF
:10010000D0E004C02297FE010E94A91BC83BD10782
:10011000C9F70E94B30A0C9467190C9400000F935E
:100120001F93FC017183608355834483338322834F
:1001300012861386148615861186108616861783F6
:1001400006831F910F910895FC018081918108958C
:10015000FC01808591850895CB01BA0123E333EF3B
:100160004BE454E40E946A1926E636E64EEF50E46A
:100170000E94D3190E943B1A6A30710524F06B3536
:10018000710524F405C06AE070E002C06AE570E021
:10019000CB010895EF92FF920F931F93CF93DF93BC
:1001A000EC018E810E94C406BC01882777FD8095F2
:1001B000982F0E946E1A2AE038E240EA5BE30E9420
:1001C000221B9B01AC0160E070E080EA90E40E9499
:1001D000D31920E030E040E85FE30E946A1920E094
:1001E00030E44CE156E40E94221B7B018C0120E0AC
:1001F00030E048E454E47F2D912F0E94CF1987FD11
:100200000CC020E030E844ED54E46E2D7F2D802FAB
:10021000912F0E941E1B18161CF481E08E8701C0CE
:100220001E866E2D7F2D802F912FDF91CF911F91F4
:100230000F91FF90EF900895CF93DF93EC010E9410
:10024000CA00AB01BC014A875B876C877D87CE0102
:100250000E94AC0099878887DF91CF910895FC01B7
:1002600086850895AF92CF92EF92FF920F931F93DE
:10027000CF93DF93CDB7DEB72B970FB6F894DEBFE1
:100280000FBECDBF9AE0E2E1F1E0DE0111960190F0
:100290000D929A95E1F781E090E08C0F9D1F680F19
:1002A000791FFB01F080F4FA662760F9822F4B87F3
:1002B0000E942E08F2FA662760F98E2D0E942E0801
:1002C0006F2D61708A2D0E942E08F5FA662760F95D
:1002D0004B85842F0E942E08F3FA662760F9802F41
:1002E0000E942E08F1FA662760F98C2D2B960FB626
:1002F000F894DEBF0FBECDBFDF91CF911F910F915C
:10030000FF90EF90CF90AF900C942E08CF93DF9397
:10031000EC01688179814AE050E084E992E00E9432
:10032000F00B6CE171E084E992E00E94F80A4A85E2
:100330005B856C857D8522E030E084E992E00E9457
:10034000A10C6CE171E084E992E00E94F80A6885F2
:1003500079854AE050E084E992E00E94F00B6CE17C
:1003600071E084E992E0DF91CF910C94F80A6F92EA
:100370007F928F929F92AF92BF92CF92DF92EF9235
:10038000FF920F931F93CF93DF93CDB7DEB769979B
:100390000FB6F894DEBF0FBECDBF6C017B015A01D2
:1003A000390183ED882E81E0982EF60194828382B4
:1003B000FA0182819381A481B581F60185839683B8
:1003C000A783B08792868186F90182819381A48177
:1003D000B581F60183879487A587B687C6014196C4
:1003E0000E94A50DF601F282E182108B0787108230
:1003F000CE0101960E94A50D9F868E86F301828113
:100400009381A481B581888B998BAA8BBB8B9D8AA4
:100410008C8AF50182819381A481B5818E8B9F8B1B
:10042000A88FB98F9E01225F3F4FAE014C5E5F4F98
:10043000B70187E493E00E94740F69960FB6F894B1
:10044000DEBF0FBECDBFDF91CF911F910F91FF9007
:10045000EF90DF90CF90BF90AF909F908F907F9064
:100460006F900895CF93DF93EC0167E473E00E94EF
:10047000CB0FCE01DF91CF9108950F9300E020E0E4
:1004800040E060E086E192E00E948D0A0F910895BD
:10049000CF92DF92EF92FF920F931F93CF93DF9350
:1004A000EC01488359836A837B830C831D832E83ED
:1004B0003F83C886D986EA86FB860E942F076CA3F5
:1004C0007DA38EA39FA3DF91CF911F910F91FF90EA
:1004D000EF90DF90CF900895CF93DF93EC01CB01A5
:1004E000BA010E943B1A7FA76EA7DF91CF910895B2
:1004F000CF93DF93EC01CB01BA010E943B1A7DA799
:100500006CA7DF91CF910895FC0166A577A5882798
:1005100077FD8095982F0E946E1A0895FC0164A5BE
:1005200075A5882777FD8095982F0E946E1A0895EB
:100530002F923F924F925F926F927F928F929F92F3
:10054000AF92BF92CF92DF92EF92FF920F931F93E1
:10055000CF93DF93CDB7DEB764970FB6F894DEBFC5
:100560000FBECDBF9C8B8B8B6A017B0128013901AB
:100570000E942F074B015C01EB89FC8984A195A1A6
:10058000A6A1B7A1A5019401281B390B4A0B5B0B4F
:10059000DA01C90180369A4EA105B10548F440A19F
:1005A000498351A15A8382A18B8393A19C833BC130
:1005B000A7019601C301B2010E946A196D837E836F
:1005C0008F839887AB89BC8998962D913D914D91E9
:1005D0005C919B970E946B191B018C01862F932DB8
:1005E000A02FB12FEB89FC8980A791A7A2A7B3A761
:1005F00066A577A5882777FD8095982F0E946E1AAB
:1006000069877A878B879C8769837A838B839C83AE
:10061000762F6A85982F8C85272F362F492F582FB4
:10062000622D732D802F912F0E941E1B18167CF4B3
:1006300059854A853B852C85852F942FA32FB22F72
:10064000EB89FC8980A791A7A2A7B3A71EC0AB899D
:10065000BC899C966D917C919D97882777FD8095AC
:10066000982F0E946E1A2B013C019B01AC01622D58
:10067000732D802F912F0E94CF1987FF06C0EB8921
:10068000FC8940A651A662A673A6AB89BC89989640
:100690002D913D914D915C919B972D873E874F8782
:1006A000588B5C962D913D914D915C915F97C70160
:1006B000B6010E946A19362E272E898B9A8BEB89F8
:1006C000FC892081318142815381BD81AE811F81AE
:1006D00008856B2F7A2F812F902F0E94221B2B01D0
:1006E0003C01AB89BC8914962D913D914D915C9153
:1006F00017976D857E858F8598890E94221B9B01A7
:10070000AC01C301B2010E946B192B013C01EB89C2
:10071000FC892085318542855385D10119890A8953
:100720006B2F7A2F812F902F0E94221B9B01AC01EF
:10073000C301B2010E946A193B018C0179856A8567
:100740009B858C85272F362F492F582F662D772D87
:10075000802F912F0E941E1B181624F1AB89BC8993
:100760009C966D917C919D97882777FD8095982F19
:100770000E946E1A69837A838B839C83762F6A81A9
:10078000982F8C81272F362F492F582F662D772DA4
:10079000802F912F0E94CF1987FD04C069827A8231
:1007A0000B831C83EB89FC89C48ED58EE68EF78E75
:1007B0005D814E813F812885852F942FA32FB22FF5
:1007C000808F918FA28FB38F59814A813B812C8179
:1007D000852F942FA32FB22F80A391A3A2A3B3A3FD
:1007E0005D814E813F812885852F942FA32FB22FC5
:1007F00080AB91ABA2ABB3AB2D853E854F855889BD
:1008000024AB35AB46AB57ABA10139892A89852F7B
:10081000922DA32FB22F80AF91AFA2AFB3AF84A21E
:1008200095A2A6A2B7A259814A813B812C81652F4E
:10083000742F832F922F64960FB6F894DEBF0FBEED
:10084000CDBFDF91CF911F910F91FF90EF90DF907F
:10085000CF90BF90AF909F908F907F906F905F9060
:100860004F903F902F900895FC0164A175A186A13F
:1008700097A10895CF93DF93EC014C8D5D8D6E8D24
:100880007F8D22E030E084E992E00E94A10C6CE1CF
:1008900071E084E992E00E94F80A488D598D6A8DD2
:1008A0007B8D22E030E084E992E00E94A10C6CE1B3
:1008B00071E084E992E00E94F80A48A159A16AA176
:1008C0007BA122E030E084E992E00E94A10C6CE17F
:1008D00071E084E992E00E94F80A48A959A96AA93E
:1008E0007BA922E030E084E992E00E94A10C6CE157
:1008F00071E084E992E00E94F80A4CA95DA96EA912
:100900007FA922E030E084E992E00E94A10C6CE132
:1009100071E084E992E00E94F80A48AD59AD6AADF1
:100920007BAD22E030E084E992E00E94A10C6CE112
:1009300071E084E992E0DF91CF910C94F80A8F92F4
:100940009F92AF92BF92CF92DF92EF92FF920F935E
:100950001F93CF93DF93CDB7DEB7E0970FB6F89430
:10096000DEBF0FBECDBF61E082E00E94F60761E00E
:1009700083E00E94F60761E084E00E94F60761E0F0
:1009800085E00E94F60761E086E00E94F60761E0DC
:1009900087E00E94F60761E08DE00E94F60761E0C3
:1009A0008CE00E94F60740E050E0BA0188E292E055
:1009B0000E94780240E050E068E473E488E292E04C
:1009C0000E946C0240E855E260E070E084E992E049
:1009D0000E9478096FE171E084E992E00E94F80AD0
:1009E00088248394912C83E0A82EB12C92E0C92E08
:1009F000D12C25E0E22EF12C04E010E027E030E0DD
:100A000046E050E0B40184E692E00E9432016EEECE
:100A100072E080E090E00E946B078FEF881A980ADE
:100A20008BE088169104F9F667E571E084E992E0BD
:100A30000E94210B6AE571E084E992E00E94F80AC5
:100A400022E030E040E050E060E470E484E992E0CD
:100A50000E94A10C22E030E04DEC5CEC6CE47FE302
:100A600084E992E00E94A10C22E030E040E050E0F6
:100A700060E87FE384E992E00E94A10C84E992E0BF
:100A80000E940B0B67E671E084E992E00E94F80A8D
:100A900084E992E00E940B0B23ED31E03EA32DA3ED
:100AA00080911E0290911F02A0912002B09121021C
:100AB0008FA398A7A9A7BAA73CA72BA78091240228
:100AC00090912502A0912602B09127028DA79EA7A2
:100AD000AFA7B8AB00E011E09E012B5D3F4FAE0128
:100AE000455D5F4F69E071E0CE0101960E94B7015C
:100AF000BE016F5F7F4FCE014F960E943202BE0152
:100B0000615E7F4F84E992E00E94010B84E992E0EC
:100B10000E940B0BE0960FB6F894DEBF0FBECDBF60
:100B2000DF91CF911F910F91FF90EF90DF90CF90C9
:100B3000BF90AF909F908F9008954F925F926F9269
:100B40007F928F929F92AF92BF92CF92DF92EF925D
:100B5000FF920F931F93CF93DF9300D000D0CDB7B8
:100B6000DEB784E692E00E941C0184E692E00E94D7
:100B7000A8005C0184E692E00E94A400BC018827E2
:100B800077FD8095982F0E946E1A6B017C01B5014C
:100B9000882777FD8095982F0E946E1AAB01BC01C3
:100BA0009701860188E292E00E9498022B013C01A5
:100BB00088E292E00E9484024B015C0188E292E0AC
:100BC0000E948E0269837A838B839C8320E030E0CD
:100BD00040E251E4C301B2010E946B196B017C0138
:100BE00029813A814B815C81C501B4010E946A1957
:100BF0009B01AC0160E070E080E191E40E94D319B8
:100C00009B01AC01C701B6010E94221B0E943B1A46
:100C100043E0A42EB12C52E0C52ED12CE5E0EE2EFF
:100C2000F12C04E010E027E030E046E050E084E6FC
:100C300092E00E94320162EB71E084E992E00E944E
:100C4000F80A88E292E00E943404AB01BC012AE079
:100C500030E084E992E00E94910B6CE171E084E95C
:100C600092E00E94F80A22E030E0B301A20184E998
:100C700092E00E94A10C6CE171E084E992E00E9494
:100C8000F80A84E692E00E94860188E292E00E94DF
:100C90003A0468EB71E084E992E00E94F80A84E982
:100CA00092E00E940B0B84E692E00E942F018823C1
:100CB00031F061E08DE00E942E0860E005C060E048
:100CC0008DE00E942E0861E08CE00E942E0860E119
:100CD00077E280E090E00F900F900F900F90DF91FF
:100CE000CF911F910F91FF90EF90DF90CF90BF9029
:100CF000AF909F908F907F906F905F904F900C94EB
:100D00006B07CF92DF92EF92FF920F931F9300E059
:100D100020E040E060E085E892E00E948D0A0EE06D
:100D200010E02DE030E04CE050E06CE370E084E651
:100D300092E00E948F00C12CD12CF0E8EF2EFFE34F
:100D4000FF2E0DEC1CEC2CE43FE340E050E060E4AF
:100D500070E488E292E00E94480207EA20E048EA54
:100D600060EC82E292E00E948D0A01E022E048EA13
:100D700060EC8CE192E00E948D0A1F910F91FF9030
:100D8000EF90DF90CF9008958E3008F08E508770EE
:100D900020910F0140E4249F90011124822B809325
:100DA0007C0080917A00806480937A0080917A0040
:100DB00086FDFCCF2091780030917900932F80E060
:100DC000AC01422B9A01C90108951F920F920FB6F0
:100DD0000F9211242F933F938F939F93AF93BF93C1
:100DE00080918B0290918C02A0918D02B0918E0225
:100DF00030919302232F2D5F2D3720F40196A11DF2
:100E0000B11D05C0232F2A570296A11DB11D2093A5
:100E1000930280938B0290938C02A0938D02B093E7
:100E20008E0280918F0290919002A0919102B091D8
:100E300092020196A11DB11D80938F0290939002A2
:100E4000A0939102B0939202BF91AF919F918F9125
:100E50003F912F910F900FBE0F901F9018950F93F9
:100E60001F938FB7F89400918B0210918C02209100
:100E70008D0230918E028FBFB801C9011F910F9171
:100E800008950F931F939FB7F89400918F021091CC
:100E90009002209191023091920286B5A89B06C0E3
:100EA0008F3F21F00F5F1F4F2F4F3F4F9FBF322FBC
:100EB000212F102F0027080F111D211D311D42E089
:100EC000000F111F221F331F4A95D1F7B801C90126
:100ED0001F910F910895CF92DF92EF92FF92CF93DF
:100EE000DF936B017C010E944107EB010EC00E9461
:100EF00041076C1B7D0B683E734038F081E0C81AD7
:100F0000D108E108F108C851DC4FC114D104E10453
:100F1000F10469F7DF91CF91FF90EF90DF90CF90D0
:100F20000895789484B5826084BD84B5816084BD61
:100F300085B5826085BD85B5816085BDEEE6F0E052
:100F4000808181608083E1E8F0E0108280818260AE
:100F50008083808181608083E0E8F0E0808181602F
:100F60008083E1EBF0E0808184608083E0EBF0E05F
:100F7000808181608083EAE7F0E080818460808303
:100F800080818260808380818160808380818068AD
:100F900080831092C1000895833069F028F4813075
:100FA000A1F0823011F514C08630B1F08730C1F065
:100FB0008430D9F404C0809180008F7703C0809181
:100FC00080008F7D80938000089584B58F7702C064
:100FD00084B58F7D84BD08958091B0008F7703C064
:100FE0008091B0008F7D8093B0000895CF93DF9300
:100FF00090E0FC01E458FF4F4491FC01E057FF4FA3
:101000008491882341F190E0880F991FFC01E255FB
:10101000FF4F25913491D9018C559F4FFC0185914B
:101020009491C82FD92F9FB7F8948C91611106C065
:10103000409584238C938881842308C0623041F4D6
:10104000242F209582238C938881842B888302C04F
:10105000842B8C939FBFDF91CF9108950F931F93A3
:10106000CF93DF931F92CDB7DEB7282F30E0F90181
:10107000E859FF4F8491F901E458FF4F1491F901A9
:10108000E057FF4F04910023D1F0882321F06983BA
:101090000E94CC076981E02FF0E0EE0FFF1FEC55B6
:1010A000FF4F85919491DC019FB7F8948C91611169
:1010B00003C01095812301C0812B8C939FBF0F909B
:1010C000DF91CF911F910F910895FC018485958543
:1010D000FC01E05CFF4F20813181FC01EE5BFF4FA2
:1010E00080819181281B390B2F733327C901089503
:1010F000FC0184859585FC01E05CFF4F40815181B6
:10110000FC01EE5BFF4F208131814217530741F014
:101110000190F081E02DE80FF91F208130E002C03E
:101120002FEF3FEFC9010895FC0184859585FC01EF
:10113000E05CFF4F40815181FC01EE5BFF4F20815D
:1011400031814217530781F0A081B181A80FB91FE7
:101150008C91208131812F5F3F4F2F733327318353
:101160002083282F30E002C02FEF3FEFC901089500
:10117000FC0186859785FC01E05CFF4FDC01AE5BDE
:10118000BF4F408151812D913C91119742175307D8
:10119000C1F70895CF93DF93FC0186859785DC0125
:1011A000A05CBF4F2D913C9111972F5F3F4F2F7344
:1011B0003327EC01CE5BDF4F488159812417350777
:1011C000D9F30D90BC91A02DA80FB91F6C93A685E3
:1011D000B785A05CBF4F11963C932E93A689B78923
:1011E0002C9181E090E0058C02C0880F991F0A9431
:1011F000E2F7282B2C9381E090E0DF91CF910895C6
:1012000008951F920F920FB60F9211242F933F93C0
:101210004F938F939F93EF93FF934091C6008091DC
:1012200037039091380301968F73992720913903E2
:1012300030913A038217930759F0E0913703F09108
:101240003803E950FD4F4083909338038093370370
:10125000FF91EF919F918F914F913F912F910F901F
:101260000FBE0F901F90189584E992E00E946508C8
:10127000892B11F00C94000908951F920F920FB65C
:101280000F9211242F933F938F939F93EF93FF938C
:101290002091F3023091F4028091F5029091F602D0
:1012A0002817390731F48091C1008F7D8093C100E8
:1012B00014C0E091F502F091F602ED54FD4F20814B
:1012C0008091F5029091F60201968F739927909381
:1012D000F6028093F5022093C600FF91EF919F9153
:1012E0008F913F912F910F900FBE0F901F901895E7
:1012F000CF92DF92EF92FF92CF93DF93EC016A01DE
:101300007B01411581EE580761057105F9F0EC8903
:10131000FD8981E090E00E8C02C0880F991F0A942D
:10132000E2F7808360E079E08DE390E0A701960129
:101330000E94851B21503109410951095695479555
:1013400037952795211580E1380798F0EC89FD89BC
:10135000108260E874E88EE190E0A70196010E9497
:10136000851B2150310941095109569547953795FB
:101370002795E889F9893083EA89FB892083EE89FA
:10138000FF89408181E090E09C010A8C02C0220F1D
:10139000331F0A94E2F7422B4083EE89FF89408194
:1013A0009C010B8C02C0220F331F0A94E2F7422BE0
:1013B0004083EE89FF8940819C010C8C02C0220F82
:1013C000331F0A94E2F7422B4083EE89FF89208184
:1013D0000D8C02C0880F991F0A94E2F78095822332
:1013E0008083DF91CF91FF90EF90DF90CF900895B1
:1013F000109297021092960288EE93E0A0E0B0E07F
:101400008093980290939902A0939A02B0939B02C2
:1014100083EC91E0909395028093940287EF92E0A1
:101420009093A1028093A00283EB92E09093A30299
:101430008093A20285EC90E09093A5028093A40291
:1014400084EC90E09093A7028093A60280EC90E059
:101450009093A9028093A80281EC90E09093AB0254
:101460008093AA0286EC90E09093AD028093AC0248
:1014700084E08093AE0283E08093AF0287E08093A4
:10148000B00285E08093B10281E08093B2020895BA
:10149000AF92BF92CF92DF92EF92FF920F931F9382
:1014A000CF93DF936C017B01C0E0D0E000E010E05F
:1014B000F601EC0FFD1F4AE050E06281C7010E9477
:1014C0009E0B5C016EE2C7010E94FA0A8A0D9B1D09
:1014D000080F191F2196C330D10551F74AE050E09B
:1014E000F6016581C7010E949E0B080F191FC801F4
:1014F000DF91CF911F910F91FF90EF90DF90CF90F0
:10150000BF90AF90089523ED31E0FC01318320833B
:10151000128213821482158208950F93FC0183EDC9
:1015200091E09183808362834383248305830F91B9
:101530000895FC01DB014D915D916D917C91428399
:10154000538364837583089583ED91E090933C0306
:1015500080933B0310923D0310923E0310923F0391
:101560001092400308950E9491070E949F04C4E3D3
:10157000D9E00E949D052097E1F30E943409F9CF3C
:10158000CF92DF92EF92FF920F931F93CF93DF934F
:101590006C01EB017A01E60EF71E00E010E00BC0D3
:1015A0006991D601ED91FC910190F081E02DC60189
:1015B0000995080F191FCE15DF0591F7C801DF91B6
:1015C000CF911F910F91FF90EF90DF90CF900895F2
:1015D000DB010D900020E9F7AD0141505109461B98
:1015E000570BDC01ED91FC910280F381E02D099411
:1015F0000C94E80ADC01ED91FC910190F081E02D62
:101600000994DB01ED91FC9111970190F081E02D9F
:10161000BC01CD0109940F931F93CF93DF93EC018D
:101620006DE00E94FA0A8C016AE0CE010E94FA0A7B
:101630009C01200F311FC901DF91CF911F910F91A4
:1016400008950F931F93CF93DF93EC010E94E80A54
:101650008C01CE010E940B0B9801280F391FC90184
:10166000DF91CF911F910F9108954F925F926F92EA
:101670007F929F92AF92BF92CF92DF92EF92FF92B2
:101680000F931F93CF93DF93CDB7DEB7A1970FB61C
:10169000F894DEBF0FBECDBF5C016A017B01922EC4
:1016A00019A281E0821710F08AE0982E8E010F5D5A
:1016B0001F4F492C512C612C712CC701B601A3017D
:1016C00092010E94851B8C2D929E8019112401503D
:1016D00011098A3014F4805D01C0895CF8018083AF
:1016E00069017A01C114D104E104F10431F7B801B0
:1016F000C5010E94E80AA1960FB6F894DEBF0FBE9E
:10170000CDBFDF91CF911F910F91FF90EF90DF90B0
:10171000CF90BF90AF909F907F906F905F904F90D1
:1017200008952115310541F4DC01ED91FC91019002
:10173000F081E02D642F09940C94350B9A01462F0B
:1017400050E060E070E00C94910BCF92DF92EF924A
:10175000FF920F931F93CF93DF93EC016A017B01FC
:101760002115310579F4E881F9810190F081E02DAE
:10177000642FDF91CF911F910F91FF90EF90DF9039
:10178000CF9009942A30310519F477FD0EC02AE074
:10179000B701A601CE01DF91CF911F910F91FF906C
:1017A000EF90DF90CF900C94350B6DE20E94FA0A17
:1017B0008C0144275527BA014C195D096E097F0930
:1017C0002AE0CE010E94350B080F191FC801DF91D6
:1017D000CF911F910F91FF90EF90DF90CF900895E0
:1017E0009A01AB01662757FD6095762F0C94A50BE7
:1017F0007F928F929F92AF92BF92CF92DF92EF92A1
:10180000FF920F931F93CF93DF938C014A015B01EB
:10181000F22E20E030E0A901C501B4010E94CF19E9
:1018200087FF0AC06DE2C8010E94FA0AEC01B7FA0C
:10183000B094B7F8B09402C0C0E0D0E0E12C60E012
:1018400070E080E09FE307C020E030E040E251E438
:101850000E94D319E394EF10F7CF262F372F482F8C
:10186000592FC501B4010E946B19762E872E982E30
:10187000A92E0E94401AB62EC72ED82EE92E0E94FD
:101880006C1A9B01AC01672D782D892D9A2D0E9431
:101890006A19A62E972E882E792E2AE04B2D5C2DC4
:1018A0006D2D7E2DC8010E94350BC80FD91FFF205A
:1018B000B9F165E571E0C8010E94E80AC80FD91FB7
:1018C0002FC020E030E040E251E46A2D792D882DD0
:1018D000972D0E94221B762EC72ED82EE92E0E940D
:1018E0003B1A4B01AA2497FCA094BA2C2AE030E0C2
:1018F000B501A401C8010E94A50BC80FD91FC501DD
:10190000B4010E946E1A9B01AC01672D7C2D8D2DB8
:101910009E2D0E946A19A62E972E882E792EFA9453
:10192000F110CFCFCE01DF91CF911F910F91FF909A
:10193000EF90DF90CF90BF90AF909F908F907F906F
:1019400008950C94F80BCF93DF931F92CDB7DEB7B9
:101950006983DC01ED91FC910280F381E02D41E08F
:1019600050E0BE016F5F7F4F09950F90DF91CF91DF
:101970000895CF93DF93EC0107C0E881F9810680D9
:10198000F781E02DCE010995E881F9810480F58188
:10199000E02DCE010995892B81F7DF91CF91089534
:1019A00021E0FC018485843009F420E0822F089531
:1019B0000F931F93CF93DF931F92CDB7DEB78C01A8
:1019C000DC01ED91FC910480F581E02D0995892BD6
:1019D00051F0BE016F5F7F4FF80184850E944D1367
:1019E000298130E002C02FEF3FEFC9010F90DF9156
:1019F000CF911F910F910895FC0184850C940E13D3
:101A0000CF93DF931F92CDB7DEB741E050E0BE0128
:101A10006F5F7F4FFC0184850E940E131816190614
:101A20001CF4298130E002C02FEF3FEFC9010F9075
:101A3000DF91CF910895FC016485643021F085E643
:101A400093E00C94211580E090E008950F931F938C
:101A5000CF93DF938C01EA01FC018485843019F473
:101A600081E090E007C00E94BB12892B39F481E02D
:101A700090E0F80193838283C0E0D0E0CE01DF9153
:101A8000CF911F910F910895CF92DF92EF92FF9225
:101A90000F931F93CF93DF93CDB7DEB7E5970FB6C4
:101AA000F894DEBF0FBECDBF7C018B016A01CE0171
:101AB00001960E94830ACE0109960E946511CE010B
:101AC000C0960E94830A67E473E0CE018A960E9462
:101AD000DD0FBE01665D7F4FCE0101960E945F164D
:101AE000AE01405D5F4FB801CE0101960E94C31860
:101AF0009C0181309105C9F4D701ED91FC910484DA
:101B0000F585E02D83ED91E09DA38CA30AA91BA987
:101B10002CA93DA90EA31FA328A739A7A601BE0182
:101B20006C5D7F4FC70109959C01C901E5960FB611
:101B3000F894DEBF0FBECDBFDF91CF911F910F9103
:101B4000FF90EF90DF90CF900895FC0113821282F6
:101B500048EE53E060E070E044835583668377830A
:101B600089ED91E09183808384E084870895FC016E
:101B70008485843039F0382F20E0C9018D5F9B4F78
:101B80000C94741480E00895CF93DF93EC018C855E
:101B90008430D1F0CE010E94B70D843181F08823CA
:101BA00071F0883161F08C3161F4E881F981048051
:101BB000F581E02DCE01099521E0892B19F420E073
:101BC00001C021E0822F01C080E0DF91CF91089514
:101BD000CF92DF92EF92FF92CF93DF93EC018C854F
:101BE000843091F10E94B4120E942F076B017C0196
:101BF000CE010E94B70D8823D1F00E942F076C19E7
:101C00007D098E099F09683E734081059105A8F002
:101C10000EC08C850E943012EC85F0E0EE0FFF1FA5
:101C2000E15BFC4F1182108284E08C870DC0CE01F5
:101C30000E94B70D882381F3ECCF61E070E080E073
:101C400090E00E946B07D4CFDF91CF91FF90EF908F
:101C5000DF90CF900895AF92BF92CF92DF92EF9234
:101C6000FF920F931F93CF93DF93EC015B016A0107
:101C70008C85843009F04EC093E0E92E94E0F92E73
:101C800000E010E0C7010E947414811102C00C87AB
:101C90000AC08831E1F38C31D1F30F5F1F4FF39409
:101CA0000430110579F78C858430A1F12091100161
:101CB000309111012F5F3F4F09F002C020E034E066
:101CC00030931101209310014091100150911101A6
:101CD00020E061E00E943E12B5016E5F7F4FA601D9
:101CE0008C850E947E1209C061E070E080E090E087
:101CF0000E946B07CE010E94B70D811103C084E0E2
:101D00008C8708C0CE010E94B70D873169F721E0AA
:101D100030E002C020E030E0C901DF91CF911F9197
:101D20000F91FF90EF90DF90CF90BF90AF9008950C
:101D30000F9300E020E040E060E081E493E00E9447
:101D40008D0A0F91089544E050E0BC0181E090E0DD
:101D50000C94451444E050E0BC0185E090E00C9404
:101D6000451444E050E0BC018FE090E00C94451431
:101D70008F929F92AF92BF92CF92DF92EF92FF929B
:101D80000F931F93CF93DF9300D0CDB7DEB74C01F5
:101D90006A01590185E693E069837A830E940714FA
:101DA00046E050E069817A8189E090E00E94451424
:101DB000C60102960E94B10EC80102960E94A30EAF
:101DC000C70102960E94AA0EF501428153816481E7
:101DD0007581F40142835383648375830F900F9060
:101DE000DF91CF911F910F91FF90EF90DF90CF90F7
:101DF000BF90AF909F908F9008956F927F928F9237
:101E00009F92AF92BF92CF92DF92EF92FF920F9389
:101E10001F93CF93DF93CDB7DEB76E970FB6F894CD
:101E2000DEBF0FBECDBF6C015B017A0149013801F5
:101E300000E02FEF4FEF6FEFCE0149960E948D0A21
:101E400043ED51E05A8349838B8D9C8DAD8DBE8DC2
:101E50008B839C83AD83BE8358874F83F30182813C
:101E60009381A481B58189879A87AB87BC875E8778
:101E70004D87F40182819381A481B5818F87988BEE
:101E8000A98BBA8B5C8B4B8BF701428153816481A8
:101E900075814D8B5E8B6F8B788FEE24E394F12CE4
:101EA000EC0EFD1E8E01095F1F4F9E01235F3F4F09
:101EB000AE014D5E5F4FB501C6010E94B80E6E9631
:101EC0000FB6F894DEBF0FBECDBFDF91CF911F914B
:101ED0000F91FF90EF90DF90CF90BF90AF909F90C9
:101EE0008F907F906F900895CF92DF92EF92FF9244
:101EF0000F931F93CF93DF93CDB7DEB768970FB6DD
:101F0000F894DEBF0FBECDBF6B017901DA011296E6
:101F10004D915D916D917C9115974D8B5E8B6F8B83
:101F2000788FA3EDB1E0BA83A98321E0288F0D89D2
:101F30001E892F89388D0B831C832D833E83B887A0
:101F4000AF83F701028113812481358109871A87C4
:101F50002B873C87BE87AD874F87588B698B7A8BE1
:101F60008E010F5F1F4F9E01295F3F4FAE01435F00
:101F70005F4FB6010E94FD0E68960FB6F894DEBF63
:101F80000FBECDBFDF91CF911F910F91FF90EF90CA
:101F9000DF90CF900895CF93DF93EC010E94830AE6
:101FA000BE016E5F7F4F44E050E08FE090E00E9402
:101FB0006D15CE01DF91CF91089523ED31E0FC0145
:101FC00031832083FB014281538164817581FC014F
:101FD000428353836483758308950F9300E020E068
:101FE00040E060E087E593E00E948D0A87E493E09B
:101FF0000F910C94830ADC01ED91FC91008CF18D22
:10200000E02D099423ED31E0FC0131832083FB01B5
:102010004189528963897489FC01428353836483B3
:1020200075830895FC01858996890895FC01818D49
:10203000928D0895CF93DF931F92CDB7DEB769835A
:10204000DC01ED91FC910280F381E02D41E050E054
:10205000BE016F5F7F4F09950F90DF91CF9108957B
:10206000CF93DF93EC0107C0E881F9810680F78107
:10207000E02DCE010995898D9A8D892BA9F7DF91E5
:10208000CF910895CF93DF931F92CDB7DEB7FC01B8
:10209000218D328D232B49F0BE016F5F7F4F8485E8
:1020A0000E944D13298130E002C02FEF3FEFC9019C
:1020B0000F90DF91CF910895CF93DF93EC01898D3D
:1020C0009A8D009719F42FEF3FEF11C04817590769
:1020D00008F0AC018C850E940E139C01181619069D
:1020E00094F7898D9A8D821B930B9A8F898FC901E2
:1020F000DF91CF9108950F931F93CF93DF931F929A
:10210000CDB7DEB78C01FC01818D928D892B59F002
:1021100041E050E0BE016F5F7F4F84850E940E1347
:10212000181619061CF02FEF3FEF08C0F801818D3B
:10213000928D0197928F818F298130E0C9010F9094
:10214000DF91CF911F910F910895CF93DF93EC0111
:102150009A018F89988DAB01BC018C850E945B131D
:102160009C018F89988D820F931F988F8F8BC90147
:10217000DF91CF910895FC0184850C94B713FC0185
:10218000108E178A6E5F7F4F84850C949113CF93C6
:10219000DF93EC018C85843061F00E943012EC8575
:1021A000F0E0EE0FFF1FE15BFC4F1182108284E034
:1021B0008C87DF91CF9108950F931F93CF93DF9377
:1021C000CDB7DEB728970FB6F894DEBF0FBECDBFF0
:1021D0008C01DC01ED91FC910284F385E02D0995E1
:1021E000F801648585E693E00E942115892B29F189
:1021F00048E050E0BE016F5F7F4FD8011C968C9184
:102200000E940E139C0118161906CCF4BE016F5FD4
:102210007F4FC8010F960E94990A9D8180E02E8110
:10222000820F911DF801968B858B3F8120E0888578
:10223000280F311D328F218F02C020E030E0C9010C
:1022400028960FB6F894DEBF0FBECDBFDF91CF91B9
:102250001F910F910895CF92DF92EF92FF920F930B
:102260001F93CF93DF93EC016B018C85843019F5BC
:1022700093E0E92E94E0F92E00E010E0C7010E94FF
:102280007414811102C00C8708C08831E1F30F5F1C
:102290001F4FF3940430110589F78C85843059F071
:1022A000DE86CD861A8E198E20E0A60162E00E949D
:1022B0003E1281E001C080E0DF91CF911F910F912C
:1022C000FF90EF90DF90CF900895FC01138212826F
:1022D00048EE53E060E070E0448355836683778383
:1022E00085EF91E09183808384E08487CF010F960E
:1022F0000C94830ACF92DF92EF92FF920F931F9379
:10230000CF93DF93CDB7DEB7E5970FB6F894DEBF76
:102310000FBECDBF7C018B016A01CE0101960E94E8
:10232000830ACE0109960E946511CE01C0960E94D3
:10233000830A67E473E0CE018A960E94DD0FBE0136
:10234000665D7F4FCE0101960E945F16AE01405D33
:102350005F4FB801CE0101960E94C3189C018130E5
:102360009105C9F4D701ED91FC910088F189E02D28
:1023700083ED91E09DA38CA30AA91BA92CA93DA9DB
:102380000EA31FA328A739A7A601BE016C5D7F4F2E
:10239000C70109959C01C901E5960FB6F894DEBF07
:1023A0000FBECDBFDF91CF911F910F91FF90EF90A6
:1023B000DF90CF9008950F9300E020E040E060E0D0
:1023C0008DE593E00E948D0A0F910895382F20E04B
:1023D00044E050E0C901845F9B4F0C944514282FC2
:1023E00030E02C5F3F4F922F8827860F971F0C9469
:1023F000741462E070E00C94EF11FB01282F30E0C0
:102400002C5F3F4F922F8827642F8E0F9F1F0C94B5
:10241000E513462F62E070E00C94FD11CF93DF933B
:10242000C82FD62F472F60E170E00E94FD114D2F7D
:1024300061E170E08C2FDF91CF910C94FD11CF936F
:10244000DF93C82FD62F472F64E070E00E94FD1164
:102450004D2F65E070E08C2FDF91CF910C94FD1132
:10246000CF93C82F40E150E0682F85E693E00E94AB
:1024700025166FEF8C2FCF910C940912EF92FF92DB
:102480001F93CF93DF9300D0CDB7DEB7182F7A011B
:10249000862F8150853048F5812F2A8369830E94D9
:1024A00030122A816981422F462B60E070E0812F33
:1024B0000E94FD11E114F10411F0B7010AC060910E
:1024C0006303709164036F5F7F4F70936403609345
:1024D0006303812F0E941F1241E050E0612F85E6C7
:1024E00093E00E94251681E001C080E00F900F90DC
:1024F000DF91CF911F91FF90EF9008951F93CF939D
:10250000DF93182FFB01EA0180818F3F51F4818115
:102510008F3F91F482818F3F79F483818F3F61F403
:102520001EC0811109C08181811106C08281811183
:1025300003C08381882399F0209789F0BF01812F00
:102540000E94E611BE01812F0E940E1244E050E06D
:10255000612F85E693E00E94251681E001C080E0AE
:10256000DF91CF911F91089548E050E0682F85E6F4
:1025700093E00C942516DF92EF92FF920F931F9336
:10258000CF93DF93D82E8B01EA01413088E05807C2
:1025900010F0C0E0D8E06D2D85E693E00E94511563
:1025A0007C0163E070E08D2D0E94EF11873111F006
:1025B0008C3121F4EC16FD0670F302C0C0E0D0E0CF
:1025C0009E01A8016D2D85E693E00E94021540E270
:1025D00050E06D2D85E693E00E9425160DC063E066
:1025E00070E08D2D0E94EF11811106C08D2D0E948B
:1025F0003012C0E0D0E009C08D2D0E94F91184FF97
:10260000EECF60E18D2D0E940912CE01DF91CF91B6
:102610001F910F91FF90EF90DF900895DF92EF925E
:10262000FF920F931F93CF93DF93D82E7B018A01E4
:10263000682F85E693E00E942115EC01009771F464
:1026400063E070E08D2D0E94EF118431E9F0882362
:10265000D9F08C31C9F0CFEFDFEF16C0081719079A
:102660000CF4E8011C161D067CF400E09E01A70195
:102670006D2D85E693E00E94D51540E450E06D2D68
:1026800085E693E00E942516CE01DF91CF911F9140
:102690000F91FF90EF90DF9008950F93AB0101E051
:1026A00021E030E0682F85E693E00E94D51581E0B7
:1026B00090E00F910895AF92BF92CF92DF92EF9288
:1026C000FF920F931F93CF93DF93B82E7B016A0184
:1026D000E901682F85E693E00E9451158C179D074C
:1026E00040F46B2D85E693E00E945115A82EC92F6A
:1026F00002C0AC2ECD2F0A2D1C2F9601A7016B2DE9
:1027000085E693E00E9494148A2D9C2FDF91CF914F
:102710001F910F91FF90EF90DF90CF90BF90AF90FF
:1027200008951F93CF93DF93182FFB01EA01808157
:10273000811109C08181811106C08281811103C08C
:102740008381882369F0209759F0BF01812F0E946F
:10275000E611BE01812F0E940E1221E030E002C07E
:1027600020E030E0C901DF91CF911F910895CF9310
:10277000C82F40E250E0682F85E693E00E942516BE
:102780000CC08C2F0E94F91183FF07C068E18C2FC9
:102790000E94091220E030E00BC08C2F0E94F9113A
:1027A00084FFEFCF60E18C2F0E94091221E030E01E
:1027B000C901CF9108958EBD0DB407FEFDCF8EB532
:1027C00008952A9808952A9A08951F93CF93DF9326
:1027D00000D0CDB7DEB7182F6A8399830E94E1132A
:1027E00080EF0E94DB139981892F0E94DB13812FD8
:1027F0000E94DB136A81862F0E94DB130E94E31381
:1028000081E00F900F90DF91CF911F910895CF93AA
:10281000DF93EC016CE271E080E090E00E946B07D6
:102820000E943516229A60E880E090E00E94E5134D
:1028300065E58BE190E00E94E51365E58AE190E0B3
:102840000E94E51380E090E49983888380E090E61D
:102850009987888780E098E49B838A8380E098E664
:102860009B878A8780E090E59D838C8380E090E75A
:102870009D878C8780E098E59F838E8380E098E732
:102880009F878E87DF91CF910895CF92DF92EF924D
:10289000FF920F931F93CF93DF93EC017A018B018B
:1028A0006A01C80ED91E13C00E94E11380EF0E9476
:1028B000DB138D2F0E94DB138C2F0E94DB132196DC
:1028C000F80181918F010E94DB130E94E313CC1564
:1028D000DD0551F7C701DF91CF911F910F91FF9057
:1028E000EF90DF90CF9008951F93CF93DF931F92C7
:1028F000CDB7DEB7182F99830E94E1138FE00E94B5
:10290000DB139981892F0E94DB13812F0E94DB1337
:1029100080E00E94DB1389830E94E31389810F907A
:10292000DF91CF911F9108956F927F929F92AF9206
:10293000BF92CF92DF92EF92FF920F931F93CF93AC
:10294000DF931F92CDB7DEB7F82E962E3A015901CC
:1029500064E270E0892D99830E94EF11E82E65E210
:1029600070E0892D0E94EF11DE2CC12CC82AC60C04
:10297000D71C960137706F2C9981792E690C711CC8
:10298000690C711CD301ED91FC91E20FF31FC90199
:10299000800F911F81309840A0F0E12C48E0F42E88
:1029A000E21AF30AA701B501CF010E944514A8015C
:1029B0004E195F09B5016E0D7F1DF3018081918174
:1029C00003C0A801B501CF010E9445140C0D1D1DC7
:1029D000412F64E270E0892D0E94FD11402F65E2D5
:1029E00070E0892D0F90DF91CF911F910F91FF9093
:1029F000EF90DF90CF90BF90AF909F907F906F90BF
:102A00000C94FD110F931F9389019A0140E050E04F
:102A10000E9494141F910F910895CF93DF93C82FB4
:102A200066E270E00E94EF11D82F67E270E08C2F11
:102A30000E94EF113D2F20E0282BC901DF91CF919B
:102A40000895FF920F931F93CF93DF93F62EC0E06C
:102A5000D0E08F2D0E940D158C01009721F08F2D55
:102A60000E940D15EC01C017D10799F7CE01DF9137
:102A7000CF911F910F91FF900895CF93DF93C82FAF
:102A800060E270E00E94EF11D82F61E270E08C2FBD
:102A90000E94EF113D2F20E0282BC901DF91CF913B
:102AA0000895FF920F931F93CF93DF93F62EC0E00C
:102AB000D0E08F2D0E943D158C01009721F08F2DC5
:102AC0000E943D15EC01C017D10799F7CE01DF91A7
:102AD000CF911F910F91FF900895CF92DF92EF92C7
:102AE000FF920F931F93CF93DF93EC017A018B0139
:102AF0006A01C80ED91E14C00E94E1138FE00E9423
:102B0000DB138D2F0E94DB138C2F0E94DB13219689
:102B100080E00E94DB13F80181938F010E94E31390
:102B2000CC15DD0549F7C701DF91CF911F910F91BA
:102B3000FF90EF90DF90CF900895CF92DF92EF92C9
:102B4000FF920F931F93CF93DF9369015770EC01AE
:102B5000C60FD11DC60FD11D289688819981840F7B
:102B6000951F9801240F351F2130384090F0E12C3B
:102B700068E0F62EE41AF50AA701B6010E946D1569
:102B8000A8014E195F09B6016E0D7F1D88819981DC
:102B900002C0A801B601DF91CF911F910F91FF9064
:102BA000EF90DF90CF900C946D158F929F92AF9223
:102BB000BF92CF92DF92EF92FF920F931F93CF932A
:102BC000DF936C01962E5A01E901802E68E270E0D5
:102BD000892D0E94EF11F82E69E270E0892D0E9484
:102BE000EF11FF2DE0E07F01E82A8E019501A7019A
:102BF000692DC6010E949D1581101AC0CE0DDF1DE2
:102C00004D2F68E270E0892D0E94FD114C2F69E282
:102C100070E0892DDF91CF911F910F91FF90EF9080
:102C2000DF90CF90BF90AF909F908F900C94FD114C
:102C3000DF91CF911F910F91FF90EF90DF90CF9098
:102C4000BF90AF909F908F900895CF93C62F61E073
:102C500070E08C2F0E94FD1161E070E08C2F0E94CB
:102C6000EF118111F9CFCF91089561E08DE00E94BD
:102C7000F60761E08BE00E94F60761E08AE00E94BF
:102C8000F60760E08DE00E942E0860E08BE00E9475
:102C90002E0861E08AE00E942E088CB580618CBD10
:102CA0008CB580648CBD08950F9300E020E040E077
:102CB00060E085E793E00E948D0A0F910895FB0183
:102CC0004281538164817581FC0142835383648313
:102CD0007583178216820895CF93FB01DB018D91D6
:102CE0008111FDCF80E090E020E030E0CAE01BC021
:102CF0008F3F910509F064F5DA01A20FB31F129618
:102D00008C932F5F3F4F80E090E00DC0DC01CA9FA5
:102D1000C001CB9F900D1124772767FD70956053FC
:102D20007109860F971F6191662321F024303105C8
:102D300094F00EC08F3F910509F054F42430310512
:102D40003CF4FA01E20FF31F828321E030E006C079
:102D500020E030E003C06E32C9F6CACFC901CF917E
:102D60000895AF92BF92CF92DF92EF92FF920F93AE
:102D70001F93CF93DF9300D01F92CDB7DEB77C01B6
:102D80005B010E942F07F701778366838701085F45
:102D90001F4FB7016A5F7F4F42E050E0C8010E94B9
:102DA000A51081E090E09A83898342E050E0BE0163
:102DB0006F5F7F4FC8010E94A51080E091E09A8369
:102DC000898342E050E0BE016F5F7F4FC8010E94DF
:102DD000A5101A82198242E050E0BE016F5F7F4F5A
:102DE000C8010E94A51042E050E0BE016F5F7F4F16
:102DF000C8010E94A51042E050E0BE016F5F7F4F06
:102E0000C8010E94A5107501650121C0F6017F016E
:102E10008191811107C05701AC18BD081A141B0419
:102E200024F011C08E3299F7F6CFAB8241E050E02A
:102E3000BE016D5F7F4FC8010E94A510A501B601BC
:102E4000C8010E94A5106701FFEFCF1ADF0AF70142
:102E500080818111DBCF1B8241E050E0BE016D5FBC
:102E60007F4FC8010E94A510E12CFF24F394FA8241
:102E7000E98242E050E0BE016F5F7F4FC8010E94CF
:102E8000A510FA82E98242E050E0BE016F5F7F4FF9
:102E9000C8010E94A51081E090E00F900F900F9064
:102EA000DF91CF911F910F91FF90EF90DF90CF9026
:102EB000BF90AF9008954F925F926F927F928F92E2
:102EC0009F92AF92BF92CF92DF92EF92FF920F93B9
:102ED0001F93CF93DF93CDB7DEB763970FB6F89408
:102EE000DEBF0FBECDBF7C015B016A010E942F07D0
:102EF0002B013C018701085F1F4F4501A12CB12C1C
:102F000012C00E942F076419750986099709861651
:102F10009706A806B90608F40FC162E370E080E0E6
:102F200090E00E946B07C8010E94DC101816190679
:102F300044F7F7014281538164817581818D928DBF
:102F4000A38DB48D481759076A077B0709F0F7C0AE
:102F5000858D968DC59709F0F2C0F7C04CE050E022
:102F6000BE016F5F7F4FC8010E945C108B819C8106
:102F70009827892798279A8B898BF7014681578153
:102F800029813A814217530711F497FD06C0C80101
:102F90000E9430102CEF3FEFDEC08F709270892BB3
:102FA00031F0C8010E9430102BEF3FEFD4C08F806A
:102FB00098849824892498248114910479F5C8016F
:102FC0000E9430102AEF3FEFC6C041E050E0BE0142
:102FD000635F7F4FC8010E945C108D85811107C01F
:102FE0008D858111F2CF0AC0C8010E947B108D85AA
:102FF000982F91509D878111F7CFF2CFC8010E9481
:103000007B10C8010E947B10C8010E947B10C80180
:103010000E947B10FFEFEF1AFF0A02C0E12CF12C97
:103020008D819E81982789279827E816F90668F2EE
:10303000A12CB12C41E050E0BE016D5E7F4FC80174
:103040000E945C108B89982F907C69F4811104C0D8
:103050000EC0C8010E947B108B89982F91509B8BCA
:103060008111F7CF04C0C8010E947B101B8A8B8995
:103070008111E0CF42E050E0BE01615F7F4FC801A7
:103080000E945C1042E050E0BE01635F7F4FC801C8
:103090000E945C10C8010E947B10C8010E947B1036
:1030A000C8010E947B10C8010E947B1042E050E0E2
:1030B000BE016F5E7F4FC8010E945C108F859889AA
:1030C0008115914011F58D859E8581159140E9F41A
:1030D00089899A898115944031F0C8010E94301085
:1030E00027EF3FEF38C0B6016E5F7F4F44E050E0FE
:1030F000C8010E945C1021E030E02DC0C8010E9490
:103100007B102FEFE21AF20A02C0E12CF12C898920
:103110009A89982789279827E816F90678F38FEF78
:10312000A81AB80AA814B90409F084CFC8010E94EB
:10313000301026EF3FEF0FC02FEF3FEF0CC02EEF08
:103140003FEF09C02DEF3FEF06C0C8010E941610E7
:103150000C97C4F303CFC90163960FB6F894DEBF92
:103160000FBECDBFDF91CF911F910F91FF90EF90D8
:10317000DF90CF90BF90AF909F908F907F906F9097
:103180005F904F9008958F929F92AF92BF92CF928F
:10319000DF92EF92FF920F931F93CF93DF9300D0B4
:1031A00000D000D0CDB7DEB78C015B016A010E9470
:1031B0006C16892B09F051C0F8014281538164815A
:1031C000758180917D0390917E03A0917F03B091E2
:1031D0008003481759076A077B0709F442C00E9419
:1031E0002F077801F8E0EF0EF11C6F707727882722
:1031F00099277C5FC7010E942B118130B9F583EDBF
:1032000091E09A838983F80182819381A481B581B9
:103210008B839C83AD83BE8345E350E0BE016F5F2B
:103220007F4FC7010E94BF10892B19F4A12CB12C2C
:1032300010C0B501C8010E94B116892BB9F3C701AE
:103240000E94BB10892BA9F4F1CFFFEFAF16BF0688
:1032500099F0C7010E94C7101BC0AA24A394B12CE7
:1032600017C02EEFA22EBB24BA9412C0A12CB12CF1
:103270000FC093E0892E912CA60168E873E1C80184
:103280000E945B175C0121E0821A910811F3DDCFE7
:10329000C50126960FB6F894DEBF0FBECDBFDF91F5
:1032A000CF911F910F91FF90EF90DF90CF90BF9043
:1032B000AF909F908F9008950F9300E020E040E042
:1032C00060E08BE793E00E948D0A0F910895F894D7
:1032D0000C94AD1B5058BB27AA270ED075C166D1E0
:1032E00030F06BD120F031F49F3F11F41EF45BC13C
:1032F0000EF4E095E7FB51C1E92F77D180F3BA17BF
:10330000620773078407950718F071F49EF58FC163
:103310000EF4E0950B2EBA2FA02D0B01B9019001F0
:103320000C01CA01A0011124FF27591B99F0593F34
:1033300050F4503E68F11A16F040A22F232F342F7C
:103340004427585FF3CF469537952795A795F040CA
:103350005395C9F77EF41F16BA0B620B730B840BDF
:10336000BAF09150A1F0FF0FBB1F661F771F881F97
:10337000C2F70EC0BA0F621F731F841F48F48795EF
:1033800077956795B795F7959E3F08F0B3CF9395DE
:10339000880F08F09927EE0F979587950895D9D053
:1033A00008F481E008950CD00FC107D140F0FED0A1
:1033B00030F021F45F3F19F0F0C0511139C1F3C072
:1033C00014D198F39923C9F35523B1F3951B550BE9
:1033D000BB27AA2762177307840738F09F5F5F4FE8
:1033E000220F331F441FAA1FA9F333D00E2E3AF029
:1033F000E0E830D091505040E695001CCAF729D043
:10340000FE2F27D0660F771F881FBB1F2617370791
:103410004807AB07B0E809F0BB0B802DBF01FF27C1
:1034200093585F4F2AF09E3F510568F0B6C000C127
:103430005F3FECF3983EDCF3869577956795B795FB
:10344000F7959F5FC9F7880F911D9695879597F916
:103450000895E1E0660F771F881FBB1F621773078F
:103460008407BA0720F0621B730B840BBA0BEE1FA4
:1034700088F7E095089504D06894B111D9C00895F3
:10348000BCD088F09F5790F0B92F9927B751A0F082
:10349000D1F0660F771F881F991F1AF0BA95C9F7E8
:1034A00012C0B13081F0C3D0B1E00895C0C0672F21
:1034B000782F8827B85F39F0B93FCCF38695779598
:1034C0006795B395D9F73EF4909580957095619581
:1034D0007F4F8F4F9F4F0895E89409C097FB3EF4AC
:1034E00090958095709561957F4F8F4F9F4F992351
:1034F000A9F0F92F96E9BB279395F69587957795CF
:103500006795B795F111F8CFFAF4BB0F11F460FF8E
:103510001BC06F5F7F4F8F4F9F4F16C0882311F0E6
:1035200096E911C0772321F09EE8872F762F05C0FA
:10353000662371F096E8862F70E060E02AF09A9595
:10354000660F771F881FDAF7880F9695879597F98A
:103550000895990F0008550FAA0BE0E8FEEF161624
:103560001706E807F907C0F012161306E407F50777
:1035700098F0621B730B840B950B39F40A2661F0EB
:10358000232B242B252B21F408950A2609F4A1408E
:10359000A6958FEF811D811D089597F99F6780E89B
:1035A00070E060E008959FEF80EC089500240A9495
:1035B0001616170618060906089500240A9412160E
:1035C0001306140605060895092E0394000C11F441
:1035D000882352F0BB0F40F4BF2B11F460FF04C0EE
:1035E0006F5F7F4F8F4F9F4F089557FD9058440F47
:1035F000551F59F05F3F71F04795880F97FB991F52
:1036000061F09F3F79F0879508951216130614060E
:10361000551FF2CF4695F1DF08C01616170618069B
:10362000991FF1CF86957105610508940895E89476
:10363000BB2766277727CB0197F908958ADF08F41F
:103640008FEF08950BD0C0CFB1DF28F0B6DF18F0B0
:10365000952309F0A2CFA7CF1124EACFC6DFA0F3AC
:10366000959FD1F3950F50E0551F629FF001729F17
:10367000BB27F00DB11D639FAA27F00DB11DAA1F36
:10368000649F6627B00DA11D661F829F2227B00D83
:10369000A11D621F739FB00DA11D621F839FA00D0E
:1036A000611D221F749F3327A00D611D231F849F5E
:1036B000600D211D822F762F6A2F11249F575040B5
:1036C0008AF0E1F088234AF0EE0FFF1FBB1F661F50
:1036D000771F881F91505040A9F79E3F510570F009
:1036E0005CCFA6CF5F3FECF3983EDCF386957795F1
:1036F0006795B795F795E7959F5FC1F7FE2B880F04
:10370000911D9695879597F90895A1E21A2EAA1B07
:10371000BB1BFD010DC0AA1FBB1FEE1FFF1FA21781
:10372000B307E407F50720F0A21BB30BE40BF50B7E
:10373000661F771F881F991F1A9469F76095709507
:10374000809590959B01AC01BD01CF010895EE0FCE
:0E375000FF1F0590F491E02D0994F894FFCF2F
:10375E00722E706E642E736500DEADBEEFFEED014F
:10376E0000040020282A1A1615353D3F3B20005331
:10377E00746172746172207374797270726F677291
:10378E00616D206F63682074657374617220656665
:10379E0066656B746C6167656E2070612072656C16
:1037AE006165722E2E2E004F4B004B702C204B69F4
:1037BE002C204B643A20005469643B204F75747082
:1037CE0075742028302D323030293B205265663BEF
:1037DE0020523B20543B206C617374496E7075749B
:1037EE003B206C6173744572726F723B206C617317
:1037FE00744F75747075743B20703B20693B206468
:10380E003B003C6C6F673E003C2F6C6F673E0000C8
:10381E00000000CA08C00A650894087808B80800B5
:10382E00000000480A00000000A30C260D1B0D002E
:10383E000DD80CB90C2B0E440DFC0CE80DC40DD09C
:10384E000C000000001A10A51016107B104210304C
:10385E00102B11C710BF107A11BB10DC105C10FBBF
:06386E000F021012100011
:00000001FF
