:100000000C9465000C948D000C948D000C948D0064
:100010000C948D000C948D000C948D000C948D002C
:100020000C948D000C948D000C948D000C948D001C
:100030000C948D000C948D000C948D000C948D000C
:100040000C94FA050C948D000C9416080C9452082C
:100050000C948D000C948D000C948D000C948D00EC
:100060000C948D000C948D0000000007000201002C
:100070000003040600000000000000000102040864
:100080001020408001020408102001020408102002
:10009000040404040404040402020202020203032E
:1000A0000303030300000000250028002B000000CC
:1000B0000000240027002A00B701A6050D09AE099B
:1000C000A30BAE0BBC0BC70BD20B11241FBECFEF83
:1000D000D8E0DEBFCDBF11E0A0E0B1E0EAE4FCE192
:1000E00002C005900D92A43CB107D9F713E0A4EC2F
:1000F000B1E001C01D92A930B107E1F710E0CAECF0
:10010000D0E004C02297FE010E941F0EC83BD10719
:10011000C9F70E94BD090C94DD0B0C9400000F93ED
:100120001F93FC017183608355834483338322834F
:1001300012861386148615861186108616861783F6
:1001400006831F910F910895FC018081918108958C
:10015000FC01808591850895CB01BA0123E333EF3B
:100160004BE454E40E94E00B26E636E64EEF50E402
:100170000E94490C0E94B10C6A30710524F06B3565
:10018000710524F405C06AE070E002C06AE570E021
:10019000CB010895EF92FF920F931F93CF93DF93BC
:1001A000EC018E810E94D905BC01882777FD8095DE
:1001B000982F0E94E40C2AE038E240EA5BE30E94B8
:1001C000980D9B01AC0160E070E080EA90E40E9431
:1001D000490C20E030E040E85FE30E94E00B20E0C3
:1001E00030E44CE156E40E94980D7B018C0120E044
:1001F00030E048E454E47F2D912F0E94450C87FDA8
:100200000CC020E030E844ED54E46E2D7F2D802FAB
:10021000912F0E94940D18161CF481E08E8701C066
:100220001E866E2D7F2D802F912FDF91CF911F91F4
:100230000F91FF90EF900895CF93DF93EC010E9410
:10024000CA00AB01BC014A875B876C877D87CE0102
:100250000E94AC0099878887DF91CF910895FC01B7
:1002600086850895AF92CF92EF92FF920F931F93DE
:10027000CF93DF93CDB7DEB72B970FB6F894DEBFE1
:100280000FBECDBF9AE0E1E0F1E0DE0111960190F2
:100290000D929A95E1F781E090E08C0F9D1F680F19
:1002A000791FFB01F080F4FA662760F9822F4B87F3
:1002B0000E944307F2FA662760F98E2D0E944307D9
:1002C0006F2D61708A2D0E944307F5FA662760F949
:1002D0004B85842F0E944307F3FA662760F9802F2D
:1002E0000E944307F1FA662760F98C2D2B960FB612
:1002F000F894DEBF0FBECDBFDF91CF911F910F915C
:10030000FF90EF90CF90AF900C944307CF93DF9383
:10031000EC01688179814AE050E086E392E00E9436
:10032000F00A6BE071E086E392E00E94020A4A85DF
:100330005B856C857D8522E030E086E392E00E945B
:10034000A10B6BE071E086E392E00E94020A6885EF
:1003500079854AE050E086E392E00E94F00A6BE083
:1003600071E086E392E0DF91CF910C94020A0F9343
:1003700000E020E040E060E084EC91E00E94A2090F
:100380000F910895CF92DF92EF92FF920F931F93F8
:10039000CF93DF93EC01488359836A837B830C837B
:1003A0001D832E833F83C886D986EA86FB860E94FA
:1003B00044066CA37DA38EA39FA3DF91CF911F91D1
:1003C0000F91FF90EF90DF90CF900895CF93DF9340
:1003D000EC01CB01BA010E94B10C7FA76EA7DF919F
:1003E000CF910895CF93DF93EC01CB01BA010E9426
:1003F000B10C7DA76CA7DF91CF910895FC0166A594
:1004000077A5882777FD8095982F0E94E40C0895A2
:10041000FC0164A575A5882777FD8095982F0E941B
:10042000E40C08952F923F924F925F926F927F92C9
:100430008F929F92AF92BF92CF92DF92EF92FF92F4
:100440000F931F93CF93DF93CDB7DEB764970FB6AB
:10045000F894DEBF0FBECDBF9C8B8B8B6A017B01F6
:10046000280139010E9444064B015C01EB89FC899B
:1004700084A195A1A6A1B7A1A5019401281B390BC0
:100480004A0B5B0BDA01C90180369A4EA105B10512
:1004900048F440A1498351A15A8382A18B8393A13F
:1004A0009C833BC1A7019601C301B2010E94E00BEE
:1004B0006D837E838F839887AB89BC8998962D91B5
:1004C0003D914D915C919B970E94E10B1B018C012A
:1004D000862F932DA02FB12FEB89FC8980A791A7A0
:1004E000A2A7B3A766A577A5882777FD8095982F43
:1004F0000E94E40C69877A878B879C8769837A835B
:100500008B839C83762F6A85982F8C85272F362F97
:10051000492F582F622D732D802F912F0E94940DFB
:1005200018167CF459854A853B852C85852F942F98
:10053000A32FB22FEB89FC8980A791A7A2A7B3A70D
:100540001EC0AB89BC899C966D917C919D97882734
:1005500077FD8095982F0E94E40C2B013C019B01B4
:10056000AC01622D732D802F912F0E94450C87FFC7
:1005700006C0EB89FC8940A651A662A673A6AB898A
:10058000BC8998962D913D914D915C919B972D87BB
:100590003E874F87588B5C962D913D914D915C9194
:1005A0005F97C701B6010E94E00B362E272E898B7C
:1005B0009A8BEB89FC892081318142815381BD81F5
:1005C000AE811F8108856B2F7A2F812F902F0E947B
:1005D000980D2B013C01AB89BC8914962D913D915E
:1005E0004D915C9117976D857E858F8598890E94C6
:1005F000980D9B01AC01C301B2010E94E10B2B01DC
:100600003C01EB89FC892085318542855385D101E8
:1006100019890A896B2F7A2F812F902F0E94980DAC
:100620009B01AC01C301B2010E94E00B3B018C01B4
:1006300079856A859B858C85272F362F492F582FE2
:10064000662D772D802F912F0E94940D181624F17E
:10065000AB89BC899C966D917C919D97882777FD8D
:100660008095982F0E94E40C69837A838B839C8306
:10067000762F6A81982F8C81272F362F492F582F5C
:10068000662D772D802F912F0E94450C87FD04C089
:1006900069827A820B831C83EB89FC89C48ED58E98
:1006A000E68EF78E5D814E813F812885852F942FC0
:1006B000A32FB22F808F918FA28FB38F59814A8140
:1006C0003B812C81852F942FA32FB22F80A391A340
:1006D000A2A3B3A35D814E813F812885852F942FEE
:1006E000A32FB22F80AB91ABA2ABB3AB2D853E85D0
:1006F0004F85588924AB35AB46AB57ABA10139893F
:100700002A89852F922DA32FB22F80AF91AFA2AF50
:10071000B3AF84A295A2A6A2B7A259814A813B8118
:100720002C81652F742F832F922F64960FB6F89427
:10073000DEBF0FBECDBFDF91CF911F910F91FF9014
:10074000EF90DF90CF90BF90AF909F908F907F9071
:100750006F905F904F903F902F900895FC0164A19F
:1007600075A186A197A10895CF93DF93EC014C8DDD
:100770005D8D6E8D7F8D22E030E086E392E00E94F9
:10078000A10B6BE071E086E392E00E94020A488DC3
:10079000598D6A8D7B8D22E030E086E392E00E94E5
:1007A000A10B6BE071E086E392E00E94020A48A18F
:1007B00059A16AA17BA122E030E086E392E00E9489
:1007C000A10B6BE071E086E392E00E94020A48A967
:1007D00059A96AA97BA922E030E086E392E00E9451
:1007E000A10B6BE071E086E392E00E94020A4CA943
:1007F0005DA96EA97FA922E030E086E392E00E9425
:10080000A10B6BE071E086E392E00E94020A48AD22
:1008100059AD6AAD7BAD22E030E086E392E00E9404
:10082000A10B6BE071E086E392E0DF91CF910C9435
:10083000020AAF92BF92CF92DF92EF92FF920F9394
:100840001F93CF93DF9361E082E00E940B0761E08A
:1008500083E00E940B0761E084E00E940B0761E0E7
:1008600085E00E940B0761E086E00E940B0761E0D3
:1008700087E00E940B0761E08DE00E940B0761E0BA
:100880008CE00E940B0740E050E0BA018AEC91E056
:100890000E94F20140E050E068E473E48AEC91E0E9
:1008A0000E94E60140E855E260E070E086E392E0F5
:1008B0000E948D086EE071E086E392E00E94020AD9
:1008C000C1E0D0E083E0A82EB12C92E0C92ED12C5B
:1008D00025E0E22EF12C04E010E027E030E046E0D5
:1008E00050E0BE0186E092E00E9432016EEE72E0BE
:1008F00080E090E00E9480062196CB30D10511F770
:1009000066E471E086E392E00E94210A69E471E006
:1009100086E392E00E94020A22E030E040E050E0EC
:1009200060E470E486E392E00E94A10B22E030E0F4
:100930004DEC5CEC6CE47FE386E392E00E94A10B5B
:1009400022E030E040E050E060E87FE386E392E0C0
:100950000E94A10B86E392E00E940B0A66E571E01B
:1009600086E392E00E94020A86E392E0DF91CF9153
:100970001F910F91FF90EF90DF90CF90BF90AF90BD
:100980000C940B0A4F925F926F927F928F929F927C
:10099000AF92BF92CF92DF92EF92FF920F931F938D
:1009A000CF93DF9300D000D0CDB7DEB786E092E0E2
:1009B0000E941C0186E092E00E94A8005C0186E093
:1009C00092E00E94A400BC01882777FD8095982FB3
:1009D0000E94E40C6B017C01B501882777FD8095AE
:1009E000982F0E94E40CAB01BC01970186018AECB0
:1009F00091E00E9412022B013C018AEC91E00E94DE
:100A0000FE014B015C018AEC91E00E9408026983BF
:100A10007A838B839C8320E030E040E251E4C30181
:100A2000B2010E94E10B6B017C0129813A814B816B
:100A30005C81C501B4010E94E00B9B01AC0160E048
:100A400070E080E191E40E94490C9B01AC01C70178
:100A5000B6010E94980D0E94B10C33E0A32EB12C78
:100A600042E0C42ED12C55E0E52EF12C04E010E03C
:100A700027E030E046E050E086E092E00E9432015C
:100A800061EA71E086E392E00E94020A8AEC91E05A
:100A90000E94AE03AB01BC012AE030E086E392E0A5
:100AA0000E94910A6BE071E086E392E00E94020AE4
:100AB00022E030E0B301A20186E392E00E94A10BA4
:100AC0006BE071E086E392E00E94020A86E092E029
:100AD0000E9486018AEC91E00E94B40367EA71E00B
:100AE00086E392E00E94020A86E392E00E940B0AEB
:100AF00086E092E00E942F01882331F061E08DE0D2
:100B00000E94430760E005C060E08DE00E9443075B
:100B100061E08CE00E94430760E177E280E090E0D2
:100B20000F900F900F900F90DF91CF911F910F9129
:100B3000FF90EF90DF90CF90BF90AF909F908F90FD
:100B40007F906F905F904F900C948006CF92DF92D1
:100B5000EF92FF920F931F9300E020E040E060E0EF
:100B600087E292E00E94A2090EE010E02DE030E062
:100B70004CE050E06CE370E086E092E00E948F0071
:100B8000C12CD12C60E8E62E6FE3F62E0DEC1CECA8
:100B90002CE43FE340E050E060E470E48AEC91E054
:100BA0000E94C2011F910F91FF90EF90DF90CF90B4
:100BB00008958E3008F08E5087702091000140E437
:100BC000249F90011124822B80937C0080917A00D5
:100BD000806480937A0080917A0086FDFCCF20911A
:100BE000780030917900932F80E0AC01422B9A017C
:100BF000C90108951F920F920FB60F9211242F93DF
:100C00003F938F939F93AF93BF9380912D029091C9
:100C10002E02A0912F02B091300230913502232F85
:100C20002D5F2D3720F40196A11DB11D05C0232F86
:100C30002A570296A11DB11D2093350280932D02E3
:100C400090932E02A0932F02B09330028091310234
:100C500090913202A0913302B09134020196A11D0D
:100C6000B11D8093310290933202A0933302B0936E
:100C70003402BF91AF919F918F913F912F910F902F
:100C80000FBE0F901F9018950F931F938FB7F89476
:100C900000912D0210912E0220912F0230913002EE
:100CA0008FBFB801C9011F910F9108950F931F9332
:100CB0009FB7F894009131021091320220913302D3
:100CC0003091340286B5A89B06C08F3F21F00F5F9C
:100CD0001F4F2F4F3F4F9FBF322F212F102F002725
:100CE000080F111D211D311D42E0000F111F221F91
:100CF000331F4A95D1F7B801C9011F910F9108958B
:100D0000CF92DF92EF92FF92CF93DF936B017C0142
:100D10000E945606EB010EC00E9456066C1B7D0B0E
:100D2000683E734038F081E0C81AD108E108F10844
:100D3000C851DC4FC114D104E104F10469F7DF911B
:100D4000CF91FF90EF90DF90CF900895789484B585
:100D5000826084BD84B5816084BD85B5826085BDB7
:100D600085B5816085BDEEE6F0E08081816080839D
:100D7000E1E8F0E010828081826080838081816080
:100D80008083E0E8F0E0808181608083E1EBF0E047
:100D9000808184608083E0EBF0E0808181608083EB
:100DA000EAE7F0E0808184608083808182608083D4
:100DB0008081816080838081806880831092C100FF
:100DC0000895833069F028F48130A1F0823011F564
:100DD00014C08630B1F08730C1F08430D9F404C03B
:100DE000809180008F7703C0809180008F7D8093F9
:100DF0008000089584B58F7702C084B58F7D84BD4F
:100E000008958091B0008F7703C08091B0008F7DEE
:100E10008093B0000895CF93DF9390E0FC01E458F5
:100E2000FF4F4491FC01E057FF4F8491882341F12B
:100E300090E0880F991FFC01E255FF4F25913491F6
:100E4000D9018C559F4FFC0185919491C82FD92FC2
:100E50009FB7F8948C91611106C0409584238C93C0
:100E60008881842308C0623041F4242F2095822396
:100E70008C938881842B888302C0842B8C939FBFA2
:100E8000DF91CF9108950F931F93CF93DF931F921C
:100E9000CDB7DEB7282F30E0F901E859FF4F849134
:100EA000F901E458FF4F1491F901E057FF4F049105
:100EB0000023D1F0882321F069830E94E106698133
:100EC000E02FF0E0EE0FFF1FEC55FF4F859194915E
:100ED000DC019FB7F8948C91611103C010958123B8
:100EE00001C0812B8C939FBF0F90DF91CF911F91F9
:100EF0000F910895FC0184859585FC01E05CFF4F0E
:100F000020813181FC01EE5BFF4F80819181281BA4
:100F1000390B2F733327C9010895FC01848595850A
:100F2000FC01E05CFF4F40815181FC01EE5BFF4F13
:100F3000208131814217530741F00190F081E02D6B
:100F4000E80FF91F208130E002C02FEF3FEFC90109
:100F50000895FC0184859585FC01E05CFF4F40818C
:100F60005181FC01EE5BFF4F208131814217530715
:100F700081F0A081B181A80FB91F8C9120813181AE
:100F80002F5F3F4F2F73332731832083282F30E08B
:100F900002C02FEF3FEFC9010895FC0186859785B8
:100FA000FC01E05CFF4FDC01AE5BBF4F4081518133
:100FB0002D913C91119742175307C1F70895CF9394
:100FC000DF93FC0186859785DC01A05CBF4F2D91E6
:100FD0003C9111972F5F3F4F2F733327EC01CE5B6E
:100FE000DF4F4881598124173507D9F30D90BC9103
:100FF000A02DA80FB91F6C93A685B785A05CBF4F25
:1010000011963C932E93A689B7892C9181E090E0AC
:10101000058C02C0880F991F0A94E2F7282B2C93A5
:1010200081E090E0DF91CF91089508951F920F9293
:101030000FB60F9211242F933F934F938F939F934B
:10104000EF93FF934091C6008091D9029091DA020C
:1010500001968F7399272091DB023091DC02821771
:10106000930759F0E091D902F091DA02E756FD4F6B
:1010700040839093DA028093D902FF91EF919F9180
:101080008F914F913F912F910F900FBE0F901F9016
:10109000189586E392E00E947A07892B11F00C9450
:1010A000150808951F920F920FB60F9211242F93D7
:1010B0003F938F939F93EF93FF93209195023091ED
:1010C000960280919702909198022817390731F47F
:1010D0008091C1008F7D8093C10014C0E091970280
:1010E000F0919802EB5AFD4F2081809197029091E8
:1010F000980201968F739927909398028093970294
:101100002093C600FF91EF919F918F913F912F9176
:101110000F900FBE0F901F901895CF92DF92EF9215
:10112000FF92CF93DF93EC016A017B01411581EEC1
:10113000580761057105F9F0EC89FD8981E090E0BF
:101140000E8C02C0880F991F0A94E2F7808360E03A
:1011500079E08DE390E0A70196010E94FB0D2150FC
:10116000310941095109569547953795279521151C
:1011700080E1380798F0EC89FD89108260E874E816
:101180008EE190E0A70196010E94FB0D21503109EC
:10119000410951095695479537952795E889F98969
:1011A0003083EA89FB892083EE89FF89408181E0D1
:1011B00090E09C010A8C02C0220F331F0A94E2F7D0
:1011C000422B4083EE89FF8940819C010B8C02C039
:1011D000220F331F0A94E2F7422B4083EE89FF89E6
:1011E00040819C010C8C02C0220F331F0A94E2F74D
:1011F000422B4083EE89FF8920810D8C02C0880F2D
:10120000991F0A94E2F7809582238083DF91CF9122
:10121000FF90EF90DF90CF900895109239021092D6
:10122000380288EE93E0A0E0B0E080933A02909319
:101230003B02A0933C02B0933D0282EB91E090937D
:1012400037028093360289E992E0909343028093BB
:10125000420285E592E0909345028093440285EC3A
:1012600090E0909347028093460284EC90E0909344
:1012700049028093480280EC90E090934B02809367
:101280004A0281EC90E090934D0280934C0286ECF0
:1012900090E090934F0280934E0284E0809350023E
:1012A00083E08093510287E08093520285E080932F
:1012B000530281E0809354020895AF92BF92CF927F
:1012C000DF92EF92FF920F931F93CF93DF936C0106
:1012D0007B01C0E0D0E000E010E0F601EC0FFD1F64
:1012E0004AE050E06281C7010E949E0A5C016EE202
:1012F000C7010E94040A8A0D9B1D080F191F219621
:10130000C330D10551F74AE050E0F6016581C701CD
:101310000E949E0A080F191FC801DF91CF911F91EB
:101320000F91FF90EF90DF90CF90BF90AF90089516
:1013300022EC31E0FC01318320831282138214827B
:10134000158208950F93FC0182EC91E091838083D4
:1013500062834383248305830F91089582EC91E097
:101360009093DE028093DD021092DF021092E00281
:101370001092E1021092E20208950E94A6060E94D5
:101380001904C9E4D8E00E94C2042097E1F30E9446
:101390004908F9CFCF92DF92EF92FF920F931F93FC
:1013A000CF93DF936C01EB017A01E60EF71E00E0AC
:1013B00010E00BC06991D601ED91FC910190F08194
:1013C000E02DC6010995080F191FCE15DF0591F70D
:1013D000C801DF91CF911F910F91FF90EF90DF90A7
:1013E000CF900895DB010D900020E9F7AD01415049
:1013F0005109461B570BDC01ED91FC910280F381F2
:10140000E02D09940C94F209DC01ED91FC9101901E
:10141000F081E02D09940F931F93CF93DF93EC019C
:101420006DE00E94040A8C016AE0CE010E94040A69
:101430009C01200F311FC901DF91CF911F910F91A6
:1014400008950F931F93CF93DF93EC010E94F2094D
:101450008C01CE010E940B0A9801280F391FC90187
:10146000DF91CF911F910F9108954F925F926F92EC
:101470007F929F92AF92BF92CF92DF92EF92FF92B4
:101480000F931F93CF93DF93CDB7DEB7A1970FB61E
:10149000F894DEBF0FBECDBF5C016A017B01922EC6
:1014A00019A281E0821710F08AE0982E8E010F5D5C
:1014B0001F4F492C512C612C712CC701B601A3017F
:1014C00092010E94FB0D8C2D929E801911240150D7
:1014D00011098A3014F4805D01C0895CF8018083B1
:1014E00069017A01C114D104E104F10431F7B801B2
:1014F000C5010E94F209A1960FB6F894DEBF0FBE97
:10150000CDBFDF91CF911F910F91FF90EF90DF90B2
:10151000CF90BF90AF909F907F906F905F904F90D3
:1015200008952115310541F4DC01ED91FC91019004
:10153000F081E02D642F09940C94350A9A01462F0E
:1015400050E060E070E00C94910ACF92DF92EF924D
:10155000FF920F931F93CF93DF93EC016A017B01FE
:101560002115310579F4E881F9810190F081E02DB0
:10157000642FDF91CF911F910F91FF90EF90DF903B
:10158000CF9009942A30310519F477FD0EC02AE076
:10159000B701A601CE01DF91CF911F910F91FF906E
:1015A000EF90DF90CF900C94350A6DE20E94040A10
:1015B0008C0144275527BA014C195D096E097F0932
:1015C0002AE0CE010E94350A080F191FC801DF91D9
:1015D000CF911F910F91FF90EF90DF90CF900895E2
:1015E0009A01AB01662757FD6095762F0C94A50AEA
:1015F0007F928F929F92AF92BF92CF92DF92EF92A3
:10160000FF920F931F93CF93DF938C014A015B01ED
:10161000F22E20E030E0A901C501B4010E94450C82
:1016200087FF0AC06DE2C8010E94040AEC01B7FA04
:10163000B094B7F8B09402C0C0E0D0E0E12C60E014
:1016400070E080E09FE307C020E030E040E251E43A
:101650000E94490CE394EF10F7CF262F372F482F25
:10166000592FC501B4010E94E10B762E872E982ECA
:10167000A92E0E94B60CB62EC72ED82EE92E0E9497
:10168000E20C9B01AC01672D782D892D9A2D0E94CB
:10169000E00BA62E972E882E792E2AE04B2D5C2D5E
:1016A0006D2D7E2DC8010E94350AC80FD91FFF205D
:1016B000B9F164E471E0C8010E94F209C80FD91FB2
:1016C0002FC020E030E040E251E46A2D792D882DD2
:1016D000972D0E94980D762EC72ED82EE92E0E94A7
:1016E000B10C4B01AA2497FCA094BA2C2AE030E05C
:1016F000B501A401C8010E94A50AC80FD91FC501E0
:10170000B4010E94E40C9B01AC01672D7C2D8D2D52
:101710009E2D0E94E00BA62E972E882E792EFA94ED
:10172000F110CFCFCE01DF91CF911F910F91FF909C
:10173000EF90DF90CF90BF90AF909F908F907F9071
:1017400008950C94F80A0F9300E020E040E060E078
:1017500083EE92E00E94A2090F9108950F9300E09A
:1017600020E040E060E081EF92E00E94A20989EE73
:1017700092E00F910C9498090F9300E020E040E074
:1017800060E087EF92E00E94A2090F9108950F9305
:1017900000E020E040E060E08DEF92E00E94A209CE
:1017A0000F9108950F9300E020E040E060E083E0B7
:1017B00093E00E94A2090F910895F8940C94230ECF
:1017C0005058BB27AA270ED075C166D130F06BD117
:1017D00020F031F49F3F11F41EF45BC10EF4E0954C
:1017E000E7FB51C1E92F77D180F3BA17620773077E
:1017F0008407950718F071F49EF58FC10EF4E095FB
:101800000B2EBA2FA02D0B01B90190010C01CA01BA
:10181000A0011124FF27591B99F0593F50F4503E65
:1018200068F11A16F040A22F232F342F4427585F57
:10183000F3CF469537952795A795F0405395C9F76F
:101840007EF41F16BA0B620B730B840BBAF0915027
:10185000A1F0FF0FBB1F661F771F881FC2F70EC0C6
:10186000BA0F621F731F841F48F487957795679599
:10187000B795F7959E3F08F0B3CF9395880F08F082
:101880009927EE0F979587950895D9D008F481E0B0
:1018900008950CD00FC107D140F0FED030F021F4F4
:1018A0005F3F19F0F0C0511139C1F3C014D198F362
:1018B0009923C9F35523B1F3951B550BBB27AA27D1
:1018C00062177307840738F09F5F5F4F220F331F43
:1018D000441FAA1FA9F333D00E2E3AF0E0E830D00F
:1018E00091505040E695001CCAF729D0FE2F27D012
:1018F000660F771F881FBB1F261737074807AB07E0
:10190000B0E809F0BB0B802DBF01FF2793585F4F54
:101910002AF09E3F510568F0B6C000C15F3FECF36E
:10192000983EDCF3869577956795B795F7959F5F19
:10193000C9F7880F911D9695879597F90895E1E06D
:10194000660F771F881FBB1F621773078407BA07CC
:1019500020F0621B730B840BBA0BEE1F88F7E09527
:10196000089504D06894B111D9C00895BCD088F00E
:101970009F5790F0B92F9927B751A0F0D1F0660F7B
:10198000771F881F991F1AF0BA95C9F712C0B13096
:1019900081F0C3D0B1E00895C0C0672F782F8827A9
:1019A000B85F39F0B93FCCF3869577956795B395D5
:1019B000D9F73EF490958095709561957F4F8F4F44
:1019C0009F4F0895E89409C097FB3EF49095809549
:1019D000709561957F4F8F4F9F4F9923A9F0F92FF5
:1019E00096E9BB279395F695879577956795B79573
:1019F000F111F8CFFAF4BB0F11F460FF1BC06F5F59
:101A00007F4F8F4F9F4F16C0882311F096E911C06A
:101A1000772321F09EE8872F762F05C0662371F08B
:101A200096E8862F70E060E02AF09A95660F771F9F
:101A3000881FDAF7880F9695879597F90895990F7B
:101A40000008550FAA0BE0E8FEEF16161706E80788
:101A5000F907C0F012161306E407F50798F0621BA9
:101A6000730B840B950B39F40A2661F0232B242B7E
:101A7000252B21F408950A2609F4A140A6958FEF9D
:101A8000811D811D089597F99F6780E870E060E0EF
:101A900008959FEF80EC089500240A941616170607
:101AA00018060906089500240A941216130614064F
:101AB00005060895092E0394000C11F4882352F0B2
:101AC000BB0F40F4BF2B11F460FF04C06F5F7F4F6A
:101AD0008F4F9F4F089557FD9058440F551F59F051
:101AE0005F3F71F04795880F97FB991F61F09F3F0B
:101AF00079F087950895121613061406551FF2CF34
:101B00004695F1DF08C0161617061806991FF1CF83
:101B100086957105610508940895E894BB276627AA
:101B20007727CB0197F908958ADF08F48FEF08959E
:101B30000BD0C0CFB1DF28F0B6DF18F0952309F045
:101B4000A2CFA7CF1124EACFC6DFA0F3959FD1F390
:101B5000950F50E0551F629FF001729FBB27F00D5B
:101B6000B11D639FAA27F00DB11DAA1F649F6627B0
:101B7000B00DA11D661F829F2227B00DA11D621FFF
:101B8000739FB00DA11D621F839FA00D611D221FB9
:101B9000749F3327A00D611D231F849F600D211D9D
:101BA000822F762F6A2F11249F5750408AF0E1F040
:101BB00088234AF0EE0FFF1FBB1F661F771F881F89
:101BC00091505040A9F79E3F510570F05CCFA6CFD1
:101BD0005F3FECF3983EDCF3869577956795B79574
:101BE000F795E7959F5FC1F7FE2B880F911D96959E
:101BF000879597F90895A1E21A2EAA1BBB1BFD0138
:101C00000DC0AA1FBB1FEE1FFF1FA217B307E407DB
:101C1000F50720F0A21BB30BE40BF50B661F771F33
:101C2000881F991F1A9469F7609570958095909513
:101C30009B01AC01BD01CF010895EE0FFF1F059080
:0A1C4000F491E02D0994F894FFCF11
:101C4A00010020282A1A1615353D3F3B20005374FF
:101C5A006172746172207374797270726F677261E3
:101C6A006D206F636820746573746172206566669F
:101C7A00656B746C6167656E2070612072656C615A
:101C8A0065722E2E2E004F4B004B702C204B692C68
:101C9A00204B643A20005469643B204F7574707578
:101CAA00742028302D323030293B205265663B2083
:101CBA00523B20543B206C617374496E7075743BBF
:101CCA00206C6173744572726F723B206C6173741D
:101CDA004F75747075743B20703B20693B20643BE0
:101CEA00003C6C6F673E003C2F6C6F673E00000043
:101CFA000000DF07CA097A07A9078D07CD07000088
:041D0A0000005D096F
:00000001FF
