:100000000C9465000C948D000C948D000C948D0064
:100010000C948D000C948D000C948D000C948D002C
:100020000C948D000C948D000C948D000C948D001C
:100030000C948D000C948D000C948D000C948D000C
:100040000C94AD090C948D000C94C90B0C94050C08
:100050000C948D000C948D000C948D000C948D00EC
:100060000C948D000C948D0000000007000201002C
:100070000003040600000000000000000102040864
:100080001020408001020408102001020408102002
:10009000040404040404040402020202020203032E
:1000A0000303030300000000250028002B000000CC
:1000B0000000240027002A0057040709C00C7C0D0B
:1000C00086136F155D17ED20F52311241FBECFEFAA
:1000D000D8E0DEBFCDBF13E0A0E0B1E0E0E5F3E59E
:1000E00002C005900D92A834B107D9F714E0A8E436
:1000F000B3E001C01D92AB3DB107E1F710E0CAECDF
:10010000D0E004C02297FE010E94A229C83BD1077B
:10011000C9F70E948B0D0C94A7260C9400000F9336
:100120001F93FC017183608355834483338322834F
:1001300012861386148615861186108616861783F6
:1001400006831F910F910895FC01718360830895C8
:10015000FC01808191810895FC018085918508953D
:10016000CB01BA0123E333EF4BE454E40E94EA26C7
:1001700026E636E64EEF50E40E9453270E94BB2746
:100180006A30710524F06B35710524F405C06AE00E
:1001900070E002C06AE570E0CB010895EF92FF9233
:1001A0000F931F93CF93DF93EC018E810E948C09F4
:1001B000BC01882777FD8095982F0E94EE272AE0C2
:1001C00038E240EA5BE30E94A2289B01AC0160E0B8
:1001D00070E080EA90E40E94532720E030E040E89D
:1001E0005FE30E94EA2620E030E44CE156E40E94FE
:1001F000A2287B018C0120E030E048E454E47F2D0C
:10020000912F0E944F2787FD0CC020E030E844ED7D
:1002100054E46E2D7F2D802F912F0E949E2818165A
:100220001CF481E08E8701C01E866E2D7F2D802FED
:10023000912FDF91CF911F910F91FF90EF90089533
:10024000CF93DF93EC010E94CE00AB01BC014A8743
:100250005B876C877D87CE010E94B0009987888775
:10026000DF91CF910895FC0186850895AF92CF92DA
:10027000EF92FF920F931F93CF93DF93CDB7DEB72B
:100280002B970FB6F894DEBF0FBECDBF9AE0EEE11C
:10029000F1E0DE01119601900D929A95E1F781E06F
:1002A00090E08C0F9D1F680F791FFB01F080F4FA1E
:1002B000662760F9822F4B870E94F60AF2FA6627BA
:1002C00060F98E2D0E94F60A6F2D61708A2D0E94B2
:1002D000F60AF5FA662760F94B85842F0E94F60A24
:1002E000F3FA662760F9802F0E94F60AF1FA662772
:1002F00060F98C2D2B960FB6F894DEBF0FBECDBFE4
:10030000DF91CF911F910F91FF90EF90CF90AF9021
:100310000C94F60ACF93DF93EC01688179814AE06F
:1003200050E08AEE93E00E94280F68E271E08AEEC6
:1003300093E00E94080E4A855B856C857D8522E0EE
:1003400030E08AEE93E00E94D90F68E271E08AEE15
:1003500093E00E94080E688579854AE050E08AEEB5
:1003600093E00E94280F68E271E08AEE93E0DF914B
:10037000CF910C94080EAF92BF92CF92DF92EF9282
:10038000FF920F931F93CF93DF93CDB7DEB72D97D7
:100390000FB6F894DEBF0FBECDBF6C015B016FEFEF
:1003A00072E0FC0174836383FA0182819381A481EA
:1003B000B581F60185839683A783B08772876187AD
:1003C000F9014281538164817581F6014387548725
:1003D00065877687C60143960E949312F601B28222
:1003E000A182108B0787F28AE18A1082CE010196E2
:1003F0000E9493122D960FB6F894DEBF0FBECDBFAC
:10040000DF91CF911F910F91FF90EF90DF90CF90F0
:10041000BF90AF9008950F931F93CF93DF93CDB705
:10042000DEB762970FB6F894DEBF0FBECDBF8C016A
:10043000FC01618172818DE994E00E94A61301970D
:10044000A1F46BE271E08AEE93E00E94450E6DE943
:1004500074E0CE010D960E944D15BE01635F7F4F83
:100460008AEE93E00E94590E27C08AEE93E00E9424
:100470001B0E2FEF32E03A832983F80183859485A0
:10048000A585B6858B839C83AD83BE8338872F83F8
:10049000458156816781708549875A876B877C873C
:1004A000618172819E012F5F3F4FAE01495F5F4FB7
:1004B0008DE994E00E94F61468EE73E080E090E02D
:1004C0000E94330A62960FB6F894DEBF0FBECDBF0E
:1004D000DF91CF911F910F9108950F931F93CF93A9
:1004E000DF93EC018C010D5E1F4FC8010E94B21218
:1004F00081110AC08881882339F0C801DF91CF912A
:100500001F910F910C94D612DF91CF911F910F91F3
:1005100008954F925F926F927F928F929F92AF92C7
:10052000BF92CF92DF92EF92FF920F931F93CF93E0
:10053000DF936C014B015A0128013901EC016396EC
:10054000FC014189528967857089CE010E9432126F
:10055000892B09F458C069E371E08AEE93E00E94A8
:10056000450E64EF71E080E090E00E94330A6EE493
:1005700071E0CE010E94080E4AE050E0B401CE01C5
:100580000E94280F61E671E0CE010E94080EB501BD
:10059000CE010E94D20D68E671E0CE010E94080EE5
:1005A00022E030E0B301A201CE010E94D90F61E741
:1005B00071E0CE010E94080E4AE050E0B701CE0182
:1005C0000E94280F6BED71E0CE010E94450E6DE791
:1005D00071E0CE010E94080EF60167857089CE0198
:1005E0000E94080ECE010E941B0E64E871E0CE014D
:1005F0000E94450E60EA71E0CE010E94450ECE01D8
:100600000E941B0E03C0C6010E940B0268EC70E042
:1006100080E090E00E94330ACE010E94D612CE0103
:100620000E94B212F6018083DF91CF911F910F914A
:10063000FF90EF90DF90CF90BF90AF909F908F9002
:100640007F906F905F904F9008959F92AF92BF926E
:10065000CF92DF92EF92FF920F931F93CF93DF938E
:10066000CDB7DEB72F970FB6F894DEBF0FBECDBF64
:100670006C017B015E0188E0A80EB11C62E572E0AE
:10068000C5010E94601062E572E0CE0101960E94F1
:10069000601087010D5E1F4FC8010E94A711F7016E
:1006A0004189528967857089C8010E943212892B5D
:1006B000A1F162EB71E08AEE93E00E94450E64EFD7
:1006C00071E080E090E00E94330A6BEC71E0C801B9
:1006D0000E94450E6DE771E0C8010E94080EF70107
:1006E00067857089C8010E94080EC8010E941B0E10
:1006F00064E871E0C8010E94450E60EA71E0C8013B
:100700000E94450EC8010E941B0E68EE73E080E057
:1007100090E00E94330A912C12C0C8010E94D612A8
:1007200065EE71E08AEE93E00E94450EC7010E94DB
:100730000B0260E070E0C6010E94601031C0C80189
:100740000E940912892BA1F0C8010E94EE11282FE6
:100750008B3719F0992049F002C099249394622FA5
:10076000C5012F870E94E4102F852D3709F4912CA5
:10077000C8010E940912892B11F7C8010E94B21208
:100780008111DDCFC8010E94D612C8010E94B212A9
:10079000F7018083BE01685F7F4FC6010E949410FD
:1007A000CE0101960E94EF0FCE0108960E94EF0F36
:1007B000C6012F960FB6F894DEBF0FBECDBFDF91F6
:1007C000CF911F910F91FF90EF90DF90CF90BF904E
:1007D000AF909F900895AF92BF92CF92DF92EF9229
:1007E000FF920F931F93CF93DF93CDB7DEB7279779
:1007F0000FB6F894DEBF0FBECDBF6C018B01BA01FE
:10080000C8010E9448117C0167E072E0CE010196A8
:100810000E946010A7014C5F5F4FBE016F5F7F4F6A
:10082000C8010E942A117C01CE0101960E94EF0F9F
:1008300069E072E0CE0101960E946010A701BE013E
:100840006F5F7F4FC8010E942A117C01CE01019683
:100850000E94EF0F8FEFE81AF80A69E072E0CE010C
:1008600001960E946010A701BE016F5F7F4FC80113
:100870000E942A115C01CE0101960E94EF0F9501A2
:10088000A701B801C6010E944C11C60127960FB6F8
:10089000F894DEBF0FBECDBFDF91CF911F910F91B6
:1008A000FF90EF90DF90CF90BF90AF9008950F939F
:1008B00000E020E040E060E088E493E00E94550D15
:1008C0000F910895CF92DF92EF92FF920F931F93B3
:1008D000CF93DF93EC01488359836A837B830C8336
:1008E0001D832E833F83C886D986EA86FB860E94B5
:1008F000F7096CA37DA38EA39FA3DF91CF911F91D6
:100900000F91FF90EF90DF90CF900895CF93DF93FA
:10091000EC01CB01BA010E94BB277FA76EA7DF9134
:10092000CF910895CF93DF93EC01CB01BA010E94E0
:10093000BB277DA76CA7DF91CF910895FC0166A529
:1009400077A5882777FD8095982F0E94EE27089538
:10095000FC0164A575A5882777FD8095982F0E94D6
:10096000EE2708952F923F924F925F926F927F925F
:100970008F929F92AF92BF92CF92DF92EF92FF92AF
:100980000F931F93CF93DF93CDB7DEB764970FB666
:10099000F894DEBF0FBECDBF9C8B8B8B6A017B01B1
:1009A000280139010E94F7094B015C01EB89FC89A0
:1009B00084A195A1A6A1B7A1A5019401281B390B7B
:1009C0004A0B5B0BDA01C90180369A4EA105B105CD
:1009D00048F440A1498351A15A8382A18B8393A1FA
:1009E0009C833BC1A7019601C301B2010E94EA2684
:1009F0006D837E838F839887AB89BC8998962D9170
:100A00003D914D915C919B970E94EB261B018C01BF
:100A1000862F932DA02FB12FEB89FC8980A791A75A
:100A2000A2A7B3A766A577A5882777FD8095982FFD
:100A30000E94EE2769877A878B879C8769837A83F0
:100A40008B839C83762F6A85982F8C85272F362F52
:100A5000492F582F622D732D802F912F0E949E2891
:100A600018167CF459854A853B852C85852F942F53
:100A7000A32FB22FEB89FC8980A791A7A2A7B3A7C8
:100A80001EC0AB89BC899C966D917C919D978827EF
:100A900077FD8095982F0E94EE272B013C019B014A
:100AA000AC01622D732D802F912F0E944F2787FF5D
:100AB00006C0EB89FC8940A651A662A673A6AB8945
:100AC000BC8998962D913D914D915C919B972D8776
:100AD0003E874F87588B5C962D913D914D915C914F
:100AE0005F97C701B6010E94EA26362E272E898B12
:100AF0009A8BEB89FC892081318142815381BD81B0
:100B0000AE811F8108856B2F7A2F812F902F0E9435
:100B1000A2282B013C01AB89BC8914962D913D91F3
:100B20004D915C9117976D857E858F8598890E9480
:100B3000A2289B01AC01C301B2010E94EB262B014C
:100B40003C01EB89FC892085318542855385D101A3
:100B500019890A896B2F7A2F812F902F0E94A22842
:100B60009B01AC01C301B2010E94EA263B018C014A
:100B700079856A859B858C85272F362F492F582F9D
:100B8000662D772D802F912F0E949E28181624F114
:100B9000AB89BC899C966D917C919D97882777FD48
:100BA0008095982F0E94EE2769837A838B839C839C
:100BB000762F6A81982F8C81272F362F492F582F17
:100BC000662D772D802F912F0E944F2787FD04C01F
:100BD00069827A820B831C83EB89FC89C48ED58E53
:100BE000E68EF78E5D814E813F812885852F942F7B
:100BF000A32FB22F808F918FA28FB38F59814A81FB
:100C00003B812C81852F942FA32FB22F80A391A3FA
:100C1000A2A3B3A35D814E813F812885852F942FA8
:100C2000A32FB22F80AB91ABA2ABB3AB2D853E858A
:100C30004F85588924AB35AB46AB57ABA1013989F9
:100C40002A89852F922DA32FB22F80AF91AFA2AF0B
:100C5000B3AF84A295A2A6A2B7A259814A813B81D3
:100C60002C81652F742F832F922F64960FB6F894E2
:100C7000DEBF0FBECDBFDF91CF911F910F91FF90CF
:100C8000EF90DF90CF90BF90AF909F908F907F902C
:100C90006F905F904F903F902F900895FC0164A15A
:100CA00075A186A197A10895CF93DF93EC014C8D98
:100CB0005D8D6E8D7F8D22E030E08AEE93E00E94A4
:100CC000D90F68E271E08AEE93E00E94080E488D29
:100CD000598D6A8D7B8D22E030E08AEE93E00E9490
:100CE000D90F68E271E08AEE93E00E94080E48A1F5
:100CF00059A16AA17BA122E030E08AEE93E00E9434
:100D0000D90F68E271E08AEE93E00E94080E48A9CC
:100D100059A96AA97BA922E030E08AEE93E00E94FB
:100D2000D90F68E271E08AEE93E00E94080E4CA9A8
:100D30005DA96EA97FA922E030E08AEE93E00E94CF
:100D4000D90F68E271E08AEE93E00E94080E48AD88
:100D500059AD6AAD7BAD22E030E08AEE93E00E94AF
:100D6000D90F68E271E08AEE93E0DF91CF910C94A5
:100D7000080EAF92BF92CF92DF92EF92FF920F9345
:100D80001F93CF93DF9361E082E00E94BE0A61E08F
:100D900083E00E94BE0A61E084E00E94BE0A61E036
:100DA00085E00E94BE0A61E086E00E94BE0A61E022
:100DB00087E00E94BE0A61E089E00E94BE0A61E00D
:100DC00088E00E94BE0A40E050E0BA018AE793E062
:100DD0000E94920440E050E068E473E48AE793E004
:100DE0000E94860440E855E260E070E08AEE93E0FD
:100DF0000E94400C6BE072E08AEE93E00E94080EC5
:100E0000C1E0D0E083E0A82EB12C92E0C92ED12C15
:100E100025E0E22EF12C04E010E027E030E046E08F
:100E200050E0BE0186EB93E00E9436016EEE72E068
:100E300080E090E00E94330A2196CB30D10511F773
:100E400063E472E08AEE93E00E94450E66E472E08D
:100E50008AEE93E00E94080E22E030E040E050E08D
:100E600060E470E48AEE93E00E94D90F22E030E063
:100E70004DEC5CEC6CE47FE38AEE93E00E94D90FCA
:100E800022E030E040E050E060E87FE38AEE93E06B
:100E90000E94D90F8AEE93E00E941B0E63E572E078
:100EA0008AEE93E00E94080E8AEE93E00E941B0EE9
:100EB0008EE493E0DF91CF911F910F91FF90EF901F
:100EC000DF90CF90BF90AF900C940B024F925F9247
:100ED0006F927F928F929F92AF92BF92CF92DF924A
:100EE000EF92FF920F931F93CF93DF93CDB7DEB7AF
:100EF000A0970FB6F894DEBF0FBECDBF86EB93E090
:100F00000E94200186EB93E00E94AC008C0186EBEE
:100F100093E00E94A800BC01882777FD8095982F58
:100F20000E94EE276B017C0122E030E0982F4C2DCF
:100F30005D2D692F7F2D8AEE93E00E94DB0FB801B3
:100F4000882777FD8095982F0E94EE27AB01BC0182
:100F50000C2D1D2D2E2D3F2D8AE793E00E94B2040B
:100F60002B013C018AE793E00E949E044B015C0147
:100F70008AE793E00E94A8046D8F7E8F8F8F98A3DD
:100F800020E030E040E251E4C301B2010E94EB26D0
:100F90006B017C012D8D3E8D4F8D58A1C501B40193
:100FA0000E94EA269B01AC0160E070E080E191E4E0
:100FB0000E9453279B01AC01C701B6010E94A228E1
:100FC0000E94BB274B0133E0A32EB12C42E0C42E7C
:100FD000D12C55E0E52EF12C04E010E027E030E0C4
:100FE00046E050E086EB93E00E9436016EE972E045
:100FF0008AEE93E00E94080E8AE793E00E944E0674
:10100000AB01BC012AE030E08AEE93E00E94C90EF9
:1010100068E271E08AEE93E00E94080E22E030E080
:10102000B301A2018AEE93E00E94D90F68E271E059
:101030008AEE93E00E94080E86EB93E00E948A01FC
:101040008AE793E00E94540664EA72E08AEE93E035
:101050000E94080E8AEE93E00E941B0E86EB93E03E
:101060000E943301882331F061E089E00E94F60A92
:1010700060E005C060E089E00E94F60A61E088E077
:101080000E94F60A8EE493E00E946D020E94F70926
:101090000091D7031091D8032091D9033091DA033E
:1010A000601B710B820B930B6133754781059105B2
:1010B00008F490C06EE473E0CE0146960E942503CA
:1010C0006BEA72E0CE0101960E946010BE016A5E7A
:1010D0007F4FCE0108960E949410AE014F5F5F4F84
:1010E000BE01685F7F4FCE010F960E94EB03CE01D9
:1010F00008960E94EF0FCE0101960E94EF0F60EB61
:1011000072E08AEE93E00E94450EBE016A5E7F4F58
:101110008AEE93E00E94310E6BEB72E0CE010F96E7
:101120000E94F710882349F06CE370E086EB93E0AF
:101130000E94A40060EC72E010C063ED72E0CE018A
:101140000F960E94F710882369F06EE170E086EB3D
:1011500093E00E94A40068ED72E08AEE93E00E94A2
:10116000450E06C06BEB72E0CE010F960E949E10FA
:1011700068EC70E080E090E00E94330ABE01615F9D
:101180007F4FCE0101960E94941086EB93E00E945F
:10119000AC00740193018201AE014F5F5F4FBC014F
:1011A0008EE493E00E948902CE0101960E94EF0F27
:1011B0000E94F7096093D7037093D8038093D903F3
:1011C0009093DA03CE010F960E94EF0FCE01469660
:1011D0000E94EF0F60E177E280E090E00E94330A26
:1011E000A0960FB6F894DEBF0FBECDBFDF91CF91B2
:1011F0001F910F91FF90EF90DF90CF90BF90AF9035
:101200009F908F907F906F905F904F900895CF92B6
:10121000DF92EF92FF920F931F93CF93DF93CDB79F
:10122000DEB72C970FB6F894DEBF0FBECDBF00E03F
:1012300020E040E060E08BED93E00E94550D0EE071
:1012400010E02DE030E04CE050E06CE370E086EB25
:1012500093E00E948F00C12CD12C60E8E62E6FE352
:10126000F62E0DEC1CEC2CE43FE340E050E060E493
:1012700070E48AE793E00E94620402E321E048EA16
:1012800060EC84E793E00E94550D0BE127EC43E40A
:1012900063EC8EE693E00E94550DE0900A01F09019
:1012A0000B012FEF32E038872F83809170039091EC
:1012B0007103A0917203B091730389879A87AB87FA
:1012C000BC873A8329838091760390917703A0911C
:1012D0007803B09179038B839C83AD83BE830CE04C
:1012E00011E09E01295F3F4FAE014F5F5F4F65E107
:1012F00071E08EE493E00E94BB012C960FB6F89447
:10130000DEBF0FBECDBFDF91CF911F910F91FF9038
:10131000EF90DF90CF9008958E3008F08E50877058
:1013200020911B0140E4249F90011124822B809383
:101330007C0080917A00806480937A0080917A00AA
:1013400086FDFCCF2091780030917900932F80E0CA
:10135000AC01422B9A01C90108951F920F920FB65A
:101360000F9211242F933F938F939F93AF93BF932B
:101370008091E1039091E203A091E303B091E40333
:101380003091E903232F2D5F2D3720F40196A11D05
:10139000B11D05C0232F2A570296A11DB11D209310
:1013A000E9038093E1039093E203A093E303B093F6
:1013B000E4038091E5039091E603A091E703B091E7
:1013C000E8030196A11DB11D8093E5039093E60308
:1013D000A093E703B093E803BF91AF919F918F91E2
:1013E0003F912F910F900FBE0F901F9018950F9364
:1013F0001F938FB7F8940091E1031091E2032091BD
:10140000E3033091E4038FBFB801C9011F910F912D
:1014100008950F931F939FB7F8940091E5031091DF
:10142000E6032091E7033091E80386B5A89B06C048
:101430008F3F21F00F5F1F4F2F4F3F4F9FBF322F26
:10144000212F102F0027080F111D211D311D42E0F3
:10145000000F111F221F331F4A95D1F7B801C90190
:101460001F910F910895CF92DF92EF92FF92CF9349
:10147000DF936B017C010E94090AEB010EC00E9400
:10148000090A6C1B7D0B683E734038F081E0C81A76
:10149000D108E108F108C851DC4FC114D104E104BE
:1014A000F10469F7DF91CF91FF90EF90DF90CF903B
:1014B0000895789484B5826084BD84B5816084BDCC
:1014C00085B5826085BD85B5816085BDEEE6F0E0BD
:1014D000808181608083E1E8F0E010828081826019
:1014E0008083808181608083E0E8F0E0808181609A
:1014F0008083E1EBF0E0808184608083E0EBF0E0CA
:10150000808181608083EAE7F0E08081846080836D
:101510008081826080838081816080838081806817
:1015200080831092C1000895833069F028F48130DF
:10153000A1F0823011F514C08630B1F08730C1F0CF
:101540008430D9F404C0809180008F7703C08091EB
:1015500080008F7D80938000089584B58F7702C0CE
:1015600084B58F7D84BD08958091B0008F7703C0CE
:101570008091B0008F7D8093B0000895CF93DF936A
:1015800090E0FC01E458FF4F4491FC01E057FF4F0D
:101590008491882341F190E0880F991FFC01E25566
:1015A000FF4F25913491D9018C559F4FFC018591B6
:1015B0009491C82FD92F9FB7F8948C91611106C0D0
:1015C000409584238C938881842308C0623041F441
:1015D000242F209582238C938881842B888302C0BA
:1015E000842B8C939FBFDF91CF9108950F931F930E
:1015F000CF93DF931F92CDB7DEB7282F30E0F901EC
:10160000E859FF4F8491F901E458FF4F1491F90113
:10161000E057FF4F04910023D1F0882321F0698324
:101620000E94940A6981E02FF0E0EE0FFF1FEC5555
:10163000FF4F85919491DC019FB7F8948C916111D3
:1016400003C01095812301C0812B8C939FBF0F9005
:10165000DF91CF911F910F910895FC0184859585AD
:10166000FC01E05CFF4F20813181FC01EE5BFF4F0C
:1016700080819181281B390B2F733327C90108956D
:10168000FC0184859585FC01E05CFF4F4081518120
:10169000FC01EE5BFF4F208131814217530741F07F
:1016A0000190F081E02DE80FF91F208130E002C0A9
:1016B0002FEF3FEFC9010895FC0184859585FC015A
:1016C000E05CFF4F40815181FC01EE5BFF4F2081C8
:1016D00031814217530781F0A081B181A80FB91F52
:1016E0008C91208131812F5F3F4F2F7333273183BE
:1016F0002083282F30E002C02FEF3FEFC90108956B
:10170000FC0186859785FC01E05CFF4FDC01AE5B48
:10171000BF4F408151812D913C9111974217530742
:10172000C1F70895CF93DF93FC0186859785DC018F
:10173000A05CBF4F2D913C9111972F5F3F4F2F73AE
:101740003327EC01CE5BDF4F4881598124173507E1
:10175000D9F30D90BC91A02DA80FB91F6C93A6854D
:10176000B785A05CBF4F11963C932E93A689B7898D
:101770002C9181E090E0058C02C0880F991F0A949B
:10178000E2F7282B2C9381E090E0DF91CF91089530
:1017900008951F920F920FB60F9211242F933F932B
:1017A0004F938F939F93EF93FF934091C600809147
:1017B0008D0490918E0401968F73992720918F0448
:1017C000309190048217930759F0E0918D04F091C5
:1017D0008E04E35BFB4F408390938E0480938D04D3
:1017E000FF91EF919F918F914F913F912F910F908A
:1017F0000FBE0F901F9018958AEE93E00E942D0B5C
:10180000892B11F00C94C80B08951F920F920FB6FC
:101810000F9211242F933F938F939F93EF93FF93F6
:101820002091490430914A0480914B0490914C04DA
:101830002817390731F48091C1008F7D8093C10052
:1018400014C0E0914B04F0914C04E75FFB4F208102
:1018500080914B0490914C0401968F73992790933B
:101860004C0480934B042093C600FF91EF919F910D
:101870008F913F912F910F900FBE0F901F90189551
:10188000CF92DF92EF92FF92CF93DF93EC016A0148
:101890007B01411581EE580761057105F9F0EC896E
:1018A000FD8981E090E00E8C02C0880F991F0A9498
:1018B000E2F7808360E079E08DE390E0A701960194
:1018C0000E9418292150310941095109569547951F
:1018D00037952795211580E1380798F0EC89FD8927
:1018E000108260E874E88EE190E0A70196010E9402
:1018F00018292150310941095109569547953795C5
:101900002795E889F9893083EA89FB892083EE8964
:10191000FF89408181E090E09C010A8C02C0220F87
:10192000331F0A94E2F7422B4083EE89FF894081FE
:101930009C010B8C02C0220F331F0A94E2F7422B4A
:101940004083EE89FF8940819C010C8C02C0220FEC
:10195000331F0A94E2F7422B4083EE89FF892081EE
:101960000D8C02C0880F991F0A94E2F7809582239C
:101970008083DF91CF91FF90EF90DF90CF9008951B
:101980001092ED031092EC0388EE93E0A0E0B0E03B
:101990008093EE039093EF03A093F003B093F103D1
:1019A0008FEE92E09093EB038093EA038DE494E052
:1019B0009093F7038093F60389E094E09093F90302
:1019C0008093F80385EC90E09093FB038093FA03F7
:1019D00084EC90E09093FD038093FC0380EC90E016
:1019E0009093FF038093FE0381EC90E090930104B9
:1019F0008093000486EC90E09093030480930204AB
:101A000084E08093040483E08093050487E080935E
:101A1000060485E08093070481E08093080408951C
:101A2000AF92BF92CF92DF92EF92FF920F931F93EC
:101A3000CF93DF936C017B01C0E0D0E000E010E0C9
:101A4000F601EC0FFD1F4AE050E06281C7010E94E1
:101A5000D60E5C016EE2C7010E940A0E8A0D9B1D24
:101A6000080F191F2196C330D10551F74AE050E005
:101A7000F6016581C7010E94D60E080F191FC80123
:101A8000DF91CF911F910F91FF90EF90DF90CF905A
:101A9000BF90AF9008952FEF32E0FC013183208397
:101AA000128213821482158208950F93FC018FEF26
:101AB00092E09183808362834383248305830F9123
:101AC00008952FEF32E0FC0131832083FB01408138
:101AD000518162817381FC014283538364837583E6
:101AE0000895FC01DB014D915D916D917C914283E4
:101AF00053836483758308958FEF92E090939204EB
:101B0000809391041092930410929404109295047F
:101B10001092960408950E94590A0E94B906CCEFCB
:101B2000DBE00E9466072097E1F30E94FC0BF9CFEF
:101B30000C944A24CF92DF92EF92FF920F931F935F
:101B4000CF93DF936C01EB017A01E60EF71E00E004
:101B500010E00BC06991D601ED91FC910190F081EC
:101B6000E02DC6010995080F191FCE15DF0591F765
:101B7000C801DF91CF911F910F91FF90EF90DF90FF
:101B8000CF900895DB010D900020E9F7AD014150A1
:101B90005109461B570BDC01ED91FC910280F3814A
:101BA000E02D0994AF92BF92CF92DF92EF92FF9215
:101BB0000F931F93CF93DF937C016B0100E010E044
:101BC000C0E0D0E011C0D701ED91FC91A080B180C0
:101BD000B801C6010E941911682FC701F5010995C6
:101BE000C80FD91F0F5F1F4FD60114968D919C917E
:101BF00015970817190738F3CE01DF91CF911F9180
:101C00000F91FF90EF90DF90CF90BF90AF9008952D
:101C10000C94C20DDC01ED91FC910190F081E02D5E
:101C20000994DB01ED91FC9111970190F081E02D79
:101C3000BC01CD0109940F931F93CF93DF93EC0167
:101C40006DE00E940A0E8C016AE0CE010E940A0E2D
:101C50009C01200F311FC901DF91CF911F910F917E
:101C600008950F931F93CF93DF93EC010E94D20D41
:101C70008C01CE010E941B0E9C01200F311FC90157
:101C8000DF91CF911F910F9108950F931F93CF93E1
:101C9000DF93EC010E94C20D8C01CE010E941B0E4D
:101CA0009801280F391FC901DF91CF911F910F9122
:101CB00008950F931F93CF93DF93EC010E94110EB1
:101CC0008C01CE010E941B0E9C01200F311FC90107
:101CD000DF91CF911F910F9108954F925F926F9274
:101CE0007F929F92AF92BF92CF92DF92EF92FF923C
:101CF0000F931F93CF93DF93CDB7DEB7A1970FB6A6
:101D0000F894DEBF0FBECDBF5C016A017B01922E4D
:101D100019A281E0821710F08AE0982E8E010F5DE3
:101D20001F4F492C512C612C712CC701B601A30106
:101D300092010E9418298C2D929E80191124015025
:101D400011098A3014F4805D01C0895CF801808338
:101D500069017A01C114D104E104F10431F7B80139
:101D6000C5010E94C20DA1960FB6F894DEBF0FBE4A
:101D7000CDBFDF91CF911F910F91FF90EF90DF903A
:101D8000CF90BF90AF909F907F906F905F904F905B
:101D900008952115310541F4DC01ED91FC9101908C
:101DA000F081E02D642F09940C946D0E9A01462F5A
:101DB00050E060E070E00C94C90ECF92DF92EF9299
:101DC000FF920F931F93CF93DF93EC016A017B0186
:101DD0002115310579F4E881F9810190F081E02D38
:101DE000642FDF91CF911F910F91FF90EF90DF90C3
:101DF000CF9009942A30310519F477FD0EC02AE0FE
:101E0000B701A601CE01DF91CF911F910F91FF90F5
:101E1000EF90DF90CF900C946D0E6DE20E940A0E51
:101E20008C0144275527BA014C195D096E097F09B9
:101E30002AE0CE010E946D0E080F191FC801DF9124
:101E4000CF911F910F91FF90EF90DF90CF90089569
:101E50009A01AB01662757FD6095762F0C94DD0E35
:101E60007F928F929F92AF92BF92CF92DF92EF922A
:101E7000FF920F931F93CF93DF938C014A015B0175
:101E8000F22E20E030E0A901C501B4010E944F27E5
:101E900087FF0AC06DE2C8010E940A0EEC01B7FA82
:101EA000B094B7F8B09402C0C0E0D0E0E12C60E09C
:101EB00070E080E09FE307C020E030E040E251E4C2
:101EC0000E945327E394EF10F7CF262F372F482F88
:101ED000592FC501B4010E94EB26762E872E982E2D
:101EE000A92E0E94C027B62EC72ED82EE92E0E94FA
:101EF000EC279B01AC01672D782D892D9A2D0E942E
:101F0000EA26A62E972E882E792E2AE04B2D5C2DC0
:101F10006D2D7E2DC8010E946D0EC80FD91FFF20A8
:101F2000B9F161E472E0C8010E94C20DC80FD91F67
:101F30002FC020E030E040E251E46A2D792D882D59
:101F4000972D0E94A228762EC72ED82EE92E0E9409
:101F5000BB274B01AA2497FCA094BA2C2AE030E0BE
:101F6000B501A401C8010E94DD0EC80FD91FC5012B
:101F7000B4010E94EE279B01AC01672D7C2D8D2DB5
:101F80009E2D0E94EA26A62E972E882E792EFA9450
:101F9000F110CFCFCE01DF91CF911F910F91FF9024
:101FA000EF90DF90CF90BF90AF909F908F907F90F9
:101FB00008950C94300F0F931F93CF93DF93EC0190
:101FC0000E94300F8C01CE010E941B0E9801280F39
:101FD000391FC901DF91CF911F910F910895FC0125
:101FE000808191810C94E524CF93DF93EC0188816B
:101FF0009981009711F00E94E524198218821D82B0
:102000001C821B821A82DF91CF9108950F931F9338
:10201000CF93DF93EC018B016F5F7F4F88819981B4
:102020000E94DF25009731F0998388831B830A8300
:1020300081E001C080E0DF91CF911F910F91089561
:10204000CF93DF93EC0188819981892B31F08A81CC
:102050009B818617970708F00CC0CE010E940610DE
:10206000882349F08C819D81892B19F4E881F981BD
:10207000108281E001C080E0DF91CF910895EF925E
:10208000FF920F931F93CF93DF93EC017B018A01A3
:10209000BA010E942010811104C0CE010E94F40FE9
:1020A00007C01D830C83B701888199810E94C926CE
:1020B000CE01DF91CF911F910F91FF90EF90089586
:1020C000DC0111961C921E9213961C921E9212977E
:1020D00015961C921E92149716961C926115710506
:1020E00059F0DB010D900020E9F7AD014150510995
:1020F000461B570B0C943F100895CF93DF93EC01D0
:10210000FB018617970761F0608171816115710588
:1021100029F0448155810E943F1002C00E94F40FB3
:10212000CE01DF91CF910895FC01118210821382BC
:1021300012821582148216820C947D10CF93DF9345
:10214000D82FC92F6115710561F0DB010D900020BA
:10215000E9F7AD0141505109461B570B0E943F1052
:1021600002C00E94F40F8D2F9C2FDF91CF91089514
:10217000EF92FF920F931F93CF93DF93EC017B01BC
:102180000C811D816115710511F480E016C04115A7
:10219000510591F0040F151FB8010E9420108823EB
:1021A000A1F3288139818C819D81B701820F931F12
:1021B0000E94C9261D830C8381E0DF91CF911F917E
:1021C0000F91FF90EF900895CF93DF9300D0CDB79C
:1021D000DEB769831A8241E050E0BE016F5F7F4F36
:1021E0000E94B8100F900F90DF91CF910895DC01FD
:1021F00014962D913C911597232B39F481E06115AC
:10220000710511F0FB0108C00895DC01ED91FC910E
:102210006115710529F481E09081992349F007C087
:10222000CF010E94C0269C0181E0232B09F080E0B1
:102230000895FC01248135816217730748F4808179
:102240009181009729F0FC01E60FF71F8081089526
:1022500080E00895CF93DF93FC0184819581481736
:10226000590780F4C081D181FB0160817181CE0169
:10227000840F951F0E94D026009721F09C012C1BF3
:102280003D0B02C02FEF3FEFC901DF91CF910895C1
:1022900040E050E00C942A11BF92CF92DF92EF926F
:1022A000FF920F931F93CF93DF936C017B01EA01A1
:1022B00089012417350720F48D2FE901042F182FE9
:1022C00062E572E0C6010E946010D70114968D91FC
:1022D0009C9115978C179D07C8F08017910708F4FB
:1022E0008C01D701ED91FC911197E00FF11FB080A7
:1022F00010826D917C916C0F7D1FC6010E949E1013
:10230000D701ED91FC91E00FF11FB082C601DF9182
:10231000CF911F910F91FF90EF90DF90CF90BF90E2
:102320000895CF93DF931F92CDB7DEB76983DC01A9
:10233000ED91FC910280F381E02D41E050E0BE017F
:102340006F5F7F4F09950F90DF91CF910895CF93E5
:10235000DF93EC0107C0E881F9810680F781E02D69
:10236000CE010995E881F9810480F581E02DCE0147
:102370000995892B81F7DF91CF91089521E0FC0128
:102380008485843009F420E0822F08950F931F93F1
:10239000CF93DF931F92CDB7DEB78C01DC01ED91B7
:1023A000FC910480F581E02D0995892B51F0BE0147
:1023B0006F5F7F4FF80184850E94CF18298130E03C
:1023C00002C02FEF3FEFC9010F90DF91CF911F9116
:1023D0000F910895FC0184850C949018CF93DF939E
:1023E0001F92CDB7DEB741E050E0BE016F5F7F4F77
:1023F000FC0184850E949018181619061CF4298186
:1024000030E002C02FEF3FEFC9010F90DF91CF9175
:102410000895FC016485643021F08BEB94E00C940A
:10242000A31A80E090E008950F931F93CF93DF935A
:102430008C01EA01FC018485843019F481E090E08C
:1024400007C00E943D18892B39F481E090E0F80123
:1024500093838283C0E0D0E0CE01DF91CF911F91C2
:102460000F910895CF92DF92EF92FF920F931F93F7
:10247000CF93DF93CDB7DEB7E5970FB6F894DEBF05
:102480000FBECDBF7C018B016A01CE0101960E9477
:102490004B0DCE0109960E94E716CE01C0960E9410
:1024A0004B0D6DE974E0CE018A960E945F15BE0166
:1024B000665D7F4FCE0101960E94F820AE01405D1F
:1024C0005F4FB801CE0101960E945C239C018130D0
:1024D0009105C9F4D701ED91FC910484F585E02DB7
:1024E0008FEF92E09DA38CA30AA91BA92CA93DA95B
:1024F0000EA31FA328A739A7A601BE016C5D7F4FBD
:10250000C70109959C01C901E5960FB6F894DEBF95
:102510000FBECDBFDF91CF911F910F91FF90EF9034
:10252000DF90CF900895FC011382128248EE53E0B1
:1025300060E070E0448355836683778385E093E0B1
:102540009183808384E084870895FC0184858430AE
:1025500039F0382F20E0C9018D5F9B4F0C94F6199C
:1025600080E00895CF93DF93EC018C858430D1F027
:10257000CE010E94A512843181F0882371F0883148
:1025800061F08C3161F4E881F9810480F581E02DFE
:10259000CE01099521E0892B19F420E001C021E04A
:1025A000822F01C080E0DF91CF910895CF92DF921A
:1025B000EF92FF92CF93DF93EC018C85843091F101
:1025C0000E9436180E94F7096B017C01CE010E941F
:1025D000A5128823D1F00E94F7096C197D098E0994
:1025E0009F09683E734081059105A8F00EC08C8557
:1025F0000E94B217EC85F0E0EE0FFF1FEB55FB4F8A
:102600001182108284E08C870DC0CE010E94A51239
:10261000882381F3ECCF61E070E080E090E00E94DD
:10262000330AD4CFDF91CF91FF90EF90DF90CF901E
:102630000895AF92BF92CF92DF92EF92FF920F93E5
:102640001F93CF93DF93EC015B016A018C8584308B
:1026500009F04EC093E0E92E94E0F92E00E010E07E
:10266000C7010E94F619811102C00C870AC0883187
:10267000E1F38C31D1F30F5F1F4FF3940430110558
:1026800079F78C858430A1F120911C0130911D01D6
:102690002F5F3F4F09F002C020E034E030931D016E
:1026A00020931C0140911C0150911D0120E061E02C
:1026B0000E94C017B5016E5F7F4FA6018C850E94F6
:1026C000001809C061E070E080E090E00E94330AE9
:1026D000CE010E94A512811103C084E08C8708C03E
:1026E000CE010E94A512873169F721E030E002C0D7
:1026F00020E030E0C901DF91CF911F910F91FF9051
:10270000EF90DF90CF90BF90AF9008950F9300E0CF
:1027100020E040E060E087E994E00E94550D0F91D1
:10272000089544E050E0BC0181E090E00C94C719AA
:1027300044E050E0BC0185E090E00C94C71944E00F
:1027400050E0BC018FE090E00C94C719AF92BF92AB
:10275000CF92DF92EF92FF920F931F93CF93DF936D
:10276000CDB7DEB76E970FB6F894DEBF0FBECDBF04
:102770006C015B0182E690E00E94980D8C0182E67C
:10278000F80111928A95E9F7C801895B9F4F0E9471
:10279000E716F601178306838BEB94E00E948919F4
:1027A00046E050E0B50189E090E00E94C71900E0E2
:1027B00020E040E060E0CE0149960E94550DCE0138
:1027C0004B960E949F1310EAE12E1FE0F12E00E0CD
:1027D00010E020E63AEE40E050E0B501F6018681D7
:1027E00097810E94A8208C018130910589F5F6011E
:1027F00066817781CE0143960E94BE1DCE0145962B
:102800000E949F13F60166817781CE010D960E948A
:10281000D41DCE010F960E949113F6016681778137
:10282000CE0107960E94C91DCE0109960E949813F9
:10283000F60166817781CE0101960E94DF1D4B81F2
:102840005C816D817E81F60142835383648375834D
:10285000C8016E960FB6F894DEBF0FBECDBFDF91F4
:10286000CF911F910F91FF90EF90DF90CF90BF908D
:10287000AF9008958F929F92AF92BF92CF92DF92C6
:10288000EF92FF920F931F93CF93DF9300D0CDB7BA
:10289000DEB74C016A0159018BEB94E069837A83BE
:1028A0000E94891946E050E069817A8189E090E0D0
:1028B0000E94C719C60102960E949F13C801029682
:1028C0000E949113C70102960E949813F50142815C
:1028D000538164817581F4014283538364837583DA
:1028E0000F900F90DF91CF911F910F91FF90EF907C
:1028F000DF90CF90BF90AF909F908F9008956F9290
:102900007F928F929F92AF92BF92CF92DF92EF927F
:10291000FF920F931F93CF93DF93CDB7DEB76E97E0
:102920000FB6F894DEBF0FBECDBF6C015B017A011C
:102930004901380100E02FEF4FEF6FEFCE014996CC
:102940000E94550D4FEF52E05A8349838B8D9C8D29
:10295000AD8DBE8D8B839C83AD83BE8358874F83A3
:10296000F30182819381A481B58189879A87AB879E
:10297000BC875E874D87F40182819381A481B581F4
:102980008F87988BA98BBA8B5C8B4B8BF70142811D
:102990005381648175814D8B5E8B6F8B788FEE24B4
:1029A000E394F12CEC0EFD1E8E01095F1F4F9E017A
:1029B000235F3F4FAE014D5E5F4FB501C6010E94E0
:1029C0003A146E960FB6F894DEBF0FBECDBFDF91FE
:1029D000CF911F910F91FF90EF90DF90CF90BF901C
:1029E000AF909F908F907F906F900895CF92DF92DD
:1029F000EF92FF920F931F93CF93DF93CDB7DEB784
:102A000068970FB6F894DEBF0FBECDBF6B0179019A
:102A1000DA0112964D915D916D917C9115974D8BD8
:102A20005E8B6F8B788FAFEFB2E0BA83A98321E022
:102A3000288F0D891E892F89388D0B831C832D8348
:102A40003E83B887AF83F7010281138124813581EA
:102A500009871A872B873C87BE87AD874F87588B9E
:102A6000698B7A8B8E010F5F1F4F9E01295F3F4F4D
:102A7000AE01435F5F4FB6010E947F1468960FB6A8
:102A8000F894DEBF0FBECDBFDF91CF911F910F91A4
:102A9000FF90EF90DF90CF900895CF93DF93EC01FC
:102AA0000E944B0DBE016E5F7F4F44E050E08FE00F
:102AB00090E00E94EF1ACE01DF91CF9108952FEFA1
:102AC00032E0FC0131832083FB0142815381648128
:102AD0007581FC01428353836483758308950F934A
:102AE00000E020E040E060E08DEA94E00E94550DB7
:102AF0008DE994E00F910C944B0DDC01ED91FC916C
:102B0000008CF18DE02D09942FEF32E0FC01318330
:102B10002083FB014189528963897489FC014283C6
:102B20005383648375830895FC018589968908958C
:102B3000FC01818D928D0895CF93DF931F92CDB7C5
:102B4000DEB76983DC01ED91FC910280F381E02D19
:102B500041E050E0BE016F5F7F4F09950F90DF911C
:102B6000CF910895CF93DF93EC0107C0E881F981FD
:102B70000680F781E02DCE010995898D9A8D892BEC
:102B8000A9F7DF91CF910895CF93DF931F92CDB72F
:102B9000DEB7FC01218D328D232B49F0BE016F5F22
:102BA0007F4F84850E94CF18298130E002C02FEF2B
:102BB0003FEFC9010F90DF91CF910895CF93DF933D
:102BC000EC01898D9A8D009719F42FEF3FEF11C01A
:102BD0004817590708F0AC018C850E9490189C0199
:102BE0001816190694F7898D9A8D821B930B9A8F6C
:102BF000898FC901DF91CF9108950F931F93CF93D0
:102C0000DF931F92CDB7DEB78C01FC01818D928DD1
:102C1000892B59F041E050E0BE016F5F7F4F848502
:102C20000E949018181619061CF02FEF3FEF08C0ED
:102C3000F801818D928D0197928F818F298130E0EB
:102C4000C9010F90DF91CF911F910F910895CF93FC
:102C5000DF93EC019A018F89988DAB01BC018C85C3
:102C60000E94DD189C018F89988D820F931F988F89
:102C70008F8BC901DF91CF910895FC0184850C945D
:102C80003919FC01108E178A6E5F7F4F84850C9472
:102C90001319CF93DF93EC018C85843061F00E948F
:102CA000B217EC85F0E0EE0FFF1FEB55FB4F1182E2
:102CB000108284E08C87DF91CF9108950F931F934A
:102CC000CF93DF93CDB7DEB728970FB6F894DEBF6A
:102CD0000FBECDBF8C01DC01ED91FC910284F38528
:102CE000E02D0995F80164858BEB94E00E94A31A0E
:102CF000892B29F148E050E0BE016F5F7F4FD8017A
:102D00001C968C910E9490189C0118161906CCF400
:102D1000BE016F5F7F4FC8010F960E94710D9D81AC
:102D200080E02E81820F911DF801968B858B3F816B
:102D300020E08885280F311D328F218F02C020E0CE
:102D400030E0C90128960FB6F894DEBF0FBECDBFA4
:102D5000DF91CF911F910F910895CF92DF92EF9263
:102D6000FF920F931F93CF93DF93EC016B018C8540
:102D7000843019F593E0E92E94E0F92E00E010E09C
:102D8000C7010E94F619811102C00C8708C0883162
:102D9000E1F30F5F1F4FF3940430110589F78C8521
:102DA000843059F0DE86CD861A8E198E20E0A60179
:102DB00062E00E94C01781E001C080E0DF91CF9106
:102DC0001F910F91FF90EF90DF90CF900895FC013D
:102DD0001382128248EE53E060E070E04483558332
:102DE0006683778381E293E09183808384E08487A4
:102DF000CF010F960C944B0DCF92DF92EF92FF9282
:102E00000F931F93CF93DF93CDB7DEB7E5970FB640
:102E1000F894DEBF0FBECDBF7C018B016A01CE01ED
:102E200001960E944B0DCE0109960E94E716CE0135
:102E3000C0960E944B0D6DE974E0CE018A960E9407
:102E40005F15BE01665D7F4FCE0101960E94F8209E
:102E5000AE01405D5F4FB801CE0101960E945C2338
:102E60009C0181309105C9F4D701ED91FC91008856
:102E7000F189E02D8FEF92E09DA38CA30AA91BA9F5
:102E80002CA93DA90EA31FA328A739A7A601BE01FF
:102E90006C5D7F4FC70109959C01C901E5960FB68E
:102EA000F894DEBF0FBECDBFDF91CF911F910F9180
:102EB000FF90EF90DF90CF9008950F9300E020E017
:102EC00040E060E083EB94E00E94550D0F9108957F
:102ED000382F20E044E050E0C901845F9B4F0C9400
:102EE000C719282F30E02C5F3F4F922F8827860F7D
:102EF000971F0C94F61962E070E00C947117FB01B7
:102F0000282F30E02C5F3F4F922F8827642F8E0FA1
:102F10009F1F0C946719462F62E070E00C947F1796
:102F2000CF93DF93C82FD62F472F60E170E00E9428
:102F30007F174D2F61E170E08C2FDF91CF910C94C2
:102F40007F17CF93DF93C82FD62F472F64E070E011
:102F50000E947F174D2F65E070E08C2FDF91CF919D
:102F60000C947F17CF93C82F40E150E0682F8BEB74
:102F700094E00E94A71B6FEF8C2FCF910C948B17BE
:102F8000EF92FF921F93CF93DF9300D0CDB7DEB7C0
:102F9000182F7A01862F8150853048F5812F2A839A
:102FA00069830E94B2172A816981422F462B60E013
:102FB00070E0812F0E947F17E114F10411F0B70136
:102FC0000AC06091B9047091BA046F5F7F4F70932B
:102FD000BA046093B904812F0E94A11741E050E028
:102FE000612F8BEB94E00E94A71B81E001C080E081
:102FF0000F900F90DF91CF911F91FF90EF90089568
:103000001F93CF93DF93182FFB01EA0180818F3F3D
:1030100051F481818F3F91F482818F3F79F48381D4
:103020008F3F61F41EC0811109C08181811106C0EA
:103030008281811103C08381882399F0209789F0D0
:10304000BF01812F0E946817BE01812F0E94901737
:1030500044E050E0612F8BEB94E00E94A71B81E0DD
:1030600001C080E0DF91CF911F91089548E050E0CA
:10307000682F8BEB94E00C94A71BDF92EF92FF92EA
:103080000F931F93CF93DF93D82E8B01EA0141302A
:1030900088E0580710F0C0E0D8E06D2D8BEB94E08D
:1030A0000E94D31A7C0163E070E08D2D0E9471179D
:1030B000873111F08C3121F4EC16FD0670F302C05B
:1030C000C0E0D0E09E01A8016D2D8BEB94E00E9442
:1030D000841A40E250E06D2D8BEB94E00E94A71B18
:1030E0000DC063E070E08D2D0E947117811106C044
:1030F0008D2D0E94B217C0E0D0E009C08D2D0E9436
:103100007B1784FFEECF60E18D2D0E948B17CE01DF
:10311000DF91CF911F910F91FF90EF90DF90089575
:10312000DF92EF92FF920F931F93CF93DF93D82EEE
:103130007B018A01682F8BEB94E00E94A31AEC01BB
:10314000009771F463E070E08D2D0E947117843157
:10315000E9F08823D9F08C31C9F0CFEFDFEF16C04A
:10316000081719070CF4E8011C161D067CF400E092
:103170009E01A7016D2D8BEB94E00E94571B40E44C
:1031800050E06D2D8BEB94E00E94A71BCE01DF91E8
:10319000CF911F910F91FF90EF90DF9008950F93C3
:1031A000AB0101E021E030E0682F8BEB94E00E945E
:1031B000571B81E090E00F910895AF92BF92CF929C
:1031C000DF92EF92FF920F931F93CF93DF93B82E6E
:1031D0007B016A01E901682F8BEB94E00E94D31A0E
:1031E0008C179D0740F46B2D8BEB94E00E94D31A53
:1031F000A82EC92F02C0AC2ECD2F0A2D1C2F960150
:10320000A7016B2D8BEB94E00E94161A8A2D9C2F40
:10321000DF91CF911F910F91FF90EF90DF90CF90B2
:10322000BF90AF9008951F93CF93DF93182FFB01AA
:10323000EA018081811109C08181811106C08281EA
:10324000811103C08381882369F0209759F0BF0161
:10325000812F0E946817BE01812F0E94901721E0E4
:1032600030E002C020E030E0C901DF91CF911F9132
:103270000895CF93C82F40E250E0682F8BEB94E085
:103280000E94A71B0CC08C2F0E947B1783FF07C0D6
:1032900068E18C2F0E948B1720E030E00BC08C2F50
:1032A0000E947B1784FFEFCF60E18C2F0E948B1769
:1032B00021E030E0C901CF9108958EBD0DB407FE25
:1032C000FDCF8EB508952A9808952A9A08951F93E0
:1032D000CF93DF9300D0CDB7DEB7182F6A839983E1
:1032E0000E94631980EF0E945D199981892F0E94C5
:1032F0005D19812F0E945D196A81862F0E945D19D8
:103300000E94651981E00F900F90DF91CF911F917E
:103310000895CF93DF93EC016CE271E080E090E0E0
:103320000E94330A0E94B71B229A60E880E090E076
:103330000E94671965E58BE190E00E94671965E5D9
:103340008AE190E00E94671980E090E49983888385
:1033500080E090E69987888780E098E49B838A8361
:1033600080E098E69B878A8780E090E59D838C8348
:1033700080E090E79D878C8780E098E59F838E832F
:1033800080E098E79F878E87DF91CF910895CF9255
:10339000DF92EF92FF920F931F93CF93DF93EC0195
:1033A0007A018B016A01C80ED91E13C00E946319ED
:1033B00080EF0E945D198D2F0E945D198C2F0E9455
:1033C0005D192196F80181918F010E945D190E947B
:1033D0006519CC15DD0551F7C701DF91CF911F911C
:1033E0000F91FF90EF90DF90CF9008951F93CF93B0
:1033F000DF931F92CDB7DEB7182F99830E94631910
:103400008FE00E945D199981892F0E945D19812F9B
:103410000E945D1980E00E945D1989830E946519F0
:1034200089810F90DF91CF911F9108956F927F92C4
:103430009F92AF92BF92CF92DF92EF92FF920F9343
:103440001F93CF93DF931F92CDB7DEB7F82E962E42
:103450003A01590164E270E0892D99830E94711745
:10346000E82E65E270E0892D0E947117DE2CC12CD8
:10347000C82AC60CD71C960137706F2C9981792EFB
:10348000690C711C690C711CD301ED91FC91E20F68
:10349000F31FC901800F911F81309840A0F0E12CEB
:1034A00048E0F42EE21AF30AA701B501CF010E9409
:1034B000C719A8014E195F09B5016E0D7F1DF301F3
:1034C0008081918103C0A801B501CF010E94C71975
:1034D0000C0D1D1D412F64E270E0892D0E947F17A5
:1034E000402F65E270E0892D0F90DF91CF911F9101
:1034F0000F91FF90EF90DF90CF90BF90AF909F9093
:103500007F906F900C947F170F931F9389019A01FE
:1035100040E050E00E94161A1F910F910895CF933A
:10352000DF93C82F66E270E00E947117D82F67E220
:1035300070E08C2F0E9471173D2F20E0282BC901CD
:10354000DF91CF910895FF920F931F93CF93DF9355
:10355000F62EC0E0D0E08F2D0E948F1A8C010097CC
:1035600021F08F2D0E948F1AEC01C017D10799F717
:10357000CE01DF91CF911F910F91FF900895CF93CE
:10358000DF93C82F60E270E00E947117D82F61E2CC
:1035900070E08C2F0E9471173D2F20E0282BC9016D
:1035A000DF91CF910895FF920F931F93CF93DF93F5
:1035B000F62EC0E0D0E08F2D0E94BF1A8C0100973C
:1035C00021F08F2D0E94BF1AEC01C017D10799F787
:1035D000CE01DF91CF911F910F91FF900895CF926F
:1035E000DF92EF92FF920F931F93CF93DF93EC0143
:1035F0007A018B016A01C80ED91E14C00E9463199A
:103600008FE00E945D198D2F0E945D198C2F0E9402
:103610005D19219680E00E945D19F80181938F0168
:103620000E946519CC15DD0549F7C701DF91CF91DF
:103630001F910F91FF90EF90DF90CF900895CF9260
:10364000DF92EF92FF920F931F93CF93DF93690165
:103650005770EC01C60FD11DC60FD11D2896888169
:103660009981840F951F9801240F351F2130384010
:1036700090F0E12C68E0F62EE41AF50AA701B601F5
:103680000E94EF1AA8014E195F09B6016E0D7F1D49
:103690008881998102C0A801B601DF91CF911F9165
:1036A0000F91FF90EF90DF90CF900C94EF1A8F92D4
:1036B0009F92AF92BF92CF92DF92EF92FF920F93C1
:1036C0001F93CF93DF936C01962E5A01E901802E50
:1036D00068E270E0892D0E947117F82E69E270E0AF
:1036E000892D0E947117FF2DE0E07F01E82A8E01ED
:1036F0009501A701692DC6010E941F1B81101AC0E8
:10370000CE0DDF1D4D2F68E270E0892D0E947F17DE
:103710004C2F69E270E0892DDF91CF911F910F91BD
:10372000FF90EF90DF90CF90BF90AF909F908F90E1
:103730000C947F17DF91CF911F910F91FF90EF9025
:10374000DF90CF90BF90AF909F908F900895CF93D0
:10375000C62F61E070E08C2F0E947F1761E070E05F
:103760008C2F0E9471178111F9CFCF91089561E0DC
:103770008DE00E94BE0A61E08BE00E94BE0A61E01B
:103780008AE00E94BE0A60E08DE00E94F60A60E0D6
:103790008BE00E94F60A61E08AE00E94F60A8CB58E
:1037A00080618CBD8CB580648CBD08950E96FC0143
:1037B00084E1DF011D928A95E9F708952F923F92E7
:1037C0004F925F926F927F928F929F92AF92BF9231
:1037D000CF92DF92EF92FF920F931F93CF93DF93DD
:1037E000CDB7DEB7E4970FB6F894DEBF0FBECDBFFE
:1037F0007C012A013B0169010E94F7094B015C0130
:103800008701095B1F4F12C00E94F70968197909E7
:103810008A099B09461657066806790608F477C197
:1038200062E370E080E090E00E94330AC8010E94E9
:103830005E161816190644F742E250E0BE016F5FAB
:103840007F4FC8010E94DE158981823009F05AC17C
:10385000F801858996898334910509F45BC152C1C9
:10386000F70180819181A281B38188169906AA0609
:10387000BB0648F084819581A681B781881599059A
:10388000AA05BB0528F4C8010E94B215512C5CC1E1
:1038900089899A89AB89BC89F70186879787A08B2C
:1038A000B18B8EECC82ED12CC8010E94FD15F1E021
:1038B000CF1AD108C9F7512CC70182969AA789A7B8
:1038C000F701B696FCA7EBA7C7018A969EA78DA71E
:1038D000F701E85AFF4FF8ABEFA76701FAE1CF0E07
:1038E000D11CC70142969AAB89AB570196E1A90E4C
:1038F000B11CF7017E96FCABEBABFCC0C8010E948B
:10390000FD158333910509F4CCC07CF48130910519
:1039100049F124F4892B09F4EDC0DDC08330910511
:1039200049F1069709F0D7C040C08A33910509F4E0
:103930008CC03CF48533910569F0C69709F0CBC083
:1039400050C08B33910509F496C08F3F910509F063
:10395000C2C0D0C0C8010E94FD15C8010E94FD155B
:10396000582EC8C0C8010E94FD1544E050E069A966
:103970007AA947C0C8010E94FD153C0144E050E00F
:10398000B501C8010E94DE15212C312C7724F4E00A
:103990006F1A710806C0C8010E94FD158FEF281A22
:1039A000380A26143704BCF3A5C0C8010E94FD15CF
:1039B0003C0144E050E06BA97CA9C8010E94DE15DF
:1039C000212C312C772494E0691A710806C0C801B3
:1039D0000E94FD15EFEF2E1A3E0A26143704BCF3A1
:1039E00089C0C8010E94FD15482EF701828D938D74
:1039F000A48DB58D892B8A2B8B2B39F444E050E0B4
:103A0000B601C8010E94DE1575C0EFA5F8A9608057
:103A1000718082809380B601CE0183960E94610DF1
:103A20008DA19EA1AFA1B8A586159705A805B905DA
:103A300029F3212C312C06C0C8010E94FD15FFEF8F
:103A40002F1A3F0A4210F8CF55C0C8010E94FD1539
:103A500044E050E06BA57CA5C8010E94DE15F7018B
:103A600066A177A180A591A50E948D2966A377A361
:103A700080A791A73FC0C8010E94FD1544E050E017
:103A80006DA57EA5C8010E94DE15F70162A573A58C
:103A900084A595A50E948D2962A773A784A795A7E1
:103AA00029C0C8010E94FD1544E050E069A57AA52F
:103AB000C8010E94DE15F70162A173A184A195A13E
:103AC0000E948D2962A373A384A395A366A777A7F9
:103AD00080AB91AB0FC0C8010E94FD15382E612C40
:103AE000712C06C0C8010E94FD15FFEF6F1A7F0AF6
:103AF0003610F8CFC8010E949815181619060CF454
:103B0000FDCE01C0512CC8010E94B2151DC0552424
:103B10005A941AC06D817E818F8198850E948D296B
:103B20004B015C01F6016083718382839383B7014B
:103B3000685F7F4F46E050E0CE014D960E94AA2676
:103B4000009709F48DCE9FCE852DE4960FB6F8949C
:103B5000DEBF0FBECDBFDF91CF911F910F91FF90C0
:103B6000EF90DF90CF90BF90AF909F908F907F901D
:103B70006F905F904F903F902F900895CF93DF9379
:103B8000EC01625F7F4F0E94610DCE01DF91CF910A
:103B90000895CF93DF93EC016E5E7F4F0E94610D1D
:103BA000CE01DF91CF910895CF93DF93EC016A5E50
:103BB0007F4F0E94610DCE01DF91CF910895CF9389
:103BC000DF93EC01625E7F4F0E94610DCE01DF91B9
:103BD000CF91089580E3FB0180833296842F8295F4
:103BE0008F7090E1899F401911244A3014F4405D90
:103BF00001C0495C4293482F8111F0CF08956F9224
:103C00007F928F929F92AF92BF92CF92DF92EF926C
:103C1000FF920F931F93CF93DF93CDB7DEB7AC978F
:103C20000FB6F894DEBF0FBECDBF7C01862EB42E3A
:103C3000A52E30E2932ECC24C394D12CCC0EDD1EC5
:103C4000F601292D11922A95E9F70FEF2FEF4FEF8B
:103C50006FEFCE0187960E94550D8FEF92E09AA3E9
:103C600089A389A59AA5ABA5BCA58BA39CA3ADA34D
:103C7000BEA38701095B1F4F43E450E0BE016F5DA7
:103C80007F4FC8010E944116019609F4C1C081E02E
:103C900089838A8396E0792E7B821C82F701648176
:103CA0007581868197810E948D296D837E838F83A4
:103CB0009887A986BA8680E890E09C878B874CE13C
:103CC00050E0B601C8010E942716F601292D119275
:103CD0002A95E9F7570188E0A80EB11CF501D60135
:103CE00001900D927A94E1F740E150E0B601C801ED
:103CF0000E942716F60111929A94E9F726E0622EA7
:103D0000712C40E250E0B601C8010E942716F1E094
:103D10006F1A7108B1F783E6898392E89A8393E575
:103D20009B838C8385E38D8381E08E838F829DE3EB
:103D3000988797E099878A8786E0F501DE011B96D0
:103D400001900D928A95E1F78CE0898B8A8B61E472
:103D500073E0CE0143960E94C926F7014385BE0158
:103D6000675E7F4FC7010E94EA1DF7014485BE01CF
:103D7000655E7F4FC7010E94EA1DF7014585BE01C0
:103D8000635E7F4FC7010E94EA1D4EE150E0B6011D
:103D9000C8010E942716F3E08F121EC082E38983B8
:103DA00084E08A83F70196859B8397859C8390891D
:103DB0009D8391899E8396E39F838887828D8987DF
:103DC000838D8A87848D8B87858D8C874CE050E02E
:103DD000B601C8010E94271687E3898386E08A839B
:103DE00091E09B8393E09C838D838FE08E838AE3B5
:103DF0008F838BE388878FEF898749E050E0BE018E
:103E00006F5F7F4FC8010E942716C8010E943D16B0
:103E1000AC960FB6F894DEBF0FBECDBFDF91CF9149
:103E20001F910F91FF90EF90DF90CF90BF90AF90D8
:103E30009F908F907F906F9008952F923F924F9216
:103E40005F926F927F928F929F92AF92BF92CF922A
:103E5000DF92EF92FF920F931F93CF93DF93CDB733
:103E6000DEB728970FB6F894DEBF0FBECDBF8C012A
:103E700020ED37E040E050E061E070E080E090E06D
:103E80000E942C24D80114966C93149715967C9359
:103E9000159716968C93169717969C9317976C9375
:103EA00011967C93119712968C93129713969C936C
:103EB000F801E95BFF4FFE83ED8364E470E0CF011E
:103EC0000E94AD16882309F427C10E94F7096B01EF
:103ED0007C01812C912C312C5801F6E4AF0EB11CE1
:103EE000C801CE9698878F8338EE432E33E0532E49
:103EF000612C712C42E0242EF9C081111FC0F80101
:103F000084819581A681B7810196A11DB11D84830D
:103F10009583A683B7830E94F7096C197D098E09E2
:103F20009F09A30192010E941829A90161E0C8011B
:103F30000E94FF1D81E0D5018C93BCC08430F1F458
:103F4000F80184819581A681B7810196A11DB11DDB
:103F500084839583A683B7830E94F7096C197D0932
:103F60008E099F09A30192010E941829A90163E00B
:103F7000C8010E94FF1DD5012C929CC0813059F5CB
:103F8000EF81F88540815181628173819E012F5FAD
:103F90003F4FC8010E94DE1B382EF2E08F138AC00B
:103FA00089819A81AB81BC81F80184839583A68342
:103FB000B7830E94F7096C197D098E099F09A30137
:103FC00092010E941829A90163E0C8010E94FF1D07
:103FD000D5013C9275C0823009F06CC0EF81F88544
:103FE00040815181628173819E012F5F3F4FC801E3
:103FF0000E94DE1B382EF5E08F1356C0E3E0D5019A
:10400000EC93F80182A193A1A4A1B5A1892B8A2BDD
:104010008B2B41F484E893E0A0E0B0E082A393A36B
:10402000A4A3B5A3F80186A197A1A0A5B1A5892B4A
:104030008A2B8B2B61F482A193A1A4A1B5A1B69583
:10404000A7959795879586A397A3A0A7B1A7D80111
:104050009A964D915D916D917C919D9796968D91DB
:104060009D910D90BC91A02D452B462B472B59F4CB
:10407000AC01BD01440F551F661F771FF80142A711
:1040800053A764A775A7F80186A797A7A0ABB1AB04
:1040900082A593A5A4A5B5A582AB93ABA4ABB5AB04
:1040A00088248394912C0CC0F6E08F1303C0D501B3
:1040B0001C9206C0BFEF3B1203C0F5011082312CE9
:1040C000F1E08F16910491F00E94F7096C197D09B7
:1040D0008E099F09D801DA962D913D914D915C9101
:1040E000DD97261737074807590728F0F501808123
:1040F000833009F002CF8D819E810E944916F8011C
:1041000084819581A681B7810196A11DB11D84830B
:104110009583A683B78302C0812C912CC401289675
:104120000FB6F894DEBF0FBECDBFDF91CF911F91C8
:104130000F91FF90EF90DF90CF90BF90AF909F9046
:104140008F907F906F905F904F903F902F90089549
:10415000CF92DF92EF92FF920F931F93CF93DF9353
:10416000EC016B011AA21BA21CA21DA21EA21FA27F
:1041700018A619A61AA61BA61CA61DA61EAA1FAA2B
:1041800018AE19AE2AAF3BAF4CAF5DAFFC01FE9647
:10419000E082F182028313838C01085F1F4F86E067
:1041A000F80111928A95E9F7CE010E94D61B86E0AC
:1041B000F601D80101900D928A95E1F7FE01EA5BC4
:1041C000FF4F1082CE01DF91CF911F910F91FF9091
:1041D000EF90DF90CF900C941D1F0F9300E020E034
:1041E00040E060E08BEC94E00E94550D0F91089543
:1041F000FB014281538164817581FC0142835383B9
:1042000064837583178216820895CF93FB01DB01C7
:104210008D918111FDCF80E090E020E030E0CAE098
:104220001BC08F3F910509F064F5DA01A20FB31F9F
:1042300012968C932F5F3F4F80E090E00DC0DC0121
:10424000CA9FC001CB9F900D1124772767FD709501
:1042500060537109860F971F6191662321F0243006
:10426000310594F00EC08F3F910509F054F42430CD
:1042700031053CF4FA01E20FF31F828321E030E0C4
:1042800006C020E030E003C06E32C9F6CACFC901D3
:10429000CF910895AF92BF92CF92DF92EF92FF92AB
:1042A0000F931F93CF93DF9300D01F92CDB7DEB74C
:1042B0007C015B010E94F709F70177836683870120
:1042C000085F1F4FB7016A5F7F4F42E050E0C801AF
:1042D0000E94271681E090E09A83898342E050E0B3
:1042E000BE016F5F7F4FC8010E94271680E091E0FA
:1042F0009A83898342E050E0BE016F5F7F4FC8011F
:104300000E9427161A82198242E050E0BE016F5FB8
:104310007F4FC8010E94271642E050E0BE016F5F48
:104320007F4FC8010E94271642E050E0BE016F5F38
:104330007F4FC8010E9427167501650121C0F60153
:104340007F018191811107C05701AC18BD081A1473
:104350001B0424F011C08E3299F7F6CFAB8241E0F6
:1043600050E0BE016D5F7F4FC8010E942716A50176
:10437000B601C8010E9427166701FFEFCF1ADF0AB6
:10438000F70180818111DBCF1B8241E050E0BE014B
:104390006D5F7F4FC8010E942716E12CFF24F39424
:1043A000FA82E98242E050E0BE016F5F7F4FC801B0
:1043B0000E942716FA82E98242E050E0BE016F5F58
:1043C0007F4FC8010E94271681E090E00F900F9068
:1043D0000F90DF91CF911F910F91FF90EF90DF90A1
:1043E000CF90BF90AF9008954F925F926F927F925F
:1043F0008F929F92AF92BF92CF92DF92EF92FF92F5
:104400000F931F93CF93DF93CDB7DEB763970FB6AC
:10441000F894DEBF0FBECDBF7C015B016A010E9434
:10442000F7092B013C018701085F1F4F4501A12CB3
:10443000B12C12C00E94F709641975098609970901
:1044400086169706A806B90608F40FC162E370E065
:1044500080E090E00E94330AC8010E945E161816A0
:10446000190644F7F7014281538164817581818D7A
:10447000928DA38DB48D481759076A077B0709F001
:10448000F7C0858D968DC59709F0F2C0F7C04CE056
:1044900050E0BE016F5F7F4FC8010E94DE158B8127
:1044A0009C819827892798279A8B898BF7014681C9
:1044B000578129813A814217530711F497FD06C0AD
:1044C000C8010E94B2152CEF3FEFDEC08F709270D2
:1044D000892B31F0C8010E94B2152BEF3FEFD4C0F9
:1044E0008F8098849824892498248114910479F5E4
:1044F000C8010E94B2152AEF3FEFC6C041E050E06C
:10450000BE01635F7F4FC8010E94DE158D8581115A
:1045100007C08D858111F2CF0AC0C8010E94FD1528
:104520008D85982F91509D878111F7CFF2CFC801CB
:104530000E94FD15C8010E94FD15C8010E94FD15CD
:10454000C8010E94FD15FFEFEF1AFF0A02C0E12C1F
:10455000F12C8D819E81982789279827E816F906E6
:1045600068F2A12CB12C41E050E0BE016D5E7F4F9E
:10457000C8010E94DE158B89982F907C69F4811107
:1045800004C00EC0C8010E94FD158B89982F915060
:104590009B8B8111F7CF04C0C8010E94FD151B8AB7
:1045A0008B898111E0CF42E050E0BE01615F7F4F17
:1045B000C8010E94DE1542E050E0BE01635F7F4FFC
:1045C000C8010E94DE15C8010E94FD15C8010E94A5
:1045D000FD15C8010E94FD15C8010E94FD1542E0AD
:1045E00050E0BE016F5E7F4FC8010E94DE158F85CF
:1045F00098898115914011F58D859E858115914091
:10460000E9F489899A898115944031F0C8010E94A2
:10461000B21527EF3FEF38C0B6016E5F7F4F44E021
:1046200050E0C8010E94DE1521E030E02DC0C80135
:104630000E94FD152FEFE21AF20A02C0E12CF12CC4
:1046400089899A89982789279827E816F90678F39F
:104650008FEFA81AB80AA814B90409F084CFC801CA
:104660000E94B21526EF3FEF0FC02FEF3FEF0CC0B7
:104670002EEF3FEF09C02DEF3FEF06C0C8010E94AB
:1046800098150C97C4F303CFC90163960FB6F8943D
:10469000DEBF0FBECDBFDF91CF911F910F91FF9075
:1046A000EF90DF90CF90BF90AF909F908F907F90D2
:1046B0006F905F904F9008958F929F92AF92BF92AC
:1046C000CF92DF92EF92FF920F931F93CF93DF93DE
:1046D00000D000D000D0CDB7DEB78C015B016A01FD
:1046E0000E940521892B09F051C0F80142815381B4
:1046F000648175818091D3049091D404A091D504F4
:10470000B091D604481759076A077B0709F442C0DD
:104710000E94F7097801F8E0EF0EF11C6F7077271F
:10472000882799277C5FC7010E94AD168130B9F5B3
:104730008FEF92E09A838983F80182819381A4812B
:10474000B5818B839C83AD83BE8345E350E0BE017E
:104750006F5F7F4FC7010E944116892B19F4A12C6E
:10476000B12C10C0B501C8010E944A21892BB9F3B0
:10477000C7010E943D16892BA9F4F1CFFFEFAF16B8
:10478000BF0699F0C7010E9449161BC0AA24A39432
:10479000B12C17C02EEFA22EBB24BA9412C0A12CAC
:1047A000B12C0FC093E0892E912CA60168E873E12B
:1047B000C8010E94F4215C0121E0821A910811F3E2
:1047C000DDCFC50126960FB6F894DEBF0FBECDBF74
:1047D000DF91CF911F910F91FF90EF90DF90CF90DD
:1047E000BF90AF909F908F9008950F9300E020E0CE
:1047F00040E060E081ED94E00E94550D0F91089536
:104800000F931F93CF93DF9300D000D0CDB7DEB7C7
:104810009B01AC01611571058105910579F06983F2
:104820003A834B835C830E94D12529813A814B8155
:104830005C810E943A298B019C0103C000E010E0DA
:104840009801B801C9010F900F900F900F90DF9160
:10485000CF911F910F910895CF92DF92EF92FF9227
:104860006B017C01621773078407950764F4CA0122
:10487000B9016C197D098E099F090E940024C60E9A
:10488000D71EE81EF91EB601C701FF90EF90DF901A
:10489000CF9008950F931F93CF93DF9382309105AC
:1048A00010F482E090E0E091D904F091DA0420E085
:1048B00030E0C0E0D0E023C0408151814817590763
:1048C000A8F04817590761F482819381209719F065
:1048D0009B838A832EC09093DA048093D90429C0E5
:1048E0002115310529F04217530710F0A90102C024
:1048F000BE01DF0102811381EF019A01F8013097B7
:10490000D9F62115310509F1281B390B2430310561
:1049100090F412968D919C9113976115710521F079
:10492000FB019383828304C09093DA048093D904BB
:10493000FD01329644C0FD01E20FF31F8193919374
:10494000225031092D933C933AC02091D7043091E5
:10495000D804232B41F420910201309103013093BC
:10496000D8042093D7042091000130910101211532
:10497000310541F42DB73EB7409104015091050136
:10498000241B350BE091D704F091D804E217F3070C
:10499000A0F42E1B3F0B2817390778F0AC014E5FAF
:1049A0005F4F2417350748F04E0F5F1F5093D80410
:1049B0004093D7048193919302C0E0E0F0E0CF01EF
:1049C000DF91CF911F910F910895EF92FF920F9376
:1049D0001F93CF93DF93009709F48EC0DC011297E9
:1049E00013961C921E921297E090D904F090DA046C
:1049F000E114F10489F42D913C911197280F391F8E
:104A00008091D7049091D8048217930789F5B093C9
:104A1000D804A093D70470C0E70120E030E001C0C3
:104A2000EA01CA17DB0738F44A815B819E01411510
:104A30005105B1F722C0AC0142505109FA01D383AC
:104A4000C28300811181BC01600F711F6C177D074B
:104A500061F468817981600F711F6E5F7F4F718390
:104A600060836A817B81738362832115310529F418
:104A7000B093DA04A093D9043FC0F901B383A283B1
:104A8000E90149915991C40FD51FAC17BD0771F4C5
:104A9000DC019E918E91840F951F029691838083F5
:104AA00012968D919C91139793838283A0E0B0E03E
:104AB00002C0D7017C01F701828193810097C9F779
:104AC000C701029620813181820F931F2091D70464
:104AD0003091D8042817390779F4109729F41092E7
:104AE000DA041092D90404C013961C921E921297F5
:104AF000F092D804E092D704CDB7DEB7E6E00C948C
:104B00007E298F929F92AF92BF92CF92DF92EF92C7
:104B1000FF92CF93DF93EC01688179818A819B8139
:104B2000611571058105910521F464E279ED8BE54C
:104B300097E02DE133EF41E050E00E943A2949012E
:104B40005A019B01AC01A7EAB1E40E9405296B015F
:104B50007C01ACEEB4EFA50194010E941329C60EAE
:104B6000D71EE81EF91EF7FE06C081E0C81AD1085C
:104B7000E10880E8F80AC882D982EA82FB82E894D8
:104B8000F7F8B601C701DF91CF91FF90EF90DF906A
:104B9000CF90BF90AF909F908F9008950E948125F5
:104BA000089586E091E00E948125089560930601B2
:104BB0007093070180930801909309010895A0E084
:104BC000B0E0E5EEF5E20C945C29EC01009729F4E5
:104BD000CB010E944A24EC01B4C0DC01A60FB71F30
:104BE000FC013297AE17BF0718F4C0E0D0E0A9C0AF
:104BF0000081118106171707B0F00530110508F480
:104C0000A0C0C80104978617970708F49AC00250FD
:104C10001109061B170B0D931D9371836083CD0142
:104C20000E94E5248EC06B01C01AD10A7C01E00EFF
:104C3000F11EE091D904F091DA0420E030E080E048
:104C400090E048C0EE15FF05D1F5808091805401B9
:104C500042E0A40EB11CAC14BD0488F17401EC1840
:104C6000FD08670122E0C20ED11C9E0122503109CD
:104C700045E0C416D10478F04281538113965C93C9
:104C80004E9312971196FC92EE92F9017183608314
:104C90003A2F2B2F09C00E5F1F4F080D191DD90188
:104CA0000D931C9332812381009721F0FC01328304
:104CB000238347C03093D9042093DA0442C0808113
:104CC00091812817390708F49C0152814381CF0153
:104CD000E52FF42F309709F0B5CF8091D70490914C
:104CE000D8048E159F05F1F426173707D8F4809164
:104CF000000190910101009741F48DB79EB720917A
:104D0000040130910501821B930BA817B90708F025
:104D10006CCFB093D804A093D704FE01329771836F
:104D200060830FC0CB010E944A247C01009709F4E4
:104D30005CCFA801BE010E94B726CE010E94E524E7
:104D4000E701CE01CDB7DEB7ECE00C947829F894FA
:104D50000C94A629FB01DC0104C08D9101908019FF
:104D600021F441505040C8F7881B990B0895FB016E
:104D7000DC0102C001900D9241505040D8F70895D7
:104D8000FB01DC018D91019080190110D9F3990B81
:104D90000895FB01DC0101900D920020E1F70895D8
:104DA000FB0151915523A9F0BF01DC014D9145173D
:104DB0004111E1F759F4CD010190002049F04D91E6
:104DC00040154111C9F3FB014111EFCF81E090E0A3
:104DD000019708955058BB27AA270ED075C166D1F8
:104DE00030F06BD120F031F49F3F11F41EF45BC121
:104DF0000EF4E095E7FB51C1E92F77D180F3BA17A4
:104E0000620773078407950718F071F49EF58FC148
:104E10000EF4E0950B2EBA2FA02D0B01B9019001D5
:104E20000C01CA01A0011124FF27591B99F0593F19
:104E300050F4503E68F11A16F040A22F232F342F61
:104E40004427585FF3CF469537952795A795F040AF
:104E50005395C9F77EF41F16BA0B620B730B840BC4
:104E6000BAF09150A1F0FF0FBB1F661F771F881F7C
:104E7000C2F70EC0BA0F621F731F841F48F48795D4
:104E800077956795B795F7959E3F08F0B3CF9395C3
:104E9000880F08F09927EE0F979587950895D9D038
:104EA00008F481E008950CD00FC107D140F0FED086
:104EB00030F021F45F3F19F0F0C0511139C1F3C057
:104EC00014D198F39923C9F35523B1F3951B550BCE
:104ED000BB27AA2762177307840738F09F5F5F4FCD
:104EE000220F331F441FAA1FA9F333D00E2E3AF00E
:104EF000E0E830D091505040E695001CCAF729D028
:104F0000FE2F27D0660F771F881FBB1F2617370776
:104F10004807AB07B0E809F0BB0B802DBF01FF27A6
:104F200093585F4F2AF09E3F510568F0B6C000C10C
:104F30005F3FECF3983EDCF3869577956795B795E0
:104F4000F7959F5FC9F7880F911D9695879597F9FB
:104F50000895E1E0660F771F881FBB1F6217730774
:104F60008407BA0720F0621B730B840BBA0BEE1F89
:104F700088F7E095089504D06894B111D9C00895D8
:104F8000BCD088F09F5790F0B92F9927B751A0F067
:104F9000D1F0660F771F881F991F1AF0BA95C9F7CD
:104FA00012C0B13081F0C3D0B1E00895C0C0672F06
:104FB000782F8827B85F39F0B93FCCF3869577957D
:104FC0006795B395D9F73EF4909580957095619566
:104FD0007F4F8F4F9F4F0895E89409C097FB3EF491
:104FE00090958095709561957F4F8F4F9F4F992336
:104FF000A9F0F92F96E9BB279395F69587957795B4
:105000006795B795F111F8CFFAF4BB0F11F460FF73
:105010001BC06F5F7F4F8F4F9F4F16C0882311F0CB
:1050200096E911C0772321F09EE8872F762F05C0DF
:10503000662371F096E8862F70E060E02AF09A957A
:10504000660F771F881FDAF7880F9695879597F96F
:105050000895990F0008550FAA0BE0E8FEEF161609
:105060001706E807F907C0F012161306E407F5075C
:1050700098F0621B730B840B950B39F40A2661F0D0
:10508000232B242B252B21F408950A2609F4A14073
:10509000A6958FEF811D811D089597F99F6780E880
:1050A00070E060E008959FEF80EC089500240A947A
:1050B0001616170618060906089500240A941216F3
:1050C0001306140605060895092E0394000C11F426
:1050D000882352F0BB0F40F4BF2B11F460FF04C0D3
:1050E0006F5F7F4F8F4F9F4F089557FD9058440F2C
:1050F000551F59F05F3F71F04795880F97FB991F37
:1051000061F09F3F79F087950895121613061406F3
:10511000551FF2CF4695F1DF08C016161706180680
:10512000991FF1CF86957105610508940895E8945B
:10513000BB2766277727CB0197F908958ADF08F404
:105140008FEF08950BD0C0CFB1DF28F0B6DF18F095
:10515000952309F0A2CFA7CF1124EACFC6DFA0F391
:10516000959FD1F3950F50E0551F629FF001729FFC
:10517000BB27F00DB11D639FAA27F00DB11DAA1F1B
:10518000649F6627B00DA11D661F829F2227B00D68
:10519000A11D621F739FB00DA11D621F839FA00DF3
:1051A000611D221F749F3327A00D611D231F849F43
:1051B000600D211D822F762F6A2F11249F5750409A
:1051C0008AF0E1F088234AF0EE0FFF1FBB1F661F35
:1051D000771F881F91505040A9F79E3F510570F0EE
:1051E0005CCFA6CF5F3FECF3983EDCF386957795D6
:1051F0006795B795F795E7959F5FC1F7FE2B880FE9
:10520000911D9695879597F908950E949429A59FD9
:10521000900DB49F900DA49F800D911D11240895B1
:10522000B7FF0C9405290E940529821B930B089552
:10523000A1E21A2EAA1BBB1BFD010DC0AA1FBB1F9A
:10524000EE1FFF1FA217B307E407F50720F0A21B0C
:10525000B30BE40BF50B661F771F881F991F1A9479
:1052600069F760957095809590959B01AC01BD01A3
:10527000CF010895052E97FB16F4009407D057FD33
:105280000DD00E94182907FC09D07EF490958095D6
:10529000709561957F4F8F4F9F4F08955095409522
:1052A000309521953F4F4F4F5F4F08952F923F927A
:1052B0004F925F926F927F928F929F92AF92BF9226
:1052C000CF92DF92EF92FF920F931F93CF93DF93D2
:1052D000CDB7DEB7CA1BDB0B0FB6F894DEBF0FBE2F
:1052E000CDBF09942A88398848885F846E847D847C
:1052F0008C849B84AA84B984C884DF80EE80FD807E
:105300000C811B81AA81B981CE0FD11D0FB6F894F3
:10531000DEBF0FBECDBFED0108956927962769272F
:105320007827872778270895A29FB001B39FC001EF
:10533000A39F01D0B29F700D811D1124911D08956E
:10534000EE0FFF1F0590F491E02D0994F894FFCF24
:105350000000DB042000010000005000722E706E7F
:10536000642E736500DEADBEEFFEED01000400208B
:10537000282A1A1615353D3F3B20006970206672B9
:10538000616E20646863702E007365747374617459
:1053900028293A20416E736C7574656E2E0047455E
:1053A00054202F736574737461742F74656D702F3E
:1053B000002F6D6F64652F002F6F75747075742FDB
:1053C000002F6F75747075745265732F00486F737A
:1053D000743A2000557365722D4167656E743A20EA
:1053E00041726475696E6F45746865726E657400AC
:1053F000436F6E6E656374696F6E3A20636C6F7392
:10540000650067657473657474696E677328293AFB
:1054100020416E736C7574656E2E00474554202FC5
:1054200067657473657474696E677320485454506B
:105430002F312E31006765747365747474696E67FB
:105440007328293A204B616E20696E746520616E65
:10545000736C7574612E003A00220053746172748B
:105460006172207374797270726F6772616D206FF0
:1054700063682074657374617220656666656B7419
:105480006C6167656E2070612072656C6165722E5B
:105490002E2E004F4B004B702C204B692C204B6460
:1054A0003A20005469643B204F757470757420284D
:1054B000302D323030293B205265663B20523B2054
:1054C000543B206C617374496E7075743B206C6141
:1054D00073744572726F723B206C6173744F757494
:1054E0007075743B20703B20693B20643B003C6C32
:1054F0006F673E003C2F6C6F673E006D6F64650008
:1055000073657474696E67733A2000686F6D650027
:1055100053657474696E672074656D7020746F20B4
:10552000363000617761790053657474696E672065
:1055300074656D7020746F2033300000000000929D
:105540000B9A0D2D0B5C0B400B800B000000001024
:105550000D00000000911114120912EE11C611A7DE
:105560001119133212EA11D612B212BE1100000044
:10557000009C1527169815FD15C415B215AD1649D2
:10558000164116FC163D165E16DE157D1584159423
:085590001557495A6E657400BD
:00000001FF
