:100000000C9465000C948D000C948D000C948D0064
:100010000C948D000C948D000C948D000C948D002C
:100020000C948D000C948D000C948D000C948D001C
:100030000C948D000C948D000C948D000C948D000C
:100040000C941D080C948D000C94390A0C94750ABC
:100050000C948D000C948D000C948D000C948D00EC
:100060000C948D000C948D0000000007000201002C
:100070000003040600000000000000000102040864
:100080001020408001020408102001020408102002
:10009000040404040404040402020202020203032E
:1000A0000303030300000000250028002B000000CC
:1000B0000000240027002A0032037B07300BEC0BE2
:1000C0000A11F312E114711E792111241FBECFEF22
:1000D000D8E0DEBFCDBF12E0A0E0B1E0E2E1FEE497
:1000E00002C005900D92A83FB107D9F714E0A8EF20
:1000F000B2E001C01D92A938B107E1F710E0CAECE7
:10010000D0E004C02297FE010E940327C83BD1071C
:10011000C9F70E94FB0B0C942B240C9400000F9346
:100120001F93FC017183608355834483338322834F
:1001300012861386148615861186108616861783F6
:1001400006831F910F910895FC018081918108958C
:10015000FC01808591850895CB01BA0123E333EF3B
:100160004BE454E40E944B2426E636E64EEF50E47E
:100170000E94B4240E941C256A30710524F06B355E
:10018000710524F405C06AE070E002C06AE570E021
:10019000CB010895EF92FF920F931F93CF93DF93BC
:1001A000EC018E810E94FC07BC01882777FD8095B9
:1001B000982F0E944F252AE038E240EA5BE30E9434
:1001C00003269B01AC0160E070E080EA90E40E94AD
:1001D000B42420E030E040E85FE30E944B2420E0BC
:1001E00030E44CE156E40E9403267B018C0120E0C0
:1001F00030E048E454E47F2D912F0E94B02487FD25
:100200000CC020E030E844ED54E46E2D7F2D802FAB
:10021000912F0E94FF2518161CF481E08E8701C0E3
:100220001E866E2D7F2D802F912FDF91CF911F91F4
:100230000F91FF90EF900895CF93DF93EC010E9410
:10024000CA00AB01BC014A875B876C877D87CE0102
:100250000E94AC0099878887DF91CF910895FC01B7
:1002600086850895AF92CF92EF92FF920F931F93DE
:10027000CF93DF93CDB7DEB72B970FB6F894DEBFE1
:100280000FBECDBF9AE0E1E2F1E0DE0111960190F0
:100290000D929A95E1F781E090E08C0F9D1F680F19
:1002A000791FFB01F080F4FA662760F9822F4B87F3
:1002B0000E946609F2FA662760F98E2D0E9466098F
:1002C0006F2D61708A2D0E946609F5FA662760F924
:1002D0004B85842F0E946609F3FA662760F9802F08
:1002E0000E946609F1FA662760F98C2D2B960FB6ED
:1002F000F894DEBF0FBECDBFDF91CF911F910F915C
:10030000FF90EF90CF90AF900C946609CF93DF935E
:10031000EC01688179814AE050E088E993E00E942D
:10032000840D6BE271E088E993E00E94780C4A85C5
:100330005B856C857D8522E030E088E993E00E9452
:10034000350E6BE271E088E993E00E94780C6885D5
:1003500079854AE050E088E993E00E94840D6BE2E1
:1003600071E088E993E0DF91CF910C94780CCF9203
:10037000DF92EF92FF920F931F93CF93DF93CDB74E
:10038000DEB72D970FB6F894DEBF0FBECDBF7C0150
:100390006B016EEA72E0FC0174836383FA0182816F
:1003A0009381A481B581F70185839683A783B08764
:1003B00072876187F9014281538164817581F701F8
:1003C0004387548765877687C70141960E94171037
:1003D000F701D282C182108B07871082CE0101966D
:1003E0000E9417102D960FB6F894DEBF0FBECDBF3A
:1003F000DF91CF911F910F91FF90EF90DF90CF9001
:1004000008950F931F93CF93DF93CDB7DEB72C974B
:100410000FB6F894DEBF0FBECDBF8C01FC01618129
:1004200072818BE494E00E942A11019759F46EE2E4
:1004300071E088E993E00E94780C88E993E00E94DB
:100440008B0C2DC06DE371E088E993E00E94780C7D
:1004500088E993E00E948B0C2EEA32E03A832983EC
:10046000F80183859485A585B6858B839C83AD83B0
:10047000BE8338872F834581568167817085498780
:100480005A876B877C87618172819E012F5F3F4F06
:10049000AE01495F5F4F8BE494E00E947A1268EEF0
:1004A00073E080E090E00E94A3082C960FB6F894C9
:1004B000DEBF0FBECDBFDF91CF911F910F91089589
:1004C0000F931F93CF93DF93EC018C010F5E1F4FAF
:1004D000C8010E94361081110AC08881882339F032
:1004E000C801DF91CF911F910F910C945A10DF91A9
:1004F000CF911F910F910895DF92EF92FF920F938A
:100500001F93CF93DF93CDB7DEB728970FB6F8943C
:10051000DEBF0FBECDBF7C0161E872E0CE01019667
:100520000E94A80E87010F5E1F4FC8010E942B0F6B
:10053000F7016785708948EB5BE0C8010E94B60F40
:10054000892B39F160E671E088E993E00E94B50CEF
:1005500060EC71E0C8010E94B50C6DE771E0C80164
:100560000E94780CF70167857089C8010E94780C99
:10057000C8010E948B0C64E871E0C8010E94B50CB0
:1005800060EA71E0C8010E94B50CC8010E948B0CA2
:1005900009C0C8010E945A106AED71E088E993E031
:1005A0000E94B50C68EE73E080E090E00E94A30822
:1005B000D12CC8010E948D0F892BA1F0C8010E9487
:1005C000720F282F8B3711F0DD2049F0622FCE01FA
:1005D000019628870E94F10EDD24D39428852D37BB
:1005E00009F4D12CC8010E948D0F892B11F7C80185
:1005F0000E9436108111DDCFBE016F5F7F4F88E909
:1006000093E00E94A10C88E993E00E948B0C68ECB7
:1006100070E080E090E00E94A308C8010E945A1098
:10062000C8010E943610F7018083CE0101960E9416
:10063000370E28960FB6F894DEBF0FBECDBFDF9100
:10064000CF911F910F91FF90EF90DF900895CF937E
:10065000DF93EC016BE474E00E94D112CE01DF91D4
:10066000CF9108950F9300E020E040E060E088EF34
:1006700092E00E94C50B0F910895CF92DF92EF9206
:10068000FF920F931F93CF93DF93EC01488359831D
:100690006A837B830C831D832E833F83C886D98620
:1006A000EA86FB860E9467086CA37DA38EA39FA3A6
:1006B000DF91CF911F910F91FF90EF90DF90CF903E
:1006C0000895CF93DF93EC01CB01BA010E941C2562
:1006D0007FA76EA7DF91CF910895CF93DF93EC01B1
:1006E000CB01BA010E941C257DA76CA7DF91CF9199
:1006F0000895FC0166A577A5882777FD8095982F3A
:100700000E944F250895FC0164A575A5882777FDF3
:100710008095982F0E944F2508952F923F924F92D7
:100720005F926F927F928F929F92AF92BF92CF9281
:10073000DF92EF92FF920F931F93CF93DF93CDB78A
:10074000DEB764970FB6F894DEBF0FBECDBF9C8BAB
:100750008B8B6A017B01280139010E9467084B01DC
:100760005C01EB89FC8984A195A1A6A1B7A1A50193
:100770009401281B390B4A0B5B0BDA01C901803647
:100780009A4EA105B10548F440A1498351A15A836D
:1007900082A18B8393A19C833BC1A7019601C301D6
:1007A000B2010E944B246D837E838F839887AB892F
:1007B000BC8998962D913D914D915C919B970E949B
:1007C0004C241B018C01862F932DA02FB12FEB8978
:1007D000FC8980A791A7A2A7B3A766A577A58827BC
:1007E00077FD8095982F0E944F2569877A878B87A0
:1007F0009C8769837A838B839C83762F6A85982F65
:100800008C85272F362F492F582F622D732D802F3F
:10081000912F0E94FF2518167CF459854A853B8547
:100820002C85852F942FA32FB22FEB89FC8980A7CD
:1008300091A7A2A7B3A71EC0AB89BC899C966D9156
:100840007C919D97882777FD8095982F0E944F2552
:100850002B013C019B01AC01622D732D802F912F48
:100860000E94B02487FF06C0EB89FC8940A651A6F0
:1008700062A673A6AB89BC8998962D913D914D9146
:100880005C919B972D873E874F87588B5C962D9167
:100890003D914D915C915F97C701B6010E944B2439
:1008A000362E272E898B9A8BEB89FC89208131810A
:1008B00042815381BD81AE811F8108856B2F7A2FC4
:1008C000812F902F0E9403262B013C01AB89BC890C
:1008D00014962D913D914D915C9117976D857E8574
:1008E0008F8598890E9403269B01AC01C301B20148
:1008F0000E944C242B013C01EB89FC892085318529
:1009000042855385D10119890A896B2F7A2F812F4E
:10091000902F0E9403269B01AC01C301B2010E94EB
:100920004B243B018C0179856A859B858C85272F1B
:10093000362F492F582F662D772D802F912F0E940B
:10094000FF25181624F1AB89BC899C966D917C918A
:100950009D97882777FD8095982F0E944F25698362
:100960007A838B839C83762F6A81982F8C81272FA3
:10097000362F492F582F662D772D802F912F0E94CB
:10098000B02487FD04C069827A820B831C83EB89C3
:10099000FC89C48ED58EE68EF78E5D814E813F81B7
:1009A0002885852F942FA32FB22F808F918FA28F10
:1009B000B38F59814A813B812C81852F942FA32F9E
:1009C000B22F80A391A3A2A3B3A35D814E813F81E7
:1009D0002885852F942FA32FB22F80AB91ABA2AB8C
:1009E000B3AB2D853E854F85588924AB35AB46ABDF
:1009F00057ABA10139892A89852F922DA32FB22FB8
:100A000080AF91AFA2AFB3AF84A295A2A6A2B7A2C6
:100A100059814A813B812C81652F742F832F922F1E
:100A200064960FB6F894DEBF0FBECDBFDF91CF91B5
:100A30001F910F91FF90EF90DF90CF90BF90AF90FC
:100A40009F908F907F906F905F904F903F902F90EE
:100A50000895FC0164A175A186A197A10895CF9383
:100A6000DF93EC014C8D5D8D6E8D7F8D22E030E04B
:100A700088E993E00E94350E6BE271E088E993E02B
:100A80000E94780C488D598D6A8D7B8D22E030E074
:100A900088E993E00E94350E6BE271E088E993E00B
:100AA0000E94780C48A159A16AA17BA122E030E004
:100AB00088E993E00E94350E6BE271E088E993E0EB
:100AC0000E94780C48A959A96AA97BA922E030E0C4
:100AD00088E993E00E94350E6BE271E088E993E0CB
:100AE0000E94780C4CA95DA96EA97FA922E030E094
:100AF00088E993E00E94350E6BE271E088E993E0AB
:100B00000E94780C48AD59AD6AAD7BAD22E030E073
:100B100088E993E00E94350E6BE271E088E993E08A
:100B2000DF91CF910C94780C8F929F92AF92BF92ED
:100B3000CF92DF92EF92FF920F931F93CF93DF93A9
:100B400000D000D000D0CDB7DEB761E082E00E94D7
:100B50002E0961E083E00E942E0961E084E00E949A
:100B60002E0961E085E00E942E0961E086E00E9486
:100B70002E0961E087E00E942E0961E08DE00E946D
:100B80002E0961E08CE00E942E0940E050E0BA019D
:100B900088E293E00E946D0340E050E068E473E473
:100BA00088E293E00E94610340E855E260E070E073
:100BB00088E993E00E94B00A6AEE71E088E993E068
:100BC0000E94780C88248394912C83E0A82EB12C69
:100BD00092E0C92ED12C25E0E22EF12C04E010E0A9
:100BE00027E030E046E050E0B40184E693E00E9464
:100BF00032016EEE72E080E090E00E94A3088FEF79
:100C0000881A980A8BE088169104F9F662E272E07D
:100C100088E993E00E94B50C65E272E088E993E010
:100C20000E94780C22E030E040E050E060E470E4A4
:100C300088E993E00E94350E22E030E04DEC5CEC58
:100C40006CE47FE388E993E00E94350E22E030E017
:100C500040E050E060E87FE388E993E00E94350ED1
:100C600088E993E00E948B0C62E372E088E993E0EC
:100C70000E94780C88E993E00E948B0C8EEF92E042
:100C80000E9401026DE772E088E993E00E94780C0F
:100C90006EEF72E0CE0101960E942703BE016F5FE6
:100CA0007F4F88E993E00E94810C88E993E00E94DD
:100CB0008B0C26960FB6F894DEBF0FBECDBFDF912A
:100CC000CF911F910F91FF90EF90DF90CF90BF9049
:100CD000AF909F908F9008954F925F926F927F9206
:100CE0008F929F92AF92BF92CF92DF92EF92FF923C
:100CF0000F931F93CF93DF9300D000D0CDB7DEB713
:100D000084E693E00E941C0184E693E00E94A80020
:100D10005C0184E693E00E94A400BC01882777FD73
:100D20008095982F0E944F256B017C01B501882783
:100D300077FD8095982F0E944F25AB01BC0197014C
:100D4000860188E293E00E948D032B013C0188E23A
:100D500093E00E9479034B015C0188E293E00E94DA
:100D6000830369837A838B839C8320E030E040E2B5
:100D700051E4C301B2010E944C246B017C01298122
:100D80003A814B815C81C501B4010E944B249B01D7
:100D9000AC0160E070E080E191E40E94B4249B012A
:100DA000AC01C701B6010E9403260E941C2543E046
:100DB000A42EB12C52E0C52ED12CE5E0EE2EF12C64
:100DC00004E010E027E030E046E050E084E693E005
:100DD0000E94320162E872E088E993E00E94780C98
:100DE00088E293E00E942905AB01BC012AE030E0D3
:100DF00088E993E00E94250D6BE271E088E993E0B9
:100E00000E94780C22E030E0B301A20188E993E06F
:100E10000E94350E6BE271E088E993E00E94780C45
:100E200084E693E00E94860188E293E00E942F0509
:100E300068E872E088E993E00E94780C88E993E022
:100E40000E948B0C84E693E00E942F01882331F0EE
:100E500061E08DE00E94660960E005C060E08DE021
:100E60000E94660961E08CE00E9466098EEF92E0C4
:100E70000E9460020E946708C0908503D09086039C
:100E8000E0908703F09088036C197D098E099F0913
:100E900069397A4381059105A0F06FE872E088E92D
:100EA00093E00E94B50C8EEF92E00E947C020E94BB
:100EB00067086093850370938603809387039093FC
:100EC000880360E177E280E090E00F900F900F9050
:100ED0000F90DF91CF911F910F91FF90EF90DF90D6
:100EE000CF90BF90AF909F908F907F906F905F90CA
:100EF0004F900C94A308CF92DF92EF92FF920F9342
:100F00001F93CF93DF93CDB7DEB72C970FB6F8942E
:100F1000DEBF0FBECDBF00E020E040E060E089E82A
:100F200093E00E94C50B0EE010E02DE030E04CE0B5
:100F300050E06CE370E084E693E00E948F00C12CE7
:100F4000D12CF0E8EF2EFFE3FF2E0DEC1CEC2CE48F
:100F50003FE340E050E060E470E488E293E00E9408
:100F60003D0309E022E048EA60EC82E293E00E945F
:100F7000C50B0BE127EC43E463EC8CE193E00E94AA
:100F8000C50B2EEA32E038872F8380911E039091A3
:100F90001F03A0912003B091210389879A87AB8713
:100FA000BC873A8329838091240390912503A091E3
:100FB0002603B09127038B839C83AD83BE830AE015
:100FC00011E09E01295F3F4FAE014F5F5F4F68E127
:100FD00071E08EEF92E00E94B7012C960FB6F89464
:100FE000DEBF0FBECDBFDF91CF911F910F91FF905C
:100FF000EF90DF90CF9008958E3008F08E5087707C
:1010000020911E0140E4249F90011124822B8093A3
:101010007C0080917A00806480937A0080917A00CD
:1010200086FDFCCF2091780030917900932F80E0ED
:10103000AC01422B9A01C90108951F920F920FB67D
:101040000F9211242F933F938F939F93AF93BF934E
:1010500080918F0390919003A0919103B09192039E
:1010600030919703232F2D5F2D3720F40196A11D7A
:10107000B11D05C0232F2A570296A11DB11D209333
:10108000970380938F0390939003A0939103B09361
:1010900092038091930390919403A0919503B09152
:1010A00096030196A11DB11D809393039093940321
:1010B000A0939503B0939603BF91AF919F918F91A9
:1010C0003F912F910F900FBE0F901F9018950F9387
:1010D0001F938FB7F89400918F0310919003209184
:1010E0009103309192038FBFB801C9011F910F91F5
:1010F00008950F931F939FB7F89400919303109155
:101100009403209195033091960386B5A89B06C061
:101110008F3F21F00F5F1F4F2F4F3F4F9FBF322F49
:10112000212F102F0027080F111D211D311D42E016
:10113000000F111F221F331F4A95D1F7B801C901B3
:101140001F910F910895CF92DF92EF92FF92CF936C
:10115000DF936B017C010E947908EB010EC00E94B5
:1011600079086C1B7D0B683E734038F081E0C81A2B
:10117000D108E108F108C851DC4FC114D104E104E1
:10118000F10469F7DF91CF91FF90EF90DF90CF905E
:101190000895789484B5826084BD84B5816084BDEF
:1011A00085B5826085BD85B5816085BDEEE6F0E0E0
:1011B000808181608083E1E8F0E01082808182603C
:1011C0008083808181608083E0E8F0E080818160BD
:1011D0008083E1EBF0E0808184608083E0EBF0E0ED
:1011E000808181608083EAE7F0E080818460808391
:1011F000808182608083808181608083808180683B
:1012000080831092C1000895833069F028F4813002
:10121000A1F0823011F514C08630B1F08730C1F0F2
:101220008430D9F404C0809180008F7703C080910E
:1012300080008F7D80938000089584B58F7702C0F1
:1012400084B58F7D84BD08958091B0008F7703C0F1
:101250008091B0008F7D8093B0000895CF93DF938D
:1012600090E0FC01E458FF4F4491FC01E057FF4F30
:101270008491882341F190E0880F991FFC01E25589
:10128000FF4F25913491D9018C559F4FFC018591D9
:101290009491C82FD92F9FB7F8948C91611106C0F3
:1012A000409584238C938881842308C0623041F464
:1012B000242F209582238C938881842B888302C0DD
:1012C000842B8C939FBFDF91CF9108950F931F9331
:1012D000CF93DF931F92CDB7DEB7282F30E0F9010F
:1012E000E859FF4F8491F901E458FF4F1491F90137
:1012F000E057FF4F04910023D1F0882321F0698348
:101300000E9404096981E02FF0E0EE0FFF1FEC5509
:10131000FF4F85919491DC019FB7F8948C916111F6
:1013200003C01095812301C0812B8C939FBF0F9028
:10133000DF91CF911F910F910895FC0184859585D0
:10134000FC01E05CFF4F20813181FC01EE5BFF4F2F
:1013500080819181281B390B2F733327C901089590
:10136000FC0184859585FC01E05CFF4F4081518143
:10137000FC01EE5BFF4F208131814217530741F0A2
:101380000190F081E02DE80FF91F208130E002C0CC
:101390002FEF3FEFC9010895FC0184859585FC017D
:1013A000E05CFF4F40815181FC01EE5BFF4F2081EB
:1013B00031814217530781F0A081B181A80FB91F75
:1013C0008C91208131812F5F3F4F2F7333273183E1
:1013D0002083282F30E002C02FEF3FEFC90108958E
:1013E000FC0186859785FC01E05CFF4FDC01AE5B6C
:1013F000BF4F408151812D913C9111974217530766
:10140000C1F70895CF93DF93FC0186859785DC01B2
:10141000A05CBF4F2D913C9111972F5F3F4F2F73D1
:101420003327EC01CE5BDF4F488159812417350704
:10143000D9F30D90BC91A02DA80FB91F6C93A68570
:10144000B785A05CBF4F11963C932E93A689B789B0
:101450002C9181E090E0058C02C0880F991F0A94BE
:10146000E2F7282B2C9381E090E0DF91CF91089553
:1014700008951F920F920FB60F9211242F933F934E
:101480004F938F939F93EF93FF934091C60080916A
:101490003B0490913C0401968F73992720913D0461
:1014A00030913E048217930759F0E0913B04F0918C
:1014B0003C04E550FC4F408390933C0480933B04F4
:1014C000FF91EF919F918F914F913F912F910F90AD
:1014D0000FBE0F901F90189588E993E00E949D0918
:1014E000892B11F00C94380A08951F920F920FB6B1
:1014F0000F9211242F933F938F939F93EF93FF931A
:101500002091F7033091F8038091F9039091FA0349
:101510002817390731F48091C1008F7D8093C10075
:1015200014C0E091F903F091FA03E954FC4F2081D3
:101530008091F9039091FA0301968F739927909304
:10154000FA038093F9032093C600FF91EF919F91D6
:101550008F913F912F910F900FBE0F901F90189574
:10156000CF92DF92EF92FF92CF93DF93EC016A016B
:101570007B01411581EE580761057105F9F0EC8991
:10158000FD8981E090E00E8C02C0880F991F0A94BB
:10159000E2F7808360E079E08DE390E0A7019601B7
:1015A0000E947926215031094109510956954795E4
:1015B00037952795211580E1380798F0EC89FD894A
:1015C000108260E874E88EE190E0A70196010E9425
:1015D000792621503109410951095695479537958A
:1015E0002795E889F9893083EA89FB892083EE8988
:1015F000FF89408181E090E09C010A8C02C0220FAB
:10160000331F0A94E2F7422B4083EE89FF89408121
:101610009C010B8C02C0220F331F0A94E2F7422B6D
:101620004083EE89FF8940819C010C8C02C0220F0F
:10163000331F0A94E2F7422B4083EE89FF89208111
:101640000D8C02C0880F991F0A94E2F780958223BF
:101650008083DF91CF91FF90EF90DF90CF9008953E
:1016600010929B0310929A0388EE93E0A0E0B0E002
:1016700080939C0390939D03A0939E03B0939F033C
:101680008EE992E090939903809398038BEF93E017
:101690009093A5038093A40387EB93E09093A70313
:1016A0008093A60385EC90E09093A9038093A80310
:1016B00084EC90E09093AB038093AA0380EC90E0DD
:1016C0009093AD038093AC0381EC90E09093AF03D3
:1016D0008093AE0386EC90E09093B1038093B003C7
:1016E00084E08093B20383E08093B30387E0809328
:1016F000B40385E08093B50381E08093B603089539
:10170000AF92BF92CF92DF92EF92FF920F931F930F
:10171000CF93DF936C017B01C0E0D0E000E010E0EC
:10172000F601EC0FFD1F4AE050E06281C7010E9404
:10173000320D5C016EE2C7010E947A0C8A0D9B1D7E
:10174000080F191F2196C330D10551F74AE050E028
:10175000F6016581C7010E94320D080F191FC801EB
:10176000DF91CF911F910F91FF90EF90DF90CF907D
:10177000BF90AF9008952EEA32E0FC0131832083C0
:10178000128213821482158208950F93FC018EEA4F
:1017900092E09183808362834383248305830F9146
:1017A00008952EEA32E0FC0131832083FB01408161
:1017B000518162817381FC01428353836483758309
:1017C0000895FC01DB014D915D916D917C91428307
:1017D00053836483758308958EEA92E09093400466
:1017E00080933F04109241041092420410924304EB
:1017F0001092440408950E94C9080E949405CCE602
:10180000DAE00E946C062097E1F30E946C0AF9CF9F
:101810000C94CE21CF92DF92EF92FF920F931F9301
:10182000CF93DF936C01EB017A01E60EF71E00E027
:1018300010E00BC06991D601ED91FC910190F0810F
:10184000E02DC6010995080F191FCE15DF0591F788
:10185000C801DF91CF911F910F91FF90EF90DF9022
:10186000CF900895DB010D900020E9F7AD014150C4
:101870005109461B570BDC01ED91FC910280F3816D
:10188000E02D0994AF92BF92CF92DF92EF92FF9238
:101890000F931F93CF93DF937C016B0100E010E067
:1018A000C0E0D0E011C0D701ED91FC91A080B180E3
:1018B000B801C6010E94040F682FC701F501099500
:1018C000C80FD91F0F5F1F4FD60114968D919C91A1
:1018D00015970817190738F3CE01DF91CF911F91A3
:1018E0000F91FF90EF90DF90CF90BF90AF90089551
:1018F0000C94320CDC01ED91FC910190F081E02D13
:101900000994DB01ED91FC9111970190F081E02D9C
:10191000BC01CD0109940F931F93CF93DF93EC018A
:101920006DE00E947A0C8C016AE0CE010E947A0C74
:101930009C01200F311FC901DF91CF911F910F91A1
:1019400008950F931F93CF93DF93EC010E94420CF5
:101950008C01CE010E948B0C9C01200F311FC9010C
:10196000DF91CF911F910F9108950F931F93CF9304
:10197000DF93EC010E94320C8C01CE010E948B0C93
:101980009801280F391FC901DF91CF911F910F9145
:1019900008954F925F926F927F929F92AF92BF9203
:1019A000CF92DF92EF92FF920F931F93CF93DF932B
:1019B000CDB7DEB7A1970FB6F894DEBF0FBECDBF8F
:1019C0005C016A017B01922E19A281E0821710F05E
:1019D0008AE0982E8E010F5D1F4F492C512C612CEF
:1019E000712CC701B601A30192010E9479268C2DAA
:1019F000929E80191124015011098A3014F4805DDF
:101A000001C0895CF801808369017A01C114D104A5
:101A1000E104F10431F7B801C5010E94320CA1962E
:101A20000FB6F894DEBF0FBECDBFDF91CF911F91EF
:101A30000F91FF90EF90DF90CF90BF90AF909F906D
:101A40007F906F905F904F9008952115310541F47C
:101A5000DC01ED91FC910190F081E02D642F09945F
:101A60000C94C90C9A01462F50E060E070E00C9491
:101A7000250DCF92DF92EF92FF920F931F93CF939A
:101A8000DF93EC016A017B012115310579F4E881CE
:101A9000F9810190F081E02D642FDF91CF911F91AA
:101AA0000F91FF90EF90DF90CF9009942A3031058D
:101AB00019F477FD0EC02AE0B701A601CE01DF912F
:101AC000CF911F910F91FF90EF90DF90CF900C94EA
:101AD000C90C6DE20E947A0C8C0144275527BA018B
:101AE0004C195D096E097F092AE0CE010E94C90CDC
:101AF000080F191FC801DF91CF911F910F91FF901F
:101B0000EF90DF90CF9008959A01AB01662757FDC3
:101B10006095762F0C94390D7F928F929F92AF92A1
:101B2000BF92CF92DF92EF92FF920F931F93CF93CA
:101B3000DF938C014A015B01F22E20E030E0A90125
:101B4000C501B4010E94B02487FF0AC06DE2C8013C
:101B50000E947A0CEC01B7FAB094B7F8B09402C0C6
:101B6000C0E0D0E0E12C60E070E080E09FE307C0DF
:101B700020E030E040E251E40E94B424E394EF100E
:101B8000F7CF262F372F482F592FC501B4010E94B8
:101B90004C24762E872E982EA92E0E942125B62E13
:101BA000C72ED82EE92E0E944D259B01AC01672D32
:101BB000782D892D9A2D0E944B24A62E972E882EA3
:101BC000792E2AE04B2D5C2D6D2D7E2DC8010E94B3
:101BD000C90CC80FD91FFF20B9F160E272E0C8013B
:101BE0000E94320CC80FD91F2FC020E030E040E225
:101BF00051E46A2D792D882D972D0E940326762E8B
:101C0000C72ED82EE92E0E941C254B01AA2497FC32
:101C1000A094BA2C2AE030E0B501A401C8010E94CA
:101C2000390DC80FD91FC501B4010E944F259B0172
:101C3000AC01672D7C2D8D2D9E2D0E944B24A62E50
:101C4000972E882E792EFA94F110CFCFCE01DF9106
:101C5000CF911F910F91FF90EF90DF90CF90BF90A9
:101C6000AF909F908F907F9008950C948C0DFC0105
:101C7000808191810C946922CF93DF93EC0188815C
:101C80009981009711F00E946922198218821D82A1
:101C90001C821B821A82DF91CF9108950F931F93AC
:101CA000CF93DF93EC018B016F5F7F4F8881998128
:101CB0000E946323009731F0998388831B830A83F2
:101CC00081E001C080E0DF91CF911F910F910895D5
:101CD000CF93DF93EC0188819981892B31F08A8140
:101CE0009B818617970708F00CC0CE010E944E0E0C
:101CF000882349F08C819D81892B19F4E881F98131
:101D0000108281E001C080E0DF91CF910895EF92D1
:101D1000FF920F931F93CF93DF93EC017B018A0116
:101D2000BA010E94680E811104C0CE010E943C0ECF
:101D300007C01D830C83B701888199810E944424C8
:101D4000CE01DF91CF911F910F91FF90EF900895F9
:101D5000DC0111961C921E9213961C921E921297F1
:101D600015961C921E92149716961C926115710579
:101D700059F0DB010D900020E9F7AD014150510908
:101D8000461B570B0C94870E0895EF92FF920F930A
:101D90001F93CF93DF93EC017B010C811D816115B3
:101DA000710511F480E016C04115510591F0040F42
:101DB000151FB8010E94680E8823A1F3288139817C
:101DC0008C819D81B701820F931F0E9444241D8343
:101DD0000C8381E0DF91CF911F910F91FF90EF90E5
:101DE0000895CF93DF9300D0CDB7DEB769831A8211
:101DF00041E050E0BE016F5F7F4F0E94C50E0F9023
:101E00000F90DF91CF910895FC01248135816217F5
:101E1000730748F480819181009729F0FC01E60F57
:101E2000F71F8081089580E00895CF93DF931F927C
:101E3000CDB7DEB76983DC01ED91FC910280F381BF
:101E4000E02D41E050E0BE016F5F7F4F09950F909C
:101E5000DF91CF910895CF93DF93EC0107C0E88124
:101E6000F9810680F781E02DCE010995E881F9819D
:101E70000480F581E02DCE010995892B81F7DF9152
:101E8000CF91089521E0FC018485843009F420E09D
:101E9000822F08950F931F93CF93DF931F92CDB797
:101EA000DEB78C01DC01ED91FC910480F581E02D21
:101EB0000995892B51F0BE016F5F7F4FF801848532
:101EC0000E945316298130E002C02FEF3FEFC90175
:101ED0000F90DF91CF911F910F910895FC018485A0
:101EE0000C941416CF93DF931F92CDB7DEB741E069
:101EF00050E0BE016F5F7F4FFC0184850E94141685
:101F0000181619061CF4298130E002C02FEF3FEFAC
:101F1000C9010F90DF91CF910895FC016485643071
:101F200021F089E694E00C94271880E090E0089571
:101F30000F931F93CF93DF938C01EA01FC018485FB
:101F4000843019F481E090E007C00E94C115892B0C
:101F500039F481E090E0F80193838283C0E0D0E01F
:101F6000CE01DF91CF911F910F910895CF92DF9213
:101F7000EF92FF920F931F93CF93DF93CDB7DEB70E
:101F8000E5970FB6F894DEBF0FBECDBF7C018B0185
:101F90006A01CE0101960E94BB0BCE0109960E94F8
:101FA0006B14CE01C0960E94BB0B6BE474E0CE01B3
:101FB0008A960E94E312BE01665D7F4FCE010196B4
:101FC0000E947C1EAE01405D5F4FB801CE010196BC
:101FD0000E94E0209C0181309105C9F4D701ED9168
:101FE000FC910484F585E02D8EEA92E09DA38CA3FC
:101FF0000AA91BA92CA93DA90EA31FA328A739A78D
:10200000A601BE016C5D7F4FC70109959C01C90106
:10201000E5960FB6F894DEBF0FBECDBFDF91CF912E
:102020001F910F91FF90EF90DF90CF900895FC01EA
:102030001382128248EE53E060E070E044835583DF
:102040006683778384EB92E09183808384E0848746
:102050000895FC018485843039F0382F20E0C901CF
:102060008D5F9B4F0C947A1780E00895CF93DF9398
:10207000EC018C858430D1F0CE010E94291084318E
:1020800081F0882371F0883161F08C3161F4E8814E
:10209000F9810480F581E02DCE01099521E0892B9D
:1020A00019F420E001C021E0822F01C080E0DF911F
:1020B000CF910895CF92DF92EF92FF92CF93DF936B
:1020C000EC018C85843091F10E94BA150E9467085A
:1020D0006B017C01CE010E9429108823D1F00E945F
:1020E00067086C197D098E099F09683E7340810558
:1020F0009105A8F00EC08C850E943615EC85F0E0A5
:10210000EE0FFF1FED5AFB4F1182108284E08C8787
:102110000DC0CE010E942910882381F3ECCF61E02D
:1021200070E080E090E00E94A308D4CFDF91CF91CF
:10213000FF90EF90DF90CF900895AF92BF92CF9233
:10214000DF92EF92FF920F931F93CF93DF93EC01F7
:102150005B016A018C85843009F04EC093E0E92E62
:1021600094E0F92E00E010E0C7010E947A17811177
:1021700002C00C870AC08831E1F38C31D1F30F5FC4
:102180001F4FF3940430110579F78C858430A1F149
:1021900020911F01309120012F5F3F4F09F002C0B5
:1021A00020E034E03093200120931F0140911F0173
:1021B0005091200120E061E00E944415B5016E5F5E
:1021C0007F4FA6018C850E94841509C061E070E0F4
:1021D00080E090E00E94A308CE010E9429108111A6
:1021E00003C084E08C8708C0CE010E94291087318B
:1021F00069F721E030E002C020E030E0C901DF9162
:10220000CF911F910F91FF90EF90DF90CF90BF90F3
:10221000AF9008950F9300E020E040E060E085E497
:1022200094E00E94C50B0F91089544E050E0BC017A
:1022300081E090E00C944B1744E050E0BC0185E055
:1022400090E00C944B1744E050E0BC018FE090E02C
:102250000C944B17AF92BF92CF92DF92EF92FF9206
:102260000F931F93CF93DF93CDB7DEB76E970FB663
:10227000F894DEBF0FBECDBF6C015B0182E690E03B
:102280000E94080C8C0182E6F80111928A95E9F708
:10229000C801895B9F4F0E946B14F6011783068368
:1022A00089E694E00E940D1746E050E0B50189E010
:1022B00090E00E944B1700E020E040E060E0CE019B
:1022C00049960E94C50BCE014B960E94231110EA3D
:1022D000E12E1FE0F12E00E010E020E63AEE40E0B3
:1022E00050E0B501F601868197810E942C1E8C0179
:1022F0008130910589F5F60166817781CE0143969B
:102300000E94421BCE0145960E942311F601668170
:102310007781CE010D960E94581BCE010F960E9428
:102320001511F60166817781CE0107960E944D1B3B
:10233000CE0109960E941C11F60166817781CE01BB
:1023400001960E94631B4B815C816D817E81F60149
:102350004283538364837583C8016E960FB6F894E5
:10236000DEBF0FBECDBFDF91CF911F910F91FF90C8
:10237000EF90DF90CF90BF90AF9008958F929F9293
:10238000AF92BF92CF92DF92EF92FF920F931F9383
:10239000CF93DF9300D0CDB7DEB74C016A0159016E
:1023A00089E694E069837A830E940D1746E050E045
:1023B00069817A8189E090E00E944B17C6010296FC
:1023C0000E942311C80102960E941511C7010296AE
:1023D0000E941C11F5014281538164817581F401D1
:1023E00042835383648375830F900F90DF91CF9165
:1023F0001F910F91FF90EF90DF90CF90BF90AF9023
:102400009F908F9008956F927F928F929F92AF923C
:10241000BF92CF92DF92EF92FF920F931F93CF93D1
:10242000DF93CDB7DEB76E970FB6F894DEBF0FBE61
:10243000CDBF6C015B017A014901380100E02FEF4B
:102440004FEF6FEFCE0149960E94C50B4EEA52E066
:102450005A8349838B8D9C8DAD8DBE8D8B839C83E0
:10246000AD83BE8358874F83F30182819381A4811A
:10247000B58189879A87AB87BC875E874D87F401D2
:1024800082819381A481B5818F87988BA98BBA8B28
:102490005C8B4B8BF70142815381648175814D8B3D
:1024A0005E8B6F8B788FEE24E394F12CEC0EFD1E87
:1024B0008E01095F1F4F9E01235F3F4FAE014D5EAE
:1024C0005F4FB501C6010E94BE116E960FB6F8941B
:1024D000DEBF0FBECDBFDF91CF911F910F91FF9057
:1024E000EF90DF90CF90BF90AF909F908F907F90B4
:1024F0006F900895CF92DF92EF92FF920F931F9308
:10250000CF93DF93CDB7DEB768970FB6F894DEBFF1
:102510000FBECDBF6B017901DA0112964D915D912D
:102520006D917C9115974D8B5E8B6F8B788FAEEA9A
:10253000B2E0BA83A98321E0288F0D891E892F89F3
:10254000388D0B831C832D833E83B887AF83F701BF
:10255000028113812481358109871A872B873C8763
:10256000BE87AD874F87588B698B7A8B8E010F5F43
:102570001F4F9E01295F3F4FAE01435F5F4FB60182
:102580000E94031268960FB6F894DEBF0FBECDBF4F
:10259000DF91CF911F910F91FF90EF90DF90CF903F
:1025A0000895CF93DF93EC010E94BB0BBE016E5FD9
:1025B0007F4F44E050E08FE090E00E947318CE011E
:1025C000DF91CF9108952EEA32E0FC013183208320
:1025D000FB014281538164817581FC0142835383F5
:1025E0006483758308950F9300E020E040E060E08D
:1025F0008BE594E00E94C50B8BE494E00F910C9462
:10260000BB0BDC01ED91FC91008CF18DE02D099468
:102610002EEA32E0FC0131832083FB01418952899B
:1026200063897489FC0142835383648375830895AD
:10263000FC01858996890895FC01818D928D08950C
:10264000CF93DF931F92CDB7DEB76983DC01ED91A5
:10265000FC910280F381E02D41E050E0BE016F5F0C
:102660007F4F09950F90DF91CF910895CF93DF931E
:10267000EC0107C0E881F9810680F781E02DCE01E9
:102680000995898D9A8D892BA9F7DF91CF910895AE
:10269000CF93DF931F92CDB7DEB7FC01218D328D32
:1026A000232B49F0BE016F5F7F4F84850E94531634
:1026B000298130E002C02FEF3FEFC9010F90DF9179
:1026C000CF910895CF93DF93EC01898D9A8D009778
:1026D00019F42FEF3FEF11C04817590708F0AC016C
:1026E0008C850E9414169C011816190694F7898D82
:1026F0009A8D821B930B9A8F898FC901DF91CF919D
:1027000008950F931F93CF93DF931F92CDB7DEB73A
:102710008C01FC01818D928D892B59F041E050E0B4
:10272000BE016F5F7F4F84850E941416181619062C
:102730001CF02FEF3FEF08C0F801818D928D0197BB
:10274000928F818F298130E0C9010F90DF91CF9165
:102750001F910F910895CF93DF93EC019A018F8918
:10276000988DAB01BC018C850E9461169C018F89FC
:10277000988D820F931F988F8F8BC901DF91CF9116
:102780000895FC0184850C94BD16FC01108E178AF7
:102790006E5F7F4F84850C949716CF93DF93EC0187
:1027A0008C85843061F00E943615EC85F0E0EE0FE8
:1027B000FF1FED5AFB4F1182108284E08C87DF915E
:1027C000CF9108950F931F93CF93DF93CDB7DEB7CB
:1027D00028970FB6F894DEBF0FBECDBF8C01DC0189
:1027E000ED91FC910284F385E02D0995F801648553
:1027F00089E694E00E942718892B29F148E050E0EF
:10280000BE016F5F7F4FD8011C968C910E941416F9
:102810009C0118161906CCF4BE016F5F7F4FC801EA
:102820000F960E94E10B9D8180E02E81820F911D09
:10283000F801968B858B3F8120E08885280F311D1C
:10284000328F218F02C020E030E0C90128960FB6F8
:10285000F894DEBF0FBECDBFDF91CF911F910F91D6
:102860000895CF92DF92EF92FF920F931F93CF9331
:10287000DF93EC016B018C85843019F593E0E92E30
:1028800094E0F92E00E010E0C7010E947A17811150
:1028900002C00C8708C08831E1F30F5F1F4FF3942B
:1028A0000430110589F78C85843059F0DE86CD8699
:1028B0001A8E198E20E0A60162E00E94441581E084
:1028C00001C080E0DF91CF911F910F91FF90EF90B9
:1028D000DF90CF900895FC011382128248EE53E0FE
:1028E00060E070E0448355836683778380ED92E0F7
:1028F0009183808384E08487CF010F960C94BB0B77
:10290000CF92DF92EF92FF920F931F93CF93DF93BB
:10291000CDB7DEB7E5970FB6F894DEBF0FBECDBFDB
:102920007C018B016A01CE0101960E94BB0BCE0196
:1029300009960E946B14CE01C0960E94BB0B6BE4FB
:1029400074E0CE018A960E94E312BE01665D7F4F5D
:10295000CE0101960E947C1EAE01405D5F4FB80122
:10296000CE0101960E94E0209C0181309105C9F4BE
:10297000D701ED91FC910088F189E02D8EEA92E07B
:102980009DA38CA30AA91BA92CA93DA90EA31FA333
:1029900028A739A7A601BE016C5D7F4FC701099525
:1029A0009C01C901E5960FB6F894DEBF0FBECDBFFE
:1029B000DF91CF911F910F91FF90EF90DF90CF901B
:1029C00008950F9300E020E040E060E081E694E0AD
:1029D0000E94C50B0F910895382F20E044E050E08D
:1029E000C901845F9B4F0C944B17282F30E02C5F5C
:1029F0003F4F922F8827860F971F0C947A1762E01B
:102A000070E00C94F514FB01282F30E02C5F3F4F51
:102A1000922F8827642F8E0F9F1F0C94EB16462F42
:102A200062E070E00C940315CF93DF93C82FD62F8C
:102A3000472F60E170E00E9403154D2F61E170E0C7
:102A40008C2FDF91CF910C940315CF93DF93C82F78
:102A5000D62F472F64E070E00E9403154D2F65E0EC
:102A600070E08C2FDF91CF910C940315CF93C82F7A
:102A700040E150E0682F89E694E00E942B196FEF47
:102A80008C2FCF910C940F15EF92FF921F93CF9341
:102A9000DF9300D0CDB7DEB7182F7A01862F815093
:102AA000853048F5812F2A8369830E9436152A8153
:102AB0006981422F462B60E070E0812F0E94031550
:102AC000E114F10411F0B7010AC06091670470913C
:102AD00068046F5F7F4F7093680460936704812F71
:102AE0000E94251541E050E0612F89E694E00E94A4
:102AF0002B1981E001C080E00F900F90DF91CF9102
:102B00001F91FF90EF9008951F93CF93DF93182F9D
:102B1000FB01EA0180818F3F51F481818F3F91F465
:102B200082818F3F79F483818F3F61F41EC08111D0
:102B300009C08181811106C08281811103C0838116
:102B4000882399F0209789F0BF01812F0E94EC140F
:102B5000BE01812F0E94141544E050E0612F89E6E8
:102B600094E00E942B1981E001C080E0DF91CF91B9
:102B70001F91089548E050E0682F89E694E00C9496
:102B80002B19DF92EF92FF920F931F93CF93DF9356
:102B9000D82E8B01EA01413088E0580710F0C0E0E0
:102BA000D8E06D2D89E694E00E9457187C0163E01F
:102BB00070E08D2D0E94F514873111F08C3121F4D5
:102BC000EC16FD0670F302C0C0E0D0E09E01A80143
:102BD0006D2D89E694E00E94081840E250E06D2DCA
:102BE00089E694E00E942B190DC063E070E08D2D02
:102BF0000E94F514811106C08D2D0E943615C0E08B
:102C0000D0E009C08D2D0E94FF1484FFEECF60E15B
:102C10008D2D0E940F15CE01DF91CF911F910F9145
:102C2000FF90EF90DF900895DF92EF92FF920F9365
:102C30001F93CF93DF93D82E7B018A01682F89E6FB
:102C400094E00E942718EC01009771F463E070E0B3
:102C50008D2D0E94F5148431E9F08823D9F08C3150
:102C6000C9F0CFEFDFEF16C0081719070CF4E80121
:102C70001C161D067CF400E09E01A7016D2D89E65F
:102C800094E00E94DB1840E450E06D2D89E694E06A
:102C90000E942B19CE01DF91CF911F910F91FF90D0
:102CA000EF90DF9008950F93AB0101E021E030E059
:102CB000682F89E694E00E94DB1881E090E00F9194
:102CC0000895AF92BF92CF92DF92EF92FF920F934F
:102CD0001F93CF93DF93B82E7B016A01E901682F20
:102CE00089E694E00E9457188C179D0740F46B2DDD
:102CF00089E694E00E945718A82EC92F02C0AC2E76
:102D0000CD2F0A2D1C2F9601A7016B2D89E694E08B
:102D10000E949A178A2D9C2FDF91CF911F910F91BE
:102D2000FF90EF90DF90CF90BF90AF9008951F93EA
:102D3000CF93DF93182FFB01EA018081811109C035
:102D40008181811106C08281811103C08381882322
:102D500069F0209759F0BF01812F0E94EC14BE0149
:102D6000812F0E94141521E030E002C020E030E005
:102D7000C901DF91CF911F910895CF93C82F40E2F1
:102D800050E0682F89E694E00E942B190CC08C2F2C
:102D90000E94FF1483FF07C068E18C2F0E940F156B
:102DA00020E030E00BC08C2F0E94FF1484FFEFCF97
:102DB00060E18C2F0E940F1521E030E0C901CF9116
:102DC00008958EBD0DB407FEFDCF8EB508952A98E7
:102DD00008952A9A08951F93CF93DF9300D0CDB71B
:102DE000DEB7182F6A8399830E94E71680EF0E944E
:102DF000E1169981892F0E94E116812F0E94E11628
:102E00006A81862F0E94E1160E94E91681E00F90E8
:102E10000F90DF91CF911F910895CF93DF93EC0135
:102E20006CE271E080E090E00E94A3080E943B19F0
:102E3000229A60E880E090E00E94EB1665E58BE165
:102E400090E00E94EB1665E58AE190E00E94EB16A7
:102E500080E090E49983888380E090E69987888772
:102E600080E098E49B838A8380E098E69B878A874A
:102E700080E090E59D838C8380E090E79D878C8740
:102E800080E098E59F838E8380E098E79F878E8718
:102E9000DF91CF910895CF92DF92EF92FF920F933F
:102EA0001F93CF93DF93EC017A018B016A01C80E67
:102EB000D91E13C00E94E71680EF0E94E1168D2FE5
:102EC0000E94E1168C2F0E94E1162196F801819153
:102ED0008F010E94E1160E94E916CC15DD0551F71D
:102EE000C701DF91CF911F910F91FF90EF90DF907D
:102EF000CF9008951F93CF93DF931F92CDB7DEB786
:102F0000182F99830E94E7168FE00E94E11699819D
:102F1000892F0E94E116812F0E94E11680E00E9415
:102F2000E11689830E94E91689810F90DF91CF9184
:102F30001F9108956F927F929F92AF92BF92CF920E
:102F4000DF92EF92FF920F931F93CF93DF931F9225
:102F5000CDB7DEB7F82E962E3A01590164E270E043
:102F6000892D99830E94F514E82E65E270E0892D81
:102F70000E94F514DE2CC12CC82AC60CD71C960161
:102F800037706F2C9981792E690C711C690C711C3A
:102F9000D301ED91FC91E20FF31FC901800F911F46
:102FA00081309840A0F0E12C48E0F42EE21AF30AB8
:102FB000A701B501CF010E944B17A8014E195F0967
:102FC000B5016E0D7F1DF3018081918103C0A801C1
:102FD000B501CF010E944B170C0D1D1D412F64E25E
:102FE00070E0892D0E940315402F65E270E0892D65
:102FF0000F90DF91CF911F910F91FF90EF90DF9095
:10300000CF90BF90AF909F907F906F900C940315DE
:103010000F931F9389019A0140E050E00E949A1794
:103020001F910F910895CF93DF93C82F66E270E050
:103030000E94F514D82F67E270E08C2F0E94F514DF
:103040003D2F20E0282BC901DF91CF910895FF92F9
:103050000F931F93CF93DF93F62EC0E0D0E08F2D18
:103060000E9413188C01009721F08F2D0E941318D5
:10307000EC01C017D10799F7CE01DF91CF911F91D5
:103080000F91FF900895CF93DF93C82F60E270E017
:103090000E94F514D82F61E270E08C2F0E94F51485
:1030A0003D2F20E0282BC901DF91CF910895FF9299
:1030B0000F931F93CF93DF93F62EC0E0D0E08F2DB8
:1030C0000E9443188C01009721F08F2D0E94431815
:1030D000EC01C017D10799F7CE01DF91CF911F9175
:1030E0000F91FF900895CF92DF92EF92FF920F938E
:1030F0001F93CF93DF93EC017A018B016A01C80E15
:10310000D91E14C00E94E7168FE00E94E1168D2F91
:103110000E94E1168C2F0E94E116219680E00E9409
:10312000E116F80181938F010E94E916CC15DD05A7
:1031300049F7C701DF91CF911F910F91FF90EF9059
:10314000DF90CF900895CF92DF92EF92FF920F938E
:103150001F93CF93DF9369015770EC01C60FD11D08
:10316000C60FD11D289688819981840F951F9801DB
:10317000240F351F2130384090F0E12C68E0F62E06
:10318000E41AF50AA701B6010E947318A8014E19A6
:103190005F09B6016E0D7F1D8881998102C0A8016B
:1031A000B601DF91CF911F910F91FF90EF90DF90CB
:1031B000CF900C9473188F929F92AF92BF92CF9240
:1031C000DF92EF92FF920F931F93CF93DF936C01E7
:1031D000962E5A01E901802E68E270E0892D0E9446
:1031E000F514F82E69E270E0892D0E94F514FF2D88
:1031F000E0E07F01E82A8E019501A701692DC60153
:103200000E94A31881101AC0CE0DDF1D4D2F68E259
:1032100070E0892D0E9403154C2F69E270E0892D22
:10322000DF91CF911F910F91FF90EF90DF90CF90A2
:10323000BF90AF909F908F900C940315DF91CF912A
:103240001F910F91FF90EF90DF90CF90BF90AF90C4
:103250009F908F900895CF93C62F61E070E08C2FE0
:103260000E94031561E070E08C2F0E94F51481111B
:10327000F9CFCF91089561E08DE00E942E0961E0C1
:103280008BE00E942E0961E08AE00E942E0960E036
:103290008DE00E94660960E08BE00E94660961E0B3
:1032A0008AE00E9466098CB580618CBD8CB5806413
:1032B0008CBD08950E96FC0184E1DF011D928A9574
:1032C000E9F708952F923F924F925F926F927F920B
:1032D0008F929F92AF92BF92CF92DF92EF92FF9226
:1032E0000F931F93CF93DF93CDB7DEB7E4970FB65D
:1032F000F894DEBF0FBECDBF7C012A013B016901FE
:103300000E9467084B015C018701095B1F4F12C0D7
:103310000E946708681979098A099B0946165706A9
:103320006806790608F477C162E370E080E090E017
:103330000E94A308C8010E94E2131816190644F758
:1033400042E250E0BE016F5F7F4FC8010E946213EE
:103350008981823009F05AC1F801858996898334C0
:10336000910509F45BC152C1F70180819181A2816D
:10337000B38188169906AA06BB0648F08481958118
:10338000A681B78188159905AA05BB0528F4C8014F
:103390000E943613512C5CC189899A89AB89BC89FA
:1033A000F70186879787A08BB18B8EECC82ED12C26
:1033B000C8010E948113F1E0CF1AD108C9F7512C3E
:1033C000C70182969AA789A7F701B696FCA7EBA733
:1033D000C7018A969EA78DA7F701E85AFF4FF8AB61
:1033E000EFA76701FAE1CF0ED11CC70142969AAB55
:1033F00089AB570196E1A90EB11CF7017E96FCAB93
:10340000EBABFCC0C8010E9481138333910509F422
:10341000CCC07CF48130910549F124F4892B09F466
:10342000EDC0DDC08330910549F1069709F0D7C0A2
:1034300040C08A33910509F48CC03CF48533910572
:1034400069F0C69709F0CBC050C08B33910509F4E1
:1034500096C08F3F910509F0C2C0D0C0C8010E943C
:103460008113C8010E948113582EC8C0C8010E9450
:10347000811344E050E069A97AA947C0C8010E94BD
:1034800081133C0144E050E0B501C8010E94621381
:10349000212C312C7724F4E06F1A710806C0C80182
:1034A0000E9481138FEF281A380A26143704BCF3C0
:1034B000A5C0C8010E9481133C0144E050E06BA903
:1034C0007CA9C8010E946213212C312C772494E03E
:1034D000691A710806C0C8010E948113EFEF2E1A05
:1034E0003E0A26143704BCF389C0C8010E94811328
:1034F000482EF701828D938DA48DB58D892B8A2B53
:103500008B2B39F444E050E0B601C8010E946213ED
:1035100075C0EFA5F8A96080718082809380B601A4
:10352000CE0183960E94D10B8DA19EA1AFA1B8A51B
:1035300086159705A805B90529F3212C312C06C05D
:10354000C8010E948113FFEF2F1A3F0A4210F8CFE3
:1035500055C0C8010E94811344E050E06BA57CA5D2
:10356000C8010E946213F70166A177A180A591A509
:103570000E94EE2666A377A380A791A73FC0C8014B
:103580000E94811344E050E06DA57EA5C8010E9411
:103590006213F70162A573A584A595A50E94EE2686
:1035A00062A773A784A795A729C0C8010E948113A9
:1035B00044E050E069A57AA5C8010E946213F701B2
:1035C00062A173A184A195A10E94EE2662A373A3B8
:1035D00084A395A366A777A780AB91AB0FC0C80162
:1035E0000E948113382E612C712C06C0C8010E94E4
:1035F0008113FFEF6F1A7F0A3610F8CFC8010E94BF
:103600001C13181619060CF4FDCE01C0512CC8016C
:103610000E9436131DC055245A941AC06D817E81B4
:103620008F8198850E94EE264B015C01F601608334
:10363000718382839383B701685F7F4F46E050E0D8
:10364000CE014D960E942E24009709F48DCE9FCE78
:10365000852DE4960FB6F894DEBF0FBECDBFDF9187
:10366000CF911F910F91FF90EF90DF90CF90BF907F
:10367000AF909F908F907F906F905F904F903F9012
:103680002F900895CF93DF93EC01625F7F4F0E94EC
:10369000D10BCE01DF91CF910895CF93DF93EC0151
:1036A0006E5E7F4F0E94D10BCE01DF91CF910895C6
:1036B000CF93DF93EC016A5E7F4F0E94D10BCE0166
:1036C000DF91CF910895CF93DF93EC01625E7F4F3E
:1036D0000E94D10BCE01DF91CF91089580E3FB01D1
:1036E00080833296842F82958F7090E1899F401954
:1036F00011244A3014F4405D01C0495C4293482FC4
:103700008111F0CF08956F927F928F929F92AF9226
:10371000BF92CF92DF92EF92FF920F931F93CF93BE
:10372000DF93CDB7DEB7AC970FB6F894DEBF0FBE10
:10373000CDBF7C01862EB42EA52E30E2932ECC2454
:10374000C394D12CCC0EDD1EF601292D11922A95A1
:10375000E9F70FEF2FEF4FEF6FEFCE0187960E9443
:10376000C50B8EEA92E09AA389A389A59AA5ABA579
:10377000BCA58BA39CA3ADA3BEA38701095B1F4F70
:1037800043E450E0BE016F5D7F4FC8010E94C51346
:10379000019609F4C1C081E089838A8396E0792E7D
:1037A0007B821C82F70164817581868197810E94EA
:1037B000EE266D837E838F839887A986BA8680E8FC
:1037C00090E09C878B874CE150E0B601C8010E94D5
:1037D000AB13F601292D11922A95E9F7570188E0DC
:1037E000A80EB11CF501D60101900D927A94E1F773
:1037F00040E150E0B601C8010E94AB13F6011192FE
:103800009A94E9F726E0622E712C40E250E0B6016E
:10381000C8010E94AB13F1E06F1A7108B1F783E69B
:10382000898392E89A8393E59B838C8385E38D83D8
:1038300081E08E838F829DE3988797E099878A87BE
:1038400086E0F501DE011B9601900D928A95E1F765
:103850008CE0898B8A8B60EF72E0CE0143960E94E8
:103860004424F7014385BE01675E7F4FC7010E9474
:103870006E1BF7014485BE01655E7F4FC7010E9444
:103880006E1BF7014585BE01635E7F4FC7010E9435
:103890006E1B4EE150E0B601C8010E94AB13F3E08D
:1038A0008F121EC082E3898384E08A83F7019685A4
:1038B0009B8397859C8390899D8391899E8396E3C2
:1038C0009F838887828D8987838D8A87848D8B8764
:1038D000858D8C874CE050E0B601C8010E94AB1387
:1038E00087E3898386E08A8391E09B8393E09C83CE
:1038F0008D838FE08E838AE38F838BE388878FEFBE
:10390000898749E050E0BE016F5F7F4FC8010E9488
:10391000AB13C8010E94C113AC960FB6F894DEBF7A
:103920000FBECDBFDF91CF911F910F91FF90EF9010
:10393000DF90CF90BF90AF909F908F907F906F90CF
:1039400008952F923F924F925F926F927F928F9243
:103950009F92AF92BF92CF92DF92EF92FF920F931E
:103960001F93CF93DF93CDB7DEB728970FB6F894A8
:10397000DEBF0FBECDBF8C0120ED37E040E050E050
:1039800061E070E080E090E00E94B021D8011496E0
:103990006C93149715967C93159716968C9316979F
:1039A00017969C9317976C9311967C931197129688
:1039B0008C93129713969C93F801E95BFF4FFE835B
:1039C000ED8364E470E0CF010E943114882309F490
:1039D00027C10E9467086B017C01812C912C312C3E
:1039E0005801F6E4AF0EB11CC801CE9698878F83BC
:1039F00038EE432E33E0532E612C712C42E0242EFE
:103A0000F9C081111FC0F80184819581A681B78119
:103A10000196A11DB11D84839583A683B7830E945F
:103A200067086C197D098E099F09A30192010E9404
:103A30007926A90161E0C8010E94831B81E0D501BC
:103A40008C93BCC08430F1F4F80184819581A68107
:103A5000B7810196A11DB11D84839583A683B78389
:103A60000E9467086C197D098E099F09A3019201C4
:103A70000E947926A90163E0C8010E94831BD50139
:103A80002C929CC0813059F5EF81F885408151819D
:103A9000628173819E012F5F3F4FC8010E946219AE
:103AA000382EF2E08F138AC089819A81AB81BC8164
:103AB000F80184839583A683B7830E9467086C19F5
:103AC0007D098E099F09A30192010E947926A9010F
:103AD00063E0C8010E94831BD5013C9275C082300F
:103AE00009F06CC0EF81F88540815181628173815A
:103AF0009E012F5F3F4FC8010E946219382EF5E0EA
:103B00008F1356C0E3E0D501EC93F80182A193A195
:103B1000A4A1B5A1892B8A2B8B2B41F484E893E0D7
:103B2000A0E0B0E082A393A3A4A3B5A3F80186A16B
:103B300097A1A0A5B1A5892B8A2B8B2B61F482A11B
:103B400093A1A4A1B5A1B695A7959795879586A3AE
:103B500097A3A0A7B1A7D8019A964D915D916D91B9
:103B60007C919D9796968D919D910D90BC91A02DE5
:103B7000452B462B472B59F4AC01BD01440F551F73
:103B8000661F771FF80142A753A764A775A7F8011E
:103B900086A797A7A0ABB1AB82A593A5A4A5B5A511
:103BA00082AB93ABA4ABB5AB88248394912C0CC0AF
:103BB000F6E08F1303C0D5011C9206C0BFEF3B1285
:103BC00003C0F5011082312CF1E08F16910491F0C1
:103BD0000E9467086C197D098E099F09D801DA9641
:103BE0002D913D914D915C91DD9726173707480740
:103BF000590728F0F5018081833009F002CF8D81CB
:103C00009E810E94CD13F80184819581A681B781A0
:103C10000196A11DB11D84839583A683B78302C03D
:103C2000812C912CC40128960FB6F894DEBF0FBEEC
:103C3000CDBFDF91CF911F910F91FF90EF90DF905B
:103C4000CF90BF90AF909F908F907F906F905F903C
:103C50004F903F902F900895CF92DF92EF92FF9276
:103C60000F931F93CF93DF93EC016B011AA21BA25A
:103C70001CA21DA21EA21FA218A619A61AA61BA648
:103C80001CA61DA61EAA1FAA18AE19AE2AAF3BAFCE
:103C90004CAF5DAFFC01FE96E082F182028313839C
:103CA0008C01085F1F4F86E0F80111928A95E9F7B1
:103CB000CE010E945A1986E0F601D80101900D92BA
:103CC0008A95E1F7FE01EA5BFF4F1082CE01DF919A
:103CD000CF911F910F91FF90EF90DF90CF900C94B8
:103CE000A11C0F9300E020E040E060E089E794E051
:103CF0000E94C50B0F910895FB014281538164819D
:103D00007581FC0142835383648375831782168215
:103D10000895CF93FB01DB018D918111FDCF80E0F0
:103D200090E020E030E0CAE01BC08F3F910509F031
:103D300064F5DA01A20FB31F12968C932F5F3F4FE9
:103D400080E090E00DC0DC01CA9FC001CB9F900DC8
:103D50001124772767FD709560537109860F971FAF
:103D60006191662321F02430310594F00EC08F3F1D
:103D7000910509F054F4243031053CF4FA01E20FC6
:103D8000F31F828321E030E006C020E030E003C072
:103D90006E32C9F6CACFC901CF910895AF92BF92D2
:103DA000CF92DF92EF92FF920F931F93CF93DF9307
:103DB00000D01F92CDB7DEB77C015B010E9467087F
:103DC000F701778366838701085F1F4FB7016A5F3A
:103DD0007F4F42E050E0C8010E94AB1381E090E0C9
:103DE0009A83898342E050E0BE016F5F7F4FC80134
:103DF0000E94AB1380E091E09A83898342E050E017
:103E0000BE016F5F7F4FC8010E94AB131A821982F7
:103E100042E050E0BE016F5F7F4FC8010E94AB13CC
:103E200042E050E0BE016F5F7F4FC8010E94AB13BC
:103E300042E050E0BE016F5F7F4FC8010E94AB13AC
:103E40007501650121C0F6017F018191811107C0D3
:103E50005701AC18BD081A141B0424F011C08E328F
:103E600099F7F6CFAB8241E050E0BE016D5F7F4F26
:103E7000C8010E94AB13A501B601C8010E94AB1393
:103E80006701FFEFCF1ADF0AF70180818111DBCFD5
:103E90001B8241E050E0BE016D5F7F4FC8010E9470
:103EA000AB13E12CFF24F394FA82E98242E050E064
:103EB000BE016F5F7F4FC8010E94AB13FA82E98297
:103EC00042E050E0BE016F5F7F4FC8010E94AB131C
:103ED00081E090E00F900F900F90DF91CF911F91B4
:103EE0000F91FF90EF90DF90CF90BF90AF9008952B
:103EF0004F925F926F927F928F929F92AF92BF92FA
:103F0000CF92DF92EF92FF920F931F93CF93DF93A5
:103F1000CDB7DEB763970FB6F894DEBF0FBECDBF47
:103F20007C015B016A010E9467082B013C0187014B
:103F3000085F1F4F4501A12CB12C12C00E946708D9
:103F4000641975098609970986169706A806B906A1
:103F500008F40FC162E370E080E090E00E94A308E3
:103F6000C8010E94E2131816190644F7F7014281AE
:103F7000538164817581818D928DA38DB48D481795
:103F800059076A077B0709F0F7C0858D968DC5979D
:103F900009F0F2C0F7C04CE050E0BE016F5F7F4F08
:103FA000C8010E9462138B819C81982789279827DA
:103FB0009A8B898BF7014681578129813A81421773
:103FC000530711F497FD06C0C8010E9436132CEF69
:103FD0003FEFDEC08F709270892B31F0C8010E94D4
:103FE00036132BEF3FEFD4C08F8098849824892418
:103FF00098248114910479F5C8010E9436132AEFA0
:104000003FEFC6C041E050E0BE01635F7F4FC80193
:104010000E9462138D85811107C08D858111F2CFB9
:104020000AC0C8010E9481138D85982F91509D87E9
:104030008111F7CFF2CFC8010E948113C8010E94FD
:104040008113C8010E948113C8010E948113FFEFF0
:10405000EF1AFF0A02C0E12CF12C8D819E81982776
:1040600089279827E816F90668F2A12CB12C41E0BF
:1040700050E0BE016D5E7F4FC8010E9462138B89C4
:10408000982F907C69F4811104C00EC0C8010E9471
:1040900081138B89982F91509B8B8111F7CF04C08E
:1040A000C8010E9481131B8A8B898111E0CF42E0F5
:1040B00050E0BE01615F7F4FC8010E94621342E081
:1040C00050E0BE01635F7F4FC8010E946213C801C8
:1040D0000E948113C8010E948113C8010E948113AC
:1040E000C8010E94811342E050E0BE016F5E7F4F25
:1040F000C8010E9462138F8598898115914011F53E
:104100008D859E8581159140E9F489899A8981156B
:10411000944031F0C8010E94361327EF3FEF38C0BA
:10412000B6016E5F7F4F44E050E0C8010E94621309
:1041300021E030E02DC0C8010E9481132FEFE21A68
:10414000F20A02C0E12CF12C89899A8998278927E3
:104150009827E816F90678F38FEFA81AB80AA8147A
:10416000B90409F084CFC8010E94361326EF3FEF4F
:104170000FC02FEF3FEF0CC02EEF3FEF09C02DEF28
:104180003FEF06C0C8010E941C130C97C4F303CF75
:10419000C90163960FB6F894DEBF0FBECDBFDF91A5
:1041A000CF911F910F91FF90EF90DF90CF90BF9034
:1041B000AF909F908F907F906F905F904F900895F9
:1041C0008F929F92AF92BF92CF92DF92EF92FF9227
:1041D0000F931F93CF93DF9300D000D000D0CDB7C3
:1041E000DEB78C015B016A010E94891E892B09F0F0
:1041F00051C0F801428153816481758180918104AD
:1042000090918204A0918304B091840448175907C7
:104210006A077B0709F442C00E9467087801F8E04A
:10422000EF0EF11C6F707727882799277C5FC701F5
:104230000E9431148130B9F58EEA92E09A83898325
:10424000F80182819381A481B5818B839C83AD83A6
:10425000BE8345E350E0BE016F5F7F4FC7010E9400
:10426000C513892B19F4A12CB12C10C0B501C801BC
:104270000E94CE1E892BB9F3C7010E94C113892B5E
:10428000A9F4F1CFFFEFAF16BF0699F0C7010E9466
:10429000CD131BC0AA24A394B12C17C02EEFA22EBD
:1042A000BB24BA9412C0A12CB12C0FC093E0892E6C
:1042B000912CA60168E873E1C8010E94781F5C0197
:1042C00021E0821A910811F3DDCFC50126960FB6C1
:1042D000F894DEBF0FBECDBFDF91CF911F910F913C
:1042E000FF90EF90DF90CF90BF90AF909F908F9016
:1042F00008950F9300E020E040E060E08FE794E055
:104300000E94C50B0F9108950F931F93CF93DF93D6
:1043100000D000D0CDB7DEB79B01AC0161157105AF
:104320008105910579F069833A834B835C830E9410
:10433000552329813A814B815C810E949B268B0108
:104340009C0103C000E010E09801B801C9010F9082
:104350000F900F900F90DF91CF911F910F910895C3
:10436000CF92DF92EF92FF926B017C01621773078D
:104370008407950764F4CA01B9016C197D098E0997
:104380009F090E948421C60ED71EE81EF91EB601A1
:10439000C701FF90EF90DF90CF9008950F931F9388
:1043A000CF93DF938230910510F482E090E0E091AA
:1043B0008704F091880420E030E0C0E0D0E023C022
:1043C0004081518148175907A8F04817590761F4EF
:1043D00082819381209719F09B838A832EC09093CA
:1043E00088048093870429C02115310529F04217DC
:1043F000530710F0A90102C0BE01DF010281138141
:10440000EF019A01F8013097D9F62115310509F12C
:10441000281B390B2430310590F412968D919C9114
:1044200013976115710521F0FB019383828304C00A
:104430009093880480938704FD01329644C0FD0167
:10444000E20FF31F81939193225031092D933C93F6
:104450003AC02091850430918604232B41F42091A9
:10446000020130910301309386042093850420914A
:104470000001309101012115310541F42DB73EB7FE
:104480004091040150910501241B350BE0918504F6
:10449000F0918604E217F307A0F42E1B3F0B2817B8
:1044A000390778F0AC014E5F5F4F2417350748F0AD
:1044B0004E0F5F1F50938604409385048193919320
:1044C00002C0E0E0F0E0CF01DF91CF911F910F91AA
:1044D0000895EF92FF920F931F93CF93DF9300976E
:1044E00009F48EC0DC01129713961C921E9212974B
:1044F000E0908704F0908804E114F10489F42D9190
:104500003C911197280F391F809185049091860462
:104510008217930789F5B0938604A093850470C031
:10452000E70120E030E001C0EA01CA17DB0738F4F8
:104530004A815B819E0141155105B1F722C0AC0152
:1045400042505109FA01D383C28300811181BC0119
:10455000600F711F6C177D0761F468817981600FAE
:10456000711F6E5F7F4F718360836A817B8173836C
:1045700062832115310529F4B0938804A093870440
:104580003FC0F901B383A283E90149915991C40F56
:10459000D51FAC17BD0771F4DC019E918E91840F7D
:1045A000951F02969183808312968D919C9113970B
:1045B00093838283A0E0B0E002C0D7017C01F701C1
:1045C000828193810097C9F7C701029620813181CA
:1045D000820F931F20918504309186042817390794
:1045E00079F4109729F4109288041092870404C07B
:1045F00013961C921E921297F0928604E092850404
:10460000CDB7DEB7E6E00C94DF268F929F92AF9293
:10461000BF92CF92DF92EF92FF92CF93DF93EC01A4
:10462000688179818A819B81611571058105910578
:1046300021F464E279ED8BE597E02DE133EF41E081
:1046400050E00E949B2649015A019B01AC01A7EA58
:10465000B1E40E9466266B017C01ACEEB4EFA501CB
:1046600094010E947426C60ED71EE81EF91EF7FE9E
:1046700006C081E0C81AD108E10880E8F80AC882BB
:10468000D982EA82FB82E894F7F8B601C701DF918C
:10469000CF91FF90EF90DF90CF90BF90AF909F9021
:1046A0008F9008950E940523089586E091E00E946E
:1046B0000523089560930601709307018093080114
:1046C000909309010895A0E0B0E0E9E6F3E20C94CC
:1046D000BD26EC01009729F4CB010E94CE21EC010C
:1046E000B4C0DC01A60FB71FFC013297AE17BF079D
:1046F00018F4C0E0D0E0A9C00081118106171707A7
:10470000B0F00530110508F4A0C0C8010497861761
:10471000970708F49AC002501109061B170B0D9356
:104720001D9371836083CD010E9469228EC06B014D
:10473000C01AD10A7C01E00EF11EE0918704F091CD
:10474000880420E030E080E090E048C0EE15FF05EE
:10475000D1F580809180540142E0A40EB11CAC14CC
:10476000BD0488F17401EC18FD08670122E0C20E57
:10477000D11C9E012250310945E0C416D10478F0C5
:104780004281538113965C934E9312971196FC923B
:10479000EE92F901718360833A2F2B2F09C00E5FCF
:1047A0001F4F080D191DD9010D931C9332812381D0
:1047B000009721F0FC013283238347C030938704A4
:1047C0002093880442C0808191812817390708F41A
:1047D0009C0152814381CF01E52FF42F309709F0DE
:1047E000B5CF80918504909186048E159F05F1F4D4
:1047F00026173707D8F480910001909101010097A6
:1048000041F48DB79EB72091040130910501821BC0
:10481000930BA817B90708F06CCFB0938604A09348
:104820008504FE013297718360830FC0CB010E9423
:10483000CE217C01009709F45CCFA801BE010E9443
:104840003B24CE010E946922E701CE01CDB7DEB73D
:10485000ECE00C94D926F8940C940727FB01DC01BA
:1048600004C08D910190801921F441505040C8F747
:10487000881B990B0895FB01DC0102C001900D9289
:1048800041505040D8F70895FB01DC0101900D9292
:104890000020E1F708955058BB27AA270ED075C114
:1048A00066D130F06BD120F031F49F3F11F41EF44B
:1048B0005BC10EF4E095E7FB51C1E92F77D180F39E
:1048C000BA17620773078407950718F071F49EF50D
:1048D0008FC10EF4E0950B2EBA2FA02D0B01B9015C
:1048E00090010C01CA01A0011124FF27591B99F066
:1048F000593F50F4503E68F11A16F040A22F232F72
:10490000342F4427585FF3CF469537952795A795C1
:10491000F0405395C9F77EF41F16BA0B620B730B68
:10492000840BBAF09150A1F0FF0FBB1F661F771FD9
:10493000881FC2F70EC0BA0F621F731F841F48F48E
:10494000879577956795B795F7959E3F08F0B3CF14
:104950009395880F08F09927EE0F979587950895FE
:10496000D9D008F481E008950CD00FC107D140F0F0
:10497000FED030F021F45F3F19F0F0C0511139C181
:10498000F3C014D198F39923C9F35523B1F3951BC0
:10499000550BBB27AA2762177307840738F09F5F60
:1049A0005F4F220F331F441FAA1FA9F333D00E2ECF
:1049B0003AF0E0E830D091505040E695001CCAF73C
:1049C00029D0FE2F27D0660F771F881FBB1F261701
:1049D00037074807AB07B0E809F0BB0B802DBF01D4
:1049E000FF2793585F4F2AF09E3F510568F0B6C0ED
:1049F00000C15F3FECF3983EDCF3869577956795B1
:104A0000B795F7959F5FC9F7880F911D9695879584
:104A100097F90895E1E0660F771F881FBB1F6217A3
:104A200073078407BA0720F0621B730B840BBA0B61
:104A3000EE1F88F7E095089504D06894B111D9C0AD
:104A40000895BCD088F09F5790F0B92F9927B7519F
:104A5000A0F0D1F0660F771F881F991F1AF0BA9542
:104A6000C9F712C0B13081F0C3D0B1E00895C0C021
:104A7000672F782F8827B85F39F0B93FCCF3869538
:104A800077956795B395D9F73EF490958095709595
:104A900061957F4F8F4F9F4F0895E89409C097FB12
:104AA0003EF490958095709561957F4F8F4F9F4F05
:104AB0009923A9F0F92F96E9BB279395F695879549
:104AC00077956795B795F111F8CFFAF4BB0F11F40C
:104AD00060FF1BC06F5F7F4F8F4F9F4F16C08823B3
:104AE00011F096E911C0772321F09EE8872F762FE9
:104AF00005C0662371F096E8862F70E060E02AF02A
:104B00009A95660F771F881FDAF7880F9695879515
:104B100097F90895990F0008550FAA0BE0E8FEEFEA
:104B200016161706E807F907C0F012161306E40771
:104B3000F50798F0621B730B840B950B39F40A266A
:104B400061F0232B242B252B21F408950A2609F448
:104B5000A140A6958FEF811D811D089597F99F674C
:104B600080E870E060E008959FEF80EC08950024F5
:104B70000A941616170618060906089500240A94C2
:104B800012161306140605060895092E0394000C48
:104B900011F4882352F0BB0F40F4BF2B11F460FFD7
:104BA00004C06F5F7F4F8F4F9F4F089557FD905800
:104BB000440F551F59F05F3F71F04795880F97FBE1
:104BC000991F61F09F3F79F087950895121613069B
:104BD0001406551FF2CF4695F1DF08C016161706CA
:104BE0001806991FF1CF86957105610508940895FF
:104BF000E894BB2766277727CB0197F908958ADFCA
:104C000008F48FEF08950BD0C0CFB1DF28F0B6DFE6
:104C100018F0952309F0A2CFA7CF1124EACFC6DF61
:104C2000A0F3959FD1F3950F50E0551F629FF001BF
:104C3000729FBB27F00DB11D639FAA27F00DB11D18
:104C4000AA1F649F6627B00DA11D661F829F2227A1
:104C5000B00DA11D621F739FB00DA11D621F839F28
:104C6000A00D611D221F749F3327A00D611D231FFE
:104C7000849F600D211D822F762F6A2F11249F574C
:104C800050408AF0E1F088234AF0EE0FFF1FBB1F6F
:104C9000661F771F881F91505040A9F79E3F51050E
:104CA00070F05CCFA6CF5F3FECF3983EDCF38695C7
:104CB00077956795B795F795E7959F5FC1F7FE2BB9
:104CC000880F911D9695879597F908950E94F5266E
:104CD000A59F900DB49F900DA49F800D911D112450
:104CE0000895B7FF0C9466260E946626821B930BDC
:104CF0000895A1E21A2EAA1BBB1BFD010DC0AA1F1D
:104D0000BB1FEE1FFF1FA217B307E407F50720F034
:104D1000A21BB30BE40BF50B661F771F881F991FAF
:104D20001A9469F760957095809590959B01AC01F8
:104D3000BD01CF010895052E97FB16F4009407D00E
:104D400057FD0DD00E94792607FC09D07EF490957E
:104D50008095709561957F4F8F4F9F4F0895509527
:104D60004095309521953F4F4F4F5F4F08952F92BB
:104D70003F924F925F926F927F928F929F92AF92EB
:104D8000BF92CF92DF92EF92FF920F931F93CF9338
:104D9000DF93CDB7DEB7CA1BDB0B0FB6F894DEBFCF
:104DA0000FBECDBF09942A88398848885F846E84F5
:104DB0007D848C849B84AA84B984C884DF80EE803F
:104DC000FD800C811B81AA81B981CE0FD11D0FB648
:104DD000F894DEBF0FBECDBFED0108956927962779
:104DE00069277827872778270895A29FB001B39F66
:104DF000C001A39F01D0B29F700D811D1124911D90
:104E00000895EE0FFF1F0590F491E02D0994F8949A
:024E1000FFCFD2
:104E1200000089042000010000003139322E3136B1
:104E2200382E312E31303100DEADBEEFFEED010005
:104E3200040020282A1A1615353D3F3B20006970D0
:104E4200206672616E20646863703A290064686348
:104E5200702073766172617220656A2E20536174CC
:104E6200746572207374617469736B2069702E00AB
:104E7200416E736C7574656E2E00474554202F7316
:104E82006574737461742F74656D702F00486F734D
:104E9200743A2000557365722D4167656E743A202D
:104EA20041726475696E6F45746865726E657400EF
:104EB200436F6E6E656374696F6E3A20636C6F73D5
:104EC20065004B6F70706C6172206672616E2E00AD
:104ED200474554202F67657473657474696E6773F0
:104EE20020485454502F312E310053746F7070612A
:104EF20072206B6C69656E742E00537461727461FA
:104F020072207374797270726F6772616D206F6351
:104F1200682074657374617220656666656B746C73
:104F22006167656E2070612072656C6165722E2EFC
:104F32002E004F4B004B702C204B692C204B643AB7
:104F420020005469643B204F7574707574202830BA
:104F52002D323030293B205265663B20523B205493
:104F62003B206C617374496E7075743B206C617385
:104F7200744572726F723B206C6173744F757470FA
:104F820075743B20703B20693B20643B0049503ADA
:104F920020003C6C6F673E003C2F6C6F673E004EFA
:104FA20079747420616E726F700000000000020A52
:104FB2000A0C9D09CC09B009F00900000000800B21
:104FC20000000000150F980F8D0F720F4A0F2B0F64
:104FD2009D10B60F6E0F5A103610420F00000000DF
:104FE2002013AB131C138113481336133114CD1342
:104FF200C5138014C113E2136213011308131813AB
:0850020057495A6E6574000065
:00000001FF
