:100000000C9465000C948D000C948D000C948D0064
:100010000C948D000C948D000C948D000C948D002C
:100020000C948D000C948D000C948D000C948D001C
:100030000C948D000C948D000C948D000C948D000C
:100040000C942E080C948D000C944A0A0C94860A89
:100050000C948D000C948D000C948D000C948D00EC
:100060000C948D000C948D0000000007000201002C
:100070000003040600000000000000000102040864
:100080001020408001020408102001020408102002
:10009000040404040404040402020202020203032E
:1000A0000303030300000000250028002B000000CC
:1000B0000000240027002A00CE038807410BFD0B17
:1000C000D311AA139815281F302211241FBECFEF79
:1000D000D8E0DEBFCDBF12E0A0E0B1E0E6ECFFE487
:1000E00002C005900D92AA32B107D9F713E0AAE237
:1000F000B2E001C01D92AD3BB107E1F710E0CAECE0
:10010000D0E004C02297FE010E94DD27C83BD10742
:10011000C9F70E940C0C0C94E2240C9400000F937D
:100120001F93FC017183608355834483338322834F
:1001300012861386148615861186108616861783F6
:1001400006831F910F910895FC01718360830895C8
:10015000FC01808191810895FC018085918508953D
:10016000CB01BA0123E333EF4BE454E40E9425258D
:1001700026E636E64EEF50E40E948E250E94F625D4
:100180006A30710524F06B35710524F405C06AE00E
:1001900070E002C06AE570E0CB010895EF92FF9233
:1001A0000F931F93CF93DF93EC018E810E940D0874
:1001B000BC01882777FD8095982F0E9429262AE088
:1001C00038E240EA5BE30E94DD269B01AC0160E07F
:1001D00070E080EA90E40E948E2520E030E040E864
:1001E0005FE30E94252520E030E44CE156E40E94C4
:1001F000DD267B018C0120E030E048E454E47F2DD3
:10020000912F0E948A2587FD0CC020E030E844ED44
:1002100054E46E2D7F2D802F912F0E94D926181621
:100220001CF481E08E8701C01E866E2D7F2D802FED
:10023000912FDF91CF911F910F91FF90EF90089533
:10024000CF93DF93EC010E94CE00AB01BC014A8743
:100250005B876C877D87CE010E94B0009987888775
:10026000DF91CF910895FC0186850895AF92CF92DA
:10027000EF92FF920F931F93CF93DF93CDB7DEB72B
:100280002B970FB6F894DEBF0FBECDBF9AE0EEE11C
:10029000F1E0DE01119601900D929A95E1F781E06F
:1002A00090E08C0F9D1F680F791FFB01F080F4FA1E
:1002B000662760F9822F4B870E947709F2FA66273A
:1002C00060F98E2D0E9477096F2D61708A2D0E9432
:1002D0007709F5FA662760F94B85842F0E94770924
:1002E000F3FA662760F9802F0E947709F1FA6627F2
:1002F00060F98C2D2B960FB6F894DEBF0FBECDBFE4
:10030000DF91CF911F910F91FF90EF90CF90AF9021
:100310000C947709AF92BF92CF92DF92EF92FF9247
:100320000F931F93CF93DF93CDB7DEB72D970FB603
:10033000F894DEBF0FBECDBF6C015B016EED71E0C6
:10034000FC0174836383FA0182819381A481B58166
:10035000F60185839683A783B08772876187F90149
:100360004281538164817581F60143875487658793
:100370007687C60143960E94E010F601B282A18200
:10038000108B0787F28AE18A1082CE0101960E94C3
:10039000E0102D960FB6F894DEBF0FBECDBFDF91F3
:1003A000CF911F910F91FF90EF90DF90CF90BF9072
:1003B000AF9008950F931F93CF93DF93CDB7DEB720
:1003C0002C970FB6F894DEBF0FBECDBF8C01FC0199
:1003D000618172818FE793E00E94F311019729F404
:1003E0008CEC92E00E94920C27C08CEC92E00E9470
:1003F000920C2EED31E03A832983F80183859485B0
:10040000A585B6858B839C83AD83BE8338872F8378
:10041000458156816781708549875A876B877C87BC
:10042000618172819E012F5F3F4FAE01495F5F4F37
:100430008FE793E00E94431368EE73E080E090E062
:100440000E94B4082C960FB6F894DEBF0FBECDBF45
:10045000DF91CF911F910F9108950F931F93CF9329
:10046000DF93EC018C010D5E1F4FC8010E94FF104D
:1004700081110AC08881882339F0C801DF91CF91AA
:100480001F910F910C942311DF91CF911F910F9128
:100490000895CF92DF92EF92FF920F931F93CF9325
:1004A000DF938C016B017A01EC016396FC014189B9
:1004B000528967857089CE010E947F10892BD1F106
:1004C00068EC70E080E090E00E94B40868E271E0BF
:1004D000CE010E94890C4AE050E0B601CE010E9494
:1004E000770D6BE371E0CE010E94890CB701CE015C
:1004F0000E94530C67E871E0CE010E94A80C62E4F0
:1005000071E0CE010E94890CF80167857089CE01E7
:100510000E94890CCE010E94920C69E471E0CE0128
:100520000E94A80C65E671E0CE010E94A80CCE01E5
:100530000E94920C68EC70E080E090E00E94B408A9
:10054000CE010E942311CE010E94FF10F80180838A
:10055000DF91CF911F910F91FF90EF90DF90CF909F
:1005600008959F92AF92BF92CF92DF92EF92FF9247
:100570000F931F93CF93DF93CDB7DEB72F970FB6AF
:10058000F894DEBF0FBECDBF6C017B015E0188E039
:10059000A80EB11C68E471E0C5010E94AD0E68E4CC
:1005A00071E0CE0101960E94AD0E87010D5E1F4FD6
:1005B000C8010E94F40FF70141895289678570894B
:1005C000C8010E947F10892B41F167E771E0C801E3
:1005D0000E94A80C62E471E0C8010E94890CF70136
:1005E00067857089C8010E94890CC8010E94920C1D
:1005F00069E471E0C8010E94A80C65E671E0C801D9
:100600000E94A80CC8010E94920C68EE73E080E082
:1006100090E00E94B408912C09C0C8010E942311E7
:1006200060E070E0C6010E94AD0E31C0C8010E94BA
:100630005610892BA1F0C8010E943B10282F8B3740
:1006400019F0992049F002C099249394622FC501B2
:100650002F870E94310F2F852D3709F4912CC80167
:100660000E945610892B11F7C8010E94FF108111BA
:10067000DDCFC8010E942311C8010E94FF10F701BD
:100680008083BE01685F7F4FC6010E94E10ECE01EC
:1006900001960E943C0ECE0108960E943C0EC601B7
:1006A0002F960FB6F894DEBF0FBECDBFDF91CF916E
:1006B0001F910F91FF90EF90DF90CF90BF90AF9080
:1006C0009F900895AF92BF92CF92DF92EF92FF92E8
:1006D0000F931F93CF93DF93CDB7DEB727970FB656
:1006E000F894DEBF0FBECDBF6C018B01BA01C8010B
:1006F0000E94950F7C0161E971E0CE0101960E9494
:10070000AD0EA7014C5F5F4FBE016F5F7F4FC80109
:100710000E94770F7C01CE0101960E943C0E63E996
:1007200071E0CE0101960E94AD0EA701BE016F5F80
:100730007F4FC8010E94770F7C01CE0101960E9475
:100740003C0E8FEFE81AF80A63E971E0CE010196DA
:100750000E94AD0EA701BE016F5F7F4FC8010E94CE
:10076000770F5C01CE0101960E943C0E9501A70116
:10077000B801C6010E94990FC60127960FB6F894DA
:10078000DEBF0FBECDBFDF91CF911F910F91FF90C4
:10079000EF90DF90CF90BF90AF9008950F9300E05F
:1007A00020E040E060E08AE292E00E94D60B0F91E8
:1007B0000895CF92DF92EF92FF920F931F93CF9302
:1007C000DF93EC01488359836A837B830C831D8309
:1007D0002E833F83C886D986EA86FB860E947808E6
:1007E0006CA37DA38EA39FA3DF91CF911F910F9147
:1007F000FF90EF90DF90CF900895CF93DF93EC01BF
:10080000CB01BA010E94F6257FA76EA7DF91CF9199
:100810000895CF93DF93EC01CB01BA010E94F62536
:100820007DA76CA7DF91CF910895FC0166A577A500
:10083000882777FD8095982F0E9429260895FC012E
:1008400064A575A5882777FD8095982F0E94292695
:1008500008952F923F924F925F926F927F928F9264
:100860009F92AF92BF92CF92DF92EF92FF920F933F
:100870001F93CF93DF93CDB7DEB764970FB6F8948D
:10088000DEBF0FBECDBF9C8B8B8B6A017B01280125
:1008900039010E9478084B015C01EB89FC8984A135
:1008A00095A1A6A1B7A1A5019401281B390B4A0B5C
:1008B0005B0BDA01C90180369A4EA105B10548F4F7
:1008C00040A1498351A15A8382A18B8393A19C8328
:1008D0003BC1A7019601C301B2010E9425256D838A
:1008E0007E838F839887AB89BC8998962D913D91A3
:1008F0004D915C919B970E9426251B018C01862FB0
:10090000932DA02FB12FEB89FC8980A791A7A2A7D7
:10091000B3A766A577A5882777FD8095982F0E94B5
:10092000292669877A878B879C8769837A838B835B
:100930009C83762F6A85982F8C85272F362F492FF9
:10094000582F622D732D802F912F0E94D9261816B3
:100950007CF459854A853B852C85852F942FA32FC0
:10096000B22FEB89FC8980A791A7A2A7B3A71EC0CD
:10097000AB89BC899C966D917C919D97882777FD6A
:100980008095982F0E9429262B013C019B01AC01E8
:10099000622D732D802F912F0E948A2587FF06C01C
:1009A000EB89FC8940A651A662A673A6AB89BC89D7
:1009B00098962D913D914D915C919B972D873E8707
:1009C0004F87588B5C962D913D914D915C915F972F
:1009D000C701B6010E942525362E272E898B9A8BBA
:1009E000EB89FC892081318142815381BD81AE81B7
:1009F0001F8108856B2F7A2F812F902F0E94DD2673
:100A00002B013C01AB89BC8914962D913D914D91F0
:100A10005C9117976D857E858F8598890E94DD266C
:100A20009B01AC01C301B2010E9426252B013C01B0
:100A3000EB89FC892085318542855385D10119894F
:100A40000A896B2F7A2F812F902F0E94DD269B0120
:100A5000AC01C301B2010E9425253B018C017985BF
:100A60006A859B858C85272F362F492F582F662D19
:100A7000772D802F912F0E94D926181624F1AB894B
:100A8000BC899C966D917C919D97882777FD809578
:100A9000982F0E94292669837A838B839C83762FE3
:100AA0006A81982F8C81272F362F492F582F662D3A
:100AB000772D802F912F0E948A2587FD04C069829F
:100AC0007A820B831C83EB89FC89C48ED58EE68EDB
:100AD000F78E5D814E813F812885852F942FA32F2E
:100AE000B22F808F918FA28FB38F59814A813B8122
:100AF0002C81852F942FA32FB22F80A391A3A2A383
:100B0000B3A35D814E813F812885852F942FA32F2C
:100B1000B22F80AB91ABA2ABB3AB2D853E854F8599
:100B2000588924AB35AB46AB57ABA10139892A892B
:100B3000852F922DA32FB22F80AF91AFA2AFB3AF6D
:100B400084A295A2A6A2B7A259814A813B812C8199
:100B5000652F742F832F922F64960FB6F894DEBF03
:100B60000FBECDBFDF91CF911F910F91FF90EF90FE
:100B7000DF90CF90BF90AF909F908F907F906F90BD
:100B80005F904F903F902F900895AF92BF92CF9279
:100B9000DF92EF92FF920F931F93CF93DF9361E069
:100BA00082E00E943F0961E083E00E943F0961E02A
:100BB00084E00E943F0961E085E00E943F0961E016
:100BC00086E00E943F0961E087E00E943F0961E002
:100BD0008DE00E943F0961E08CE00E943F0940E007
:100BE00050E0BA018CE592E00E94090440E050E038
:100BF00068E473E48CE592E00E94FD0340E855E26E
:100C000060E070E08CEC92E00E94C10AC1E0D0E0AC
:100C100083E0A82EB12C92E0C92ED12C25E0E22E43
:100C2000F12C04E010E027E030E046E050E0BE01A7
:100C300088E992E00E9436016EEE72E080E090E07A
:100C40000E94B4082196CB30D10511F780E392E0E1
:100C5000DF91CF911F910F91FF90EF90DF90CF9098
:100C6000BF90AF900C94DA014F925F926F927F9297
:100C70008F929F92AF92BF92CF92DF92EF92FF92AC
:100C80000F931F93CF93DF93CDB7DEB76C970FB65B
:100C9000F894DEBF0FBECDBF88E992E00E9420012C
:100CA00088E992E00E94AC008C0188E992E00E9401
:100CB000A800BC01882777FD8095982F0E942926DF
:100CC0006B017C0122E030E0982F4C2D5D2D692FC7
:100CD0007F2D8CEC92E00E94280EB801882777FDCA
:100CE0008095982F0E942926AB01BC010C2D1D2D4B
:100CF0002E2D3F2D8CE592E00E9429046B017C0192
:100D00008CE592E00E9415044B015C018CE592E0B9
:100D10000E941F042B013C0120E030E040E251E43E
:100D2000C701B6010E9426256B017C01A301920137
:100D3000C501B4010E9425259B01AC0160E070E073
:100D400080E191E40E948E259B01AC01C701B601B0
:100D50000E94DD260E94F62533E0A32EB12C42E04E
:100D6000C42ED12C55E0E52EF12C04E010E027E054
:100D700030E046E050E088E992E00E94360188E9E0
:100D800092E00E943301882331F061E08DE00E94FF
:100D9000770960E005C060E08DE00E94770961E0BE
:100DA0008CE00E94770980E392E00E942D020E946D
:100DB00078080091B9021091BA022091BB023091DB
:100DC000BC02601B710B820B930B69397A4381055E
:100DD000910508F480C060E372E0CE0146960E945F
:100DE000B10265E971E0CE0101960E94AD0EBE012F
:100DF0006A5E7F4FCE0108960E94E10EAE014F5F02
:100E00005F4FBE01685F7F4FCE010F960E94620365
:100E1000CE0108960E943C0ECE0101960E943C0E27
:100E20006AE971E0CE010F960E94440F882349F0D1
:100E30006CE370E088E992E00E94A4006FE971E041
:100E400010C062EB71E0CE010F960E94440F882320
:100E500069F06EE170E088E992E00E94A40067EB1F
:100E600071E08CEC92E00E94A80C06C06AE971E087
:100E7000CE010F960E94EB0E68EC70E080E090E0EF
:100E80000E94B408BE01615F7F4FCE0101960E94AF
:100E9000E10E88E992E00E94AC00AE014F5F5F4F27
:100EA000BC0180E392E00E944902CE0101960E94BB
:100EB0003C0E0E9478086093B9027093BA02809346
:100EC000BB029093BC02CE010F960E943C0ECE0155
:100ED00046960E943C0E60E177E280E090E00E943E
:100EE000B4086C960FB6F894DEBF0FBECDBFDF918D
:100EF000CF911F910F91FF90EF90DF90CF90BF9017
:100F0000AF909F908F907F906F905F904F900895DB
:100F1000CF92DF92EF92FF920F931F93CF93DF93C5
:100F2000CDB7DEB72C970FB6F894DEBF0FBECDBF9E
:100F300000E020E040E060E08DEB92E00E94D60B04
:100F40000EE010E02DE030E04CE050E06CE370E0AB
:100F500088E992E00E948F00C12CD12C60E8E62E37
:100F60006FE3F62E0DEC1CEC2CE43FE340E050E088
:100F700060E470E48CE592E00E94D90309E022E08D
:100F800048EA60EC86E592E00E94D60B0BE127EC84
:100F900043E463EC80E592E00E94D60BE0900A0106
:100FA000F0900B012EED31E038872F8380915202B3
:100FB00090915302A0915402B091550289879A876B
:100FC000AB87BC873A83298380915802909159025C
:100FD000A0915A02B0915B028B839C83AD83BE8348
:100FE0000CE011E09E01295F3F4FAE014F5F5F4F64
:100FF00065E171E080E392E00E948A012C960FB6D1
:10100000F894DEBF0FBECDBFDF91CF911F910F913E
:10101000FF90EF90DF90CF9008958E3008F08E50C3
:10102000877020911B0140E4249F90011124822BA2
:1010300080937C0080917A00806480937A00809114
:101040007A0086FDFCCF2091780030917900932FB3
:1010500080E0AC01422B9A01C90108951F920F92C2
:101060000FB60F9211242F933F938F939F93AF93BB
:10107000BF938091C3029091C402A091C502B09128
:10108000C6023091CB02232F2D5F2D3720F401961D
:10109000A11DB11D05C0232F2A570296A11DB11D08
:1010A0002093CB028093C3029093C402A093C50205
:1010B000B093C6028091C7029091C802A091C90264
:1010C000B091CA020196A11DB11D8093C7029093F1
:1010D000C802A093C902B093CA02BF91AF919F9179
:1010E0008F913F912F910F900FBE0F901F901895E9
:1010F0000F931F938FB7F8940091C3021091C4020D
:101100002091C5023091C6028FBFB801C9011F915D
:101110000F9108950F931F939FB7F8940091C70202
:101120001091C8022091C9023091CA0286B5A89BCD
:1011300006C08F3F21F00F5F1F4F2F4F3F4F9FBFC4
:10114000322F212F102F0027080F111D211D311DB7
:1011500042E0000F111F221F331F4A95D1F7B8013B
:10116000C9011F910F910895CF92DF92EF92FF92E4
:10117000CF93DF936B017C010E948A08EB010EC0C4
:101180000E948A086C1B7D0B683E734038F081E03A
:10119000C81AD108E108F108C851DC4FC114D104C4
:1011A000E104F10469F7DF91CF91FF90EF90DF90B8
:1011B000CF900895789484B5826084BD84B58160B1
:1011C00084BD85B5826085BD85B5816085BDEEE64F
:1011D000F0E0808181608083E1E8F0E0108280812E
:1011E00082608083808181608083E0E8F0E080819C
:1011F00081608083E1EBF0E0808184608083E0EBBC
:10120000F0E0808181608083EAE7F0E080818460A3
:1012100080838081826080838081816080838081FF
:10122000806880831092C1000895833069F028F4AB
:101230008130A1F0823011F514C08630B1F08730D2
:10124000C1F08430D9F404C0809180008F7703C04E
:10125000809180008F7D80938000089584B58F7782
:1012600002C084B58F7D84BD08958091B0008F77D2
:1012700003C08091B0008F7D8093B0000895CF931C
:10128000DF9390E0FC01E458FF4F4491FC01E057EC
:10129000FF4F8491882341F190E0880F991FFC0152
:1012A000E255FF4F25913491D9018C559F4FFC0198
:1012B00085919491C82FD92F9FB7F8948C91611183
:1012C00006C0409584238C938881842308C06230B3
:1012D00041F4242F209582238C938881842B88834A
:1012E00002C0842B8C939FBFDF91CF9108950F9301
:1012F0001F93CF93DF931F92CDB7DEB7282F30E037
:10130000F901E859FF4F8491F901E458FF4F149116
:10131000F901E057FF4F04910023D1F0882321F019
:1013200069830E9415096981E02FF0E0EE0FFF1F2D
:10133000EC55FF4F85919491DC019FB7F8948C9107
:10134000611103C01095812301C0812B8C939FBF35
:101350000F90DF91CF911F910F910895FC0184852B
:101360009585FC01E05CFF4F20813181FC01EE5B43
:10137000FF4F80819181281B390B2F733327C901BF
:101380000895FC0184859585FC01E05CFF4F408158
:101390005181FC01EE5BFF4F2081318142175307E1
:1013A00041F00190F081E02DE80FF91F208130E03D
:1013B00002C02FEF3FEFC9010895FC018485958598
:1013C000FC01E05CFF4F40815181FC01EE5BFF4F6F
:1013D000208131814217530781F0A081B181A80F8C
:1013E000B91F8C91208131812F5F3F4F2F7333279D
:1013F00031832083282F30E002C02FEF3FEFC90157
:101400000895FC0186859785FC01E05CFF4FDC01B7
:10141000AE5BBF4F408151812D913C911197421796
:101420005307C1F70895CF93DF93FC018685978515
:10143000DC01A05CBF4F2D913C9111972F5F3F4F76
:101440002F733327EC01CE5BDF4F4881598124177E
:101450003507D9F30D90BC91A02DA80FB91F6C933F
:10146000A685B785A05CBF4F11963C932E93A689A5
:10147000B7892C9181E090E0058C02C0880F991FFC
:101480000A94E2F7282B2C9381E090E0DF91CF9132
:10149000089508951F920F920FB60F9211242F9363
:1014A0003F934F938F939F93EF93FF934091C60089
:1014B00080916F039091700301968F73992720910B
:1014C0007103309172038217930759F0E0916F0313
:1014D000F0917003E15DFC4F408390937003809323
:1014E0006F03FF91EF919F918F914F913F912F91BA
:1014F0000F900FBE0F901F9018958CEC92E00E94F9
:10150000AE09892B11F00C94490A08951F920F928D
:101510000FB60F9211242F933F938F939F93EF93C6
:10152000FF9320912B0330912C0380912D039091F8
:101530002E032817390731F48091C1008F7D8093E5
:10154000C10014C0E0912D03F0912E03E551FD4F31
:10155000208180912D0390912E0301968F739927FE
:1015600090932E0380932D032093C600FF91EF915B
:101570009F918F913F912F910F900FBE0F901F90D1
:101580001895CF92DF92EF92FF92CF93DF93EC0109
:101590006A017B01411581EE580761057105F9F07B
:1015A000EC89FD8981E090E00E8C02C0880F991FC4
:1015B0000A94E2F7808360E079E08DE390E0A70190
:1015C00096010E945327215031094109510956952E
:1015D000479537952795211580E1380798F0EC89D4
:1015E000FD89108260E874E88EE190E0A701960121
:1015F0000E945327215031094109510956954795B9
:1016000037952795E889F9893083EA89FB89208312
:10161000EE89FF89408181E090E09C010A8C02C044
:10162000220F331F0A94E2F7422B4083EE89FF8991
:1016300040819C010B8C02C0220F331F0A94E2F7F9
:10164000422B4083EE89FF8940819C010C8C02C0B3
:10165000220F331F0A94E2F7422B4083EE89FF8961
:1016600020810D8C02C0880F991F0A94E2F78095A3
:1016700082238083DF91CF91FF90EF90DF90CF9016
:1016800008951092CF021092CE0288EE93E0A0E06F
:10169000B0E08093D0029093D102A093D202B09395
:1016A000D3028EEC91E09093CD028093CC028FE236
:1016B00093E09093D9028093D8028BEE92E09093BE
:1016C000DB028093DA0285EC90E09093DD02809358
:1016D000DC0284EC90E09093DF028093DE0280ECE9
:1016E00090E09093E1028093E00281EC90E090938F
:1016F000E3028093E20286EC90E09093E50280930F
:10170000E40284E08093E60283E08093E70287E0CE
:101710008093E80285E08093E90281E08093EA0209
:101720000895AF92BF92CF92DF92EF92FF920F9304
:101730001F93CF93DF936C017B01C0E0D0E000E00A
:1017400010E0F601EC0FFD1F4AE050E06281C70196
:101750000E94250D5C016EE2C7010E948B0C8A0D70
:101760009B1D080F191F2196C330D10551F74AE080
:1017700050E0F6016581C7010E94250D080F191F71
:10178000C801DF91CF911F910F91FF90EF90DF90F3
:10179000CF90BF90AF9008952EED31E0FC013183E2
:1017A0002083128213821482158208950F93FC0104
:1017B0008EED91E09183808362834383248305834C
:1017C0000F9108952EED31E0FC0131832083FB0160
:1017D0004081518162817381FC0142835383648320
:1017E00075830895FC01DB014D915D916D917C91B4
:1017F000428353836483758308958EED91E09093C3
:101800007403809373031092750310927603109201
:1018100077031092780308950E94DA080E94C505A4
:10182000CDE7DAE00E9434062097E1F30E947D0ABA
:10183000F9CF0C948522CF92DF92EF92FF920F9313
:101840001F93CF93DF936C01EB017A01E60EF71E35
:1018500000E010E00BC06991D601ED91FC91019080
:10186000F081E02DC6010995080F191FCE15DF057F
:1018700091F7C801DF91CF911F910F91FF90EF90E9
:10188000DF90CF900895DB010D900020E9F7AD01C6
:1018900041505109461B570BDC01ED91FC91028030
:1018A000F381E02D0994AF92BF92CF92DF92EF9235
:1018B000FF920F931F93CF93DF937C016B0100E0A6
:1018C00010E0C0E0D0E011C0D701ED91FC91A08004
:1018D000B180B801C6010E94660F682FC701F501EB
:1018E0000995C80FD91F0F5F1F4FD60114968D9110
:1018F0009C9115970817190738F3CE01DF91CF9106
:101900001F910F91FF90EF90DF90CF90BF90AF901D
:1019100008950C94430CDC01ED91FC910190F08151
:10192000E02D09940F931F93CF93DF93EC016DE0AB
:101930000E948B0C8C016AE0CE010E948B0C9C01F2
:10194000200F311FC901DF91CF911F910F91089591
:101950000F931F93CF93DF93EC010E94430C8C01F4
:10196000CE010E94920C9801280F391FC901DF9106
:10197000CF911F910F9108954F925F926F927F9236
:101980009F92AF92BF92CF92DF92EF92FF920F930E
:101990001F93CF93DF93CDB7DEB7A1970FB6F8941F
:1019A000DEBF0FBECDBF5C016A017B01922E19A282
:1019B00081E0821710F08AE0982E8E010F5D1F4F94
:1019C000492C512C612C712CC701B601A301920145
:1019D0000E9453278C2D929E8019112401501109C9
:1019E0008A3014F4805D01C0895CF801808369014C
:1019F0007A01C114D104E104F10431F7B801C50141
:101A00000E94430CA1960FB6F894DEBF0FBECDBF67
:101A1000DF91CF911F910F91FF90EF90DF90CF90CA
:101A2000BF90AF909F907F906F905F904F90089580
:101A30002115310541F4DC01ED91FC910190F0811B
:101A4000E02D642F09940C94BC0C9A01462F50E0B1
:101A500060E070E00C94180DCF92DF92EF92FF924D
:101A60000F931F93CF93DF93EC016A017B01211544
:101A7000310579F4E881F9810190F081E02D642F3E
:101A8000DF91CF911F910F91FF90EF90DF90CF905A
:101A900009942A30310519F477FD0EC02AE0B70108
:101AA000A601CE01DF91CF911F910F91FF90EF9092
:101AB000DF90CF900C94BC0C6DE20E948B0C8C01DB
:101AC00044275527BA014C195D096E097F092AE0A0
:101AD000CE010E94BC0C080F191FC801DF91CF91E5
:101AE0001F910F91FF90EF90DF90CF9008959A0192
:101AF000AB01662757FD6095762F0C942C0D7F92D5
:101B00008F929F92AF92BF92CF92DF92EF92FF920D
:101B10000F931F93CF93DF938C014A015B01F22E49
:101B200020E030E0A901C501B4010E948A2587FFA9
:101B30000AC06DE2C8010E948B0CEC01B7FAB094A8
:101B4000B7F8B09402C0C0E0D0E0E12C60E070E0F3
:101B500080E09FE307C020E030E040E251E40E94D3
:101B60008E25E394EF10F7CF262F372F482F592FCC
:101B7000C501B4010E942625762E872E982EA92E07
:101B80000E94FB25B62EC72ED82EE92E0E942726AE
:101B90009B01AC01672D782D892D9A2D0E9425255A
:101BA000A62E972E882E792E2AE04B2D5C2D6D2D9A
:101BB0007E2DC8010E94BC0CC80FD91FFF20B9F1AF
:101BC00060EE71E0C8010E94430CC80FD91F2FC0FE
:101BD00020E030E040E251E46A2D792D882D972DE8
:101BE0000E94DD26762EC72ED82EE92E0E94F625DD
:101BF0004B01AA2497FCA094BA2C2AE030E0B5014E
:101C0000A401C8010E942C0DC80FD91FC501B40141
:101C10000E9429269B01AC01672D7C2D8D2D9E2DC8
:101C20000E942525A62E972E882E792EFA94F11043
:101C3000CFCFCE01DF91CF911F910F91FF90EF9009
:101C4000DF90CF90BF90AF909F908F907F9008953E
:101C50000F931F93CF93DF93EC010E947F0D8C01B4
:101C6000CE010E94920C9801280F391FC901DF9103
:101C7000CF911F910F910895FC01808191810C9467
:101C80002023CF93DF93EC0188819981009711F095
:101C90000E942023198218821D821C821B821A82B4
:101CA000DF91CF9108950F931F93CF93DF93EC01B2
:101CB0008B016F5F7F4F888199810E941A24009762
:101CC00031F0998388831B830A8381E001C080E01F
:101CD000DF91CF911F910F910895CF93DF93EC0186
:101CE00088819981892B31F08A819B81861797079A
:101CF00008F00CC0CE010E94530E882349F08C815D
:101D00009D81892B19F4E881F981108281E001C05D
:101D100080E0DF91CF910895EF92FF920F931F9390
:101D2000CF93DF93EC017B018A01BA010E946D0E13
:101D3000811104C0CE010E94410E07C01D830C8397
:101D4000B701888199810E940425CE01DF91CF914E
:101D50001F910F91FF90EF900895DC0111961C9256
:101D60001E9213961C921E92129715961C921E920A
:101D7000149716961C926115710559F0DB010D90B0
:101D80000020E9F7AD0141505109461B570B0C9457
:101D90008C0E0895CF93DF93EC01FB018617970714
:101DA00061F0608171816115710529F0448155816F
:101DB0000E948C0E02C00E94410ECE01DF91CF9195
:101DC0000895FC01118210821382128215821482FE
:101DD00016820C94CA0ECF93DF93D82FC92F6115AA
:101DE000710561F0DB010D900020E9F7AD01415074
:101DF0005109461B570B0E948C0E02C00E94410ED7
:101E00008D2F9C2FDF91CF910895EF92FF920F932A
:101E10001F93CF93DF93EC017B010C811D81611532
:101E2000710511F480E016C04115510591F0040FC1
:101E3000151FB8010E946D0E8823A1F328813981F6
:101E40008C819D81B701820F931F0E9404251D8301
:101E50000C8381E0DF91CF911F910F91FF90EF9064
:101E60000895CF93DF9300D0CDB7DEB769831A8290
:101E700041E050E0BE016F5F7F4F0E94050F0F9061
:101E80000F90DF91CF910895DC0114962D913C9134
:101E90001597232B39F481E06115710511F0FB01D1
:101EA00008C00895DC01ED91FC916115710529F4DC
:101EB00081E09081992349F007C0CF010E94FB2463
:101EC0009C0181E0232B09F080E00895FC0124812E
:101ED00035816217730748F480819181009729F05A
:101EE000FC01E60FF71F8081089580E00895CF93ED
:101EF000DF93FC01848195814817590780F4C081E4
:101F0000D181FB0160817181CE01840F951F0E94F8
:101F10000B25009721F09C012C1B3D0B02C02FEFDD
:101F20003FEFC901DF91CF91089540E050E00C945C
:101F3000770FBF92CF92DF92EF92FF920F931F9392
:101F4000CF93DF936C017B01EA01890124173507E8
:101F500020F48D2FE901042F182F68E471E0C601E9
:101F60000E94AD0ED70114968D919C9115978C17F8
:101F70009D07C8F08017910708F48C01D701ED91F7
:101F8000FC911197E00FF11FB08010826D917C9150
:101F90006C0F7D1FC6010E94EB0ED701ED91FC91E5
:101FA000E00FF11FB082C601DF91CF911F910F9119
:101FB000FF90EF90DF90CF90BF900895CF93DF9385
:101FC0001F92CDB7DEB76983DC01ED91FC910280F1
:101FD000F381E02D41E050E0BE016F5F7F4F099536
:101FE0000F90DF91CF910895CF93DF93EC0107C05D
:101FF000E881F9810680F781E02DCE010995E8811D
:10200000F9810480F581E02DCE010995892B81F7B6
:10201000DF91CF91089521E0FC018485843009F49B
:1020200020E0822F08950F931F93CF93DF931F9289
:10203000CDB7DEB78C01DC01ED91FC910480F58118
:10204000E02D0995892B51F0BE016F5F7F4FF8019C
:1020500084850E940A17298130E002C02FEF3FEFEC
:10206000C9010F90DF91CF911F910F910895FC014D
:1020700084850C94CB16CF93DF931F92CDB7DEB738
:1020800041E050E0BE016F5F7F4FFC0184850E94FC
:10209000CB16181619061CF4298130E002C02FEF68
:1020A0003FEFC9010F90DF91CF910895FC01648546
:1020B000643021F08DE993E00C94DE1880E090E02C
:1020C00008950F931F93CF93DF938C01EA01FC01D6
:1020D0008485843019F481E090E007C00E9478166E
:1020E000892B39F481E090E0F80193838283C0E08A
:1020F000D0E0CE01DF91CF911F910F910895CF9243
:10210000DF92EF92FF920F931F93CF93DF93CDB7A0
:10211000DEB7E5970FB6F894DEBF0FBECDBF7C01EA
:102120008B016A01CE0101960E94CC0BCE0109966B
:102130000E942215CE01C0960E94CC0B6FE773E07F
:10214000CE018A960E949A13BE01665D7F4FCE0132
:1021500001960E94331FAE01405D5F4FB801CE0172
:1021600001960E9497219C0181309105C9F4D70105
:10217000ED91FC910484F585E02D8EED91E09DA319
:102180008CA30AA91BA92CA93DA90EA31FA328A7AC
:1021900039A7A601BE016C5D7F4FC70109959C015F
:1021A000C901E5960FB6F894DEBF0FBECDBFDF9133
:1021B000CF911F910F91FF90EF90DF90CF900895F6
:1021C000FC011382128248EE53E060E070E0448329
:1021D00055836683778386EE91E09183808384E0E4
:1021E00084870895FC018485843039F0382F20E0FD
:1021F000C9018D5F9B4F0C94311880E00895CF93F7
:10220000DF93EC018C858430D1F0CE010E94F21076
:10221000843181F0882371F0883161F08C3161F470
:10222000E881F9810480F581E02DCE01099521E056
:10223000892B19F420E001C021E0822F01C080E049
:10224000DF91CF910895CF92DF92EF92FF92CF93DB
:10225000DF93EC018C85843091F10E9471160E940D
:1022600078086B017C01CE010E94F2108823D1F026
:102270000E9478086C197D098E099F09683E734099
:1022800081059105A8F00EC08C850E94ED15EC85A6
:10229000F0E0EE0FFF1FE957FC4F1182108284E03F
:1022A0008C870DC0CE010E94F210882381F3ECCF01
:1022B00061E070E080E090E00E94B408D4CFDF914C
:1022C000CF91FF90EF90DF90CF900895AF92BF92A3
:1022D000CF92DF92EF92FF920F931F93CF93DF93F2
:1022E000EC015B016A018C85843009F04EC093E0FB
:1022F000E92E94E0F92E00E010E0C7010E943118A9
:10230000811102C00C870AC08831E1F38C31D1F30E
:102310000F5F1F4FF3940430110579F78C858430DB
:10232000A1F120911C0130911D012F5F3F4F09F059
:1023300002C020E034E030931D0120931C01409145
:102340001C0150911D0120E061E00E94FB15B501C8
:102350006E5F7F4FA6018C850E943B1609C061E02D
:1023600070E080E090E00E94B408CE010E94F2107C
:10237000811103C084E08C8708C0CE010E94F21056
:10238000873169F721E030E002C020E030E0C90188
:10239000DF91CF911F910F91FF90EF90DF90CF9041
:1023A000BF90AF9008950F9300E020E040E060E020
:1023B00089E793E00E94D60B0F91089544E050E026
:1023C000BC0181E090E00C94021844E050E0BC01B4
:1023D00085E090E00C94021844E050E0BC018FE0EE
:1023E00090E00C940218AF92BF92CF92DF92EF92DE
:1023F000FF920F931F93CF93DF93CDB7DEB76E9706
:102400000FB6F894DEBF0FBECDBF6C015B0182E654
:1024100090E00E94190C8C0182E6F80111928A95D5
:10242000E9F7C801895B9F4F0E942215F6011783C7
:1024300006838DE993E00E94C41746E050E0B501A1
:1024400089E090E00E94021800E020E040E060E0B7
:10245000CE0149960E94D60BCE014B960E94EC11FC
:1024600010EAE12E1FE0F12E00E010E020E63AEE47
:1024700040E050E0B501F601868197810E94E31E9D
:102480008C018130910589F5F60166817781CE0155
:1024900043960E94F91BCE0145960E94EC11F6016D
:1024A00066817781CE010D960E940F1CCE010F969A
:1024B0000E94DE11F60166817781CE0107960E94A7
:1024C000041CCE0109960E94E511F6016681778110
:1024D000CE0101960E941A1C4B815C816D817E8128
:1024E000F6014283538364837583C8016E960FB6E9
:1024F000F894DEBF0FBECDBFDF91CF911F910F913A
:10250000FF90EF90DF90CF90BF90AF9008958F92A3
:102510009F92AF92BF92CF92DF92EF92FF920F9372
:102520001F93CF93DF9300D0CDB7DEB74C016A0184
:1025300059018DE993E069837A830E94C41746E0CC
:1025400050E069817A8189E090E00E940218C6011A
:1025500002960E94EC11C80102960E94DE11C7018A
:1025600002960E94E511F5014281538164817581D3
:10257000F40142835383648375830F900F90DF913E
:10258000CF911F910F91FF90EF90DF90CF90BF9070
:10259000AF909F908F9008956F927F928F929F92AD
:1025A000AF92BF92CF92DF92EF92FF920F931F9361
:1025B000CF93DF93CDB7DEB76E970FB6F894DEBF3B
:1025C0000FBECDBF6C015B017A014901380100E00B
:1025D0002FEF4FEF6FEFCE0149960E94D60B4EEDD5
:1025E00051E05A8349838B8D9C8DAD8DBE8D8B833D
:1025F0009C83AD83BE8358874F83F301828193818F
:10260000A481B58189879A87AB87BC875E874D8710
:10261000F40182819381A481B5818F87988BA98BE6
:10262000BA8B5C8B4B8BF70142815381648175813E
:102630004D8B5E8B6F8B788FEE24E394F12CEC0E38
:10264000FD1E8E01095F1F4F9E01235F3F4FAE01AC
:102650004D5E5F4FB501C6010E9487126E960FB6A0
:10266000F894DEBF0FBECDBFDF91CF911F910F91C8
:10267000FF90EF90DF90CF90BF90AF909F908F90A2
:102680007F906F900895CF92DF92EF92FF920F9319
:102690001F93CF93DF93CDB7DEB768970FB6F8944B
:1026A000DEBF0FBECDBF6B017901DA0112964D91ED
:1026B0005D916D917C9115974D8B5E8B6F8B788FB3
:1026C000AEEDB1E0BA83A98321E0288F0D891E8980
:1026D0002F89388D0B831C832D833E83B887AF836E
:1026E000F701028113812481358109871A872B879D
:1026F0003C87BE87AD874F87588B698B7A8B8E015D
:102700000F5F1F4F9E01295F3F4FAE01435F5F4F39
:10271000B6010E94CC1268960FB6F894DEBF0FBEC9
:10272000CDBFDF91CF911F910F91FF90EF90DF9080
:10273000CF9008952EED31E0FC0131832083FB0121
:102740004281538164817581FC0142835383648398
:10275000758308950F9300E020E040E060E08FE88B
:1027600093E00E94D60B8FE793E00F910C94CC0B73
:10277000DC01ED91FC91008CF18DE02D09942EEDA2
:1027800031E0FC0131832083FB0141895289638957
:102790007489FC0142835383648375830895FC012B
:1027A000858996890895FC01818D928D0895CF9336
:1027B000DF931F92CDB7DEB76983DC01ED91FC9109
:1027C0000280F381E02D41E050E0BE016F5F7F4F5A
:1027D00009950F90DF91CF910895CF93DF93EC018E
:1027E00007C0E881F9810680F781E02DCE010995C7
:1027F000898D9A8D892BA9F7DF91CF910895CF9379
:10280000DF931F92CDB7DEB7FC01218D328D232BD4
:1028100049F0BE016F5F7F4F84850E940A172981AE
:1028200030E002C02FEF3FEFC9010F90DF91CF9151
:102830000895CF93DF93EC01898D9A8D009719F459
:102840002FEF3FEF11C04817590708F0AC018C85F6
:102850000E94CB169C011816190694F7898D9A8D43
:10286000821B930B9A8F898FC901DF91CF910895B5
:102870000F931F93CF93DF931F92CDB7DEB78C01D9
:10288000FC01818D928D892B59F041E050E0BE0111
:102890006F5F7F4F84850E94CB16181619061CF0B7
:1028A0002FEF3FEF08C0F801818D928D0197928F35
:1028B000818F298130E0C9010F90DF91CF911F9165
:1028C0000F910895CF93DF93EC019A018F89988D32
:1028D000AB01BC018C850E9418179C018F89988DD3
:1028E000820F931F988F8F8BC901DF91CF9108952D
:1028F000FC0184850C947417FC01108E178A6E5F9E
:102900007F4F84850C944E17CF93DF93EC018C8519
:10291000843061F00E94ED15EC85F0E0EE0FFF1FB2
:10292000E957FC4F1182108284E08C87DF91CF91B0
:1029300008950F931F93CF93DF93CDB7DEB72897FA
:102940000FB6F894DEBF0FBECDBF8C01DC01ED9158
:10295000FC910284F385E02D0995F80164858DE9E9
:1029600093E00E94DE18892B29F148E050E0BE0177
:102970006F5F7F4FD8011C968C910E94CB169C01F3
:1029800018161906CCF4BE016F5F7F4FC8010F9671
:102990000E94F20B9D8180E02E81820F911DF80133
:1029A000968B858B3F8120E08885280F311D328FE3
:1029B000218F02C020E030E0C90128960FB6F894BC
:1029C000DEBF0FBECDBFDF91CF911F910F91089554
:1029D000CF92DF92EF92FF920F931F93CF93DF93EB
:1029E000EC016B018C85843019F593E0E92E94E0BD
:1029F000F92E00E010E0C7010E943118811102C0D9
:102A00000C8708C08831E1F30F5F1F4FF394043047
:102A1000110589F78C85843059F0DE86CD861A8EB3
:102A2000198E20E0A60162E00E94FB1581E001C042
:102A300080E0DF91CF911F910F91FF90EF90DF9099
:102A4000CF900895FC011382128248EE53E060E0BB
:102A500070E0448355836683778382E092E09183BC
:102A6000808384E08487CF010F960C94CC0BCF92A7
:102A7000DF92EF92FF920F931F93CF93DF93CDB727
:102A8000DEB7E5970FB6F894DEBF0FBECDBF7C0171
:102A90008B016A01CE0101960E94CC0BCE010996F2
:102AA0000E942215CE01C0960E94CC0B6FE773E006
:102AB000CE018A960E949A13BE01665D7F4FCE01B9
:102AC00001960E94331FAE01405D5F4FB801CE01F9
:102AD00001960E9497219C0181309105C9F4D7018C
:102AE000ED91FC910088F189E02D8EED91E09DA3A0
:102AF0008CA30AA91BA92CA93DA90EA31FA328A733
:102B000039A7A601BE016C5D7F4FC70109959C01E5
:102B1000C901E5960FB6F894DEBF0FBECDBFDF91B9
:102B2000CF911F910F91FF90EF90DF90CF9008957C
:102B30000F9300E020E040E060E085E993E00E9430
:102B4000D60B0F910895382F20E044E050E0C901E2
:102B5000845F9B4F0C940218282F30E02C5F3F4F6E
:102B6000922F8827860F971F0C94311862E070E02F
:102B70000C94AC15FB01282F30E02C5F3F4F922FB7
:102B80008827642F8E0F9F1F0C94A217462F62E098
:102B900070E00C94BA15CF93DF93C82FD62F472F30
:102BA00060E170E00E94BA154D2F61E170E08C2F5A
:102BB000DF91CF910C94BA15CF93DF93C82FD62F06
:102BC000472F64E070E00E94BA154D2F65E070E079
:102BD0008C2FDF91CF910C94BA15CF93C82F40E181
:102BE00050E0682F8DE993E00E94E2196FEF8C2F7F
:102BF000CF910C94C615EF92FF921F93CF93DF9362
:102C000000D0CDB7DEB7182F7A01862F81508530DE
:102C100048F5812F2A8369830E94ED152A816981F5
:102C2000422F462B60E070E0812F0E94BA15E1141C
:102C3000F10411F0B7010AC060919B0370919C03ED
:102C40006F5F7F4F70939C0360939B03812F0E9463
:102C5000DC1541E050E0612F8DE993E00E94E2191C
:102C600081E001C080E00F900F90DF91CF911F9124
:102C7000FF90EF9008951F93CF93DF93182FFB01E0
:102C8000EA0180818F3F51F481818F3F91F48281ED
:102C90008F3F79F483818F3F61F41EC0811109C099
:102CA0008181811106C08281811103C083818823C3
:102CB00099F0209789F0BF01812F0E94A315BE01D2
:102CC000812F0E94CB1544E050E0612F8DE993E005
:102CD0000E94E21981E001C080E0DF91CF911F9155
:102CE000089548E050E0682F8DE993E00C94E219D4
:102CF000DF92EF92FF920F931F93CF93DF93D82E23
:102D00008B01EA01413088E0580710F0C0E0D8E0BC
:102D10006D2D8DE993E00E940E197C0163E070E057
:102D20008D2D0E94AC15873111F08C3121F4EC16F9
:102D3000FD0670F302C0C0E0D0E09E01A8016D2D39
:102D40008DE993E00E94BF1840E250E06D2D8DE9BF
:102D500093E00E94E2190DC063E070E08D2D0E94A7
:102D6000AC15811106C08D2D0E94ED15C0E0D0E09C
:102D700009C08D2D0E94B61584FFEECF60E18D2D28
:102D80000E94C615CE01DF91CF911F910F91FF9048
:102D9000EF90DF900895DF92EF92FF920F931F93D1
:102DA000CF93DF93D82E7B018A01682F8DE993E0C2
:102DB0000E94DE18EC01009771F463E070E08D2D45
:102DC0000E94AC158431E9F08823D9F08C31C9F028
:102DD000CFEFDFEF16C0081719070CF4E8011C1637
:102DE0001D067CF400E09E01A7016D2D8DE993E0A6
:102DF0000E94921940E450E06D2D8DE993E00E940D
:102E0000E219CE01DF91CF911F910F91FF90EF90CA
:102E1000DF9008950F93AB0101E021E030E0682FCF
:102E20008DE993E00E94921981E090E00F9108955E
:102E3000AF92BF92CF92DF92EF92FF920F931F93C8
:102E4000CF93DF93B82E7B016A01E901682F8DE9EA
:102E500093E00E940E198C179D0740F46B2D8DE9AD
:102E600093E00E940E19A82EC92F02C0AC2ECD2FC0
:102E70000A2D1C2F9601A7016B2D8DE993E00E946E
:102E800051188A2D9C2FDF91CF911F910F91FF90A8
:102E9000EF90DF90CF90BF90AF9008951F93CF93A6
:102EA000DF93182FFB01EA018081811109C0818124
:102EB000811106C08281811103C08381882369F05A
:102EC000209759F0BF01812F0E94A315BE01812FC9
:102ED0000E94CB1521E030E002C020E030E0C901C3
:102EE000DF91CF911F910895CF93C82F40E250E01A
:102EF000682F8DE993E00E94E2190CC08C2F0E948C
:102F0000B61583FF07C068E18C2F0E94C61520E02C
:102F100030E00BC08C2F0E94B61584FFEFCF60E12C
:102F20008C2F0E94C61521E030E0C901CF91089591
:102F30008EBD0DB407FEFDCF8EB508952A98089575
:102F40002A9A08951F93CF93DF9300D0CDB7DEB7B1
:102F5000182F6A8399830E949E1780EF0E9498170A
:102F60009981892F0E949817812F0E9498176A8152
:102F7000862F0E9498170E94A01781E00F900F9053
:102F8000DF91CF911F910895CF93DF93EC016CE215
:102F900071E080E090E00E94B4080E94F219229A49
:102FA00060E880E090E00E94A21765E58BE190E088
:102FB0000E94A21765E58AE190E00E94A21780E0D6
:102FC00090E49983888380E090E69987888780E001
:102FD00098E49B838A8380E098E69B878A8780E0D9
:102FE00090E59D838C8380E090E79D878C8780E0CF
:102FF00098E59F838E8380E098E79F878E87DF9197
:10300000CF910895CF92DF92EF92FF920F931F938B
:10301000CF93DF93EC017A018B016A01C80ED91EB0
:1030200013C00E949E1780EF0E9498178D2F0E9458
:1030300098178C2F0E9498172196F80181918F0183
:103040000E9498170E94A017CC15DD0551F7C70103
:10305000DF91CF911F910F91FF90EF90DF90CF9074
:1030600008951F93CF93DF931F92CDB7DEB7182F2C
:1030700099830E949E178FE00E9498179981892F4B
:103080000E949817812F0E94981780E00E9498173D
:1030900089830E94A01789810F90DF91CF911F91A2
:1030A00008956F927F929F92AF92BF92CF92DF92DC
:1030B000EF92FF920F931F93CF93DF931F92CDB7A1
:1030C000DEB7F82E962E3A01590164E270E0892DA0
:1030D00099830E94AC15E82E65E270E0892D0E946C
:1030E000AC15DE2CC12CC82AC60CD71C9601377033
:1030F0006F2C9981792E690C711C690C711CD3019C
:10310000ED91FC91E20FF31FC901800F911F8130F7
:103110009840A0F0E12C48E0F42EE21AF30AA7014F
:10312000B501CF010E940218A8014E195F09B5012F
:103130006E0D7F1DF3018081918103C0A801B5014F
:10314000CF010E9402180C0D1D1D412F64E270E09A
:10315000892D0E94BA15402F65E270E0892D0F90ED
:10316000DF91CF911F910F91FF90EF90DF90CF9063
:10317000BF90AF909F907F906F900C94BA150F9373
:103180001F9389019A0140E050E00E9451181F915D
:103190000F910895CF93DF93C82F66E270E00E94ED
:1031A000AC15D82F67E270E08C2F0E94AC153D2F34
:1031B00020E0282BC901DF91CF910895FF920F9352
:1031C0001F93CF93DF93F62EC0E0D0E08F2D0E94A7
:1031D000CA188C01009721F08F2D0E94CA18EC01AB
:1031E000C017D10799F7CE01DF91CF911F910F91B1
:1031F000FF900895CF93DF93C82F60E270E00E94A4
:10320000AC15D82F61E270E08C2F0E94AC153D2FD9
:1032100020E0282BC901DF91CF910895FF920F93F1
:103220001F93CF93DF93F62EC0E0D0E08F2D0E9446
:10323000FA188C01009721F08F2D0E94FA18EC01EA
:10324000C017D10799F7CE01DF91CF911F910F9150
:10325000FF900895CF92DF92EF92FF920F931F930A
:10326000CF93DF93EC017A018B016A01C80ED91E5E
:1032700014C00E949E178FE00E9498178D2F0E9405
:1032800098178C2F0E949817219680E00E9498171B
:10329000F80181938F010E94A017CC15DD0549F735
:1032A000C701DF91CF911F910F91FF90EF90DF90B9
:1032B000CF900895CF92DF92EF92FF920F931F93DA
:1032C000CF93DF9369015770EC01C60FD11DC60F74
:1032D000D11D289688819981840F951F9801240F0C
:1032E000351F2130384090F0E12C68E0F62EE41ACA
:1032F000F50AA701B6010E942A19A8014E195F0913
:10330000B6016E0D7F1D8881998102C0A801B601AA
:10331000DF91CF911F910F91FF90EF90DF90CF90B1
:103320000C942A198F929F92AF92BF92CF92DF9204
:10333000EF92FF920F931F93CF93DF936C01962E22
:103340005A01E901802E68E270E0892D0E94AC15D7
:10335000F82E69E270E0892D0E94AC15FF2DE0E0A7
:103360007F01E82A8E019501A701692DC6010E94FF
:103370005A1981101AC0CE0DDF1D4D2F68E270E082
:10338000892D0E94BA154C2F69E270E0892DDF91DA
:10339000CF911F910F91FF90EF90DF90CF90BF9052
:1033A000AF909F908F900C94BA15DF91CF911F91A1
:1033B0000F91FF90EF90DF90CF90BF90AF909F90D4
:1033C0008F900895CF93C62F61E070E08C2F0E94FC
:1033D000BA1561E070E08C2F0E94AC158111F9CF15
:1033E000CF91089561E08DE00E943F0961E08BE09C
:1033F0000E943F0961E08AE00E943F0960E08DE0A1
:103400000E94770960E08BE00E94770961E08AE022
:103410000E9477098CB580618CBD8CB580648CBDB1
:1034200008950E96FC0184E1DF011D928A95E9F76B
:1034300008952F923F924F925F926F927F928F9258
:103440009F92AF92BF92CF92DF92EF92FF920F9333
:103450001F93CF93DF93CDB7DEB7E4970FB6F89401
:10346000DEBF0FBECDBF7C012A013B0169010E9476
:1034700078084B015C018701095B1F4F12C00E9455
:103480007808681979098A099B094616570668065B
:10349000790608F477C162E370E080E090E00E9472
:1034A000B408C8010E9499141816190644F742E29C
:1034B00050E0BE016F5F7F4FC8010E9419148981DF
:1034C000823009F05AC1F8018589968983349105C3
:1034D00009F45BC152C1F70180819181A281B3815E
:1034E00088169906AA06BB0648F084819581A681B4
:1034F000B78188159905AA05BB0528F4C8010E9463
:10350000ED13512C5CC189899A89AB89BC89F7017B
:1035100086879787A08BB18B8EECC82ED12CC801E3
:103520000E943814F1E0CF1AD108C9F7512CC70115
:1035300082969AA789A7F701B696FCA7EBA7C701C1
:103540008A969EA78DA7F701E85AFF4FF8ABEFA721
:103550006701FAE1CF0ED11CC70142969AAB89AB45
:10356000570196E1A90EB11CF7017E96FCABEBABBF
:10357000FCC0C8010E9438148333910509F4CCC003
:103580007CF48130910549F124F4892B09F4EDC0D4
:10359000DDC08330910549F1069709F0D7C040C0DE
:1035A0008A33910509F48CC03CF48533910569F0A8
:1035B000C69709F0CBC050C08B33910509F496C073
:1035C0008F3F910509F0C2C0D0C0C8010E943814D5
:1035D000C8010E943814582EC8C0C8010E9438146F
:1035E00044E050E069A97AA947C0C8010E94381494
:1035F0003C0144E050E0B501C8010E941914212C9F
:10360000312C7724F4E06F1A710806C0C8010E94BB
:1036100038148FEF281A380A26143704BCF3A5C0D3
:10362000C8010E9438143C0144E050E06BA97CA919
:10363000C8010E941914212C312C772494E0691AB6
:10364000710806C0C8010E943814EFEF2E1A3E0A16
:1036500026143704BCF389C0C8010E943814482ED0
:10366000F701828D938DA48DB58D892B8A2B8B2BA1
:1036700039F444E050E0B601C8010E94191475C045
:10368000EFA5F8A96080718082809380B601CE0199
:1036900083960E94E20B8DA19EA1AFA1B8A58615CD
:1036A0009705A805B90529F3212C312C06C0C801BE
:1036B0000E943814FFEF2F1A3F0A4210F8CF55C06E
:1036C000C8010E94381444E050E06BA57CA5C801F5
:1036D0000E941914F70166A177A180A591A50E9407
:1036E000C82766A377A380A791A73FC0C8010E94FF
:1036F000381444E050E06DA57EA5C8010E9419145D
:10370000F70162A573A584A595A50E94C82762A7A5
:1037100073A784A795A729C0C8010E94381444E064
:1037200050E069A57AA5C8010E941914F70162A1A9
:1037300073A184A195A10E94C82762A373A384A347
:1037400095A366A777A780AB91AB0FC0C8010E9475
:103750003814382E612C712C06C0C8010E94381410
:10376000FFEF6F1A7F0A3610F8CFC8010E94D313FB
:10377000181619060CF4FDCE01C0512CC8010E9488
:10378000ED131DC055245A941AC06D817E818F811E
:1037900098850E94C8274B015C01F6016083718304
:1037A00082839383B701685F7F4F46E050E0CE018C
:1037B0004D960E94E524009709F48DCE9FCE852D6D
:1037C000E4960FB6F894DEBF0FBECDBFDF91CF9168
:1037D0001F910F91FF90EF90DF90CF90BF90AF902F
:1037E0009F908F907F906F905F904F903F902F9021
:1037F0000895CF93DF93EC01625F7F4F0E94E20B4D
:10380000CE01DF91CF910895CF93DF93EC016E5EEF
:103810007F4F0E94E20BCE01DF91CF910895CF93AD
:10382000DF93EC016A5E7F4F0E94E20BCE01DF91D5
:10383000CF910895CF93DF93EC01625E7F4F0E949A
:10384000E20BCE01DF91CF91089580E3FB018083ED
:103850003296842F82958F7090E1899F40191124B0
:103860004A3014F4405D01C0495C4293482F8111F5
:10387000F0CF08956F927F928F929F92AF92BF92F6
:10388000CF92DF92EF92FF920F931F93CF93DF932C
:10389000CDB7DEB7AC970FB6F894DEBF0FBECDBF85
:1038A0007C01862EB42EA52E30E2932ECC24C39418
:1038B000D12CCC0EDD1EF601292D11922A95E9F7A7
:1038C0000FEF2FEF4FEF6FEFCE0187960E94D60BD1
:1038D0008EED91E09AA389A389A59AA5ABA5BCA575
:1038E0008BA39CA3ADA3BEA38701095B1F4F43E439
:1038F00050E0BE016F5D7F4FC8010E947C140196AD
:1039000009F4C1C081E089838A8396E0792E7B82A5
:103910001C82F70164817581868197810E94C82786
:103920006D837E838F839887A986BA8680E890E02E
:103930009C878B874CE150E0B601C8010E9462145D
:10394000F601292D11922A95E9F7570188E0A80E72
:10395000B11CF501D60101900D927A94E1F740E196
:1039600050E0B601C8010E946214F60111929A94C7
:10397000E9F726E0622E712C40E250E0B601C80162
:103980000E946214F1E06F1A7108B1F783E689832F
:1039900092E89A8393E59B838C8385E38D8381E012
:1039A0008E838F829DE3988797E099878A8786E048
:1039B000F501DE011B9601900D928A95E1F78CE0EE
:1039C000898B8A8B62E272E0CE0143960E940425C5
:1039D000F7014385BE01675E7F4FC7010E94251C2A
:1039E000F7014485BE01655E7F4FC7010E94251C1B
:1039F000F7014585BE01635E7F4FC7010E94251C0C
:103A00004EE150E0B601C8010E946214F3E08F124B
:103A10001EC082E3898384E08A83F70196859B83B5
:103A200097859C8390899D8391899E8396E39F834C
:103A30008887828D8987838D8A87848D8B87858D02
:103A40008C874CE050E0B601C8010E94621487E305
:103A5000898386E08A8391E09B8393E09C838D83B6
:103A60008FE08E838AE38F838BE388878FEF89874C
:103A700049E050E0BE016F5F7F4FC8010E946214B1
:103A8000C8010E947814AC960FB6F894DEBF0FBE42
:103A9000CDBFDF91CF911F910F91FF90EF90DF90FD
:103AA000CF90BF90AF909F908F907F906F90089530
:103AB0002F923F924F925F926F927F928F929F923E
:103AC000AF92BF92CF92DF92EF92FF920F931F932C
:103AD000CF93DF93CDB7DEB728970FB6F894DEBF4C
:103AE0000FBECDBF8C0120ED37E040E050E061E03B
:103AF00070E080E090E00E946722D80114966C93F9
:103B0000149715967C93159716968C93169717967F
:103B10009C9317976C9311967C93119712968C93A4
:103B2000129713969C93F801E95BFF4FFE83ED8398
:103B300064E470E0CF010E94E814882309F427C1EF
:103B40000E9478086B017C01812C912C312C58014A
:103B5000F6E4AF0EB11CC801CE9698878F8338EE7D
:103B6000432E33E0532E612C712C42E0242EF9C0F9
:103B700081111FC0F80184819581A681B7810196CA
:103B8000A11DB11D84839583A683B7830E94780805
:103B90006C197D098E099F09A30192010E94532788
:103BA000A90161E0C8010E943A1C81E0D5018C9313
:103BB000BCC08430F1F4F80184819581A681B7817D
:103BC0000196A11DB11D84839583A683B7830E94AE
:103BD00078086C197D098E099F09A30192010E9442
:103BE0005327A90163E0C8010E943A1CD5012C9219
:103BF0009CC0813059F5EF81F88540815181628107
:103C000073819E012F5F3F4FC8010E94191A382E01
:103C1000F2E08F138AC089819A81AB81BC81F8015F
:103C200084839583A683B7830E9478086C197D09E5
:103C30008E099F09A30192010E945327A90163E005
:103C4000C8010E943A1CD5013C9275C0823009F02F
:103C50006CC0EF81F88540815181628173819E0142
:103C60002F5F3F4FC8010E94191A382EF5E08F13BD
:103C700056C0E3E0D501EC93F80182A193A1A4A181
:103C8000B5A1892B8A2B8B2B41F484E893E0A0E02B
:103C9000B0E082A393A3A4A3B5A3F80186A197A142
:103CA000A0A5B1A5892B8A2B8B2B61F482A193A1AE
:103CB000A4A1B5A1B695A7959795879586A397A337
:103CC000A0A7B1A7D8019A964D915D916D917C9175
:103CD0009D9796968D919D910D90BC91A02D452B11
:103CE000462B472B59F4AC01BD01440F551F661FED
:103CF000771FF80142A753A764A775A7F80186A705
:103D000097A7A0ABB1AB82A593A5A4A5B5A582AB9F
:103D100093ABA4ABB5AB88248394912C0CC0F6E094
:103D20008F1303C0D5011C9206C0BFEF3B1203C026
:103D3000F5011082312CF1E08F16910491F00E9470
:103D400078086C197D098E099F09D801DA962D91A2
:103D50003D914D915C91DD9726173707480759072C
:103D600028F0F5018081833009F002CF8D819E819A
:103D70000E948414F80184819581A681B7810196FF
:103D8000A11DB11D84839583A683B78302C0812CB6
:103D9000912CC40128960FB6F894DEBF0FBECDBF9C
:103DA000DF91CF911F910F91FF90EF90DF90CF9017
:103DB000BF90AF909F908F907F906F905F904F904B
:103DC0003F902F900895CF92DF92EF92FF920F9342
:103DD0001F93CF93DF93EC016B011AA21BA21CA2CD
:103DE0001DA21EA21FA218A619A61AA61BA61CA6D3
:103DF0001DA61EAA1FAA18AE19AE2AAF3BAF4CAF24
:103E00005DAFFC01FE96E082F182028313838C0198
:103E1000085F1F4F86E0F80111928A95E9F7CE01FD
:103E20000E94111A86E0F601D80101900D928A9540
:103E3000E1F7FE01EA5BFF4F1082CE01DF91CF91E7
:103E40001F910F91FF90EF90DF90CF900C94581D31
:103E50000F9300E020E040E060E08DEA93E00E94F4
:103E6000D60B0F910895FB014281538164817581C6
:103E7000FC014283538364837583178216820895FD
:103E8000CF93FB01DB018D918111FDCF80E090E0AC
:103E900020E030E0CAE01BC08F3F910509F064F5D7
:103EA000DA01A20FB31F12968C932F5F3F4F80E071
:103EB00090E00DC0DC01CA9FC001CB9F900D112482
:103EC000772767FD709560537109860F971F619181
:103ED000662321F02430310594F00EC08F3F910508
:103EE00009F054F4243031053CF4FA01E20FF31FD9
:103EF000828321E030E006C020E030E003C06E3273
:103F0000C9F6CACFC901CF910895AF92BF92CF929F
:103F1000DF92EF92FF920F931F93CF93DF9300D026
:103F20001F92CDB7DEB77C015B010E947808F701D4
:103F3000778366838701085F1F4FB7016A5F7F4FF2
:103F400042E050E0C8010E94621481E090E09A8350
:103F5000898342E050E0BE016F5F7F4FC8010E943D
:103F6000621480E091E09A83898342E050E0BE01D0
:103F70006F5F7F4FC8010E9462141A82198242E06B
:103F800050E0BE016F5F7F4FC8010E94621442E0A3
:103F900050E0BE016F5F7F4FC8010E94621442E093
:103FA00050E0BE016F5F7F4FC8010E94621475012F
:103FB000650121C0F6017F018191811107C0570180
:103FC000AC18BD081A141B0424F011C08E3299F7E6
:103FD000F6CFAB8241E050E0BE016D5F7F4FC8017C
:103FE0000E946214A501B601C8010E946214670113
:103FF000FFEFCF1ADF0AF70180818111DBCF1B822F
:1040000041E050E0BE016D5F7F4FC8010E94621425
:10401000E12CFF24F394FA82E98242E050E0BE01F1
:104020006F5F7F4FC8010E946214FA82E98242E00A
:1040300050E0BE016F5F7F4FC8010E94621481E0B3
:1040400090E00F900F900F90DF91CF911F910F9103
:10405000FF90EF90DF90CF90BF90AF9008954F9278
:104060005F926F927F928F929F92AF92BF92CF9208
:10407000DF92EF92FF920F931F93CF93DF93CDB711
:10408000DEB763970FB6F894DEBF0FBECDBF7C01DD
:104090005B016A010E9478082B013C018701085FDF
:1040A0001F4F4501A12CB12C12C00E947808641941
:1040B00075098609970986169706A806B90608F4B1
:1040C0000FC162E370E080E090E00E94B408C80194
:1040D0000E9499141816190644F7F701428153817A
:1040E00064817581818D928DA38DB48D4817590798
:1040F0006A077B0709F0F7C0858D968DC59709F093
:10410000F2C0F7C04CE050E0BE016F5F7F4FC801C6
:104110000E9419148B819C819827892798279A8B54
:10412000898BF7014681578129813A8142175307CC
:1041300011F497FD06C0C8010E94ED132CEF3FEF6C
:10414000DEC08F709270892B31F0C8010E94ED1390
:104150002BEF3FEFD4C08F80988498248924982433
:104160008114910479F5C8010E94ED132AEF3FEF05
:10417000C6C041E050E0BE01635F7F4FC8010E94AE
:1041800019148D85811107C08D858111F2CF0AC068
:10419000C8010E9438148D85982F91509D878111F8
:1041A000F7CFF2CFC8010E943814C8010E9438141A
:1041B000C8010E943814C8010E943814FFEFEF1A9A
:1041C000FF0A02C0E12CF12C8D819E81982789275E
:1041D0009827E816F90668F2A12CB12C41E050E0CE
:1041E000BE016D5E7F4FC8010E9419148B89982F04
:1041F000907C69F4811104C00EC0C8010E9438147B
:104200008B89982F91509B8B8111F7CF04C0C801E7
:104210000E9438141B8A8B898111E0CF42E050E064
:10422000BE01615F7F4FC8010E94191442E050E057
:10423000BE01635F7F4FC8010E941914C8010E942C
:104240003814C8010E943814C8010E943814C801EB
:104250000E94381442E050E0BE016F5E7F4FC801FB
:104260000E9419148F8598898115914011F58D85CB
:104270009E8581159140E9F489899A898115944038
:1042800031F0C8010E94ED1327EF3FEF38C0B601AF
:104290006E5F7F4F44E050E0C8010E94191421E096
:1042A00030E02DC0C8010E9438142FEFE21AF20A44
:1042B00002C0E12CF12C89899A89982789279827AF
:1042C000E816F90678F38FEFA81AB80AA814B9040B
:1042D00009F084CFC8010E94ED1326EF3FEF0FC015
:1042E0002FEF3FEF0CC02EEF3FEF09C02DEF3FEF58
:1042F00006C0C8010E94D3130C97C4F303CFC901B1
:1043000063960FB6F894DEBF0FBECDBFDF91CF919D
:104310001F910F91FF90EF90DF90CF90BF90AF90E3
:104320009F908F907F906F905F904F9008958F92A5
:104330009F92AF92BF92CF92DF92EF92FF920F9334
:104340001F93CF93DF9300D000D000D0CDB7DEB75E
:104350008C015B016A010E94401F892B09F051C04A
:10436000F80142815381648175818091B5039091F8
:10437000B603A091B703B091B803481759076A076D
:104380007B0709F442C00E9478087801F8E0EF0E3C
:10439000F11C6F707727882799277C5FC7010E94DF
:1043A000E8148130B9F58EED91E09A838983F801A4
:1043B00082819381A481B5818B839C83AD83BE83ED
:1043C00045E350E0BE016F5F7F4FC7010E947C1440
:1043D000892B19F4A12CB12C10C0B501C8010E9481
:1043E000851F892BB9F3C7010E947814892BA9F482
:1043F000F1CFFFEFAF16BF0699F0C7010E948414FA
:104400001BC0AA24A394B12C17C02EEFA22EBB244C
:10441000BA9412C0A12CB12C0FC093E0892E912C1C
:10442000A60168E873E1C8010E942F205C0121E029
:10443000821A910811F3DDCFC50126960FB6F894C4
:10444000DEBF0FBECDBFDF91CF911F910F91FF90C7
:10445000EF90DF90CF90BF90AF909F908F90089596
:104460000F9300E020E040E060E083EB93E00E94E7
:10447000D60B0F9108950F931F93CF93DF9300D026
:1044800000D0CDB7DEB79B01AC0161157105810588
:10449000910579F069833A834B835C830E940C24F5
:1044A00029813A814B815C810E9475278B019C0197
:1044B00003C000E010E09801B801C9010F900F900F
:1044C0000F900F90DF91CF911F910F910895CF9290
:1044D000DF92EF92FF926B017C01621773078407F2
:1044E000950764F4CA01B9016C197D098E099F0909
:1044F0000E943B22C60ED71EE81EF91EB601C70158
:10450000FF90EF90DF90CF9008950F931F93CF937C
:10451000DF938230910510F482E090E0E091BB03DC
:10452000F091BC0320E030E0C0E0D0E023C0408147
:10453000518148175907A8F04817590761F482813B
:104540009381209719F09B838A832EC09093BC039C
:104550008093BB0329C02115310529F04217530769
:1045600010F0A90102C0BE01DF0102811381EF0139
:104570009A01F8013097D9F62115310509F1281B68
:10458000390B2430310590F412968D919C9113973C
:104590006115710521F0FB019383828304C0909320
:1045A000BC038093BB03FD01329644C0FD01E20FC2
:1045B000F31F81939193225031092D933C933AC07C
:1045C0002091B9033091BA03232B41F420910201C9
:1045D000309103013093BA032093B9032091000175
:1045E000309101012115310541F42DB73EB74091BD
:1045F000040150910501241B350BE091B903F091A2
:10460000BA03E217F307A0F42E1B3F0B2817390754
:1046100078F0AC014E5F5F4F2417350748F04E0F1E
:104620005F1F5093BA034093B9038193919302C0E3
:10463000E0E0F0E0CF01DF91CF911F910F9108955D
:10464000EF92FF920F931F93CF93DF93009709F49C
:104650008EC0DC01129713961C921E921297E09066
:10466000BB03F090BC03E114F10489F42D913C915B
:104670001197280F391F8091B9039091BA038217BF
:10468000930789F5B093BA03A093B90370C0E7010B
:1046900020E030E001C0EA01CA17DB0738F44A81A4
:1046A0005B819E0141155105B1F722C0AC0142501A
:1046B0005109FA01D383C28300811181BC01600FCB
:1046C000711F6C177D0761F468817981600F711F1C
:1046D0006E5F7F4F718360836A817B8173836283A6
:1046E0002115310529F4B093BC03A093BB033FC04F
:1046F000F901B383A283E90149915991C40FD51FF0
:10470000AC17BD0771F4DC019E918E91840F951F4B
:1047100002969183808312968D919C911397938337
:104720008283A0E0B0E002C0D7017C01F701828162
:1047300093810097C9F7C701029620813181820FCA
:10474000931F2091B9033091BA032817390779F4E0
:10475000109729F41092BC031092BB0304C0139667
:104760001C921E921297F092BA03E092B903CDB751
:10477000DEB7E6E00C94B9278F929F92AF92BF927A
:10478000CF92DF92EF92FF92CF93DF93EC0168819B
:1047900079818A819B81611571058105910521F4DB
:1047A00064E279ED8BE597E02DE133EF41E050E0F5
:1047B0000E94752749015A019B01AC01A7EAB1E4A7
:1047C0000E9440276B017C01ACEEB4EFA50194017F
:1047D0000E944E27C60ED71EE81EF91EF7FE06C021
:1047E00081E0C81AD108E10880E8F80AC882D982B5
:1047F000EA82FB82E894F7F8B601C701DF91CF9116
:10480000FF90EF90DF90CF90BF90AF909F908F90F0
:1048100008950E94BC23089586E091E00E94BC2385
:1048200008956093060170930701809308019093A7
:1048300009010895A0E0B0E0E0E2F4E20C949727CB
:10484000EC01009729F4CB010E948522EC01B4C051
:10485000DC01A60FB71FFC013297AE17BF0718F493
:10486000C0E0D0E0A9C00081118106171707B0F0A1
:104870000530110508F4A0C0C801049786179707F2
:1048800008F49AC002501109061B170B0D931D93D3
:1048900071836083CD010E9420238EC06B01C01AFA
:1048A000D10A7C01E00EF11EE091BB03F091BC0344
:1048B00020E030E080E090E048C0EE15FF05D1F543
:1048C00080809180540142E0A40EB11CAC14BD0460
:1048D00088F17401EC18FD08670122E0C20ED11CBA
:1048E0009E012250310945E0C416D10478F042817E
:1048F000538113965C934E9312971196FC92EE920D
:10490000F901718360833A2F2B2F09C00E5F1F4F6F
:10491000080D191DD9010D931C9332812381009735
:1049200021F0FC013283238347C03093BB032093E3
:10493000BC0342C0808191812817390708F49C018B
:1049400052814381CF01E52FF42F309709F0B5CF85
:104950008091B9039091BA038E159F05F1F4261743
:104960003707D8F48091000190910101009741F43C
:104970008DB79EB72091040130910501821B930BE6
:10498000A817B90708F06CCFB093BA03A093B90386
:10499000FE013297718360830FC0CB010E94852294
:1049A0007C01009709F45CCFA801BE010E94F224AB
:1049B000CE010E942023E701CE01CDB7DEB7ECE0A7
:1049C0000C94B327F8940C94E127FB01DC0104C09C
:1049D0008D910190801921F441505040C8F7881BF7
:1049E000990B0895FB01DC0102C001900D9241502A
:1049F0005040D8F70895FB01DC018D91019080199A
:104A00000110D9F3990B0895FB01DC0101900D927F
:104A10000020E1F70895FB0151915523A9F0BF0152
:104A2000DC014D9145174111E1F759F4CD01019099
:104A3000002049F04D9140154111C9F3FB0141118E
:104A4000EFCF81E090E0019708955058BB27AA2747
:104A50000ED075C166D130F06BD120F031F49F3F9C
:104A600011F41EF45BC10EF4E095E7FB51C1E92F90
:104A700077D180F3BA17620773078407950718F098
:104A800071F49EF58FC10EF4E0950B2EBA2FA02D78
:104A90000B01B90190010C01CA01A0011124FF27EB
:104AA000591B99F0593F50F4503E68F11A16F040E6
:104AB000A22F232F342F4427585FF3CF46953795E5
:104AC0002795A795F0405395C9F77EF41F16BA0BAA
:104AD000620B730B840BBAF09150A1F0FF0FBB1F58
:104AE000661F771F881FC2F70EC0BA0F621F731FA1
:104AF000841F48F4879577956795B795F7959E3FFE
:104B000008F0B3CF9395880F08F09927EE0F97958B
:104B100087950895D9D008F481E008950CD00FC18D
:104B200007D140F0FED030F021F45F3F19F0F0C023
:104B3000511139C1F3C014D198F39923C9F3552306
:104B4000B1F3951B550BBB27AA2762177307840780
:104B500038F09F5F5F4F220F331F441FAA1FA9F336
:104B600033D00E2E3AF0E0E830D091505040E69528
:104B7000001CCAF729D0FE2F27D0660F771F881F89
:104B8000BB1F261737074807AB07B0E809F0BB0B78
:104B9000802DBF01FF2793585F4F2AF09E3F51059C
:104BA00068F0B6C000C15F3FECF3983EDCF3869539
:104BB00077956795B795F7959F5FC9F7880F911D12
:104BC0009695879597F90895E1E0660F771F881FFE
:104BD000BB1F621773078407BA0720F0621B730BB1
:104BE000840BBA0BEE1F88F7E095089504D0689403
:104BF000B111D9C00895BCD088F09F5790F0B92F5B
:104C00009927B751A0F0D1F0660F771F881F991F21
:104C10001AF0BA95C9F712C0B13081F0C3D0B1E033
:104C20000895C0C0672F782F8827B85F39F0B93F43
:104C3000CCF3869577956795B395D9F73EF4909523
:104C40008095709561957F4F8F4F9F4F0895E894A1
:104C500009C097FB3EF490958095709561957F4FC4
:104C60008F4F9F4F9923A9F0F92F96E9BB27939572
:104C7000F695879577956795B795F111F8CFFAF482
:104C8000BB0F11F460FF1BC06F5F7F4F8F4F9F4FB3
:104C900016C0882311F096E911C0772321F09EE811
:104CA000872F762F05C0662371F096E8862F70E077
:104CB00060E02AF09A95660F771F881FDAF7880F51
:104CC0009695879597F90895990F0008550FAA0BA7
:104CD000E0E8FEEF16161706E807F907C0F012160F
:104CE0001306E407F50798F0621B730B840B950B12
:104CF00039F40A2661F0232B242B252B21F4089567
:104D00000A2609F4A140A6958FEF811D811D089503
:104D100097F99F6780E870E060E008959FEF80EC6E
:104D2000089500240A941616170618060906089511
:104D300000240A9412161306140605060895092E77
:104D40000394000C11F4882352F0BB0F40F4BF2BE6
:104D500011F460FF04C06F5F7F4F8F4F9F4F089526
:104D600057FD9058440F551F59F05F3F71F047951C
:104D7000880F97FB991F61F09F3F79F08795089501
:104D8000121613061406551FF2CF4695F1DF08C020
:104D9000161617061806991FF1CF8695710561053D
:104DA00008940895E894BB2766277727CB0197F9E5
:104DB00008958ADF08F48FEF08950BD0C0CFB1DFDC
:104DC00028F0B6DF18F0952309F0A2CFA7CF112461
:104DD000EACFC6DFA0F3959FD1F3950F50E0551FA2
:104DE000629FF001729FBB27F00DB11D639FAA2740
:104DF000F00DB11DAA1F649F6627B00DA11D661F8F
:104E0000829F2227B00DA11D621F739FB00DA11DAF
:104E1000621F839FA00D611D221F749F3327A00D69
:104E2000611D231F849F600D211D822F762F6A2F05
:104E300011249F5750408AF0E1F088234AF0EE0F8A
:104E4000FF1FBB1F661F771F881F91505040A9F797
:104E50009E3F510570F05CCFA6CF5F3FECF3983ECC
:104E6000DCF3869577956795B795F795E7959F5FFE
:104E7000C1F7FE2B880F911D9695879597F9089598
:104E80000E94CF27A59F900DB49F900DA49F800DE9
:104E9000911D11240895B7FF0C9440270E944027CC
:104EA000821B930B0895A1E21A2EAA1BBB1BFD01C6
:104EB0000DC0AA1FBB1FEE1FFF1FA217B307E407F9
:104EC000F50720F0A21BB30BE40BF50B661F771F51
:104ED000881F991F1A9469F7609570958095909531
:104EE0009B01AC01BD01CF010895052E97FB16F47F
:104EF000009407D057FD0DD00E94532707FC09D01E
:104F00007EF490958095709561957F4F8F4F9F4F60
:104F1000089550954095309521953F4F4F4F5F4FE5
:104F200008952F923F924F925F926F927F928F924D
:104F30009F92AF92BF92CF92DF92EF92FF920F9328
:104F40001F93CF93DF93CDB7DEB7CA1BDB0B0FB632
:104F5000F894DEBF0FBECDBF09942A8839884888EF
:104F60005F846E847D848C849B84AA84B984C88485
:104F7000DF80EE80FD800C811B81AA81B981CE0F7C
:104F8000D11D0FB6F894DEBF0FBECDBFED01089561
:104F90006927962769277827872778270895A29F6A
:104FA000B001B39FC001A39F01D0B29F700D811DBE
:104FB0001124911D0895EE0FFF1F0590F491E02D2F
:064FC0000994F894FFCFF4
:104FC6000000BD032000010000005000722E706E2C
:104FD600642E736500DEADBEEFFEED010004002019
:104FE600282A1A1615353D3F474554202F736574F8
:104FF600737461742F74656D702F002F6D6F646507
:105006002F00486F73743A2000557365722D4167FF
:10501600656E743A2041726475696E6F4574686591
:10502600726E657400436F6E6E656374696F6E3A77
:1050360020636C6F736500474554202F6765747352
:10504600657474696E677320485454502F312E313D
:10505600003A0022006D6F646500686F6D6500534D
:10506600657474696E672074656D7020746F203680
:105076003000617761790053657474696E672074D6
:10508600656D7020746F2033300000000000130A35
:105096001B0CAE09DD09C109010A00000000910BD5
:1050A6002E0000000000DE0F611056103B1013109A
:1050B600F40F66117F1037102311FF100B1000003C
:1050C6000000D7136214D3133814FF13ED13E8143A
:1050D60084147C143715781499141914B813BF1353
:0A50E600CF1357495A6E657400009D
:00000001FF
