:100000000C9465000C948D000C948D000C948D0064
:100010000C948D000C948D000C948D000C948D002C
:100020000C948D000C948D000C948D000C948D001C
:100030000C948D000C948D000C948D000C948D000C
:100040000C94F6070C948D000C94120A0C944E0A32
:100050000C948D000C948D000C948D000C948D00EC
:100060000C948D000C948D0000000007000201002C
:100070000003040600000000000000000102040864
:100080001020408001020408102001020408102002
:10009000040404040404040402020202020203032E
:1000A0000303030300000000250028002B000000CC
:1000B0000000240027002A00EA025407090BC50BA0
:1000C000CF0FB811A613361D3E2011241FBECFEF4F
:1000D000D8E0DEBFCDBF12E0A0E0B1E0E2ECF9E491
:1000E00002C005900D92AA3DB107D9F714E0AAED20
:1000F000B2E001C01D92AB36B107E1F710E0CAECE7
:10010000D0E004C02297FE010E94DB24C83BD10747
:10011000C9F70E94D40B0C9428220C9400000F9372
:100120001F93FC017183608355834483338322834F
:1001300012861386148615861186108616861783F6
:1001400006831F910F910895FC018081918108958C
:10015000FC01808591850895CB01BA0123E333EF3B
:100160004BE454E40E943F2226E636E64EEF50E48C
:100170000E94A8220E9410236A30710524F06B357A
:10018000710524F405C06AE070E002C06AE570E021
:10019000CB010895EF92FF920F931F93CF93DF93BC
:1001A000EC018E810E94D507BC01882777FD8095E0
:1001B000982F0E9443232AE038E240EA5BE30E9442
:1001C000F7239B01AC0160E070E080EA90E40E94BC
:1001D000A82220E030E040E85FE30E943F2220E0D8
:1001E00030E44CE156E40E94F7237B018C0120E0CF
:1001F00030E048E454E47F2D912F0E94A42287FD33
:100200000CC020E030E844ED54E46E2D7F2D802FAB
:10021000912F0E94F32318161CF481E08E8701C0F1
:100220001E866E2D7F2D802F912FDF91CF911F91F4
:100230000F91FF90EF900895CF93DF93EC010E9410
:10024000CA00AB01BC014A875B876C877D87CE0102
:100250000E94AC0099878887DF91CF910895FC01B7
:1002600086850895AF92CF92EF92FF920F931F93DE
:10027000CF93DF93CDB7DEB72B970FB6F894DEBFE1
:100280000FBECDBF9AE0ECE1F1E0DE0111960190E6
:100290000D929A95E1F781E090E08C0F9D1F680F19
:1002A000791FFB01F080F4FA662760F9822F4B87F3
:1002B0000E943F09F2FA662760F98E2D0E943F09DD
:1002C0006F2D61708A2D0E943F09F5FA662760F94B
:1002D0004B85842F0E943F09F3FA662760F9802F2F
:1002E0000E943F09F1FA662760F98C2D2B960FB614
:1002F000F894DEBF0FBECDBFDF91CF911F910F915C
:10030000FF90EF90CF90AF900C943F09CF93DF9385
:10031000EC01688179814AE050E08AE793E00E942D
:10032000270D66E271E08AE793E00E941B0C4A8584
:100330005B856C857D8522E030E08AE793E00E9452
:10034000D80D66E271E08AE793E00E941B0C688595
:1003500079854AE050E08AE793E00E94270D66E243
:1003600071E08AE793E0DF91CF910C941B0CCF9260
:10037000DF92EF92FF920F931F93CF93DF93CDB74E
:10038000DEB72D970FB6F894DEBF0FBECDBF7C0150
:100390006B0160E972E0FC0174836383FA0182817E
:1003A0009381A481B581F70185839683A783B08764
:1003B00072876187F9014281538164817581F701F8
:1003C0004387548765877687C70141960E94DC0E74
:1003D000F701D282C182108B07871082CE0101966D
:1003E0000E94DC0E2D960FB6F894DEBF0FBECDBF77
:1003F000DF91CF911F910F91FF90EF90DF90CF9001
:1004000008950F931F93CF93DF93CDB7DEB72C974B
:100410000FB6F894DEBF0FBECDBF8C01FC01618129
:1004200072818DE294E00E94EF0F019759F469E226
:1004300071E08AE793E00E941B0C8AE793E00E9438
:100440002E0C2DC068E371E08AE793E00E941B0C3C
:100450008AE793E00E942E0C20E932E03A83298358
:10046000F80183859485A585B6858B839C83AD83B0
:10047000BE8338872F834581568167817085498780
:100480005A876B877C87618172819E012F5F3F4F06
:10049000AE01495F5F4F8DE294E00E943F1168EE2C
:1004A00073E080E090E00E947C082C960FB6F894F0
:1004B000DEBF0FBECDBFDF91CF911F910F91089589
:1004C0000F931F93CF93DF93EC018C010F5E1F4FAF
:1004D000C8010E94FB0E81110AC08881882339F06F
:1004E000C801DF91CF911F910F910C941F0FDF91E5
:1004F000CF911F910F9108950F931F93CF93DF9387
:100500008C01EB016BE571E08AE793E00E941B0C24
:100510004AE050E0BE018AE793E00E94270D8AE797
:1005200093E00E942E0CE8016196F80167857089BE
:1005300040E550E0CE010E947B0E892BF1F06FE583
:1005400071E08AE793E00E94440C69E671E0CE0115
:100550000E94440C6FE771E0CE010E94440C6EE8EB
:1005600071E0CE010E94440C6AEA71E0CE010E9463
:10057000440CCE010E942E0C12C0CE010E941F0F0F
:100580006CEB71E08AE793E00E94440C08C0CE0156
:100590000E94370E682F8AE793E00E941D0CCE015F
:1005A0000E94520E1816190694F3CE010E94FB0EFB
:1005B000F8018083DF91CF911F910F910895CF9320
:1005C000DF93EC016DE274E00E949611CE01DF91A1
:1005D000CF9108950F9300E020E040E060E08AEDC5
:1005E00092E00E949E0B0F910895CF92DF92EF92BE
:1005F000FF920F931F93CF93DF93EC0148835983AE
:100600006A837B830C831D832E833F83C886D986B0
:10061000EA86FB860E9440086CA37DA38EA39FA35D
:10062000DF91CF911F910F91FF90EF90DF90CF90CE
:100630000895CF93DF93EC01CB01BA010E94102300
:100640007FA76EA7DF91CF910895CF93DF93EC0141
:10065000CB01BA010E9410237DA76CA7DF91CF9137
:100660000895FC0166A577A5882777FD8095982FCA
:100670000E9443230895FC0164A575A5882777FD92
:100680008095982F0E94432308952F923F924F9276
:100690005F926F927F928F929F92AF92BF92CF9212
:1006A000DF92EF92FF920F931F93CF93DF93CDB71B
:1006B000DEB764970FB6F894DEBF0FBECDBF9C8B3C
:1006C0008B8B6A017B01280139010E9440084B0194
:1006D0005C01EB89FC8984A195A1A6A1B7A1A50124
:1006E0009401281B390B4A0B5B0BDA01C9018036D8
:1006F0009A4EA105B10548F440A1498351A15A83FE
:1007000082A18B8393A19C833BC1A7019601C30166
:10071000B2010E943F226D837E838F839887AB89CD
:10072000BC8998962D913D914D915C919B970E942B
:1007300040221B018C01862F932DA02FB12FEB8916
:10074000FC8980A791A7A2A7B3A766A577A588274C
:1007500077FD8095982F0E94432369877A878B873E
:100760009C8769837A838B839C83762F6A85982FF5
:100770008C85272F362F492F582F622D732D802FD0
:10078000912F0E94F32318167CF459854A853B85E6
:100790002C85852F942FA32FB22FEB89FC8980A75E
:1007A00091A7A2A7B3A71EC0AB89BC899C966D91E7
:1007B0007C919D97882777FD8095982F0E944323F1
:1007C0002B013C019B01AC01622D732D802F912FD9
:1007D0000E94A42287FF06C0EB89FC8940A651A68F
:1007E00062A673A6AB89BC8998962D913D914D91D7
:1007F0005C919B972D873E874F87588B5C962D91F8
:100800003D914D915C915F97C701B6010E943F22D7
:10081000362E272E898B9A8BEB89FC89208131819A
:1008200042815381BD81AE811F8108856B2F7A2F54
:10083000812F902F0E94F7232B013C01AB89BC89AB
:1008400014962D913D914D915C9117976D857E8504
:100850008F8598890E94F7239B01AC01C301B201E7
:100860000E9440222B013C01EB89FC8920853185C7
:1008700042855385D10119890A896B2F7A2F812FDF
:10088000902F0E94F7239B01AC01C301B2010E948B
:100890003F223B018C0179856A859B858C85272FBA
:1008A000362F492F582F662D772D802F912F0E949C
:1008B000F323181624F1AB89BC899C966D917C9129
:1008C0009D97882777FD8095982F0E944323698301
:1008D0007A838B839C83762F6A81982F8C81272F34
:1008E000362F492F582F662D772D802F912F0E945C
:1008F000A42287FD04C069827A820B831C83EB8962
:10090000FC89C48ED58EE68EF78E5D814E813F8147
:100910002885852F942FA32FB22F808F918FA28FA0
:10092000B38F59814A813B812C81852F942FA32F2E
:10093000B22F80A391A3A2A3B3A35D814E813F8177
:100940002885852F942FA32FB22F80AB91ABA2AB1C
:10095000B3AB2D853E854F85588924AB35AB46AB6F
:1009600057ABA10139892A89852F922DA32FB22F48
:1009700080AF91AFA2AFB3AF84A295A2A6A2B7A257
:1009800059814A813B812C81652F742F832F922FAF
:1009900064960FB6F894DEBF0FBECDBFDF91CF9146
:1009A0001F910F91FF90EF90DF90CF90BF90AF908D
:1009B0009F908F907F906F905F904F903F902F907F
:1009C0000895FC0164A175A186A197A10895CF9314
:1009D000DF93EC014C8D5D8D6E8D7F8D22E030E0DC
:1009E0008AE793E00E94D80D66E271E08AE793E01F
:1009F0000E941B0C488D598D6A8D7B8D22E030E062
:100A00008AE793E00E94D80D66E271E08AE793E0FE
:100A10000E941B0C48A159A16AA17BA122E030E0F1
:100A20008AE793E00E94D80D66E271E08AE793E0DE
:100A30000E941B0C48A959A96AA97BA922E030E0B1
:100A40008AE793E00E94D80D66E271E08AE793E0BE
:100A50000E941B0C4CA95DA96EA97FA922E030E081
:100A60008AE793E00E94D80D66E271E08AE793E09E
:100A70000E941B0C48AD59AD6AAD7BAD22E030E061
:100A80008AE793E00E94D80D66E271E08AE793E07E
:100A9000DF91CF910C941B0C8F929F92AF92BF92DB
:100AA000CF92DF92EF92FF920F931F93CF93DF933A
:100AB00000D000D000D0CDB7DEB761E082E00E9468
:100AC000070961E083E00E94070961E084E00E9479
:100AD000070961E085E00E94070961E086E00E9465
:100AE000070961E087E00E94070961E08DE00E944C
:100AF000070961E08CE00E94070940E050E0BA017C
:100B00008AE093E00E94250340E050E068E473E44B
:100B10008AE093E00E94190340E855E260E070E04B
:100B20008AE793E00E94890A6CEC71E08AE793E01F
:100B30000E941B0C88248394912C83E0A82EB12C56
:100B400092E0C92ED12C25E0E22EF12C04E010E039
:100B500027E030E046E050E0B40186E493E00E94F4
:100B600032016EEE72E080E090E00E947C088FEF30
:100B7000881A980A8BE088169104F9F664E072E00E
:100B80008AE793E00E94440C67E072E08AE793E012
:100B90000E941B0C22E030E040E050E060E470E492
:100BA0008AE793E00E94D80D22E030E04DEC5CEC47
:100BB0006CE47FE38AE793E00E94D80D22E030E006
:100BC00040E050E060E87FE38AE793E00E94D80DC0
:100BD0008AE793E00E942E0C64E172E08AE793E0DA
:100BE0000E941B0C8AE793E00E942E0C80EE92E09C
:100BF0000E9401026FE572E08AE793E00E941B0CFD
:100C000060EE72E0CE0101960E94DF02BE016F5FCE
:100C10007F4F8AE793E00E94240C8AE793E00E94CA
:100C20002E0C26960FB6F894DEBF0FBECDBFDF9117
:100C3000CF911F910F91FF90EF90DF90CF90BF90D9
:100C4000AF909F908F9008954F925F926F927F9296
:100C50008F929F92AF92BF92CF92DF92EF92FF92CC
:100C60000F931F93CF93DF9300D000D0CDB7DEB7A3
:100C700086E493E00E941C0186E493E00E94A800B1
:100C80005C0186E493E00E94A400BC01882777FD04
:100C90008095982F0E9443236B017C01B501882722
:100CA00077FD8095982F0E944323AB01BC019701EB
:100CB00086018AE093E00E9445032B013C018AE013
:100CC00093E00E9431034B015C018AE093E00E94B3
:100CD0003B0369837A838B839C8320E030E040E28E
:100CE00051E4C301B2010E9440226B017C012981C1
:100CF0003A814B815C81C501B4010E943F229B0176
:100D0000AC0160E070E080E191E40E94A8229B01C8
:100D1000AC01C701B6010E94F7230E94102343E0F3
:100D2000A42EB12C52E0C52ED12CE5E0EE2EF12CF4
:100D300004E010E027E030E046E050E086E493E095
:100D40000E94320164E672E08AE793E00E941B0C85
:100D50008AE093E00E94E104AB01BC012AE030E0AC
:100D60008AE793E00E94B40C66E271E08AE793E0C0
:100D70000E941B0C22E030E0B301A2018AE793E05D
:100D80000E94D80D66E271E08AE793E00E941B0C96
:100D900086E493E00E9486018AE093E00E94E704E3
:100DA0006AE672E08AE793E00E941B0C8AE793E010
:100DB0000E942E0C86E493E00E942F01882331F0DC
:100DC00061E08DE00E943F0960E005C060E08DE0D9
:100DD0000E943F0961E08CE00E943F0980EE92E0B2
:100DE0000E946002C0906703D0906803E09069039E
:100DF000F0906A030E944008DC01CB01B701A60114
:100E0000405D5A486F4F7F4F481B590B6A0B7B0B55
:100E10002AE030E08AE793E00E94C10C0E9440087B
:100E2000C0906703D0906803E0906903F0906A0374
:100E30006C197D098E099F096133754781059105FC
:100E4000C8F061E772E08AE793E00E94440C86E410
:100E500093E00E94A800BC0180EE92E00E947C0218
:100E60000E9440086093670370936803809369034E
:100E700090936A0360E177E280E090E00F900F903A
:100E80000F900F90DF91CF911F910F91FF90EF90F6
:100E9000DF90CF90BF90AF909F908F907F906F909A
:100EA0005F904F900C947C08CF92DF92EF92FF926C
:100EB0000F931F93CF93DF93CDB7DEB72C970FB669
:100EC000F894DEBF0FBECDBF00E020E040E060E060
:100ED0008BE693E00E949E0B0EE010E02DE030E0E8
:100EE0004CE050E06CE370E086E493E00E948F00F9
:100EF000C12CD12CF0E8EF2EFFE3FF2E0DEC1CEC03
:100F00002CE43FE340E050E060E470E48AE093E0EA
:100F10000E94F50209E022E048EA60EC84E093E0F8
:100F20000E949E0B0BE127EC43E463EC8EEF92E012
:100F30000E949E0B20E932E038872F8380910003C6
:100F400090910103A0910203B091030389879A87CE
:100F5000AB87BC873A83298380910603909107036E
:100F6000A0910803B09109038B839C83AD83BE835A
:100F70000AE011E09E01295F3F4FAE014F5F5F4FD6
:100F800063E171E080EE92E00E94B7012C960FB60B
:100F9000F894DEBF0FBECDBFDF91CF911F910F91AF
:100FA000FF90EF90DF90CF9008958E3008F08E5034
:100FB00087702091190140E4249F90011124822B15
:100FC00080937C0080917A00806480937A00809185
:100FD0007A0086FDFCCF2091780030917900932F24
:100FE00080E0AC01422B9A01C90108951F920F9233
:100FF0000FB60F9211242F933F938F939F93AF932C
:10100000BF938091710390917203A0917303B0918B
:10101000740330917903232F2D5F2D3720F401962F
:10102000A11DB11D05C0232F2A570296A11DB11D78
:10103000209379038093710390937203A0937303B9
:10104000B09374038091750390917603A091770318
:10105000B09178030196A11DB11D80937503909303
:101060007603A0937703B0937803BF91AF919F91DC
:101070008F913F912F910F900FBE0F901F90189559
:101080000F931F938FB7F89400917103109172031F
:1010900020917303309174038FBFB801C9011F9170
:1010A0000F9108950F931F939FB7F89400917503C4
:1010B00010917603209177033091780386B5A89B31
:1010C00006C08F3F21F00F5F1F4F2F4F3F4F9FBF35
:1010D000322F212F102F0027080F111D211D311D28
:1010E00042E0000F111F221F331F4A95D1F7B801AC
:1010F000C9011F910F910895CF92DF92EF92FF9255
:10110000CF93DF936B017C010E945208EB010EC06C
:101110000E9452086C1B7D0B683E734038F081E0E2
:10112000C81AD108E108F108C851DC4FC114D10434
:10113000E104F10469F7DF91CF91FF90EF90DF9028
:10114000CF900895789484B5826084BD84B5816021
:1011500084BD85B5826085BD85B5816085BDEEE6BF
:10116000F0E0808181608083E1E8F0E0108280819E
:1011700082608083808181608083E0E8F0E080810C
:1011800081608083E1EBF0E0808184608083E0EB2C
:10119000F0E0808181608083EAE7F0E08081846014
:1011A0008083808182608083808181608083808170
:1011B000806880831092C1000895833069F028F41C
:1011C0008130A1F0823011F514C08630B1F0873043
:1011D000C1F08430D9F404C0809180008F7703C0BF
:1011E000809180008F7D80938000089584B58F77F3
:1011F00002C084B58F7D84BD08958091B0008F7743
:1012000003C08091B0008F7D8093B0000895CF938C
:10121000DF9390E0FC01E458FF4F4491FC01E0575C
:10122000FF4F8491882341F190E0880F991FFC01C2
:10123000E255FF4F25913491D9018C559F4FFC0108
:1012400085919491C82FD92F9FB7F8948C916111F3
:1012500006C0409584238C938881842308C0623023
:1012600041F4242F209582238C938881842B8883BA
:1012700002C0842B8C939FBFDF91CF9108950F9371
:101280001F93CF93DF931F92CDB7DEB7282F30E0A7
:10129000F901E859FF4F8491F901E458FF4F149187
:1012A000F901E057FF4F04910023D1F0882321F08A
:1012B00069830E94DD086981E02FF0E0EE0FFF1FD7
:1012C000EC55FF4F85919491DC019FB7F8948C9178
:1012D000611103C01095812301C0812B8C939FBFA6
:1012E0000F90DF91CF911F910F910895FC0184859C
:1012F0009585FC01E05CFF4F20813181FC01EE5BB4
:10130000FF4F80819181281B390B2F733327C9012F
:101310000895FC0184859585FC01E05CFF4F4081C8
:101320005181FC01EE5BFF4F208131814217530751
:1013300041F00190F081E02DE80FF91F208130E0AD
:1013400002C02FEF3FEFC9010895FC018485958508
:10135000FC01E05CFF4F40815181FC01EE5BFF4FDF
:10136000208131814217530781F0A081B181A80FFC
:10137000B91F8C91208131812F5F3F4F2F7333270D
:1013800031832083282F30E002C02FEF3FEFC901C7
:101390000895FC0186859785FC01E05CFF4FDC0128
:1013A000AE5BBF4F408151812D913C911197421707
:1013B0005307C1F70895CF93DF93FC018685978586
:1013C000DC01A05CBF4F2D913C9111972F5F3F4FE7
:1013D0002F733327EC01CE5BDF4F488159812417EF
:1013E0003507D9F30D90BC91A02DA80FB91F6C93B0
:1013F000A685B785A05CBF4F11963C932E93A68916
:10140000B7892C9181E090E0058C02C0880F991F6C
:101410000A94E2F7282B2C9381E090E0DF91CF91A2
:10142000089508951F920F920FB60F9211242F93D3
:101430003F934F938F939F93EF93FF934091C600F9
:1014400080911D0490911E0401968F73992720911D
:101450001F04309120048217930759F0E0911D0476
:10146000F0911E04E352FC4F408390931E0480933E
:101470001D04FF91EF919F918F914F913F912F917B
:101480000F900FBE0F901F9018958AE793E00E946F
:101490007609892B11F00C94110A08951F920F926E
:1014A0000FB60F9211242F933F938F939F93EF9337
:1014B000FF932091D9033091DA038091DB0390915F
:1014C000DC032817390731F48091C1008F7D8093A8
:1014D000C10014C0E091DB03F091DC03E756FC4F40
:1014E00020818091DB039091DC0301968F73992713
:1014F0009093DC038093DB032093C600FF91EF9170
:101500009F918F913F912F910F900FBE0F901F9041
:101510001895CF92DF92EF92FF92CF93DF93EC0179
:101520006A017B01411581EE580761057105F9F0EB
:10153000EC89FD8981E090E00E8C02C0880F991F34
:101540000A94E2F7808360E079E08DE390E0A70100
:1015500096010E946D242150310941095109569587
:10156000479537952795211580E1380798F0EC8944
:10157000FD89108260E874E88EE190E0A701960191
:101580000E946D2421503109410951095695479512
:1015900037952795E889F9893083EA89FB89208383
:1015A000EE89FF89408181E090E09C010A8C02C0B5
:1015B000220F331F0A94E2F7422B4083EE89FF8902
:1015C00040819C010B8C02C0220F331F0A94E2F76A
:1015D000422B4083EE89FF8940819C010C8C02C024
:1015E000220F331F0A94E2F7422B4083EE89FF89D2
:1015F00020810D8C02C0880F991F0A94E2F7809514
:1016000082238083DF91CF91FF90EF90DF90CF9086
:10161000089510927D0310927C0388EE93E0A0E081
:10162000B0E080937E0390937F03A0938003B093F8
:10163000810380E892E090937B0380937A038DEDA1
:1016400093E0909387038093860389E993E09093D6
:1016500089038093880385EC90E090938B038093BB
:101660008A0384EC90E090938D0380938C0380EC4C
:1016700090E090938F0380938E0381EC90E09093A1
:1016800091038093900386EC90E090939303809372
:10169000920384E08093940383E08093950387E032
:1016A0008093960385E08093970381E0809398036D
:1016B0000895AF92BF92CF92DF92EF92FF920F9375
:1016C0001F93CF93DF936C017B01C0E0D0E000E07B
:1016D00010E0F601EC0FFD1F4AE050E06281C70107
:1016E0000E94D50C5C016EE2C7010E941D0C8A0DA0
:1016F0009B1D080F191F2196C330D10551F74AE0F1
:1017000050E0F6016581C7010E94D50C080F191F32
:10171000C801DF91CF911F910F91FF90EF90DF9063
:10172000CF90BF90AF90089520E932E0FC01318363
:101730002083128213821482158208950F93FC0174
:1017400080E992E0918380836283438324830583CD
:101750000F91089520E932E0FC0131832083FB01E1
:101760004081518162817381FC0142835383648390
:1017700075830895FC01DB014D915D916D917C9124
:101780004283538364837583089580E992E0909344
:1017900022048093210410922304109224041092B6
:1017A00025041092260408950E94A2080E944C0568
:1017B000C5E4DAE00E9424062097E1F30E94450A7E
:1017C000F9CF0C949320CF92DF92EF92FF920F9378
:1017D0001F93CF93DF936C01EB017A01E60EF71EA6
:1017E00000E010E00BC06991D601ED91FC910190F1
:1017F000F081E02DC6010995080F191FCE15DF05F0
:1018000091F7C801DF91CF911F910F91FF90EF9059
:10181000DF90CF900895DB010D900020E9F7AD0136
:1018200041505109461B570BDC01ED91FC910280A0
:10183000F381E02D09940C940B0CDC01ED91FC91EB
:101840000190F081E02D0994DB01ED91FC9111975D
:101850000190F081E02DBC01CD0109940F931F93FD
:10186000CF93DF93EC016DE00E941D0C8C016AE0C8
:10187000CE010E941D0C9C01200F311FC901DF9178
:10188000CF911F910F9108950F931F93CF93DF93E3
:10189000EC010E940B0C8C01CE010E942E0C9801D1
:1018A000280F391FC901DF91CF911F910F91089522
:1018B0004F925F926F927F929F92AF92BF92CF9220
:1018C000DF92EF92FF920F931F93CF93DF93CDB7E9
:1018D000DEB7A1970FB6F894DEBF0FBECDBF5C0197
:1018E0006A017B01922E19A281E0821710F08AE032
:1018F000982E8E010F5D1F4F492C512C612C712C9D
:10190000C701B601A30192010E946D248C2D929E05
:1019100080191124015011098A3014F4805D01C02E
:10192000895CF801808369017A01C114D104E10462
:10193000F10431F7B801C5010E940B0CA1960FB656
:10194000F894DEBF0FBECDBFDF91CF911F910F91F5
:10195000FF90EF90DF90CF90BF90AF909F907F90DF
:101960006F905F904F9008952115310541F4DC018F
:10197000ED91FC910190F081E02D642F09940C947D
:10198000580C0F931F93CF93DF93EC010E94B40C7C
:101990008C01CE010E942E0C9C01200F311FC90129
:1019A000DF91CF911F910F9108959A01462F50E03A
:1019B00060E070E00C94B40CCF92DF92EF92FF9253
:1019C0000F931F93CF93DF93EC016A017B012115E5
:1019D000310579F4E881F9810190F081E02D642FDF
:1019E000DF91CF911F910F91FF90EF90DF90CF90FB
:1019F00009942A30310519F477FD0EC02AE0B701A9
:101A0000A601CE01DF91CF911F910F91FF90EF9032
:101A1000DF90CF900C94580C6DE20E941D0C8C014D
:101A200044275527BA014C195D096E097F092AE040
:101A3000CE010E94580C080F191FC801DF91CF91E9
:101A40001F910F91FF90EF90DF90CF9008959A0132
:101A5000AB01662757FD6095762F0C94DC0C7F92C6
:101A60008F929F92AF92BF92CF92DF92EF92FF92AE
:101A70000F931F93CF93DF938C014A015B01F22EEA
:101A800020E030E0A901C501B4010E94A42287FF33
:101A90000AC06DE2C8010E941D0CEC01B7FAB094B7
:101AA000B7F8B09402C0C0E0D0E0E12C60E070E094
:101AB00080E09FE307C020E030E040E251E40E9474
:101AC000A822E394EF10F7CF262F372F482F592F56
:101AD000C501B4010E944022762E872E982EA92E91
:101AE0000E941523B62EC72ED82EE92E0E94412320
:101AF0009B01AC01672D782D892D9A2D0E943F22E4
:101B0000A62E972E882E792E2AE04B2D5C2D6D2D3A
:101B10007E2DC8010E94580CC80FD91FFF20B9F1B3
:101B200062E072E0C8010E940B0CC80FD91F2FC0E1
:101B300020E030E040E251E46A2D792D882D972D88
:101B40000E94F723762EC72ED82EE92E0E9410234E
:101B50004B01AA2497FCA094BA2C2AE030E0B501EE
:101B6000A401C8010E94DC0CC80FD91FC501B40133
:101B70000E9443239B01AC01672D7C2D8D2D9E2D52
:101B80000E943F22A62E972E882E792EFA94F110CD
:101B9000CFCFCE01DF91CF911F910F91FF90EF90AA
:101BA000DF90CF90BF90AF909F908F907F900895DF
:101BB0000C942F0DCF93DF931F92CDB7DEB76983BF
:101BC000DC01ED91FC910280F381E02D41E050E0D9
:101BD000BE016F5F7F4F09950F90DF91CF91089500
:101BE000CF93DF93EC0107C0E881F9810680F7818C
:101BF000E02DCE010995E881F9810480F581E02D81
:101C0000CE010995892B81F7DF91CF91089521E0CD
:101C1000FC018485843009F420E0822F08950F931D
:101C20001F93CF93DF931F92CDB7DEB78C01DC01FA
:101C3000ED91FC910480F581E02D0995892B51F0FF
:101C4000BE016F5F7F4FF80184850E9418152981BE
:101C500030E002C02FEF3FEFC9010F90DF91CF912D
:101C60001F910F910895FC0184850C94D914CF9392
:101C7000DF931F92CDB7DEB741E050E0BE016F5F4A
:101C80007F4FFC0184850E94D914181619061CF494
:101C9000298130E002C02FEF3FEFC9010F90DF91A3
:101CA000CF910895FC016485643021F08BE494E0C9
:101CB0000C94EC1680E090E008950F931F93CF935F
:101CC000DF938C01EA01FC018485843019F481E002
:101CD00090E007C00E948614892B39F481E090E0DF
:101CE000F80193838283C0E0D0E0CE01DF91CF91F1
:101CF0001F910F910895CF92DF92EF92FF920F9371
:101D00001F93CF93DF93CDB7DEB7E5970FB6F89467
:101D1000DEBF0FBECDBF7C018B016A01CE010196F3
:101D20000E94940BCE0109960E943013CE01C096FA
:101D30000E94940B6DE274E0CE018A960E94A81175
:101D4000BE01665D7F4FCE0101960E94411DAE012E
:101D5000405D5F4FB801CE0101960E94A51F9C0116
:101D600081309105C9F4D701ED91FC910484F5858A
:101D7000E02D80E992E09DA38CA30AA91BA92CA9C0
:101D80003DA90EA31FA328A739A7A601BE016C5D1C
:101D90007F4FC70109959C01C901E5960FB6F894DC
:101DA000DEBF0FBECDBFDF91CF911F910F91FF908E
:101DB000EF90DF90CF900895FC011382128248EEDD
:101DC00053E060E070E0448355836683778386E95F
:101DD00092E09183808384E084870895FC01848568
:101DE000843039F0382F20E0C9018D5F9B4F0C946F
:101DF0003F1680E00895CF93DF93EC018C8584300B
:101E0000D1F0CE010E94EE0E843181F0882371F072
:101E1000883161F08C3161F4E881F9810480F581C9
:101E2000E02DCE01099521E0892B19F420E001C0B5
:101E300021E0822F01C080E0DF91CF910895CF9201
:101E4000DF92EF92FF92CF93DF93EC018C85843089
:101E500091F10E947F140E9440086B017C01CE0129
:101E60000E94EE0E8823D1F00E9440086C197D0973
:101E70008E099F09683E734081059105A8F00EC048
:101E80008C850E94FB13EC85F0E0EE0FFF1FEB5CEE
:101E9000FB4F1182108284E08C870DC0CE010E941E
:101EA000EE0E882381F3ECCF61E070E080E090E0FB
:101EB0000E947C08D4CFDF91CF91FF90EF90DF900C
:101EC000CF900895AF92BF92CF92DF92EF92FF92A0
:101ED0000F931F93CF93DF93EC015B016A018C8515
:101EE000843009F04EC093E0E92E94E0F92E00E032
:101EF00010E0C7010E943F16811102C00C870AC082
:101F00008831E1F38C31D1F30F5F1F4FF39404302C
:101F1000110579F78C858430A1F120911A01309157
:101F20001B012F5F3F4F09F002C020E034E03093E7
:101F30001B0120931A0140911A0150911B0120E0CE
:101F400061E00E940914B5016E5F7F4FA6018C8588
:101F50000E94491409C061E070E080E090E00E94B6
:101F60007C08CE010E94EE0E811103C084E08C87B4
:101F700008C0CE010E94EE0E873169F721E030E003
:101F800002C020E030E0C901DF91CF911F910F9195
:101F9000FF90EF90DF90CF90BF90AF9008950F9398
:101FA00000E020E040E060E087E294E00E949E0BC9
:101FB0000F91089544E050E0BC0181E090E00C9462
:101FC000101644E050E0BC0185E090E00C9410163F
:101FD00044E050E0BC018FE090E00C941016AF920A
:101FE000BF92CF92DF92EF92FF920F931F93CF9306
:101FF000DF93CDB7DEB76E970FB6F894DEBF0FBE96
:10200000CDBF6C015B0182E690E00E94E10B8C0188
:1020100082E6F80111928A95E9F7C801895B9F4F22
:102020000E943013F601178306838BE494E00E942C
:10203000D21546E050E0B50189E090E00E9410160C
:1020400000E020E040E060E0CE0149960E949E0B57
:10205000CE014B960E94E80F10EAE12E1FE0F12E10
:1020600000E010E020E63AEE40E050E0B501F60175
:10207000868197810E94F11C8C018130910589F540
:10208000F60166817781CE0143960E94071ACE0140
:1020900045960E94E80FF60166817781CE010D9684
:1020A0000E941D1ACE010F960E94DA0FF60166817A
:1020B0007781CE0107960E94121ACE0109960E94DE
:1020C000E10FF60166817781CE0101960E94281A00
:1020D0004B815C816D817E81F601428353836483F1
:1020E0007583C8016E960FB6F894DEBF0FBECDBFE4
:1020F000DF91CF911F910F91FF90EF90DF90CF90E4
:10210000BF90AF9008958F929F92AF92BF92CF925F
:10211000DF92EF92FF920F931F93CF93DF9300D044
:10212000CDB7DEB74C016A0159018BE494E06983B5
:102130007A830E94D21546E050E069817A8189E075
:1021400090E00E941016C60102960E94E80FC80196
:1021500002960E94DA0FC70102960E94E10FF50174
:102160004281538164817581F40142835383648386
:1021700075830F900F90DF91CF911F910F91FF907A
:10218000EF90DF90CF90BF90AF909F908F90089589
:102190006F927F928F929F92AF92BF92CF92DF9277
:1021A000EF92FF920F931F93CF93DF93CDB7DEB7DC
:1021B0006E970FB6F894DEBF0FBECDBF6C015B010A
:1021C0007A014901380100E02FEF4FEF6FEFCE01A8
:1021D00049960E949E0B40E952E05A8349838B8DB9
:1021E0009C8DAD8DBE8D8B839C83AD83BE835887C4
:1021F0004F83F30182819381A481B58189879A8776
:10220000AB87BC875E874D87F40182819381A4816F
:10221000B5818F87988BA98BBA8B5C8B4B8BF70121
:1022200042815381648175814D8B5E8B6F8B788F7A
:10223000EE24E394F12CEC0EFD1E8E01095F1F4F7E
:102240009E01235F3F4FAE014D5E5F4FB501C6015A
:102250000E9483106E960FB6F894DEBF0FBECDBFFE
:10226000DF91CF911F910F91FF90EF90DF90CF9072
:10227000BF90AF909F908F907F906F900895CF9276
:10228000DF92EF92FF920F931F93CF93DF93CDB71F
:10229000DEB768970FB6F894DEBF0FBECDBF6B01F7
:1022A0007901DA0112964D915D916D917C911597AE
:1022B0004D8B5E8B6F8B788FA0E9B2E0BA83A983D8
:1022C00021E0288F0D891E892F89388D0B831C836F
:1022D0002D833E83B887AF83F70102811381248168
:1022E000358109871A872B873C87BE87AD874F8743
:1022F000588B698B7A8B8E010F5F1F4F9E01295F70
:102300003F4FAE01435F5F4FB6010E94C810689611
:102310000FB6F894DEBF0FBECDBFDF91CF911F91F6
:102320000F91FF90EF90DF90CF900895CF93DF93C0
:10233000EC010E94940BBE016E5F7F4F44E050E0C1
:102340008FE090E00E943817CE01DF91CF91089581
:1023500020E932E0FC0131832083FB01428153817B
:1023600064817581FC01428353836483758308957E
:102370000F9300E020E040E060E08DE394E00E94F5
:102380009E0B8DE294E00F910C94940BDC01ED9187
:10239000FC91008CF18DE02D099420E932E0FC01E4
:1023A00031832083FB014189528963897489FC014F
:1023B00042835383648375830895FC0185899689DC
:1023C0000895FC01818D928D0895CF93DF931F9224
:1023D000CDB7DEB76983DC01ED91FC910280F3811A
:1023E000E02D41E050E0BE016F5F7F4F09950F90F7
:1023F000DF91CF910895CF93DF93EC0107C0E8817F
:10240000F9810680F781E02DCE010995898D9A8D9D
:10241000892BA9F7DF91CF910895CF93DF931F9276
:10242000CDB7DEB7FC01218D328D232B49F0BE01E3
:102430006F5F7F4F84850E941815298130E002C0AC
:102440002FEF3FEFC9010F90DF91CF910895CF9308
:10245000DF93EC01898D9A8D009719F42FEF3FEFF0
:1024600011C04817590708F0AC018C850E94D91497
:102470009C011816190694F7898D9A8D821B930B6F
:102480009A8F898FC901DF91CF9108950F931F9380
:10249000CF93DF931F92CDB7DEB78C01FC01818D06
:1024A000928D892B59F041E050E0BE016F5F7F4F64
:1024B00084850E94D914181619061CF02FEF3FEFDF
:1024C00008C0F801818D928D0197928F818F2981AB
:1024D00030E0C9010F90DF91CF911F910F910895C6
:1024E000CF93DF93EC019A018F89988DAB01BC01EA
:1024F0008C850E9426159C018F89988D820F931FD1
:10250000988F8F8BC901DF91CF910895FC0184854D
:102510000C948215FC01108E178A6E5F7F4F8485A4
:102520000C945C15CF93DF93EC018C85843061F0C3
:102530000E94FB13EC85F0E0EE0FFF1FEB5CFB4FFE
:102540001182108284E08C87DF91CF9108950F93E0
:102550001F93CF93DF93CDB7DEB728970FB6F894CC
:10256000DEBF0FBECDBF8C01DC01ED91FC9102847A
:10257000F385E02D0995F80164858BE494E00E94D1
:10258000EC16892B29F148E050E0BE016F5F7F4FC8
:10259000D8011C968C910E94D9149C01181619061A
:1025A000CCF4BE016F5F7F4FC8010F960E94BA0B3B
:1025B0009D8180E02E81820F911DF801968B858B85
:1025C0003F8120E08885280F311D328F218F02C086
:1025D00020E030E0C90128960FB6F894DEBF0FBEA8
:1025E000CDBFDF91CF911F910F910895CF92DF92D0
:1025F000EF92FF920F931F93CF93DF93EC016B0148
:102600008C85843019F593E0E92E94E0F92E00E0F2
:1026100010E0C7010E943F16811102C00C8708C05C
:102620008831E1F30F5F1F4FF3940430110589F7F0
:102630008C85843059F0DE86CD861A8E198E20E086
:10264000A60162E00E94091481E001C080E0DF91F0
:10265000CF911F910F91FF90EF90DF90CF90089551
:10266000FC011382128248EE53E060E070E0448384
:1026700055836683778382EB92E09183808384E045
:102680008487CF010F960C94940BCF92DF92EF9238
:10269000FF920F931F93CF93DF93CDB7DEB7E597EC
:1026A0000FB6F894DEBF0FBECDBF7C018B016A016F
:1026B000CE0101960E94940BCE0109960E94301320
:1026C000CE01C0960E94940B6DE274E0CE018A9612
:1026D0000E94A811BE01665D7F4FCE0101960E9447
:1026E000411DAE01405D5F4FB801CE0101960E94D1
:1026F000A51F9C0181309105C9F4D701ED91FC9192
:102700000088F189E02D80E992E09DA38CA30AA9BD
:102710001BA92CA93DA90EA31FA328A739A7A60171
:10272000BE016C5D7F4FC70109959C01C901E5960B
:102730000FB6F894DEBF0FBECDBFDF91CF911F91D2
:102740000F91FF90EF90DF90CF9008950F9300E0EE
:1027500020E040E060E083E494E00E949E0B0F9153
:102760000895382F20E044E050E0C901845F9B4F7A
:102770000C941016282F30E02C5F3F4F922F8827A3
:10278000860F971F0C943F1662E070E00C94BA130A
:10279000FB01282F30E02C5F3F4F922F8827642FBA
:1027A0008E0F9F1F0C94B015462F62E070E00C94C2
:1027B000C813CF93DF93C82FD62F472F60E170E067
:1027C0000E94C8134D2F61E170E08C2FDF91CF91F3
:1027D0000C94C813CF93DF93C82FD62F472F64E0F4
:1027E00070E00E94C8134D2F65E070E08C2FDF91E0
:1027F000CF910C94C813CF93C82F40E150E0682FBD
:102800008BE494E00E94F0176FEF8C2FCF910C9423
:10281000D413EF92FF921F93CF93DF9300D0CDB7E5
:10282000DEB7182F7A01862F8150853048F5812F29
:102830002A8369830E94FB132A816981422F462BD8
:1028400060E070E0812F0E94C813E114F10411F0E0
:10285000B7010AC06091490470914A046F5F7F4FCD
:1028600070934A0460934904812F0E94EA1341E067
:1028700050E0612F8BE494E00E94F01781E001C0EA
:1028800080E00F900F90DF91CF911F91FF90EF901C
:1028900008951F93CF93DF93182FFB01EA018081E6
:1028A0008F3F51F481818F3F91F482818F3F79F482
:1028B00083818F3F61F41EC0811109C08181811124
:1028C00006C08281811103C08381882399F02097FB
:1028D00089F0BF01812F0E94B113BE01812F0E9498
:1028E000D91344E050E0612F8BE494E00E94F0178C
:1028F00081E001C080E0DF91CF911F91089548E011
:1029000050E0682F8BE494E00C94F017DF92EF9284
:10291000FF920F931F93CF93DF93D82E8B01EA0181
:10292000413088E0580710F0C0E0D8E06D2D8BE40E
:1029300094E00E941C177C0163E070E08D2D0E94E2
:10294000BA13873111F08C3121F4EC16FD0670F3C7
:1029500002C0C0E0D0E09E01A8016D2D8BE494E0A0
:102960000E94CD1640E250E06D2D8BE494E00E9471
:10297000F0170DC063E070E08D2D0E94BA13811135
:1029800006C08D2D0E94FB13C0E0D0E009C08D2D44
:102990000E94C41384FFEECF60E18D2D0E94D413FA
:1029A000CE01DF91CF911F910F91FF90EF90DF90BB
:1029B0000895DF92EF92FF920F931F93CF93DF93CF
:1029C000D82E7B018A01682F8BE494E00E94EC16DC
:1029D000EC01009771F463E070E08D2D0E94BA1352
:1029E0008431E9F08823D9F08C31C9F0CFEFDFEFE3
:1029F00016C0081719070CF4E8011C161D067CF414
:102A000000E09E01A7016D2D8BE494E00E94A017C9
:102A100040E450E06D2D8BE494E00E94F017CE016D
:102A2000DF91CF911F910F91FF90EF90DF9008956C
:102A30000F93AB0101E021E030E0682F8BE494E0DC
:102A40000E94A01781E090E00F910895AF92BF928D
:102A5000CF92DF92EF92FF920F931F93CF93DF936A
:102A6000B82E7B016A01E901682F8BE494E00E9493
:102A70001C178C179D0740F46B2D8BE494E00E948B
:102A80001C17A82EC92F02C0AC2ECD2F0A2D1C2F2B
:102A90009601A7016B2D8BE494E00E945F168A2DAE
:102AA0009C2FDF91CF911F910F91FF90EF90DF90BE
:102AB000CF90BF90AF9008951F93CF93DF93182FBF
:102AC000FB01EA018081811109C08181811106C069
:102AD0008281811103C08381882369F0209759F096
:102AE000BF01812F0E94B113BE01812F0E94D91313
:102AF00021E030E002C020E030E0C901DF91CF9159
:102B00001F910895CF93C82F40E250E0682F8BE4C7
:102B100094E00E94F0170CC08C2F0E94C41383FF16
:102B200007C068E18C2F0E94D41320E030E00BC076
:102B30008C2F0E94C41384FFEFCF60E18C2F0E9482
:102B4000D41321E030E0C901CF9108958EBD0DB4BA
:102B500007FEFDCF8EB508952A9808952A9A089504
:102B60001F93CF93DF9300D0CDB7DEB7182F6A83C2
:102B700099830E94AC1580EF0E94A6159981892F38
:102B80000E94A615812F0E94A6156A81862F0E9499
:102B9000A6150E94AE1581E00F900F90DF91CF91A6
:102BA0001F910895CF93DF93EC016CE271E080E018
:102BB00090E00E947C080E940018229A60E880E061
:102BC00090E00E94B01565E58BE190E00E94B015A1
:102BD00065E58AE190E00E94B01580E090E4998379
:102BE000888380E090E69987888780E098E49B83DB
:102BF0008A8380E098E69B878A8780E090E59D83C2
:102C00008C8380E090E79D878C8780E098E59F83A8
:102C10008E8380E098E79F878E87DF91CF9108951C
:102C2000CF92DF92EF92FF920F931F93CF93DF9398
:102C3000EC017A018B016A01C80ED91E13C00E94F3
:102C4000AC1580EF0E94A6158D2F0E94A6158C2F23
:102C50000E94A6152196F80181918F010E94A61568
:102C60000E94AE15CC15DD0551F7C701DF91CF915C
:102C70001F910F91FF90EF90DF90CF9008951F93D9
:102C8000CF93DF931F92CDB7DEB7182F99830E94A1
:102C9000AC158FE00E94A6159981892F0E94A61578
:102CA000812F0E94A61580E00E94A61589830E94AC
:102CB000AE1589810F90DF91CF911F9108956F928A
:102CC0007F929F92AF92BF92CF92DF92EF92FF924C
:102CD0000F931F93CF93DF931F92CDB7DEB7F82EDC
:102CE000962E3A01590164E270E0892D99830E9481
:102CF000BA13E82E65E270E0892D0E94BA13DE2C2B
:102D0000C12CC82AC60CD71C960137706F2C99812C
:102D1000792E690C711C690C711CD301ED91FC9129
:102D2000E20FF31FC901800F911F81309840A0F07E
:102D3000E12C48E0F42EE21AF30AA701B501CF0115
:102D40000E941016A8014E195F09B5016E0D7F1D76
:102D5000F3018081918103C0A801B501CF010E94D8
:102D600010160C0D1D1D412F64E270E0892D0E948C
:102D7000C813402F65E270E0892D0F90DF91CF914D
:102D80001F910F91FF90EF90DF90CF90BF90AF9089
:102D90009F907F906F900C94C8130F931F9389019D
:102DA0009A0140E050E00E945F161F910F91089534
:102DB000CF93DF93C82F66E270E00E94BA13D82F3A
:102DC00067E270E08C2F0E94BA133D2F20E0282B81
:102DD000C901DF91CF910895FF920F931F93CF9375
:102DE000DF93F62EC0E0D0E08F2D0E94D8168C0124
:102DF000009721F08F2D0E94D816EC01C017D10743
:102E000099F7CE01DF91CF911F910F91FF90089517
:102E1000CF93DF93C82F60E270E00E94BA13D82FDF
:102E200061E270E08C2F0E94BA133D2F20E0282B26
:102E3000C901DF91CF910895FF920F931F93CF9314
:102E4000DF93F62EC0E0D0E08F2D0E9408178C0192
:102E5000009721F08F2D0E940817EC01C017D107B1
:102E600099F7CE01DF91CF911F910F91FF900895B7
:102E7000CF92DF92EF92FF920F931F93CF93DF9346
:102E8000EC017A018B016A01C80ED91E14C00E94A0
:102E9000AC158FE00E94A6158D2F0E94A6158C2FD1
:102EA0000E94A615219680E00E94A615F801819344
:102EB0008F010E94AE15CC15DD0549F7C701DF91E2
:102EC000CF911F910F91FF90EF90DF90CF900895D9
:102ED000CF92DF92EF92FF920F931F93CF93DF93E6
:102EE00069015770EC01C60FD11DC60FD11D289680
:102EF00088819981840F951F9801240F351F2130F7
:102F0000384090F0E12C68E0F62EE41AF50AA701AB
:102F1000B6010E943817A8014E195F09B6016E0D5F
:102F20007F1D8881998102C0A801B601DF91CF91F0
:102F30001F910F91FF90EF90DF90CF900C94381776
:102F40008F929F92AF92BF92CF92DF92EF92FF92B9
:102F50000F931F93CF93DF936C01962E5A01E901D3
:102F6000802E68E270E0892D0E94BA13F82E69E283
:102F700070E0892D0E94BA13FF2DE0E07F01E82A5E
:102F80008E019501A701692DC6010E946817811065
:102F90001AC0CE0DDF1D4D2F68E270E0892D0E9412
:102FA000C8134C2F69E270E0892DDF91CF911F91FA
:102FB0000F91FF90EF90DF90CF90BF90AF909F90D8
:102FC0008F900C94C813DF91CF911F910F91FF90B8
:102FD000EF90DF90CF90BF90AF909F908F9008952B
:102FE000CF93C62F61E070E08C2F0E94C81361E080
:102FF00070E08C2F0E94BA138111F9CFCF91089500
:1030000061E08DE00E94070961E08BE00E94070902
:1030100061E08AE00E94070960E08DE00E943F09BC
:1030200060E08BE00E943F0961E08AE00E943F0976
:103030008CB580618CBD8CB580648CBD08950E9676
:10304000FC0184E1DF011D928A95E9F708952F9232
:103050003F924F925F926F927F928F929F92AF9228
:10306000BF92CF92DF92EF92FF920F931F93CF9375
:10307000DF93CDB7DEB7E4970FB6F894DEBF0FBE8F
:10308000CDBF7C012A013B0169010E9440084B0130
:103090005C018701095B1F4F12C00E94400868193C
:1030A00079098A099B09461657066806790608F4C5
:1030B00077C162E370E080E090E00E947C08C80184
:1030C0000E94A7121816190644F742E250E0BE010A
:1030D0006F5F7F4FC8010E9427128981823009F0FB
:1030E0005AC1F801858996898334910509F45BC139
:1030F00052C1F70180819181A281B381881699061E
:10310000AA06BB0648F084819581A681B7818815FF
:103110009905AA05BB0528F4C8010E94FB11512C92
:103120005CC189899A89AB89BC89F70186879787B1
:10313000A08BB18B8EECC82ED12CC8010E944612F8
:10314000F1E0CF1AD108C9F7512CC70182969AA78E
:1031500089A7F701B696FCA7EBA7C7018A969EA799
:103160008DA7F701E85AFF4FF8ABEFA76701FAE127
:10317000CF0ED11CC70142969AAB89AB570196E19D
:10318000A90EB11CF7017E96FCABEBABFCC0C801ED
:103190000E9446128333910509F4CCC07CF481303F
:1031A000910549F124F4892B09F4EDC0DDC0833089
:1031B000910549F1069709F0D7C040C08A339105BF
:1031C00009F48CC03CF48533910569F0C69709F089
:1031D000CBC050C08B33910509F496C08F3F910549
:1031E00009F0C2C0D0C0C8010E944612C8010E94A6
:1031F0004612582EC8C0C8010E94461244E050E052
:1032000069A97AA947C0C8010E9446123C0144E05E
:1032100050E0B501C8010E942712212C312C7724DF
:10322000F4E06F1A710806C0C8010E9446128FEFC1
:10323000281A380A26143704BCF3A5C0C8010E9416
:1032400046123C0144E050E06BA97CA9C8010E94F1
:103250002712212C312C772494E0691A710806C0BA
:10326000C8010E944612EFEF2E1A3E0A26143704B8
:10327000BCF389C0C8010E944612482EF701828D16
:10328000938DA48DB58D892B8A2B8B2B39F444E03B
:1032900050E0B601C8010E94271275C0EFA5F8A939
:1032A0006080718082809380B601CE0183960E94F7
:1032B000AA0B8DA19EA1AFA1B8A586159705A8055B
:1032C000B90529F3212C312C06C0C8010E944612F1
:1032D000FFEF2F1A3F0A4210F8CF55C0C8010E94D5
:1032E000461244E050E06BA57CA5C8010E9427125D
:1032F000F70166A177A180A591A50E94C62466A3C7
:1033000077A380A791A73FC0C8010E94461244E05E
:1033100050E06DA57EA5C8010E942712F70162A5A5
:1033200073A584A595A50E94C62462A773A784A748
:1033300095A729C0C8010E94461244E050E069A543
:103340007AA5C8010E942712F70162A173A184A186
:1033500095A10E94C62462A373A384A395A366A724
:1033600077A780AB91AB0FC0C8010E944612382EE0
:10337000612C712C06C0C8010E944612FFEF6F1A23
:103380007F0A3610F8CFC8010E94E11118161906FD
:103390000CF4FDCE01C0512CC8010E94FB111DC0D0
:1033A00055245A941AC06D817E818F8198850E9420
:1033B000C6244B015C01F601608371838283938391
:1033C000B701685F7F4F46E050E0CE014D960E9406
:1033D0002B22009709F48DCE9FCE852DE4960FB653
:1033E000F894DEBF0FBECDBFDF91CF911F910F913B
:1033F000FF90EF90DF90CF90BF90AF909F908F9015
:103400007F906F905F904F903F902F900895CF9353
:10341000DF93EC01625F7F4F0E94AA0BCE01DF9128
:10342000CF910895CF93DF93EC016E5E7F4F0E94A2
:10343000AA0BCE01DF91CF910895CF93DF93EC01DA
:103440006A5E7F4F0E94AA0BCE01DF91CF91089553
:10345000CF93DF93EC01625E7F4F0E94AA0BCE01F7
:10346000DF91CF91089580E3FB0180833296842F12
:1034700082958F7090E1899F401911244A3014F48D
:10348000405D01C0495C4293482F8111F0CF0895FF
:103490006F927F928F929F92AF92BF92CF92DF9264
:1034A000EF92FF920F931F93CF93DF93CDB7DEB7C9
:1034B000AC970FB6F894DEBF0FBECDBF7C01862E51
:1034C000B42EA52E30E2932ECC24C394D12CCC0E56
:1034D000DD1EF601292D11922A95E9F70FEF2FEF46
:1034E0004FEF6FEFCE0187960E949E0B80E992E02E
:1034F0009AA389A389A59AA5ABA5BCA58BA39CA3D8
:10350000ADA3BEA38701095B1F4F43E450E0BE019A
:103510006F5D7F4FC8010E948A12019609F4C1C0F5
:1035200081E089838A8396E0792E7B821C82F70171
:1035300064817581868197810E94C6246D837E8314
:103540008F839887A986BA8680E890E09C878B87CE
:103550004CE150E0B601C8010E947012F601292D1D
:1035600011922A95E9F7570188E0A80EB11CF501E0
:10357000D60101900D927A94E1F740E150E0B60156
:10358000C8010E947012F60111929A94E9F726E0A0
:10359000622E712C40E250E0B601C8010E94701208
:1035A000F1E06F1A7108B1F783E6898392E89A8394
:1035B00093E59B838C8385E38D8381E08E838F826B
:1035C0009DE3988797E099878A8786E0F501DE0179
:1035D0001B9601900D928A95E1F78CE0898B8A8B7E
:1035E00062ED72E0CE0143960E943822F7014385D6
:1035F000BE01675E7F4FC7010E94331AF701448501
:10360000BE01655E7F4FC7010E94331AF7014585F1
:10361000BE01635E7F4FC7010E94331A4EE150E046
:10362000B601C8010E947012F3E08F121EC082E33F
:10363000898384E08A83F70196859B8397859C83A1
:1036400090899D8391899E8396E39F838887828D4D
:103650008987838D8A87848D8B87858D8C874CE0C5
:1036600050E0B601C8010E94701287E3898386E0AA
:103670008A8391E09B8393E09C838D838FE08E838C
:103680008AE38F838BE388878FEF898749E050E057
:10369000BE016F5F7F4FC8010E947012C8010E9477
:1036A0008612AC960FB6F894DEBF0FBECDBFDF9189
:1036B000CF911F910F91FF90EF90DF90CF90BF902F
:1036C000AF909F908F907F906F9008952F923F9230
:1036D0004F925F926F927F928F929F92AF92BF9222
:1036E000CF92DF92EF92FF920F931F93CF93DF93CE
:1036F000CDB7DEB728970FB6F894DEBF0FBECDBFAB
:103700008C0120ED37E040E050E061E070E080E0C7
:1037100090E00E947520D80114966C93149715962A
:103720007C93159716968C93169717969C931797DC
:103730006C9311967C93119712968C931297139613
:103740009C93F801E95BFF4FFE83ED8364E470E036
:10375000CF010E94F612882309F427C10E94400875
:103760006B017C01812C912C312C5801F6E4AF0EB9
:10377000B11CC801CE9698878F8338EE432E33E074
:10378000532E612C712C42E0242EF9C081111FC0F0
:10379000F80184819581A681B7810196A11DB11D93
:1037A00084839583A683B7830E9440086C197D09A2
:1037B0008E099F09A30192010E946D24A90161E075
:1037C000C8010E94481A81E0D5018C93BCC08430A6
:1037D000F1F4F80184819581A681B7810196A11D3C
:1037E000B11D84839583A683B7830E9440086C191A
:1037F0007D098E099F09A30192010E946D24A901F0
:1038000063E0C8010E94481AD5012C929CC0813007
:1038100059F5EF81F88540815181628173819E0164
:103820002F5F3F4FC8010E942718382EF2E08F13F8
:103830008AC089819A81AB81BC81F8018483958398
:10384000A683B7830E9440086C197D098E099F09E1
:10385000A30192010E946D24A90163E0C8010E94A6
:10386000481AD5013C9275C0823009F06CC0EF81D6
:10387000F88540815181628173819E012F5F3F4FA6
:10388000C8010E942718382EF5E08F1356C0E3E0D8
:10389000D501EC93F80182A193A1A4A1B5A1892B34
:1038A0008A2B8B2B41F484E893E0A0E0B0E082A364
:1038B00093A3A4A3B5A3F80186A197A1A0A5B1A540
:1038C000892B8A2B8B2B61F482A193A1A4A1B5A192
:1038D000B695A7959795879586A397A3A0A7B1A717
:1038E000D8019A964D915D916D917C919D97969698
:1038F0008D919D910D90BC91A02D452B462B472B72
:1039000059F4AC01BD01440F551F661F771FF80124
:1039100042A753A764A775A7F80186A797A7A0ABEE
:10392000B1AB82A593A5A4A5B5A582AB93ABA4AB7F
:10393000B5AB88248394912C0CC0F6E08F1303C0A0
:10394000D5011C9206C0BFEF3B1203C0F5011082E7
:10395000312CF1E08F16910491F00E9440086C190F
:103960007D098E099F09D801DA962D913D914D91DF
:103970005C91DD97261737074807590728F0F501AE
:103980008081833009F002CF8D819E810E94921246
:10399000F80184819581A681B7810196A11DB11D91
:1039A00084839583A683B78302C0812C912CC401A4
:1039B00028960FB6F894DEBF0FBECDBFDF91CF9132
:1039C0001F910F91FF90EF90DF90CF90BF90AF903D
:1039D0009F908F907F906F905F904F903F902F902F
:1039E0000895CF92DF92EF92FF920F931F93CF93A0
:1039F000DF93EC016B011AA21BA21CA21DA21EA246
:103A00001FA218A619A61AA61BA61CA61DA61EAAAA
:103A10001FAA18AE19AE2AAF3BAF4CAF5DAFFC0189
:103A2000FE96E082F182028313838C01085F1F4FB0
:103A300086E0F80111928A95E9F7CE010E941F18DD
:103A400086E0F601D80101900D928A95E1F7FE011A
:103A5000EA5BFF4F1082CE01DF91CF911F910F9152
:103A6000FF90EF90DF90CF900C94661B0F9300E0D7
:103A700020E040E060E08BE594E00E949E0B0F9117
:103A80000895FB014281538164817581FC01428369
:103A9000538364837583178216820895CF93FB0145
:103AA000DB018D918111FDCF80E090E020E030E0DE
:103AB000CAE01BC08F3F910509F064F5DA01A20F3F
:103AC000B31F12968C932F5F3F4F80E090E00DC0A4
:103AD000DC01CA9FC001CB9F900D1124772767FDA1
:103AE000709560537109860F971F6191662321F0CD
:103AF0002430310594F00EC08F3F910509F054F445
:103B0000243031053CF4FA01E20FF31F828321E0F7
:103B100030E006C020E030E003C06E32C9F6CACF04
:103B2000C901CF910895AF92BF92CF92DF92EF92E9
:103B3000FF920F931F93CF93DF9300D01F92CDB7C7
:103B4000DEB77C015B010E944008F7017783668342
:103B50008701085F1F4FB7016A5F7F4F42E050E067
:103B6000C8010E94701281E090E09A83898342E04C
:103B700050E0BE016F5F7F4FC8010E94701280E06D
:103B800091E09A83898342E050E0BE016F5F7F4FEE
:103B9000C8010E9470121A82198242E050E0BE01F0
:103BA0006F5F7F4FC8010E94701242E050E0BE017B
:103BB0006F5F7F4FC8010E94701242E050E0BE016B
:103BC0006F5F7F4FC8010E9470127501650121C0AF
:103BD000F6017F018191811107C05701AC18BD0822
:103BE0001A141B0424F011C08E3299F7F6CFAB8261
:103BF00041E050E0BE016D5F7F4FC8010E9470122E
:103C0000A501B601C8010E9470126701FFEFCF1A2B
:103C1000DF0AF70180818111DBCF1B8241E050E098
:103C2000BE016D5F7F4FC8010E947012E12CFF241E
:103C3000F394FA82E98242E050E0BE016F5F7F4F69
:103C4000C8010E947012FA82E98242E050E0BE018F
:103C50006F5F7F4FC8010E94701281E090E00F906B
:103C60000F900F90DF91CF911F910F91FF90EF90E8
:103C7000DF90CF90BF90AF9008954F925F926F9278
:103C80007F928F929F92AF92BF92CF92DF92EF92EC
:103C9000FF920F931F93CF93DF93CDB7DEB7639758
:103CA0000FB6F894DEBF0FBECDBF7C015B016A0189
:103CB0000E9440082B013C018701085F1F4F45010E
:103CC000A12CB12C12C00E94400864197509860904
:103CD000970986169706A806B90608F40FC162E38D
:103CE00070E080E090E00E947C08C8010E94A7126A
:103CF0001816190644F7F7014281538164817581D2
:103D0000818D928DA38DB48D481759076A077B0763
:103D100009F0F7C0858D968DC59709F0F2C0F7C000
:103D20004CE050E0BE016F5F7F4FC8010E94271238
:103D30008B819C819827892798279A8B898BF701FB
:103D40004681578129813A814217530711F497FD23
:103D500006C0C8010E94FB112CEF3FEFDEC08F7040
:103D60009270892B31F0C8010E94FB112BEF3FEFBD
:103D7000D4C08F8098849824892498248114910435
:103D800079F5C8010E94FB112AEF3FEFC6C041E060
:103D900050E0BE01635F7F4FC8010E9427128D85EE
:103DA000811107C08D858111F2CF0AC0C8010E9420
:103DB00046128D85982F91509D878111F7CFF2CFB4
:103DC000C8010E944612C8010E944612C8010E9402
:103DD0004612C8010E944612FFEFEF1AFF0A02C006
:103DE000E12CF12C8D819E81982789279827E81650
:103DF000F90668F2A12CB12C41E050E0BE016D5EE5
:103E00007F4FC8010E9427128B89982F907C69F4FC
:103E1000811104C00EC0C8010E9446128B89982FE0
:103E200091509B8B8111F7CF04C0C8010E944612AC
:103E30001B8A8B898111E0CF42E050E0BE01615FB7
:103E40007F4FC8010E94271242E050E0BE01635F2D
:103E50007F4FC8010E942712C8010E944612C80164
:103E60000E944612C8010E944612C8010E944612D2
:103E700042E050E0BE016F5E7F4FC8010E942712F2
:103E80008F8598898115914011F58D859E858115C5
:103E90009140E9F489899A898115944031F0C801EB
:103EA0000E94FB1127EF3FEF38C0B6016E5F7F4FD6
:103EB00044E050E0C8010E94271221E030E02DC00C
:103EC000C8010E9446122FEFE21AF20A02C0E12C4A
:103ED000F12C89899A89982789279827E816F90665
:103EE00078F38FEFA81AB80AA814B90409F084CFA0
:103EF000C8010E94FB1126EF3FEF0FC02FEF3FEFED
:103F00000CC02EEF3FEF09C02DEF3FEF06C0C801F8
:103F10000E94E1110C97C4F303CFC90163960FB659
:103F2000F894DEBF0FBECDBFDF91CF911F910F91EF
:103F3000FF90EF90DF90CF90BF90AF909F908F90C9
:103F40007F906F905F904F9008958F929F92AF9265
:103F5000BF92CF92DF92EF92FF920F931F93CF9376
:103F6000DF9300D000D000D0CDB7DEB78C015B016D
:103F70006A010E944E1D892B09F051C0F80142814F
:103F80005381648175818091630490916404A09150
:103F90006504B0916604481759076A077B0709F45E
:103FA00042C00E9440087801F8E0EF0EF11C6F70EB
:103FB0007727882799277C5FC7010E94F6128130F6
:103FC000B9F580E992E09A838983F801828193812F
:103FD000A481B5818B839C83AD83BE8345E350E090
:103FE000BE016F5F7F4FC7010E948A12892B19F4AF
:103FF000A12CB12C10C0B501C8010E94931D892BC2
:10400000B9F3C7010E948612892BA9F4F1CFFFEF03
:10401000AF16BF0699F0C7010E9492121BC0AA24D6
:10402000A394B12C17C02EEFA22EBB24BA9412C0B9
:10403000A12CB12C0FC093E0892E912CA60168E829
:1040400073E1C8010E943D1E5C0121E0821A9108C3
:1040500011F3DDCFC50126960FB6F894DEBF0FBE73
:10406000CDBFDF91CF911F910F91FF90EF90DF9027
:10407000CF90BF90AF909F908F9008950F9300E0E6
:1040800020E040E060E081E694E00E949E0B0F910A
:1040900008950F931F93CF93DF9300D000D0CDB737
:1040A000DEB79B01AC01611571058105910579F0C1
:1040B00069833A834B835C830E941A2229813A8167
:1040C0004B815C810E948F248B019C0103C000E026
:1040D00010E09801B801C9010F900F900F900F9058
:1040E000DF91CF911F910F910895CF92DF92EF92C0
:1040F000FF926B017C01621773078407950764F4D4
:10410000CA01B9016C197D098E099F090E944920D5
:10411000C60ED71EE81EF91EB601C701FF90EF902C
:10412000DF90CF9008950F931F93CF93DF9382304A
:10413000910510F482E090E0E0916904F0916A0446
:1041400020E030E0C0E0D0E023C04081518148173A
:104150005907A8F04817590761F482819381209785
:1041600019F09B838A832EC090936A04809369041C
:1041700029C02115310529F04217530710F0A90174
:1041800002C0BE01DF0102811381EF019A01F80133
:104190003097D9F62115310509F1281B390B243048
:1041A000310590F412968D919C91139761157105CC
:1041B00021F0FB019383828304C090936A0480936F
:1041C0006904FD01329644C0FD01E20FF31F8193A3
:1041D0009193225031092D933C933AC0209167046A
:1041E00030916804232B41F42091020130910301A6
:1041F00030936804209367042091000130910101FD
:104200002115310541F42DB73EB74091040150917D
:104210000501241B350BE0916704F0916804E21757
:10422000F307A0F42E1B3F0B2817390778F0AC01D9
:104230004E5F5F4F2417350748F04E0F5F1F5093B6
:104240006804409367048193919302C0E0E0F0E03A
:10425000CF01DF91CF911F910F910895EF92FF92BF
:104260000F931F93CF93DF93009709F48EC0DC0167
:10427000129713961C921E921297E0906904F09088
:104280006A04E114F10489F42D913C911197280FEF
:10429000391F80916704909168048217930789F50C
:1042A000B0936804A093670470C0E70120E030E099
:1042B00001C0EA01CA17DB0738F44A815B819E011D
:1042C00041155105B1F722C0AC0142505109FA0124
:1042D000D383C28300811181BC01600F711F6C17F1
:1042E0007D0761F468817981600F711F6E5F7F4F78
:1042F000718360836A817B817383628321153105B9
:1043000029F4B0936A04A09369043FC0F901B38310
:10431000A283E90149915991C40FD51FAC17BD077C
:1043200071F4DC019E918E91840F951F029691830A
:10433000808312968D919C91139793838283A0E042
:10434000B0E002C0D7017C01F70182819381009720
:10435000C9F7C701029620813181820F931F2091F6
:104360006704309168042817390779F4109729F405
:1043700010926A041092690404C013961C921E9253
:104380001297F0926804E0926704CDB7DEB7E6E0DA
:104390000C94B7248F929F92AF92BF92CF92DF92EC
:1043A000EF92FF92CF93DF93EC01688179818A814C
:1043B0009B81611571058105910521F464E279ED18
:1043C0008BE597E02DE133EF41E050E00E948F2430
:1043D00049015A019B01AC01A7EAB1E40E945A24A9
:1043E0006B017C01ACEEB4EFA50194010E9468243E
:1043F000C60ED71EE81EF91EF7FE06C081E0C81AD9
:10440000D108E10880E8F80AC882D982EA82FB82F2
:10441000E894F7F8B601C701DF91CF91FF90EF90D4
:10442000DF90CF90BF90AF909F908F9008950E94A3
:10443000CA21089586E091E00E94CA210895609300
:104440000601709307018093080190930901089574
:10445000F8940C94DF24FB01DC0104C08D910190E1
:10446000801921F441505040C8F7881B990B0895DA
:10447000FB01DC0101900D920020E1F708955058F6
:10448000BB27AA270ED075C166D130F06BD120F0C2
:1044900031F49F3F11F41EF45BC10EF4E095E7FB8D
:1044A00051C1E92F77D180F3BA17620773078407E8
:1044B000950718F071F49EF58FC10EF4E0950B2E60
:1044C000BA2FA02D0B01B90190010C01CA01A00166
:1044D0001124FF27591B99F0593F50F4503E68F1C1
:1044E0001A16F040A22F232F342F4427585FF3CF02
:1044F000469537952795A795F0405395C9F77EF4D3
:104500001F16BA0B620B730B840BBAF09150A1F01B
:10451000FF0FBB1F661F771F881FC2F70EC0BA0FA1
:10452000621F731F841F48F4879577956795B79529
:10453000F7959E3F08F0B3CF9395880F08F0992721
:10454000EE0F979587950895D9D008F481E00895E6
:104550000CD00FC107D140F0FED030F021F45F3F06
:1045600019F0F0C0511139C1F3C014D198F3992357
:10457000C9F35523B1F3951B550BBB27AA27621727
:104580007307840738F09F5F5F4F220F331F441F6C
:10459000AA1FA9F333D00E2E3AF0E0E830D09150A4
:1045A0005040E695001CCAF729D0FE2F27D0660F91
:1045B000771F881FBB1F261737074807AB07B0E8D0
:1045C00009F0BB0B802DBF01FF2793585F4F2AF0E6
:1045D0009E3F510568F0B6C000C15F3FECF3983EC6
:1045E000DCF3869577956795B795F7959F5FC9F743
:1045F000880F911D9695879597F90895E1E0660FCC
:10460000771F881FBB1F621773078407BA0720F044
:10461000621B730B840BBA0BEE1F88F7E0950895AD
:1046200004D06894B111D9C00895BCD088F09F57C8
:1046300090F0B92F9927B751A0F0D1F0660F771FEE
:10464000881F991F1AF0BA95C9F712C0B13081F0CE
:10465000C3D0B1E00895C0C0672F782F8827B85F16
:1046600039F0B93FCCF3869577956795B395D9F72F
:104670003EF490958095709561957F4F8F4F9F4F39
:104680000895E89409C097FB3EF490958095709545
:1046900061957F4F8F4F9F4F9923A9F0F92F96E98E
:1046A000BB279395F695879577956795B795F11103
:1046B000F8CFFAF4BB0F11F460FF1BC06F5F7F4FA0
:1046C0008F4F9F4F16C0882311F096E911C07723B2
:1046D00021F09EE8872F762F05C0662371F096E8BB
:1046E000862F70E060E02AF09A95660F771F881F8A
:1046F000DAF7880F9695879597F90895990F00082E
:10470000550FAA0BE0E8FEEF16161706E807F907A3
:10471000C0F012161306E407F50798F0621B730B3E
:10472000840B950B39F40A2661F0232B242B252BBF
:1047300021F408950A2609F4A140A6958FEF811D62
:10474000811D089597F99F6780E870E060E0089503
:104750009FEF80EC089500240A9416161706180699
:104760000906089500240A94121613061406050675
:104770000895092E0394000C11F4882352F0BB0F06
:1047800040F4BF2B11F460FF04C06F5F7F4F8F4F69
:104790009F4F089557FD9058440F551F59F05F3FA4
:1047A00071F04795880F97FB991F61F09F3F79F053
:1047B00087950895121613061406551FF2CF4695D5
:1047C000F1DF08C0161617061806991FF1CF869557
:1047D0007105610508940895E894BB27662777273B
:1047E000CB0197F908958ADF08F48FEF08950BD075
:1047F000C0CFB1DF28F0B6DF18F0952309F0A2CFC3
:10480000A7CF1124EACFC6DFA0F3959FD1F3950F70
:1048100050E0551F629FF001729FBB27F00DB11D44
:10482000639FAA27F00DB11DAA1F649F6627B00DD4
:10483000A11D661F829F2227B00DA11D621F739FBD
:10484000B00DA11D621F839FA00D611D221F749FCB
:104850003327A00D611D231F849F600D211D822F12
:10486000762F6A2F11249F5750408AF0E1F0882359
:104870004AF0EE0FFF1FBB1F661F771F881F915066
:104880005040A9F79E3F510570F05CCFA6CF5F3F27
:10489000ECF3983EDCF3869577956795B795F79599
:1048A000E7959F5FC1F7FE2B880F911D9695879521
:1048B00097F908950E94CD24A59F900DB49F900D67
:1048C000A49F800D911D11240895B7FF0C945A24C4
:1048D0000E945A24821B930B0895A1E21A2EAA1B50
:1048E000BB1BFD010DC0AA1FBB1FEE1FFF1FA217A0
:1048F000B307E407F50720F0A21BB30BE40BF50B9D
:10490000661F771F881F991F1A9469F76095709525
:10491000809590959B01AC01BD01CF010895052EB6
:1049200097FB16F4009407D057FD0DD00E946D241C
:1049300007FC09D07EF490958095709561957F4F26
:104940008F4F9F4F089550954095309521953F4F3B
:104950004F4F5F4F08952A88398848885F846E8456
:104960007D848C849B84AA84B984C884DF80EE8093
:10497000FD800C811B81AA81B981CE0FD11D0FB69C
:10498000F894DEBF0FBECDBFED01089569279627CD
:1049900069277827872778270895A29FB001B39FBA
:1049A000C001A39F01D0B29F700D811D1124911DE4
:1049B0000895EE0FFF1F0590F491E02D0994F894EF
:0249C000FFCF27
:1049C20000006B04200001000000722E706E642E45
:1049D200736500DEADBEEFFEED0100040020282A63
:1049E2001A1615353D3F3B20006970206672616ED4
:1049F20020646863703A290064686370207376618A
:104A020072617220656A2E2053617474657220731C
:104A120074617469736B2069702E00543A200041EE
:104A22006E736C7574656E2E00474554202F736546
:104A3200747374617420485454502F312E310048DD
:104A42006F73743A20722E706E642E736500557304
:104A520065722D4167656E743A2041726475696EA4
:104A62006F45746865726E657400436F6E6E656340
:104A720074696F6E3A20636C6F73650053746F7064
:104A8200706172206B6C69656E742E005374617272
:104A9200746172207374797270726F6772616D20C3
:104AA2006F63682074657374617220656666656BF6
:104AB200746C6167656E2070612072656C616572ED
:104AC2002E2E2E004F4B004B702C204B692C204B6E
:104AD200643A20005469643B204F757470757420E9
:104AE20028302D323030293B205265663B20523B24
:104AF20020543B206C617374496E7075743B206C5A
:104B02006173744572726F723B206C6173744F757E
:104B1200747075743B20703B20693B20643B0049F4
:104B2200503A20003C6C6F673E003C2F6C6F673E32
:104B3200004E79747420616E726F70000000000084
:104B4200DB09E30B7609A5098909C9090000000000
:104B5200590B00000000DA0D5D0E520E370E0F0EDB
:104B6200F00D620F7B0E330E1F0FFB0E070E0000BF
:104B72000000E5117012E11146120D12FB11F6123E
:104B820092128A1245138612A7122712C611CD114C
:0A4B9200DD1157495A6E65740000EA
:00000001FF
