:100000000C9465000C948D000C948D000C948D0064
:100010000C948D000C948D000C948D000C948D002C
:100020000C948D000C948D000C948D000C948D001C
:100030000C948D000C948D000C948D000C948D000C
:100040000C9443090C948D000C945F0B0C949B0B47
:100050000C948D000C948D000C948D000C948D00EC
:100060000C948D000C948D0000000007000201002C
:100070000003040600000000000000000102040864
:100080001020408001020408102001020408102002
:10009000040404040404040402020202020203032E
:1000A0000303030300000000250028002B000000CC
:1000B0000000240027002A005904A008560C120D45
:1000C000F412DD14CB165B20632311241FBECFEF87
:1000D000D8E0DEBFCDBF13E0A0E0B1E0ECE2F2E596
:1000E00002C005900D92A233B107D9F714E0A2E344
:1000F000B3E001C01D92A53CB107E1F710E0CAECE6
:10010000D0E004C02297FE010E941029C83BD1070D
:10011000C9F70E94210D0C9415260C9400000F9332
:100120001F93FC017183608355834483338322834F
:1001300012861386148615861186108616861783F6
:1001400006831F910F910895FC01718360830895C8
:10015000FC01808191810895FC018085918508953D
:10016000CB01BA0123E333EF4BE454E40E94582659
:1001700026E636E64EEF50E40E94C1260E9429276B
:100180006A30710524F06B35710524F405C06AE00E
:1001900070E002C06AE570E0CB010895EF92FF9233
:1001A0000F931F93CF93DF93EC018E810E9422095E
:1001B000BC01882777FD8095982F0E945C272AE054
:1001C00038E240EA5BE30E9410289B01AC0160E04A
:1001D00070E080EA90E40E94C12620E030E040E830
:1001E0005FE30E94582620E030E44CE156E40E9490
:1001F00010287B018C0120E030E048E454E47F2D9E
:10020000912F0E94BD2687FD0CC020E030E844ED10
:1002100054E46E2D7F2D802F912F0E940C281816EC
:100220001CF481E08E8701C01E866E2D7F2D802FED
:10023000912FDF91CF911F910F91FF90EF90089533
:10024000CF93DF93EC010E94CE00AB01BC014A8743
:100250005B876C877D87CE010E94B0009987888775
:10026000DF91CF910895FC0186850895AF92CF92DA
:10027000EF92FF920F931F93CF93DF93CDB7DEB72B
:100280002B970FB6F894DEBF0FBECDBF9AE0EEE11C
:10029000F1E0DE01119601900D929A95E1F781E06F
:1002A00090E08C0F9D1F680F791FFB01F080F4FA1E
:1002B000662760F9822F4B870E948C0AF2FA662724
:1002C00060F98E2D0E948C0A6F2D61708A2D0E941C
:1002D0008C0AF5FA662760F94B85842F0E948C0AF8
:1002E000F3FA662760F9802F0E948C0AF1FA6627DC
:1002F00060F98C2D2B960FB6F894DEBF0FBECDBFE4
:10030000DF91CF911F910F91FF90EF90CF90AF9021
:100310000C948C0ACF93DF93EC01688179814AE0D9
:1003200050E084ED93E00E94AA0E68E271E084ED53
:1003300093E00E949E0D4A855B856C857D8522E059
:1003400030E084ED93E00E945B0F68E271E084EDA1
:1003500093E00E949E0D688579854AE050E084ED27
:1003600093E00E94AA0E68E271E084ED93E0DF91D1
:10037000CF910C949E0DAF92BF92CF92DF92EF92ED
:10038000FF920F931F93CF93DF93CDB7DEB72D97D7
:100390000FB6F894DEBF0FBECDBF6C015B0169EEF6
:1003A00072E0FC0174836383FA0182819381A481EA
:1003B000B581F60185839683A783B08772876187AD
:1003C000F9014281538164817581F6014387548725
:1003D00065877687C60143960E940112F601B282B4
:1003E000A182108B0787F28AE18A1082CE010196E2
:1003F0000E9401122D960FB6F894DEBF0FBECDBF3E
:10040000DF91CF911F910F91FF90EF90DF90CF90F0
:10041000BF90AF9008950F931F93CF93DF93CDB705
:10042000DEB762970FB6F894DEBF0FBECDBF8C016A
:10043000FC016181728187E894E00E9414130197A6
:10044000A1F46BE271E084ED93E00E949E0D67E8F9
:1004500074E0CE010D960E94BB14BE01635F7F4F16
:1004600084ED93E00E94DB0D23C089EE92E09A8335
:100470008983F80143855485658576854B835C8344
:100480006D837E8398878F834581568167817085D0
:1004900049875A876B877C87618172819E012F5FB4
:1004A0003F4FAE01495F5F4F87E894E00E946414BC
:1004B00068EE73E080E090E00E94C90962960FB692
:1004C000F894DEBF0FBECDBFDF91CF911F910F918A
:1004D00008950F931F93CF93DF93EC018C010D5E72
:1004E0001F4FC8010E94201281110AC088818823F1
:1004F00039F0C801DF91CF911F910F910C944412F4
:10050000DF91CF911F910F9108954F925F926F925B
:100510007F928F929F92AF92BF92CF92DF92EF9293
:10052000FF920F931F93CF93DF936C014B015A01FE
:1005300028013901EC016396FC01418952896785E4
:100540007089CE010E94A011892B09F45EC06AE374
:1005500071E084ED93E00E949E0D64EF71E080E015
:1005600090E00E94C9096BE471E0CE010E949E0DEB
:100570004AE050E0B401CE010E94AA0E6EE571E09F
:10058000CE010E949E0DB501CE010E94680D65E668
:1005900071E0CE010E949E0D22E030E0B301A20185
:1005A000CE010E945B0F6EE671E0CE010E949E0DAF
:1005B0004AE050E0B701CE010E94AA0E65ED71E05D
:1005C000CE010E94C70D6AE771E0CE010E949E0D28
:1005D000F60167857089CE010E949E0DCE010E94B2
:1005E000B10D61E871E0CE010E94C70D6AE971E0CA
:1005F000CE010E94C70DCE010E94B10D6CEA71E0E0
:1006000084ED93E00E94C70D03C0C6010E940B0257
:1006100068EC70E080E090E00E94C909CE010E9481
:100620004412CE010E942012F6018083DF91CF9107
:100630001F910F91FF90EF90DF90CF90BF90AF9000
:100640009F908F907F906F905F904F9008959F92B2
:10065000AF92BF92CF92DF92EF92FF920F931F93D0
:10066000CF93DF93CDB7DEB72F970FB6F894DEBFE9
:100670000FBECDBF6C017B015E0188E0A80EB11CEE
:1006800069E371E0C5010E94CE0F69E371E0CE011C
:1006900001960E94CE0F87010D5E1F4FC8010E9478
:1006A0001511F7014189528967857089C8010E9437
:1006B000A011892BD1F16FEA71E084ED93E00E94E3
:1006C0009E0D64EF71E080E090E00E94C90965EC46
:1006D00071E0C8010E94C70D6AE771E0C8010E947D
:1006E0009E0DF70167857089C8010E949E0DC801A3
:1006F0000E94B10D6FED71E0C8010E94C70D6AE95B
:1007000071E0C8010E94C70DC8010E94B10D6CEADA
:1007100071E084ED93E00E94C70D68EE73E080E025
:1007200090E00E94C909912C0CC0C8010E9444129B
:10073000C7010E940B0260E070E0C6010E94CE0F6C
:1007400031C0C8010E947711892BA1F0C8010E9415
:100750005C11282F8B3719F0992049F002C0992499
:100760009394622FC5012F870E9452102F852D3739
:1007700009F4912CC8010E947711892B11F7C80147
:100780000E9420128111DDCFC8010E944412C801CD
:100790000E942012F7018083BE01685F7F4FC6016F
:1007A0000E940210CE0101960E945D0FCE010896B4
:1007B0000E945D0FC6012F960FB6F894DEBF0FBEE4
:1007C000CDBFDF91CF911F910F91FF90EF90DF9000
:1007D000CF90BF90AF909F900895AF92BF92CF926D
:1007E000DF92EF92FF920F931F93CF93DF93CDB7DA
:1007F000DEB727970FB6F894DEBF0FBECDBF6C01F2
:100800008B01BA01C8010E94B6107C016BEF71E048
:10081000CE0101960E94CE0FA7014C5F5F4FBE0133
:100820006F5F7F4FC8010E9498107C01CE01019636
:100830000E945D0F6DEF71E0CE0101960E94CE0F18
:10084000A701BE016F5F7F4FC8010E9498107C0115
:10085000CE0101960E945D0F8FEFE81AF80A6DEF46
:1008600071E0CE0101960E94CE0FA701BE016F5F1D
:100870007F4FC8010E9498105C01CE0101960E9432
:100880005D0F9501A701B801C6010E94BA10C6010B
:1008900027960FB6F894DEBF0FBECDBFDF91CF9184
:1008A0001F910F91FF90EF90DF90CF90BF90AF908E
:1008B00008950F9300E020E040E060E082E393E0E1
:1008C0000E94EB0C0F910895CF92DF92EF92FF926E
:1008D0000F931F93CF93DF93EC01488359836A836F
:1008E0007B830C831D832E833F83C886D986EA864B
:1008F000FB860E948D096CA37DA38EA39FA3DF912D
:10090000CF911F910F91FF90EF90DF90CF900895BE
:10091000CF93DF93EC01CB01BA010E9429277FA777
:100920006EA7DF91CF910895CF93DF93EC01CB01B8
:10093000BA010E9429277DA76CA7DF91CF91089566
:10094000FC0166A577A5882777FD8095982F0E94E2
:100950005C270895FC0164A575A5882777FD80951F
:10096000982F0E945C2708952F923F924F925F929A
:100970006F927F928F929F92AF92BF92CF92DF92AF
:10098000EF92FF920F931F93CF93DF93CDB7DEB714
:1009900064970FB6F894DEBF0FBECDBF9C8B8B8BD8
:1009A0006A017B01280139010E948D094B015C011C
:1009B000EB89FC8984A195A1A6A1B7A1A501940109
:1009C000281B390B4A0B5B0BDA01C901883C9F4A93
:1009D000A105B105E8F46FEF71E084ED93E00E94AA
:1009E0009E0D84ED93E00E94B10DAB89BC89909679
:1009F000BC91B983EB89FC89F1A1FA83AB89BC89ED
:100A00009296BC91BB83EB89FC89F3A1FC8345C121
:100A100068E172E084ED93E00E949E0D84ED93E026
:100A20000E94B10DA7019601C301B2010E94582690
:100A30006D837E838F839887AB89BC8998962D912F
:100A40003D914D915C919B970E9459261B018C0111
:100A5000862F932DA02FB12FEB89FC8980A791A71A
:100A6000A2A7B3A766A577A5882777FD8095982FBD
:100A70000E945C2769877A878B879C8769837A8342
:100A80008B839C83762F6A85982F8C85272F362F12
:100A9000492F582F622D732D802F912F0E940C28E3
:100AA00018167CF459854A853B852C85852F942F13
:100AB000A32FB22FEB89FC8980A791A7A2A7B3A788
:100AC0001EC0AB89BC899C966D917C919D978827AF
:100AD00077FD8095982F0E945C272B013C019B019C
:100AE000AC01622D732D802F912F0E94BD2687FFB0
:100AF00006C0EB89FC8940A651A662A673A6AB8905
:100B0000BC8998962D913D914D915C919B972D8735
:100B10003E874F87588B5C962D913D914D915C910E
:100B20005F97C701B6010E945826362E272E898B63
:100B30009A8BEB89FC892081318142815381BD816F
:100B4000AE811F8108856B2F7A2F812F902F0E94F5
:100B500010282B013C01AB89BC8914962D913D9145
:100B60004D915C9117976D857E858F8598890E9440
:100B700010289B01AC01C301B2010E9459262B0130
:100B80003C01EB89FC892085318542855385D10163
:100B900019890A896B2F7A2F812F902F0E94102894
:100BA0009B01AC01C301B2010E9458263B018C019C
:100BB00079856A859B858C85272F362F492F582F5D
:100BC000662D772D802F912F0E940C28181624F166
:100BD000AB89BC899C966D917C919D97882777FD08
:100BE0008095982F0E945C2769837A838B839C83EE
:100BF000762F6A81982F8C81272F362F492F582FD7
:100C0000662D772D802F912F0E94BD2687FD04C071
:100C100069827A820B831C83EB89FC89C48ED58E12
:100C2000E68EF78E5D814E813F812885852F942F3A
:100C3000A32FB22F808F918FA28FB38F59814A81BA
:100C40003B812C81852F942FA32FB22F80A391A3BA
:100C5000A2A3B3A35D814E813F812885852F942F68
:100C6000A32FB22F80AB91ABA2ABB3AB2D853E854A
:100C70004F85588924AB35AB46AB57ABA1013989B9
:100C80002A89852F922DA32FB22F80AF91AFA2AFCB
:100C9000B3AF84A295A2A6A2B7A259814A813B8193
:100CA0002C81652F742F832F922F64960FB6F894A2
:100CB000DEBF0FBECDBFDF91CF911F910F91FF908F
:100CC000EF90DF90CF90BF90AF909F908F907F90EC
:100CD0006F905F904F903F902F900895FC0164A11A
:100CE00075A186A197A10895CF93DF93EC014C8D58
:100CF0005D8D6E8D7F8D22E030E084ED93E00E946B
:100D00005B0F68E271E084ED93E00E949E0D488DD8
:100D1000598D6A8D7B8D22E030E084ED93E00E9456
:100D20005B0F68E271E084ED93E00E949E0D48A1A4
:100D300059A16AA17BA122E030E084ED93E00E94FA
:100D40005B0F68E271E084ED93E00E949E0D48A97C
:100D500059A96AA97BA922E030E084ED93E00E94C2
:100D60005B0F68E271E084ED93E00E949E0D4CA958
:100D70005DA96EA97FA922E030E084ED93E00E9496
:100D80005B0F68E271E084ED93E00E949E0D48AD38
:100D900059AD6AAD7BAD22E030E084ED93E00E9476
:100DA0005B0F68E271E084ED93E0DF91CF910C94EA
:100DB0009E0D61E082E00E94540A61E083E00E949F
:100DC000540A61E084E00E94540A61E085E00E94D8
:100DD000540A61E086E00E94540A61E087E00E94C4
:100DE000540A61E089E00E94540A61E088E00E94B0
:100DF000540A40E050E0BA0184E693E00E94940473
:100E000040E050E068E473E484E693E00E948804E4
:100E100040E855E260E070E084ED93E00E94D60B7C
:100E200062E372E084ED93E00E94C70D68E472E033
:100E300084ED93E00E949E0D84ED93E00E94B10D3D
:100E400088E393E00C940B024F925F926F927F9233
:100E50008F929F92AF92BF92CF92DF92EF92FF92CA
:100E60000F931F93CF93DF93CDB7DEB769970FB67C
:100E7000F894DEBF0FBECDBF80EA93E00E94200150
:100E800080EA93E00E94AC005C0180EA93E00E945B
:100E9000A800BC01882777FD8095982F0E945C27C9
:100EA0006B017C01B501882777FD8095982F0E9402
:100EB0005C27AB01BC019701860184E693E00E94A8
:100EC000B4042B013C0184E693E00E94A0044B0192
:100ED0005C0184E693E00E94AA046E8B7F8B888F6E
:100EE000998F20E030E040E251E4C301B2010E945A
:100EF00059266B017C012E893F89488D598DC5018A
:100F0000B4010E9458269B01AC0160E070E080E1D2
:100F100091E40E94C1269B01AC01C701B6010E9469
:100F200010280E9429274B0183E0A82EB12C92E0C3
:100F3000C92ED12C25E0E22EF12C04E010E027E0B0
:100F400030E046E050E080EA93E00E94360163E939
:100F500072E084ED93E00E949E0D84E693E00E948F
:100F60006E06AB01BC012AE030E084ED93E00E9404
:100F70004B0E68E271E084ED93E00E949E0D22E04A
:100F800030E0B301A20184ED93E00E945B0F68E2C0
:100F900071E084ED93E00E949E0D80EA93E00E9450
:100FA0008A0184E693E00E94740669E972E084EDA8
:100FB00093E00E949E0D84ED93E00E94B10D80EAC3
:100FC00093E00E943301882331F061E089E00E94C0
:100FD0008C0A60E005C060E089E00E948C0A61E054
:100FE00088E00E948C0A88E393E00E9469020E94D4
:100FF0008D09C090C103D090C203E090C303F0906C
:10100000C4036C197D098E099F0961367A4E8105EA
:10101000910508F478C060EA72E0CE0101960E9462
:10102000CE0F68E373E0CE0108960E942703AE015D
:101030004F5F5F4FBE01685F7F4FCE010F960E94EA
:10104000ED03CE0108960E945D0FCE0101960E942D
:101050005D0F65EA72E0CE010F960E94651088234D
:1010600049F06CE370E080EA93E00E94A4006AEA31
:1010700072E010C06DEB72E0CE010F960E94651019
:10108000882369F06EE170E080EA93E00E94A4009A
:1010900062EC72E084ED93E00E94C70D06C065EA41
:1010A00072E0CE010F960E940C1068EC70E080E0B8
:1010B00090E00E94C909BE01615F7F4FCE01019699
:1010C0000E94021080EA93E00E94AC007401930138
:1010D0008201AE014F5F5F4FBC0188E393E00E9445
:1010E0008502CE0101960E945D0F0E948D096093DA
:1010F000C1037093C2038093C3039093C403CE01D2
:101100000F960E945D0F60E177E280E090E00E9420
:10111000C90969960FB6F894DEBF0FBECDBFDF9147
:10112000CF911F910F91FF90EF90DF90CF90BF90E4
:10113000AF909F908F907F906F905F904F900895A9
:10114000CF92DF92EF92FF920F931F93CF93DF9393
:10115000CDB7DEB72C970FB6F894DEBF0FBECDBF6C
:1011600000E020E040E060E085EC93E00E94EB0CC2
:101170000EE010E02DE030E04CE050E06CE370E079
:1011800080EA93E00E948F00C12CD12CE12C3FE338
:10119000F32E9701860140E050E060EA70E484E6B7
:1011A00093E00E94640402E321E048EA60EC8EE5EB
:1011B00093E00E94EB0C0BE127EC43E463EC88E541
:1011C00093E00E94EB0CE0901001F090110129EEE9
:1011D00032E038872F8380915A0390915B03A0916E
:1011E0005C03B0915D0389879A87AB87BC873A839C
:1011F00029838091600390916103A0916203B09173
:1012000063038B839C83AD83BE8302E111E09E0167
:10121000295F3F4FAE014F5F5F4F6AE071E088E3A7
:1012200093E00E94BB012C960FB6F894DEBF0FBE70
:10123000CDBFDF91CF911F910F91FF90EF90DF9085
:10124000CF9008958E3008F08E50877020911B014A
:1012500040E4249F90011124822B80937C00809194
:101260007A00806480937A0080917A0086FDFCCFBA
:101270002091780030917900932F80E0AC01422BCF
:101280009A01C90108951F920F920FB60F9211246F
:101290002F933F938F939F93AF93BF938091CB03F3
:1012A0009091CC03A091CD03B091CE033091D303A4
:1012B000232F2D5F2D3720F40196A11DB11D05C0F0
:1012C000232F2A570296A11DB11D2093D30380938B
:1012D000CB039093CC03A093CD03B093CE03809126
:1012E000CF039091D003A091D103B091D203019686
:1012F000A11DB11D8093CF039093D003A093D10380
:10130000B093D203BF91AF919F918F913F912F9155
:101310000F900FBE0F901F9018950F931F938FB7CC
:10132000F8940091CB031091CC032091CD03309120
:10133000CE038FBFB801C9011F910F9108950F937C
:101340001F939FB7F8940091CF031091D003209181
:10135000D1033091D20386B5A89B06C08F3F21F000
:101360000F5F1F4F2F4F3F4F9FBF322F212F102F47
:101370000027080F111D211D311D42E0000F111F14
:10138000221F331F4A95D1F7B801C9011F910F9150
:101390000895CF92DF92EF92FF92CF93DF936B018C
:1013A0007C010E949F09EB010EC00E949F096C1BEB
:1013B0007D0B683E734038F081E0C81AD108E1081F
:1013C000F108C851DC4FC114D104E104F10469F7FC
:1013D000DF91CF91FF90EF90DF90CF9008957894B8
:1013E00084B5826084BD84B5816084BD85B582602A
:1013F00085BD85B5816085BDEEE6F0E080818160C8
:101400008083E1E8F0E010828081826080838081C7
:1014100081608083E0E8F0E0808181608083E1EB9F
:10142000F0E0808184608083E0EBF0E08081816087
:101430008083EAE7F0E0808184608083808182603D
:101440008083808181608083808180688083109226
:10145000C1000895833069F028F48130A1F0823012
:1014600011F514C08630B1F08730C1F08430D9F462
:1014700004C0809180008F7703C0809180008F7DB1
:1014800080938000089584B58F7702C084B58F7DE6
:1014900084BD08958091B0008F7703C08091B00023
:1014A0008F7D8093B0000895CF93DF9390E0FC018F
:1014B000E458FF4F4491FC01E057FF4F849188238B
:1014C00041F190E0880F991FFC01E255FF4F2591F3
:1014D0003491D9018C559F4FFC0185919491C82F6F
:1014E000D92F9FB7F8948C91611106C04095842341
:1014F0008C938881842308C0623041F4242F209586
:1015000082238C938881842B888302C0842B8C93C4
:101510009FBFDF91CF9108950F931F93CF93DF93D8
:101520001F92CDB7DEB7282F30E0F901E859FF4F01
:101530008491F901E458FF4F1491F901E057FF4FEE
:1015400004910023D1F0882321F069830E942A0AA4
:101550006981E02FF0E0EE0FFF1FEC55FF4F859102
:101560009491DC019FB7F8948C91611103C01095A0
:10157000812301C0812B8C939FBF0F90DF91CF916E
:101580001F910F910895FC0184859585FC01E05C15
:10159000FF4F20813181FC01EE5BFF4F8081918103
:1015A000281B390B2F733327C9010895FC0184854B
:1015B0009585FC01E05CFF4F40815181FC01EE5BB1
:1015C000FF4F208131814217530741F00190F08194
:1015D000E02DE80FF91F208130E002C02FEF3FEF30
:1015E000C9010895FC0184859585FC01E05CFF4FED
:1015F00040815181FC01EE5BFF4F20813181421718
:10160000530781F0A081B181A80FB91F8C9120816F
:1016100031812F5F3F4F2F73332731832083282F52
:1016200030E002C02FEF3FEFC9010895FC0186852D
:101630009785FC01E05CFF4FDC01AE5BBF4F408152
:1016400051812D913C91119742175307C1F708958D
:10165000CF93DF93FC0186859785DC01A05CBF4FAB
:101660002D913C9111972F5F3F4F2F733327EC0142
:10167000CE5BDF4F4881598124173507D9F30D9090
:10168000BC91A02DA80FB91F6C93A685B785A05C4F
:10169000BF4F11963C932E93A689B7892C9181E078
:1016A00090E0058C02C0880F991F0A94E2F7282B5E
:1016B0002C9381E090E0DF91CF91089508951F92DF
:1016C0000F920FB60F9211242F933F934F938F9346
:1016D0009F93EF93FF934091C60080917704909180
:1016E000780401968F7399272091790430917A04B8
:1016F0008217930759F0E0917704F0917804E95C40
:10170000FB4F40839093780480937704FF91EF918F
:101710009F918F914F913F912F910F900FBE0F90FE
:101720001F90189584ED93E00E94C30A892B11F055
:101730000C945E0B08951F920F920FB60F92112416
:101740002F933F938F939F93EF93FF9320913304B5
:10175000309134048091350490913604281739076C
:1017600031F48091C1008F7D8093C10014C0E0915D
:101770003504F0913604ED50FC4F20818091350402
:101780009091360401968F73992790933604809335
:1017900035042093C600FF91EF919F918F913F9167
:1017A0002F910F900FBE0F901F901895CF92DF9240
:1017B000EF92FF92CF93DF93EC016A017B01411519
:1017C00081EE580761057105F9F0EC89FD8981E02A
:1017D00090E00E8C02C0880F991F0A94E2F7808374
:1017E00060E079E08DE390E0A70196010E948628F1
:1017F000215031094109510956954795379527954B
:10180000211580E1380798F0EC89FD89108260E8A5
:1018100074E88EE190E0A70196010E94862821508D
:101820003109410951095695479537952795E8891A
:10183000F9893083EA89FB892083EE89FF89408119
:1018400081E090E09C010A8C02C0220F331F0A94B1
:10185000E2F7422B4083EE89FF8940819C010B8C8B
:1018600002C0220F331F0A94E2F7422B4083EE8915
:10187000FF8940819C010C8C02C0220F331F0A9407
:10188000E2F7422B4083EE89FF8920810D8C02C054
:10189000880F991F0A94E2F7809582238083DF9155
:1018A000CF91FF90EF90DF90CF9008951092D703E3
:1018B0001092D60388EE93E0A0E0B0E08093D803C6
:1018C0009093D903A093DA03B093DB0389ED92E000
:1018D0009093D5038093D40387E394E09093E1033E
:1018E0008093E00383EF93E09093E3038093E2031C
:1018F00085EC90E09093E5038093E40384EC90E022
:101900009093E7038093E60380EC90E09093E903E3
:101910008093E80381EC90E09093EB038093EA03DB
:1019200086EC90E09093ED038093EC0384E0809349
:10193000EE0383E08093EF0387E08093F00385E07C
:101940008093F10381E08093F2030895AF92BF92F8
:10195000CF92DF92EF92FF920F931F93CF93DF937B
:101960006C017B01C0E0D0E000E010E0F601EC0F7C
:10197000FD1F4AE050E06281C7010E94580E5C01E1
:101980006EE2C7010E94A00D8A0D9B1D080F191F52
:101990002196C330D10551F74AE050E0F601658148
:1019A000C7010E94580E080F191FC801DF91CF917F
:1019B0001F910F91FF90EF90DF90CF90BF90AF906D
:1019C000089529EE32E0FC013183208312821382D4
:1019D0001482158208950F93FC0189EE92E09183A1
:1019E000808362834383248305830F91089529EEC6
:1019F00032E0FC0131832083FB014081518162810F
:101A00007381FC0142835383648375830895FC01D1
:101A1000DB014D915D916D917C9142835383648391
:101A20007583089589EE92E090937C0480937B0403
:101A300010927D0410927E0410927F041092800414
:101A400008950E94EF090E94D906C2E9DBE00E94D6
:101A500024072097E1F30E94920BF9CF0C94B8234E
:101A6000CF92DF92EF92FF920F931F93CF93DF936A
:101A70006C01EB017A01E60EF71E00E010E00BC0EE
:101A80006991D601ED91FC910190F081E02DC601A4
:101A90000995080F191FCE15DF0591F7C801DF91D1
:101AA000CF911F910F91FF90EF90DF90CF9008950D
:101AB000DB010D900020E9F7AD0141505109461BB3
:101AC000570BDC01ED91FC910280F381E02D09942C
:101AD000AF92BF92CF92DF92EF92FF920F931F933C
:101AE000CF93DF937C016B0100E010E0C0E0D0E019
:101AF00011C0D701ED91FC91A080B180B801C60161
:101B00000E948710682FC701F5010995C80FD91FDA
:101B10000F5F1F4FD60114968D919C911597081752
:101B2000190738F3CE01DF91CF911F910F91FF90EC
:101B3000EF90DF90CF90BF90AF9008950C94580D28
:101B4000DC01ED91FC910190F081E02D0994DB0125
:101B5000ED91FC9111970190F081E02DBC01CD0138
:101B600009940F931F93CF93DF93EC016DE00E94D4
:101B7000A00D8C016AE0CE010E94A00D9C01200FF7
:101B8000311FC901DF91CF911F910F9108950F93DC
:101B90001F93CF93DF93EC010E94580D8C01CE016F
:101BA0000E94B10D9801280F391FC901DF91CF9113
:101BB0001F910F9108950F931F93CF93DF93EC0123
:101BC0000E94A70D8C01CE010E94B10D9C01200F37
:101BD000311FC901DF91CF911F910F9108954F924D
:101BE0005F926F927F929F92AF92BF92CF92DF925D
:101BF000EF92FF920F931F93CF93DF93CDB7DEB792
:101C0000A1970FB6F894DEBF0FBECDBF5C016A018D
:101C10007B01922E19A281E0821710F08AE0982EA3
:101C20008E010F5D1F4F492C512C612C712CC70167
:101C3000B601A30192010E9486288C2D929E8019E4
:101C40001124015011098A3014F4805D01C0895CAF
:101C5000F801808369017A01C114D104E104F1041F
:101C600031F7B801C5010E94580DA1960FB6F8943E
:101C7000DEBF0FBECDBFDF91CF911F910F91FF90BF
:101C8000EF90DF90CF90BF90AF909F907F906F903C
:101C90005F904F9008952115310541F4DC01ED91DD
:101CA000FC910190F081E02D642F09940C94EF0DCC
:101CB0009A01462F50E060E070E00C944B0ECF92FA
:101CC000DF92EF92FF920F931F93CF93DF93EC017C
:101CD0006A017B012115310579F4E881F9810190D0
:101CE000F081E02D642FDF91CF911F910F91FF9034
:101CF000EF90DF90CF9009942A30310519F477FDE9
:101D00000EC02AE0B701A601CE01DF91CF911F914D
:101D10000F91FF90EF90DF90CF900C94EF0D6DE25C
:101D20000E94A00D8C0144275527BA014C195D096A
:101D30006E097F092AE0CE010E94EF0D080F191FDE
:101D4000C801DF91CF911F910F91FF90EF90DF902D
:101D5000CF9008959A01AB01662757FD6095762FC5
:101D60000C945F0E7F928F929F92AF92BF92CF9210
:101D7000DF92EF92FF920F931F93CF93DF938C012B
:101D80004A015B01F22E20E030E0A901C501B40157
:101D90000E94BD2687FF0AC06DE2C8010E94A00D07
:101DA000EC01B7FAB094B7F8B09402C0C0E0D0E04C
:101DB000E12C60E070E080E09FE307C020E030E0CD
:101DC00040E251E40E94C126E394EF10F7CF262FA2
:101DD000372F482F592FC501B4010E945926762E5E
:101DE000872E982EA92E0E942E27B62EC72ED82ECB
:101DF000E92E0E945A279B01AC01672D782D892D71
:101E00009A2D0E945826A62E972E882E792E2AE0EB
:101E10004B2D5C2D6D2D7E2DC8010E94EF0DC80F3E
:101E2000D91FFF20B9F163EC71E0C8010E94580D81
:101E3000C80FD91F2FC020E030E040E251E46A2DE6
:101E4000792D882D972D0E941028762EC72ED82EFA
:101E5000E92E0E9429274B01AA2497FCA094BA2CB2
:101E60002AE030E0B501A401C8010E945F0EC80F4E
:101E7000D91FC501B4010E945C279B01AC01672DED
:101E80007C2D8D2D9E2D0E945826A62E972E882EB5
:101E9000792EFA94F110CFCFCE01DF91CF911F911F
:101EA0000F91FF90EF90DF90CF90BF90AF909F90F9
:101EB0008F907F9008950C94B20EFC0180819181E7
:101EC0000C945324CF93DF93EC0188819981009780
:101ED00011F00E945324198218821D821C821B82D9
:101EE0001A82DF91CF9108950F931F93CF93DF93C1
:101EF000EC018B016F5F7F4F888199810E944D2596
:101F0000009731F0998388831B830A8381E001C0A5
:101F100080E0DF91CF911F910F910895CF93DF93D0
:101F2000EC0188819981892B31F08A819B81861708
:101F3000970708F00CC0CE010E94740F882349F067
:101F40008C819D81892B19F4E881F981108281E0CF
:101F500001C080E0DF91CF910895EF92FF920F933F
:101F60001F93CF93DF93EC017B018A01BA010E949A
:101F70008E0F811104C0CE010E94620F07C01D8325
:101F80000C83B701888199810E943726CE01DF91A9
:101F9000CF911F910F91FF90EF900895DC01119662
:101FA0001C921E9213961C921E92129715961C92CA
:101FB0001E92149716961C926115710559F0DB015B
:101FC0000D900020E9F7AD0141505109461B570B18
:101FD0000C94AD0F0895CF93DF93EC01FB018617AE
:101FE000970761F0608171816115710529F0448165
:101FF00055810E94AD0F02C00E94620FCE01DF9199
:10200000CF910895FC0111821082138212821582F1
:10201000148216820C94EB0FCF93DF93D82FC92F25
:102020006115710561F0DB010D900020E9F7AD014C
:1020300041505109461B570B0E94AD0F02C00E9430
:10204000620F8D2F9C2FDF91CF910895EF92FF9219
:102050000F931F93CF93DF93EC017B010C811D81C4
:102060006115710511F480E016C04115510591F01C
:10207000040F151FB8010E948E0F8823A1F3288139
:1020800039818C819D81B701820F931F0E94372671
:102090001D830C8381E0DF91CF911F910F91FF9001
:1020A000EF900895CF93DF9300D0CDB7DEB769836B
:1020B0001A8241E050E0BE016F5F7F4F0E94261000
:1020C0000F900F90DF91CF910895DC0114962D9120
:1020D0003C911597232B39F481E06115710511F0BE
:1020E000FB0108C00895DC01ED91FC9161157105BB
:1020F00029F481E09081992349F007C0CF010E9423
:102100002E269C0181E0232B09F080E00895FC013C
:10211000248135816217730748F48081918100978B
:1021200029F0FC01E60FF71F8081089580E00895F3
:10213000CF93DF93FC01848195814817590780F480
:10214000C081D181FB0160817181CE01840F951F17
:102150000E943E26009721F09C012C1B3D0B02C0E3
:102160002FEF3FEFC901DF91CF91089540E050E09C
:102170000C949810BF92CF92DF92EF92FF920F9340
:102180001F93CF93DF936C017B01EA018901241730
:10219000350720F48D2FE901042F182F69E371E032
:1021A000C6010E94CE0FD70114968D919C91159770
:1021B0008C179D07C8F08017910708F48C01D70190
:1021C000ED91FC911197E00FF11FB08010826D919D
:1021D0007C916C0F7D1FC6010E940C10D701ED9100
:1021E000FC91E00FF11FB082C601DF91CF911F91EA
:1021F0000F91FF90EF90DF90CF90BF900895CF9315
:10220000DF931F92CDB7DEB76983DC01ED91FC91BE
:102210000280F381E02D41E050E0BE016F5F7F4F0F
:1022200009950F90DF91CF910895CF93DF93EC0143
:1022300007C0E881F9810680F781E02DCE0109957C
:10224000E881F9810480F581E02DCE010995892B83
:1022500081F7DF91CF91089521E0FC0184858430DE
:1022600009F420E0822F08950F931F93CF93DF93FB
:102270001F92CDB7DEB78C01DC01ED91FC9104809B
:10228000F581E02D0995892B51F0BE016F5F7F4FDD
:10229000F80184850E943D18298130E002C02FEFAB
:1022A0003FEFC9010F90DF91CF911F910F910895DA
:1022B000FC0184850C94FE17CF93DF931F92CDB75A
:1022C000DEB741E050E0BE016F5F7F4FFC018485C7
:1022D0000E94FE17181619061CF4298130E002C06E
:1022E0002FEF3FEFC9010F90DF91CF910895FC01CF
:1022F0006485643021F085EA94E00C94111A80E042
:1023000090E008950F931F93CF93DF938C01EA0120
:10231000FC018485843019F481E090E007C00E94BC
:10232000AB17892B39F481E090E0F8019383828325
:10233000C0E0D0E0CE01DF91CF911F910F910895C1
:10234000CF92DF92EF92FF920F931F93CF93DF9381
:10235000CDB7DEB7E5970FB6F894DEBF0FBECDBFA1
:102360007C018B016A01CE0101960E94E10CCE0135
:1023700009960E945516CE01C0960E94E10C67E8AE
:1023800074E0CE018A960E94CD14BE01665D7F4F37
:10239000CE0101960E946620AE01405D5F4FB801FC
:1023A000CE0101960E94CA229C0181309105C9F498
:1023B000D701ED91FC910484F585E02D89EE92E042
:1023C0009DA38CA30AA91BA92CA93DA90EA31FA3F9
:1023D00028A739A7A601BE016C5D7F4FC7010995EB
:1023E0009C01C901E5960FB6F894DEBF0FBECDBFC4
:1023F000DF91CF911F910F91FF90EF90DF90CF90E1
:102400000895FC011382128248EE53E060E070E010
:1024100044835583668377838FEE92E09183808334
:1024200084E084870895FC018485843039F0382F56
:1024300020E0C9018D5F9B4F0C94641980E00895E2
:10244000CF93DF93EC018C858430D1F0CE010E94D4
:102450001312843181F0882371F0883161F08C315E
:1024600061F4E881F9810480F581E02DCE010995C0
:1024700021E0892B19F420E001C021E0822F01C066
:1024800080E0DF91CF910895CF92DF92EF92FF929B
:10249000CF93DF93EC018C85843091F10E94A417D7
:1024A0000E948D096B017C01CE010E9413128823CA
:1024B000D1F00E948D096C197D098E099F09683E33
:1024C000734081059105A8F00EC08C850E942017ED
:1024D000EC85F0E0EE0FFF1FE157FB4F11821082F9
:1024E00084E08C870DC0CE010E941312882381F3F3
:1024F000ECCF61E070E080E090E00E94C909D4CFA9
:10250000DF91CF91FF90EF90DF90CF900895AF9241
:10251000BF92CF92DF92EF92FF920F931F93CF93D0
:10252000DF93EC015B016A018C85843009F04EC0B9
:1025300093E0E92E94E0F92E00E010E0C7010E943C
:102540006419811102C00C870AC08831E1F38C3113
:10255000D1F30F5F1F4FF3940430110579F78C8589
:102560008430A1F120911C0130911D012F5F3F4F5C
:1025700009F002C020E034E030931D0120931C01DB
:1025800040911C0150911D0120E061E00E942E1736
:10259000B5016E5F7F4FA6018C850E946E1709C042
:1025A00061E070E080E090E00E94C909CE010E94E5
:1025B0001312811103C084E08C8708C0CE010E94F1
:1025C0001312873169F721E030E002C020E030E0EB
:1025D000C901DF91CF911F910F91FF90EF90DF9094
:1025E000CF90BF90AF9008950F9300E020E040E0BF
:1025F00060E081E894E00E94EB0C0F91089544E0C4
:1026000050E0BC0181E090E00C94351944E050E0CA
:10261000BC0185E090E00C94351944E050E0BC0129
:102620008FE090E00C943519AF92BF92CF92DF9279
:10263000EF92FF920F931F93CF93DF93CDB7DEB747
:102640006E970FB6F894DEBF0FBECDBF6C015B0175
:1026500082E690E00E942E0D8C0182E6F801119234
:102660008A95E9F7C801895B9F4F0E945516F601CC
:102670001783068385EA94E00E94F71846E050E04D
:10268000B50189E090E00E94351900E020E040E0CB
:1026900060E0CE0149960E94EB0CCE014B960E9461
:1026A0000D1310EAE12E1FE0F12E00E010E020E60D
:1026B0003AEE40E050E0B501F601868197810E9434
:1026C00016208C018130910589F5F60166817781AC
:1026D000CE0143960E942C1DCE0145960E940D13FB
:1026E000F60166817781CE010D960E94421DCE01D2
:1026F0000F960E94FF12F60166817781CE01079640
:102700000E94371DCE0109960E940613F6016681CC
:102710007781CE0101960E944D1D4B815C816D81B8
:102720007E81F6014283538364837583C8016E966C
:102730000FB6F894DEBF0FBECDBFDF91CF911F91D2
:102740000F91FF90EF90DF90CF90BF90AF900895E2
:102750008F929F92AF92BF92CF92DF92EF92FF92B1
:102760000F931F93CF93DF9300D0CDB7DEB74C010B
:102770006A01590185EA94E069837A830E94F71817
:1027800046E050E069817A8189E090E00E94351945
:10279000C60102960E940D13C80102960E94FF1204
:1027A000C70102960E940613F5014281538164819C
:1027B0007581F40142835383648375830F900F9076
:1027C000DF91CF911F910F91FF90EF90DF90CF900D
:1027D000BF90AF909F908F9008956F927F928F924D
:1027E0009F92AF92BF92CF92DF92EF92FF920F93A0
:1027F0001F93CF93DF93CDB7DEB76E970FB6F894E4
:10280000DEBF0FBECDBF6C015B017A01490138010B
:1028100000E02FEF4FEF6FEFCE0149960E94EB0CD7
:1028200049EE52E05A8349838B8D9C8DAD8DBE8DD0
:102830008B839C83AD83BE8358874F83F301828152
:102840009381A481B58189879A87AB87BC875E878E
:102850004D87F40182819381A481B5818F87988B04
:10286000A98BBA8B5C8B4B8BF701428153816481BE
:1028700075814D8B5E8B6F8B788FEE24E394F12CFA
:10288000EC0EFD1E8E01095F1F4F9E01235F3F4F1F
:10289000AE014D5E5F4FB501C6010E94A8136E9652
:1028A0000FB6F894DEBF0FBECDBFDF91CF911F9161
:1028B0000F91FF90EF90DF90CF90BF90AF909F90DF
:1028C0008F907F906F900895CF92DF92EF92FF925A
:1028D0000F931F93CF93DF93CDB7DEB768970FB6F3
:1028E000F894DEBF0FBECDBF6B017901DA011296FD
:1028F0004D915D916D917C9115974D8B5E8B6F8B9A
:10290000788FA9EEB2E0BA83A98321E0288F0D89E0
:102910001E892F89388D0B831C832D833E83B887B6
:10292000AF83F701028113812481358109871A87DA
:102930002B873C87BE87AD874F87588B698B7A8BF7
:102940008E010F5F1F4F9E01295F3F4FAE01435F16
:102950005F4FB6010E94ED1368960FB6F894DEBF84
:102960000FBECDBFDF91CF911F910F91FF90EF90E0
:10297000DF90CF900895CF93DF93EC010E94E10C9C
:10298000BE016E5F7F4F44E050E08FE090E00E9418
:102990005D1ACE01DF91CF91089529EE32E0FC015E
:1029A00031832083FB014281538164817581FC0165
:1029B000428353836483758308950F9300E020E07E
:1029C00040E060E087E994E00E94EB0C87E894E047
:1029D0000F910C94E10CDC01ED91FC91008CF18DD8
:1029E000E02D099429EE32E0FC0131832083FB01C4
:1029F0004189528963897489FC01428353836483CA
:102A000075830895FC01858996890895FC01818D5F
:102A1000928D0895CF93DF931F92CDB7DEB7698370
:102A2000DC01ED91FC910280F381E02D41E050E06A
:102A3000BE016F5F7F4F09950F90DF91CF91089591
:102A4000CF93DF93EC0107C0E881F9810680F7811D
:102A5000E02DCE010995898D9A8D892BA9F7DF91FB
:102A6000CF910895CF93DF931F92CDB7DEB7FC01CE
:102A7000218D328D232B49F0BE016F5F7F4F8485FE
:102A80000E943D18298130E002C02FEF3FEFC901BD
:102A90000F90DF91CF910895CF93DF93EC01898D53
:102AA0009A8D009719F42FEF3FEF11C0481759077F
:102AB00008F0AC018C850E94FE179C0118161906BF
:102AC00094F7898D9A8D821B930B9A8F898FC901F8
:102AD000DF91CF9108950F931F93CF93DF931F92B0
:102AE000CDB7DEB78C01FC01818D928D892B59F019
:102AF00041E050E0BE016F5F7F4F84850E94FE176A
:102B0000181619061CF02FEF3FEF08C0F801818D51
:102B1000928D0197928F818F298130E0C9010F90AA
:102B2000DF91CF911F910F910895CF93DF93EC0127
:102B30009A018F89988DAB01BC018C850E944B183E
:102B40009C018F89988D820F931F988F8F8BC9015D
:102B5000DF91CF910895FC0184850C94A718FC01A6
:102B6000108E178A6E5F7F4F84850C948118CF93E7
:102B7000DF93EC018C85843061F00E942017EC8596
:102B8000F0E0EE0FFF1FE157FB4F1182108284E04F
:102B90008C87DF91CF9108950F931F93CF93DF938D
:102BA000CDB7DEB728970FB6F894DEBF0FBECDBF06
:102BB0008C01DC01ED91FC910284F385E02D0995F7
:102BC000F801648585EA94E00E94111A892B29F1A5
:102BD00048E050E0BE016F5F7F4FD8011C968C919A
:102BE0000E94FE179C0118161906CCF4BE016F5FF7
:102BF0007F4FC8010F960E94070D9D8180E02E81B6
:102C0000820F911DF801968B858B3F8120E088858E
:102C1000280F311D328F218F02C020E030E0C90122
:102C200028960FB6F894DEBF0FBECDBFDF91CF91CF
:102C30001F910F910895CF92DF92EF92FF920F9321
:102C40001F93CF93DF93EC016B018C85843019F5D2
:102C500093E0E92E94E0F92E00E010E0C7010E9415
:102C60006419811102C00C8708C08831E1F30F5F3D
:102C70001F4FF3940430110589F78C85843059F087
:102C8000DE86CD861A8E198E20E0A60162E00E94B3
:102C90002E1781E001C080E0DF91CF911F910F914D
:102CA000FF90EF90DF90CF900895FC011382128285
:102CB00048EE53E060E070E0448355836683778399
:102CC0008BE093E09183808384E08487CF010F962B
:102CD0000C94E10CCF92DF92EF92FF920F931F932F
:102CE000CF93DF93CDB7DEB7E5970FB6F894DEBF8D
:102CF0000FBECDBF7C018B016A01CE0101960E94FF
:102D0000E10CCE0109960E945516CE01C0960E9494
:102D1000E10C67E874E0CE018A960E94CD14BE01F2
:102D2000665D7F4FCE0101960E946620AE01405D38
:102D30005F4FB801CE0101960E94CA229C018130EA
:102D40009105C9F4D701ED91FC910088F189E02D3E
:102D500089EE92E09DA38CA30AA91BA92CA93DA9E9
:102D60000EA31FA328A739A7A601BE016C5D7F4F44
:102D7000C70109959C01C901E5960FB6F894DEBF1D
:102D80000FBECDBFDF91CF911F910F91FF90EF90BC
:102D9000DF90CF9008950F9300E020E040E060E0E6
:102DA0008DE994E00E94EB0C0F910895382F20E0FC
:102DB00044E050E0C901845F9B4F0C943519282FE3
:102DC00030E02C5F3F4F922F8827860F971F0C947F
:102DD000641962E070E00C94DF16FB01282F30E0EC
:102DE0002C5F3F4F922F8827642F8E0F9F1F0C94CC
:102DF000D518462F62E070E00C94ED16CF93DF9368
:102E0000C82FD62F472F60E170E00E94ED164D2F9E
:102E100061E170E08C2FDF91CF910C94ED16CF9390
:102E2000DF93C82FD62F472F64E070E00E94ED1685
:102E30004D2F65E070E08C2FDF91CF910C94ED1653
:102E4000CF93C82F40E150E0682F85EA94E00E94BC
:102E5000151B6FEF8C2FCF910C94F916EF92FF9208
:102E60001F93CF93DF9300D0CDB7DEB7182F7A0131
:102E7000862F8150853048F5812F2A8369830E94EF
:102E800020172A816981422F462B60E070E0812F54
:102E90000E94ED16E114F10411F0B7010AC060912F
:102EA000A3047091A4046F5F7F4F7093A404609398
:102EB000A304812F0E940F1741E050E0612F85EAA3
:102EC00094E00E94151B81E001C080E00F900F90FC
:102ED000DF91CF911F91FF90EF9008951F93CF93B3
:102EE000DF93182FFB01EA0180818F3F51F481812C
:102EF0008F3F91F482818F3F79F483818F3F61F41A
:102F00001EC0811109C08181811106C08281811199
:102F100003C08381882399F0209789F0BF01812F16
:102F20000E94D616BE01812F0E94FE1644E050E09A
:102F3000612F85EA94E00E94151B81E001C080E0CA
:102F4000DF91CF911F91089548E050E0682F85EA06
:102F500094E00C94151BDF92EF92FF920F931F9356
:102F6000CF93DF93D82E8B01EA01413088E05807D8
:102F700010F0C0E0D8E06D2D85EA94E00E94411A7F
:102F80007C0163E070E08D2D0E94DF16873111F027
:102F90008C3121F4EC16FD0670F302C0C0E0D0E0E5
:102FA0009E01A8016D2D85EA94E00E94F21940E28D
:102FB00050E06D2D85EA94E00E94151B0DC063E082
:102FC00070E08D2D0E94DF16811106C08D2D0E94AC
:102FD0002017C0E0D0E009C08D2D0E94E91684FFC3
:102FE000EECF60E18D2D0E94F916CE01DF91CF91D9
:102FF0001F910F91FF90EF90DF900895DF92EF9275
:10300000FF920F931F93CF93DF93D82E7B018A01FA
:10301000682F85EA94E00E94111AEC01009771F480
:1030200063E070E08D2D0E94DF168431E9F0882383
:10303000D9F08C31C9F0CFEFDFEF16C008171907B0
:103040000CF4E8011C161D067CF400E09E01A701AB
:103050006D2D85EA94E00E94C51A40E450E06D2D84
:1030600085EA94E00E94151BCE01DF91CF911F915C
:103070000F91FF90EF90DF9008950F93AB0101E067
:1030800021E030E0682F85EA94E00E94C51A81E0D3
:1030900090E00F910895AF92BF92CF92DF92EF929E
:1030A000FF920F931F93CF93DF93B82E7B016A019A
:1030B000E901682F85EA94E00E94411A8C179D0768
:1030C00040F46B2D85EA94E00E94411AA82EC92F86
:1030D00002C0AC2ECD2F0A2D1C2F9601A7016B2DFF
:1030E00085EA94E00E9484198A2D9C2FDF91CF916C
:1030F0001F910F91FF90EF90DF90CF90BF90AF9016
:1031000008951F93CF93DF93182FFB01EA0180816D
:10311000811109C08181811106C08281811103C0A2
:103120008381882369F0209759F0BF01812F0E9485
:10313000D616BE01812F0E94FE1621E030E002C0AB
:1031400020E030E0C901DF91CF911F910895CF9326
:10315000C82F40E250E0682F85EA94E00E94151BDA
:103160000CC08C2F0E94E91683FF07C068E18C2FEA
:103170000E94F91620E030E00BC08C2F0E94E91667
:1031800084FFEFCF60E18C2F0E94F91621E030E040
:10319000C901CF9108958EBD0DB407FEFDCF8EB548
:1031A00008952A9808952A9A08951F93CF93DF933C
:1031B00000D0CDB7DEB7182F6A8399830E94D1184B
:1031C00080EF0E94CB189981892F0E94CB18812F04
:1031D0000E94CB186A81862F0E94CB180E94D318B8
:1031E00081E00F900F90DF91CF911F910895CF93C1
:1031F000DF93EC016CE271E080E090E00E94C9098D
:103200000E94251B229A60E880E090E00E94D51879
:1032100065E58BE190E00E94D51865E58AE190E0D4
:103220000E94D51880E090E49983888380E090E63E
:103230009987888780E098E49B838A8380E098E67A
:103240009B878A8780E090E59D838C8380E090E770
:103250009D878C8780E098E59F838E8380E098E748
:103260009F878E87DF91CF910895CF92DF92EF9263
:10327000FF920F931F93CF93DF93EC017A018B01A1
:103280006A01C80ED91E13C00E94D11880EF0E9497
:10329000CB188D2F0E94CB188C2F0E94CB18219613
:1032A000F80181918F010E94CB180E94D318CC1590
:1032B000DD0551F7C701DF91CF911F910F91FF906D
:1032C000EF90DF90CF9008951F93CF93DF931F92DD
:1032D000CDB7DEB7182F99830E94D1188FE00E94D6
:1032E000CB189981892F0E94CB18812F0E94CB186F
:1032F00080E00E94CB1889830E94D31889810F90A7
:10330000DF91CF911F9108956F927F929F92AF921C
:10331000BF92CF92DF92EF92FF920F931F93CF93C2
:10332000DF931F92CDB7DEB7F82E962E3A015901E2
:1033300064E270E0892D99830E94DF16E82E65E231
:1033400070E0892D0E94DF16DE2CC12CC82AC60C25
:10335000D71C960137706F2C9981792E690C711CDE
:10336000690C711CD301ED91FC91E20FF31FC901AF
:10337000800F911F81309840A0F0E12C48E0F42E9E
:10338000E21AF30AA701B501CF010E943519A8017D
:103390004E195F09B5016E0D7F1DF301808191818A
:1033A00003C0A801B501CF010E9435190C0D1D1DE8
:1033B000412F64E270E0892D0E94ED16402F65E2F6
:1033C00070E0892D0F90DF91CF911F910F91FF90A9
:1033D000EF90DF90CF90BF90AF909F907F906F90D5
:1033E0000C94ED160F931F9389019A0140E050E071
:1033F0000E9484191F910F910895CF93DF93C82FD6
:1034000066E270E00E94DF16D82F67E270E08C2F32
:103410000E94DF163D2F20E0282BC901DF91CF91BC
:103420000895FF920F931F93CF93DF93F62EC0E082
:10343000D0E08F2D0E94FD198C01009721F08F2D77
:103440000E94FD19EC01C017D10799F7CE01DF9159
:10345000CF911F910F91FF900895CF93DF93C82FC5
:1034600060E270E00E94DF16D82F61E270E08C2FDE
:103470000E94DF163D2F20E0282BC901DF91CF915C
:103480000895FF920F931F93CF93DF93F62EC0E022
:10349000D0E08F2D0E942D1A8C01009721F08F2DE6
:1034A0000E942D1AEC01C017D10799F7CE01DF91C8
:1034B000CF911F910F91FF900895CF92DF92EF92DD
:1034C000FF920F931F93CF93DF93EC017A018B014F
:1034D0006A01C80ED91E14C00E94D1188FE00E9444
:1034E000CB188D2F0E94CB188C2F0E94CB182196C1
:1034F00080E00E94CB18F80181938F010E94D318BD
:10350000CC15DD0549F7C701DF91CF911F910F91D0
:10351000FF90EF90DF90CF900895CF92DF92EF92DF
:10352000FF920F931F93CF93DF9369015770EC01C4
:10353000C60FD11DC60FD11D289688819981840F91
:10354000951F9801240F351F2130384090F0E12C51
:1035500068E0F62EE41AF50AA701B6010E945D1A8A
:10356000A8014E195F09B6016E0D7F1D88819981F2
:1035700002C0A801B601DF91CF911F910F91FF907A
:10358000EF90DF90CF900C945D1A8F929F92AF9244
:10359000BF92CF92DF92EF92FF920F931F93CF9340
:1035A000DF936C01962E5A01E901802E68E270E0EB
:1035B000892D0E94DF16F82E69E270E0892D0E94A5
:1035C000DF16FF2DE0E07F01E82A8E019501A701BB
:1035D000692DC6010E948D1A81101AC0CE0DDF1D03
:1035E0004D2F68E270E0892D0E94ED164C2F69E2A4
:1035F00070E0892DDF91CF911F910F91FF90EF9097
:10360000DF90CF90BF90AF909F908F900C94ED166D
:10361000DF91CF911F910F91FF90EF90DF90CF90AE
:10362000BF90AF909F908F900895CF93C62F61E089
:1036300070E08C2F0E94ED1661E070E08C2F0E94EC
:10364000DF168111F9CFCF91089561E08DE00E94DE
:10365000540A61E08BE00E94540A61E08AE00E9413
:10366000540A60E08DE00E948C0A60E08BE00E94CA
:103670008C0A61E08AE00E948C0A8CB580618CBD66
:103680008CB580648CBD08950E96FC0184E1DF0149
:103690001D928A95E9F708952F923F924F925F927B
:1036A0006F927F928F929F92AF92BF92CF92DF9252
:1036B000EF92FF920F931F93CF93DF93CDB7DEB7B7
:1036C000E4970FB6F894DEBF0FBECDBF7C012A0190
:1036D0003B0169010E948D094B015C018701095B77
:1036E0001F4F12C00E948D09681979098A099B0928
:1036F000461657066806790608F477C162E370E05B
:1037000080E090E00E94C909C8010E94CC151816FB
:10371000190644F742E250E0BE016F5F7F4FC801D7
:103720000E944C158981823009F05AC1F8018589BF
:1037300096898334910509F45BC152C1F7018081F8
:103740009181A281B38188169906AA06BB0648F02A
:1037500084819581A681B78188159905AA05BB0545
:1037600028F4C8010E942015512C5CC189899A89CE
:10377000AB89BC89F70186879787A08BB18B8EECCC
:10378000C82ED12CC8010E946B15F1E0CF1AD108C8
:10379000C9F7512CC70182969AA789A7F701B69657
:1037A000FCA7EBA7C7018A969EA78DA7F701E85A49
:1037B000FF4FF8ABEFA76701FAE1CF0ED11CC701AD
:1037C00042969AAB89AB570196E1A90EB11CF7015D
:1037D0007E96FCABEBABFCC0C8010E946B1583333B
:1037E000910509F4CCC07CF48130910549F124F4B1
:1037F000892B09F4EDC0DDC08330910549F10697AE
:1038000009F0D7C040C08A33910509F48CC03CF45C
:103810008533910569F0C69709F0CBC050C08B3352
:10382000910509F496C08F3F910509F0C2C0D0C040
:10383000C8010E946B15C8010E946B15582EC8C0A4
:10384000C8010E946B1544E050E069A97AA947C0FD
:10385000C8010E946B153C0144E050E0B501C8016D
:103860000E944C15212C312C7724F4E06F1A71083A
:1038700006C0C8010E946B158FEF281A380A26145B
:103880003704BCF3A5C0C8010E946B153C0144E09D
:1038900050E06BA97CA9C8010E944C15212C312C49
:1038A000772494E0691A710806C0C8010E946B155C
:1038B000EFEF2E1A3E0A26143704BCF389C0C80164
:1038C0000E946B15482EF701828D938DA48DB58DC6
:1038D000892B8A2B8B2B39F444E050E0B601C801C8
:1038E0000E944C1575C0EFA5F8A960807180828098
:1038F0009380B601CE0183960E94F70C8DA19EA104
:10390000AFA1B8A586159705A805B90529F3212CFF
:10391000312C06C0C8010E946B15FFEF2F1A3F0A19
:103920004210F8CF55C0C8010E946B1544E050E02A
:103930006BA57CA5C8010E944C15F70166A177A173
:1039400080A591A50E94FB2866A377A380A791A7D5
:103950003FC0C8010E946B1544E050E06DA57EA5F4
:10396000C8010E944C15F70162A573A584A595A511
:103970000E94FB2862A773A784A795A729C0C80146
:103980000E946B1544E050E069A57AA5C8010E9429
:103990004C15F70162A173A184A195A10E94FB2897
:1039A00062A373A384A395A366A777A780AB91AB0B
:1039B0000FC0C8010E946B15382E612C712C06C0F7
:1039C000C8010E946B15FFEF6F1A7F0A3610F8CFFF
:1039D000C8010E940615181619060CF4FDCE01C088
:1039E000512CC8010E9420151DC055245A941AC09C
:1039F0006D817E818F8198850E94FB284B015C013F
:103A0000F6016083718382839383B701685F7F4F80
:103A100046E050E0CE014D960E941826009709F42A
:103A20008DCE9FCE852DE4960FB6F894DEBF0FBEE7
:103A3000CDBFDF91CF911F910F91FF90EF90DF905D
:103A4000CF90BF90AF909F908F907F906F905F903E
:103A50004F903F902F900895CF93DF93EC01625FDA
:103A60007F4F0E94F70CCE01DF91CF910895CF9345
:103A7000DF93EC016E5E7F4F0E94F70CCE01DF9169
:103A8000CF910895CF93DF93EC016A5E7F4F0E9440
:103A9000F70CCE01DF91CF910895CF93DF93EC0126
:103AA000625E7F4F0E94F70CCE01DF91CF910895A7
:103AB00080E3FB0180833296842F82958F7090E1A2
:103AC000899F401911244A3014F4405D01C0495CBB
:103AD0004293482F8111F0CF08956F927F928F9279
:103AE0009F92AF92BF92CF92DF92EF92FF920F938D
:103AF0001F93CF93DF93CDB7DEB7AC970FB6F89493
:103B0000DEBF0FBECDBF7C01862EB42EA52E30E2C7
:103B1000932ECC24C394D12CCC0EDD1EF601292D7E
:103B200011922A95E9F70FEF2FEF4FEF6FEFCE01CC
:103B300087960E94EB0C89EE92E09AA389A389A54F
:103B40009AA5ABA5BCA58BA39CA3ADA3BEA38701DF
:103B5000095B1F4F43E450E0BE016F5D7F4FC8011A
:103B60000E94AF15019609F4C1C081E089838A8360
:103B700096E0792E7B821C82F701648175818681B3
:103B800097810E94FB286D837E838F839887A98607
:103B9000BA8680E890E09C878B874CE150E0B601C4
:103BA000C8010E949515F601292D11922A95E9F771
:103BB000570188E0A80EB11CF501D60101900D92C5
:103BC0007A94E1F740E150E0B601C8010E949515F2
:103BD000F60111929A94E9F726E0622E712C40E2E8
:103BE00050E0B601C8010E949515F1E06F1A710806
:103BF000B1F783E6898392E89A8393E59B838C836C
:103C000085E38D8381E08E838F829DE3988797E0A3
:103C100099878A8786E0F501DE011B9601900D9257
:103C20008A95E1F78CE0898B8A8B6BE273E0CE0199
:103C300043960E943726F7014385BE01675E7F4F9A
:103C4000C7010E94581DF7014485BE01655E7F4F84
:103C5000C7010E94581DF7014585BE01635E7F4F75
:103C6000C7010E94581D4EE150E0B601C8010E94F4
:103C70009515F3E08F121EC082E3898384E08A8366
:103C8000F70196859B8397859C8390899D83918975
:103C90009E8396E39F838887828D8987838D8A8719
:103CA000848D8B87858D8C874CE050E0B601C801F0
:103CB0000E94951587E3898386E08A8391E09B8340
:103CC00093E09C838D838FE08E838AE38F838BE3E5
:103CD00088878FEF898749E050E0BE016F5F7F4F93
:103CE000C8010E949515C8010E94AB15AC960FB68D
:103CF000F894DEBF0FBECDBFDF91CF911F910F9122
:103D0000FF90EF90DF90CF90BF90AF909F908F90FB
:103D10007F906F9008952F923F924F925F926F9293
:103D20007F928F929F92AF92BF92CF92DF92EF924B
:103D3000FF920F931F93CF93DF93CDB7DEB72897F2
:103D40000FB6F894DEBF0FBECDBF8C0120ED37E07B
:103D500040E050E061E070E080E090E00E949A2353
:103D6000D80114966C93149715967C931597169614
:103D70008C93169717969C9317976C9311967C9338
:103D8000119712968C93129713969C93F801E95B06
:103D9000FF4FFE83ED8364E470E0CF010E941B16A9
:103DA000882309F427C10E948D096B017C01812CB5
:103DB000912C312C5801F6E4AF0EB11CC801CE96FF
:103DC00098878F8338EE432E33E0532E612C712C6D
:103DD00042E0242EF9C081111FC0F8018481958131
:103DE000A681B7810196A11DB11D84839583A68309
:103DF000B7830E948D096C197D098E099F09A30163
:103E000092010E948628A90161E0C8010E946D1DEF
:103E100081E0D5018C93BCC08430F1F4F801848139
:103E20009581A681B7810196A11DB11D84839583DB
:103E3000A683B7830E948D096C197D098E099F099D
:103E4000A30192010E948628A90163E0C8010E9493
:103E50006D1DD5012C929CC0813059F5EF81F885FC
:103E600040815181628173819E012F5F3F4FC80164
:103E70000E944C1B382EF2E08F138AC089819A81F0
:103E8000AB81BC81F80184839583A683B7830E94AC
:103E90008D096C197D098E099F09A30192010E9469
:103EA0008628A90163E0C8010E946D1DD5013C92DE
:103EB00075C0823009F06CC0EF81F8854081518176
:103EC000628173819E012F5F3F4FC8010E944C1B8E
:103ED000382EF5E08F1356C0E3E0D501EC93F801DE
:103EE00082A193A1A4A1B5A1892B8A2B8B2B41F48C
:103EF00084E893E0A0E0B0E082A393A3A4A3B5A3D9
:103F0000F80186A197A1A0A5B1A5892B8A2B8B2B9F
:103F100061F482A193A1A4A1B5A1B695A7959795A7
:103F2000879586A397A3A0A7B1A7D8019A964D918C
:103F30005D916D917C919D9796968D919D910D903F
:103F4000BC91A02D452B462B472B59F4AC01BD014C
:103F5000440F551F661F771FF80142A753A764A798
:103F600075A7F80186A797A7A0ABB1AB82A593A5CB
:103F7000A4A5B5A582AB93ABA4ABB5AB88248394C1
:103F8000912C0CC0F6E08F1303C0D5011C9206C023
:103F9000BFEF3B1203C0F5011082312CF1E08F1608
:103FA000910491F00E948D096C197D098E099F0979
:103FB000D801DA962D913D914D915C91DD972617B0
:103FC00037074807590728F0F5018081833009F049
:103FD00002CF8D819E810E94B715F8018481958161
:103FE000A681B7810196A11DB11D84839583A68307
:103FF000B78302C0812C912CC40128960FB6F89487
:10400000DEBF0FBECDBFDF91CF911F910F91FF900B
:10401000EF90DF90CF90BF90AF909F908F907F9068
:104020006F905F904F903F902F900895CF92DF92C6
:10403000EF92FF920F931F93CF93DF93EC016B01ED
:104040001AA21BA21CA21DA21EA21FA218A619A67C
:104050001AA61BA61CA61DA61EAA1FAA18AE19AE3C
:104060002AAF3BAF4CAF5DAFFC01FE96E082F18220
:10407000028313838C01085F1F4F86E0F8011192C1
:104080008A95E9F7CE010E94441B86E0F601D8012B
:1040900001900D928A95E1F7FE01EA5BFF4F1082D5
:1040A000CE01DF91CF911F910F91FF90EF90DF90A4
:1040B000CF900C948B1E0F9300E020E040E060E076
:1040C00085EB94E00E94EB0C0F910895FB01428177
:1040D000538164817581FC014283538364837583BA
:1040E000178216820895CF93FB01DB018D91811118
:1040F000FDCF80E090E020E030E0CAE01BC08F3FC1
:10410000910509F064F5DA01A20FB31F12968C93A2
:104110002F5F3F4F80E090E00DC0DC01CA9FC001DF
:10412000CB9F900D1124772767FD7095605371091F
:10413000860F971F6191662321F02430310594F09A
:104140000EC08F3F910509F054F4243031053CF442
:10415000FA01E20FF31F828321E030E006C020E085
:1041600030E003C06E32C9F6CACFC901CF910895BD
:10417000AF92BF92CF92DF92EF92FF920F931F9375
:10418000CF93DF9300D01F92CDB7DEB77C015B01E8
:104190000E948D09F701778366838701085F1F4FAF
:1041A000B7016A5F7F4F42E050E0C8010E94951559
:1041B00081E090E09A83898342E050E0BE016F5F26
:1041C0007F4FC8010E94951580E091E09A83898312
:1041D00042E050E0BE016F5F7F4FC8010E9495151D
:1041E0001A82198242E050E0BE016F5F7F4FC80122
:1041F0000E94951542E050E0BE016F5F7F4FC801FD
:104200000E94951542E050E0BE016F5F7F4FC801EC
:104210000E9495157501650121C0F6017F0181910C
:10422000811107C05701AC18BD081A141B0424F0F3
:1042300011C08E3299F7F6CFAB8241E050E0BE015B
:104240006D5F7F4FC8010E949515A501B601C80199
:104250000E9495156701FFEFCF1ADF0AF7018081F1
:104260008111DBCF1B8241E050E0BE016D5F7F4FCB
:10427000C8010E949515E12CFF24F394FA82E9828B
:1042800042E050E0BE016F5F7F4FC8010E9495156C
:10429000FA82E98242E050E0BE016F5F7F4FC801C1
:1042A0000E94951581E090E00F900F900F90DF91A4
:1042B000CF911F910F91FF90EF90DF90CF90BF9023
:1042C000AF9008954F925F926F927F928F929F92DC
:1042D000AF92BF92CF92DF92EF92FF920F931F9314
:1042E000CF93DF93CDB7DEB763970FB6F894DEBFF9
:1042F0000FBECDBF7C015B016A010E948D092B01BD
:104300003C018701085F1F4F4501A12CB12C12C051
:104310000E948D0964197509860997098616970602
:10432000A806B90608F40FC162E370E080E090E0EF
:104330000E94C909C8010E94CC151816190644F735
:10434000F7014281538164817581818D928DA38DA6
:10435000B48D481759076A077B0709F0F7C0858DA8
:10436000968DC59709F0F2C0F7C04CE050E0BE0151
:104370006F5F7F4FC8010E944C158B819C819827ED
:10438000892798279A8B898BF70146815781298144
:104390003A814217530711F497FD06C0C8010E94E5
:1043A00020152CEF3FEFDEC08F709270892B31F01B
:1043B000C8010E9420152BEF3FEFD4C08F80988456
:1043C0009824892498248114910479F5C8010E94C5
:1043D00020152AEF3FEFC6C041E050E0BE01635F09
:1043E0007F4FC8010E944C158D85811107C08D85B6
:1043F0008111F2CF0AC0C8010E946B158D85982FDC
:1044000091509D878111F7CFF2CFC8010E946B15A3
:10441000C8010E946B15C8010E946B15C8010E945B
:104420006B15FFEFEF1AFF0A02C0E12CF12C8D8112
:104430009E81982789279827E816F90668F2A12C0B
:10444000B12C41E050E0BE016D5E7F4FC8010E947B
:104450004C158B89982F907C69F4811104C00EC093
:10446000C8010E946B158B89982F91509B8B8111ED
:10447000F7CF04C0C8010E946B151B8A8B8981117C
:10448000E0CF42E050E0BE01615F7F4FC8010E9473
:104490004C1542E050E0BE01635F7F4FC8010E94AF
:1044A0004C15C8010E946B15C8010E946B15C8010C
:1044B0000E946B15C8010E946B1542E050E0BE01DE
:1044C0006F5E7F4FC8010E944C158F8598898115BA
:1044D000914011F58D859E8581159140E9F489897A
:1044E0009A898115944031F0C8010E94201527EF68
:1044F0003FEF38C0B6016E5F7F4F44E050E0C80127
:104500000E944C1521E030E02DC0C8010E946B15BF
:104510002FEFE21AF20A02C0E12CF12C89899A8964
:10452000982789279827E816F90678F38FEFA81AB5
:10453000B80AA814B90409F084CFC8010E94201554
:1045400026EF3FEF0FC02FEF3FEF0CC02EEF3FEFF6
:1045500009C02DEF3FEF06C0C8010E9406150C9759
:10456000C4F303CFC90163960FB6F894DEBF0FBE44
:10457000CDBFDF91CF911F910F91FF90EF90DF9012
:10458000CF90BF90AF909F908F907F906F905F90F3
:104590004F9008958F929F92AF92BF92CF92DF92E9
:1045A000EF92FF920F931F93CF93DF9300D000D031
:1045B00000D0CDB7DEB78C015B016A010E94732089
:1045C000892B09F051C0F8014281538164817581C2
:1045D0008091BD049091BE04A091BF04B091C0042D
:1045E000481759076A077B0709F442C00E948D09E2
:1045F0007801F8E0EF0EF11C6F7077278827992774
:104600007C5FC7010E941B168130B9F589EE92E0EC
:104610009A838983F80182819381A481B5818B83F8
:104620009C83AD83BE8345E350E0BE016F5F7F4F47
:10463000C7010E94AF15892B19F4A12CB12C10C011
:10464000B501C8010E94B820892BB9F3C7010E94A7
:10465000AB15892BA9F4F1CFFFEFAF16BF0699F088
:10466000C7010E94B7151BC0AA24A394B12C17C080
:104670002EEFA22EBB24BA9412C0A12CB12C0FC0D5
:1046800093E0892E912CA60168E873E1C8010E948D
:1046900062215C0121E0821A910811F3DDCFC5018E
:1046A00026960FB6F894DEBF0FBECDBFDF91CF9137
:1046B0001F910F91FF90EF90DF90CF90BF90AF9040
:1046C0009F908F9008950F9300E020E040E060E01D
:1046D0008BEB94E00E94EB0C0F9108950F931F93C6
:1046E000CF93DF9300D000D0CDB7DEB79B01AC01F4
:1046F000611571058105910579F069833A834B83D2
:104700005C830E943F2529813A814B815C810E9414
:10471000A8288B019C0103C000E010E09801B801BB
:10472000C9010F900F900F900F90DF91CF911F91C3
:104730000F910895CF92DF92EF92FF926B017C016F
:10474000621773078407950764F4CA01B9016C19ED
:104750007D098E099F090E946E23C60ED71EE81E92
:10476000F91EB601C701FF90EF90DF90CF9008953A
:104770000F931F93CF93DF938230910510F482E063
:1047800090E0E091C304F091C40420E030E0C0E088
:10479000D0E023C04081518148175907A8F048173D
:1047A000590761F482819381209719F09B838A8352
:1047B0002EC09093C4048093C30429C021153105F1
:1047C00029F04217530710F0A90102C0BE01DF0112
:1047D00002811381EF019A01F8013097D9F6211572
:1047E000310509F1281B390B2430310590F412965C
:1047F0008D919C9113976115710521F0FB019383B5
:10480000828304C09093C4048093C304FD01329654
:1048100044C0FD01E20FF31F8193919322503109AF
:104820002D933C933AC02091C1043091C204232BB4
:1048300041F420910201309103013093C20420938E
:10484000C10420910001309101012115310541F48D
:104850002DB73EB74091040150910501241B350B43
:10486000E091C104F091C204E217F307A0F42E1BFB
:104870003F0B2817390778F0AC014E5F5F4F2417C4
:10488000350748F04E0F5F1F5093C2044093C10498
:104890008193919302C0E0E0F0E0CF01DF91CF91EE
:1048A0001F910F910895EF92FF920F931F93CF9353
:1048B000DF93009709F48EC0DC01129713961C92C7
:1048C0001E921297E090C304F090C404E114F10426
:1048D00089F42D913C911197280F391F8091C104C3
:1048E0009091C2048217930789F5B093C204A093F4
:1048F000C10470C0E70120E030E001C0EA01CA173E
:10490000DB0738F44A815B819E0141155105B1F7FF
:1049100022C0AC0142505109FA01D383C283008105
:104920001181BC01600F711F6C177D0761F46881F4
:104930007981600F711F6E5F7F4F718360836A8121
:104940007B81738362832115310529F4B093C404FC
:10495000A093C3043FC0F901B383A283E901499145
:104960005991C40FD51FAC17BD0771F4DC019E919E
:104970008E91840F951F02969183808312968D915C
:104980009C91139793838283A0E0B0E002C0D7018B
:104990007C01F701828193810097C9F7C7010296D4
:1049A00020813181820F931F2091C1043091C20474
:1049B0002817390779F4109729F41092C40410923B
:1049C000C30404C013961C921E921297F092C20464
:1049D000E092C104CDB7DEB7E6E00C94EC288F92EC
:1049E0009F92AF92BF92CF92DF92EF92FF92CF93BE
:1049F000DF93EC01688179818A819B816115710562
:104A00008105910521F464E279ED8BE597E02DE1D4
:104A100033EF41E050E00E94A82849015A019B0170
:104A2000AC01A7EAB1E40E9473286B017C01ACEEF3
:104A3000B4EFA50194010E948128C60ED71EE81E7E
:104A4000F91EF7FE06C081E0C81AD108E10880E827
:104A5000F80AC882D982EA82FB82E894F7F8B601A4
:104A6000C701DF91CF91FF90EF90DF90CF90BF9083
:104A7000AF909F908F9008950E94EF24089586E054
:104A800091E00E94EF24089560930601709307015E
:104A900080930801909309010895A0E0B0E0E3E558
:104AA000F5E20C94CA28EC01009729F4CB010E948E
:104AB000B823EC01B4C0DC01A60FB71FFC0132978C
:104AC000AE17BF0718F4C0E0D0E0A9C00081118183
:104AD00006171707B0F00530110508F4A0C0C8018B
:104AE00004978617970708F49AC002501109061B0D
:104AF000170B0D931D9371836083CD010E94532486
:104B00008EC06B01C01AD10A7C01E00EF11EE0914B
:104B1000C304F091C40420E030E080E090E048C09D
:104B2000EE15FF05D1F580809180540142E0A40E7E
:104B3000B11CAC14BD0488F17401EC18FD086701C8
:104B400022E0C20ED11C9E012250310945E0C4165C
:104B5000D10478F04281538113965C934E9312975F
:104B60001196FC92EE92F901718360833A2F2B2FFC
:104B700009C00E5F1F4F080D191DD9010D931C931D
:104B800032812381009721F0FC013283238347C0C7
:104B90003093C3042093C40442C0808191812817BC
:104BA000390708F49C0152814381CF01E52FF42F8E
:104BB000309709F0B5CF8091C1049091C2048E1551
:104BC0009F05F1F426173707D8F4809100019091E2
:104BD0000101009741F48DB79EB7209104013091F7
:104BE0000501821B930BA817B90708F06CCFB0938F
:104BF000C204A093C104FE013297718360830FC089
:104C0000CB010E94B8237C01009709F45CCFA80176
:104C1000BE010E942526CE010E945324E701CE0149
:104C2000CDB7DEB7ECE00C94E628F8940C94142988
:104C3000FB01DC0104C08D910190801921F44150E9
:104C40005040C8F7881B990B0895FB01DC0102C096
:104C500001900D9241505040D8F70895FB01DC01BE
:104C60008D91019080190110D9F3990B0895FB01E2
:104C7000DC0101900D920020E1F70895FB015191B4
:104C80005523A9F0BF01DC014D9145174111E1F712
:104C900059F4CD010190002049F04D91401541118A
:104CA000C9F3FB014111EFCF81E090E00197089536
:104CB0005058BB27AA270ED075C166D130F06BD1F2
:104CC00020F031F49F3F11F41EF45BC10EF4E09527
:104CD000E7FB51C1E92F77D180F3BA176207730759
:104CE0008407950718F071F49EF58FC10EF4E095D6
:104CF0000B2EBA2FA02D0B01B90190010C01CA0196
:104D0000A0011124FF27591B99F0593F50F4503E40
:104D100068F11A16F040A22F232F342F4427585F32
:104D2000F3CF469537952795A795F0405395C9F74A
:104D30007EF41F16BA0B620B730B840BBAF0915002
:104D4000A1F0FF0FBB1F661F771F881FC2F70EC0A1
:104D5000BA0F621F731F841F48F487957795679574
:104D6000B795F7959E3F08F0B3CF9395880F08F05D
:104D70009927EE0F979587950895D9D008F481E08B
:104D800008950CD00FC107D140F0FED030F021F4CF
:104D90005F3F19F0F0C0511139C1F3C014D198F33D
:104DA0009923C9F35523B1F3951B550BBB27AA27AC
:104DB00062177307840738F09F5F5F4F220F331F1E
:104DC000441FAA1FA9F333D00E2E3AF0E0E830D0EA
:104DD00091505040E695001CCAF729D0FE2F27D0ED
:104DE000660F771F881FBB1F261737074807AB07BB
:104DF000B0E809F0BB0B802DBF01FF2793585F4F30
:104E00002AF09E3F510568F0B6C000C15F3FECF349
:104E1000983EDCF3869577956795B795F7959F5FF4
:104E2000C9F7880F911D9695879597F90895E1E048
:104E3000660F771F881FBB1F621773078407BA07A7
:104E400020F0621B730B840BBA0BEE1F88F7E09502
:104E5000089504D06894B111D9C00895BCD088F0E9
:104E60009F5790F0B92F9927B751A0F0D1F0660F56
:104E7000771F881F991F1AF0BA95C9F712C0B13071
:104E800081F0C3D0B1E00895C0C0672F782F882784
:104E9000B85F39F0B93FCCF3869577956795B395B0
:104EA000D9F73EF490958095709561957F4F8F4F1F
:104EB0009F4F0895E89409C097FB3EF49095809524
:104EC000709561957F4F8F4F9F4F9923A9F0F92FD0
:104ED00096E9BB279395F695879577956795B7954E
:104EE000F111F8CFFAF4BB0F11F460FF1BC06F5F34
:104EF0007F4F8F4F9F4F16C0882311F096E911C046
:104F0000772321F09EE8872F762F05C0662371F066
:104F100096E8862F70E060E02AF09A95660F771F7A
:104F2000881FDAF7880F9695879597F90895990F56
:104F30000008550FAA0BE0E8FEEF16161706E80763
:104F4000F907C0F012161306E407F50798F0621B84
:104F5000730B840B950B39F40A2661F0232B242B59
:104F6000252B21F408950A2609F4A140A6958FEF78
:104F7000811D811D089597F99F6780E870E060E0CA
:104F800008959FEF80EC089500240A9416161706E2
:104F900018060906089500240A941216130614062A
:104FA00005060895092E0394000C11F4882352F08D
:104FB000BB0F40F4BF2B11F460FF04C06F5F7F4F45
:104FC0008F4F9F4F089557FD9058440F551F59F02C
:104FD0005F3F71F04795880F97FB991F61F09F3FE6
:104FE00079F087950895121613061406551FF2CF0F
:104FF0004695F1DF08C0161617061806991FF1CF5F
:1050000086957105610508940895E894BB27662785
:105010007727CB0197F908958ADF08F48FEF089579
:105020000BD0C0CFB1DF28F0B6DF18F0952309F020
:10503000A2CFA7CF1124EACFC6DFA0F3959FD1F36B
:10504000950F50E0551F629FF001729FBB27F00D36
:10505000B11D639FAA27F00DB11DAA1F649F66278B
:10506000B00DA11D661F829F2227B00DA11D621FDA
:10507000739FB00DA11D621F839FA00D611D221F94
:10508000749F3327A00D611D231F849F600D211D78
:10509000822F762F6A2F11249F5750408AF0E1F01B
:1050A00088234AF0EE0FFF1FBB1F661F771F881F64
:1050B00091505040A9F79E3F510570F05CCFA6CFAC
:1050C0005F3FECF3983EDCF3869577956795B7954F
:1050D000F795E7959F5FC1F7FE2B880F911D969579
:1050E000879597F908950E940229A59F900DB49F76
:1050F000900DA49F800D911D11240895B7FF0C946D
:1051000073280E947328821B930B0895A1E21A2E24
:10511000AA1BBB1BFD010DC0AA1FBB1FEE1FFF1F5B
:10512000A217B307E407F50720F0A21BB30BE40BAB
:10513000F50B661F771F881F991F1A9469F76095F2
:105140007095809590959B01AC01BD01CF010895AC
:10515000052E97FB16F4009407D057FD0DD00E9442
:10516000862807FC09D07EF490958095709561950E
:105170007F4F8F4F9F4F08955095409530952195C3
:105180003F4F4F4F5F4F08952F923F924F925F9244
:105190006F927F928F929F92AF92BF92CF92DF9247
:1051A000EF92FF920F931F93CF93DF93CDB7DEB7AC
:1051B000CA1BDB0B0FB6F894DEBF0FBECDBF099440
:1051C0002A88398848885F846E847D848C849B8497
:1051D000AA84B984C884DF80EE80FD800C811B81A5
:1051E000AA81B981CE0FD11D0FB6F894DEBF0FBED4
:1051F000CDBFED010895692796276927782787276E
:1052000078270895A29FB001B39FC001A39F01D04A
:10521000B29F700D811D1124911D0895EE0FFF1F87
:0C5220000590F491E02D0994F894FFCF64
:10522C000000C504200001000000DEADBEEFFEED65
:10523C005000722E706E642E736500010004002005
:10524C00282A1A1615353D3F3B200049502066721E
:10525C006F6D20444843503A200053656E64696E6C
:10526C00672073746174732E2E2E00474554202FC3
:10527C00736574737461742F74656D702F002F6D6A
:10528C006F64652F002F6F75747075742F002F6FFE
:10529C0075747075745265732F00486F73743A206F
:1052AC0000557365722D4167656E743A20467261C4
:1052BC006374616C697374696300436F6E6E6563CC
:1052CC0074696F6E3A20636C6F7365004F4B0052BC
:1052DC006563656976696E672073657474696E675A
:1052EC00732E2E2E00474554202F676574736574FA
:1052FC0074696E677320485454502F312E31005509
:10530C007365722D4167656E743A204172647569DC
:10531C006E6F45746865726E6574003A00220050B9
:10532C0049443A204E6F20636F6D707574617469D7
:10533C006F6E20646F6E65005049443A20436F6D68
:10534C00707574696E67206E65772076616C756513
:10535C0073004672616374616C6973746963207362
:10536C0074617274696E67005469643B204F757484
:10537C007075742028302D323030293B20526566F0
:10538C003B20523B20543B206C617374496E70750A
:10539C00743B206C6173744572726F723B206C614C
:1053AC0073744F75747075743B20703B20693B208F
:1053BC00643B003C6C6F673E003C2F6C6F673E009B
:1053CC006D6F646500686F6D650053657474696E0C
:1053DC00672074656D7020746F20363000617761C2
:1053EC00790053657474696E672074656D702074F0
:1053FC006F2033300000000000280B300DC30AF280
:10540C000AD60A160B00000000A60C00000000FFD4
:10541C0010821177115C11341115118712A01158DB
:10542C0011441220122C11000000000A15951506CB
:10543C00156B15321520151B16B715AF156A16AB63
:10544C0015CC154C15EB14F214021557495A6E6510
:02545C007400DA
:00000001FF
